{
	"fundMe/FundMe.sol": {
		"FundMe": {
			"abi": [
				{
					"inputs": [],
					"name": "fund",
					"outputs": [],
					"stateMutability": "payable",
					"type": "function"
				},
				{
					"inputs": [],
					"name": "getPrice",
					"outputs": [
						{
							"internalType": "int256",
							"name": "",
							"type": "int256"
						}
					],
					"stateMutability": "pure",
					"type": "function"
				},
				{
					"inputs": [],
					"name": "minUsd",
					"outputs": [
						{
							"internalType": "uint256",
							"name": "",
							"type": "uint256"
						}
					],
					"stateMutability": "view",
					"type": "function"
				}
			],
			"devdoc": {
				"kind": "dev",
				"methods": {},
				"version": 1
			},
			"evm": {
				"assembly": "    /* \"fundMe/FundMe.sol\":135:402  contract FundMe {... */\n  mstore(0x40, 0x80)\n  callvalue\n  dup1\n  iszero\n  tag_1\n  jumpi\n  0x00\n  dup1\n  revert\ntag_1:\n  pop\n  dataSize(sub_0)\n  dup1\n  dataOffset(sub_0)\n  0x00\n  codecopy\n  0x00\n  return\nstop\n\nsub_0: assembly {\n        /* \"fundMe/FundMe.sol\":135:402  contract FundMe {... */\n      mstore(0x40, 0x80)\n      jumpi(tag_1, lt(calldatasize, 0x04))\n      shr(0xe0, calldataload(0x00))\n      dup1\n      0x51b80e41\n      eq\n      tag_2\n      jumpi\n      dup1\n      0x98d5fdca\n      eq\n      tag_3\n      jumpi\n      dup1\n      0xb60d4288\n      eq\n      tag_4\n      jumpi\n    tag_1:\n      0x00\n      dup1\n      revert\n        /* \"fundMe/FundMe.sol\":158:177  uint public  minUsd */\n    tag_2:\n      callvalue\n      dup1\n      iszero\n      tag_5\n      jumpi\n      0x00\n      dup1\n      revert\n    tag_5:\n      pop\n      tag_6\n      tag_7\n      jump\t// in\n    tag_6:\n      mload(0x40)\n      tag_8\n      swap2\n      swap1\n      tag_9\n      jump\t// in\n    tag_8:\n      mload(0x40)\n      dup1\n      swap2\n      sub\n      swap1\n      return\n        /* \"fundMe/FundMe.sol\":342:398  function getPrice() public pure returns (int) {... */\n    tag_3:\n      callvalue\n      dup1\n      iszero\n      tag_10\n      jumpi\n      0x00\n      dup1\n      revert\n    tag_10:\n      pop\n      tag_11\n      tag_12\n      jump\t// in\n    tag_11:\n      mload(0x40)\n      tag_13\n      swap2\n      swap1\n      tag_14\n      jump\t// in\n    tag_13:\n      mload(0x40)\n      dup1\n      swap2\n      sub\n      swap1\n      return\n        /* \"fundMe/FundMe.sol\":230:336  function fund() public payable {... */\n    tag_4:\n      tag_15\n      tag_16\n      jump\t// in\n    tag_15:\n      stop\n        /* \"fundMe/FundMe.sol\":158:177  uint public  minUsd */\n    tag_7:\n      sload(0x00)\n      dup2\n      jump\t// out\n        /* \"fundMe/FundMe.sol\":342:398  function getPrice() public pure returns (int) {... */\n    tag_12:\n        /* \"fundMe/FundMe.sol\":383:386  int */\n      0x00\n        /* \"fundMe/FundMe.sol\":342:398  function getPrice() public pure returns (int) {... */\n      swap1\n      jump\t// out\n        /* \"fundMe/FundMe.sol\":230:336  function fund() public payable {... */\n    tag_16:\n        /* \"fundMe/FundMe.sol\":293:299  minUsd */\n      sload(0x00)\n        /* \"fundMe/FundMe.sol\":280:289  msg.value */\n      callvalue\n        /* \"fundMe/FundMe.sol\":280:299  msg.value >= minUsd */\n      lt\n      iszero\n        /* \"fundMe/FundMe.sol\":272:329  require(msg.value >= minUsd, \"Price is lower, send more\") */\n      tag_19\n      jumpi\n      mload(0x40)\n      0x08c379a000000000000000000000000000000000000000000000000000000000\n      dup2\n      mstore\n      0x04\n      add\n      tag_20\n      swap1\n      tag_21\n      jump\t// in\n    tag_20:\n      mload(0x40)\n      dup1\n      swap2\n      sub\n      swap1\n      revert\n    tag_19:\n        /* \"fundMe/FundMe.sol\":230:336  function fund() public payable {... */\n      jump\t// out\n        /* \"#utility.yul\":7:122   */\n    tag_23:\n        /* \"#utility.yul\":92:115   */\n      tag_25\n        /* \"#utility.yul\":109:114   */\n      dup2\n        /* \"#utility.yul\":92:115   */\n      tag_26\n      jump\t// in\n    tag_25:\n        /* \"#utility.yul\":87:90   */\n      dup3\n        /* \"#utility.yul\":80:116   */\n      mstore\n        /* \"#utility.yul\":7:122   */\n      pop\n      pop\n      jump\t// out\n        /* \"#utility.yul\":128:494   */\n    tag_27:\n        /* \"#utility.yul\":270:273   */\n      0x00\n        /* \"#utility.yul\":291:358   */\n      tag_29\n        /* \"#utility.yul\":355:357   */\n      0x19\n        /* \"#utility.yul\":350:353   */\n      dup4\n        /* \"#utility.yul\":291:358   */\n      tag_30\n      jump\t// in\n    tag_29:\n        /* \"#utility.yul\":284:358   */\n      swap2\n      pop\n        /* \"#utility.yul\":367:460   */\n      tag_31\n        /* \"#utility.yul\":456:459   */\n      dup3\n        /* \"#utility.yul\":367:460   */\n      tag_32\n      jump\t// in\n    tag_31:\n        /* \"#utility.yul\":485:487   */\n      0x20\n        /* \"#utility.yul\":480:483   */\n      dup3\n        /* \"#utility.yul\":476:488   */\n      add\n        /* \"#utility.yul\":469:488   */\n      swap1\n      pop\n        /* \"#utility.yul\":128:494   */\n      swap2\n      swap1\n      pop\n      jump\t// out\n        /* \"#utility.yul\":500:618   */\n    tag_33:\n        /* \"#utility.yul\":587:611   */\n      tag_35\n        /* \"#utility.yul\":605:610   */\n      dup2\n        /* \"#utility.yul\":587:611   */\n      tag_36\n      jump\t// in\n    tag_35:\n        /* \"#utility.yul\":582:585   */\n      dup3\n        /* \"#utility.yul\":575:612   */\n      mstore\n        /* \"#utility.yul\":500:618   */\n      pop\n      pop\n      jump\t// out\n        /* \"#utility.yul\":624:842   */\n    tag_14:\n        /* \"#utility.yul\":715:719   */\n      0x00\n        /* \"#utility.yul\":753:755   */\n      0x20\n        /* \"#utility.yul\":742:751   */\n      dup3\n        /* \"#utility.yul\":738:756   */\n      add\n        /* \"#utility.yul\":730:756   */\n      swap1\n      pop\n        /* \"#utility.yul\":766:835   */\n      tag_38\n        /* \"#utility.yul\":832:833   */\n      0x00\n        /* \"#utility.yul\":821:830   */\n      dup4\n        /* \"#utility.yul\":817:834   */\n      add\n        /* \"#utility.yul\":808:814   */\n      dup5\n        /* \"#utility.yul\":766:835   */\n      tag_23\n      jump\t// in\n    tag_38:\n        /* \"#utility.yul\":624:842   */\n      swap3\n      swap2\n      pop\n      pop\n      jump\t// out\n        /* \"#utility.yul\":848:1267   */\n    tag_21:\n        /* \"#utility.yul\":1014:1018   */\n      0x00\n        /* \"#utility.yul\":1052:1054   */\n      0x20\n        /* \"#utility.yul\":1041:1050   */\n      dup3\n        /* \"#utility.yul\":1037:1055   */\n      add\n        /* \"#utility.yul\":1029:1055   */\n      swap1\n      pop\n        /* \"#utility.yul\":1101:1110   */\n      dup2\n        /* \"#utility.yul\":1095:1099   */\n      dup2\n        /* \"#utility.yul\":1091:1111   */\n      sub\n        /* \"#utility.yul\":1087:1088   */\n      0x00\n        /* \"#utility.yul\":1076:1085   */\n      dup4\n        /* \"#utility.yul\":1072:1089   */\n      add\n        /* \"#utility.yul\":1065:1112   */\n      mstore\n        /* \"#utility.yul\":1129:1260   */\n      tag_40\n        /* \"#utility.yul\":1255:1259   */\n      dup2\n        /* \"#utility.yul\":1129:1260   */\n      tag_27\n      jump\t// in\n    tag_40:\n        /* \"#utility.yul\":1121:1260   */\n      swap1\n      pop\n        /* \"#utility.yul\":848:1267   */\n      swap2\n      swap1\n      pop\n      jump\t// out\n        /* \"#utility.yul\":1273:1495   */\n    tag_9:\n        /* \"#utility.yul\":1366:1370   */\n      0x00\n        /* \"#utility.yul\":1404:1406   */\n      0x20\n        /* \"#utility.yul\":1393:1402   */\n      dup3\n        /* \"#utility.yul\":1389:1407   */\n      add\n        /* \"#utility.yul\":1381:1407   */\n      swap1\n      pop\n        /* \"#utility.yul\":1417:1488   */\n      tag_42\n        /* \"#utility.yul\":1485:1486   */\n      0x00\n        /* \"#utility.yul\":1474:1483   */\n      dup4\n        /* \"#utility.yul\":1470:1487   */\n      add\n        /* \"#utility.yul\":1461:1467   */\n      dup5\n        /* \"#utility.yul\":1417:1488   */\n      tag_33\n      jump\t// in\n    tag_42:\n        /* \"#utility.yul\":1273:1495   */\n      swap3\n      swap2\n      pop\n      pop\n      jump\t// out\n        /* \"#utility.yul\":1501:1670   */\n    tag_30:\n        /* \"#utility.yul\":1585:1596   */\n      0x00\n        /* \"#utility.yul\":1619:1625   */\n      dup3\n        /* \"#utility.yul\":1614:1617   */\n      dup3\n        /* \"#utility.yul\":1607:1626   */\n      mstore\n        /* \"#utility.yul\":1659:1663   */\n      0x20\n        /* \"#utility.yul\":1654:1657   */\n      dup3\n        /* \"#utility.yul\":1650:1664   */\n      add\n        /* \"#utility.yul\":1635:1664   */\n      swap1\n      pop\n        /* \"#utility.yul\":1501:1670   */\n      swap3\n      swap2\n      pop\n      pop\n      jump\t// out\n        /* \"#utility.yul\":1676:1752   */\n    tag_26:\n        /* \"#utility.yul\":1712:1719   */\n      0x00\n        /* \"#utility.yul\":1741:1746   */\n      dup2\n        /* \"#utility.yul\":1730:1746   */\n      swap1\n      pop\n        /* \"#utility.yul\":1676:1752   */\n      swap2\n      swap1\n      pop\n      jump\t// out\n        /* \"#utility.yul\":1758:1835   */\n    tag_36:\n        /* \"#utility.yul\":1795:1802   */\n      0x00\n        /* \"#utility.yul\":1824:1829   */\n      dup2\n        /* \"#utility.yul\":1813:1829   */\n      swap1\n      pop\n        /* \"#utility.yul\":1758:1835   */\n      swap2\n      swap1\n      pop\n      jump\t// out\n        /* \"#utility.yul\":1841:2016   */\n    tag_32:\n        /* \"#utility.yul\":1981:2008   */\n      0x5072696365206973206c6f7765722c2073656e64206d6f726500000000000000\n        /* \"#utility.yul\":1977:1978   */\n      0x00\n        /* \"#utility.yul\":1969:1975   */\n      dup3\n        /* \"#utility.yul\":1965:1979   */\n      add\n        /* \"#utility.yul\":1958:2009   */\n      mstore\n        /* \"#utility.yul\":1841:2016   */\n      pop\n      jump\t// out\n\n    auxdata: 0xa26469706673582212204ac2feba3e1d5e826da3ea8417b06d9e13d0314efb5c44c5cc5b35f852c3208b64736f6c63430008070033\n}\n",
				"bytecode": {
					"linkReferences": {},
					"object": "608060405234801561001057600080fd5b50610206806100206000396000f3fe6080604052600436106100345760003560e01c806351b80e411461003957806398d5fdca14610064578063b60d42881461008f575b600080fd5b34801561004557600080fd5b5061004e610099565b60405161005b9190610167565b60405180910390f35b34801561007057600080fd5b5061007961009f565b604051610086919061012c565b60405180910390f35b6100976100a4565b005b60005481565b600090565b6000543410156100e9576040517f08c379a00000000000000000000000000000000000000000000000000000000081526004016100e090610147565b60405180910390fd5b565b6100f481610193565b82525050565b6000610107601983610182565b9150610112826101a7565b602082019050919050565b6101268161019d565b82525050565b600060208201905061014160008301846100eb565b92915050565b60006020820190508181036000830152610160816100fa565b9050919050565b600060208201905061017c600083018461011d565b92915050565b600082825260208201905092915050565b6000819050919050565b6000819050919050565b7f5072696365206973206c6f7765722c2073656e64206d6f72650000000000000060008201525056fea26469706673582212204ac2feba3e1d5e826da3ea8417b06d9e13d0314efb5c44c5cc5b35f852c3208b64736f6c63430008070033",
					"opcodes": "PUSH1 0x80 PUSH1 0x40 MSTORE CALLVALUE DUP1 ISZERO PUSH2 0x10 JUMPI PUSH1 0x0 DUP1 REVERT JUMPDEST POP PUSH2 0x206 DUP1 PUSH2 0x20 PUSH1 0x0 CODECOPY PUSH1 0x0 RETURN INVALID PUSH1 0x80 PUSH1 0x40 MSTORE PUSH1 0x4 CALLDATASIZE LT PUSH2 0x34 JUMPI PUSH1 0x0 CALLDATALOAD PUSH1 0xE0 SHR DUP1 PUSH4 0x51B80E41 EQ PUSH2 0x39 JUMPI DUP1 PUSH4 0x98D5FDCA EQ PUSH2 0x64 JUMPI DUP1 PUSH4 0xB60D4288 EQ PUSH2 0x8F JUMPI JUMPDEST PUSH1 0x0 DUP1 REVERT JUMPDEST CALLVALUE DUP1 ISZERO PUSH2 0x45 JUMPI PUSH1 0x0 DUP1 REVERT JUMPDEST POP PUSH2 0x4E PUSH2 0x99 JUMP JUMPDEST PUSH1 0x40 MLOAD PUSH2 0x5B SWAP2 SWAP1 PUSH2 0x167 JUMP JUMPDEST PUSH1 0x40 MLOAD DUP1 SWAP2 SUB SWAP1 RETURN JUMPDEST CALLVALUE DUP1 ISZERO PUSH2 0x70 JUMPI PUSH1 0x0 DUP1 REVERT JUMPDEST POP PUSH2 0x79 PUSH2 0x9F JUMP JUMPDEST PUSH1 0x40 MLOAD PUSH2 0x86 SWAP2 SWAP1 PUSH2 0x12C JUMP JUMPDEST PUSH1 0x40 MLOAD DUP1 SWAP2 SUB SWAP1 RETURN JUMPDEST PUSH2 0x97 PUSH2 0xA4 JUMP JUMPDEST STOP JUMPDEST PUSH1 0x0 SLOAD DUP2 JUMP JUMPDEST PUSH1 0x0 SWAP1 JUMP JUMPDEST PUSH1 0x0 SLOAD CALLVALUE LT ISZERO PUSH2 0xE9 JUMPI PUSH1 0x40 MLOAD PUSH32 0x8C379A000000000000000000000000000000000000000000000000000000000 DUP2 MSTORE PUSH1 0x4 ADD PUSH2 0xE0 SWAP1 PUSH2 0x147 JUMP JUMPDEST PUSH1 0x40 MLOAD DUP1 SWAP2 SUB SWAP1 REVERT JUMPDEST JUMP JUMPDEST PUSH2 0xF4 DUP2 PUSH2 0x193 JUMP JUMPDEST DUP3 MSTORE POP POP JUMP JUMPDEST PUSH1 0x0 PUSH2 0x107 PUSH1 0x19 DUP4 PUSH2 0x182 JUMP JUMPDEST SWAP2 POP PUSH2 0x112 DUP3 PUSH2 0x1A7 JUMP JUMPDEST PUSH1 0x20 DUP3 ADD SWAP1 POP SWAP2 SWAP1 POP JUMP JUMPDEST PUSH2 0x126 DUP2 PUSH2 0x19D JUMP JUMPDEST DUP3 MSTORE POP POP JUMP JUMPDEST PUSH1 0x0 PUSH1 0x20 DUP3 ADD SWAP1 POP PUSH2 0x141 PUSH1 0x0 DUP4 ADD DUP5 PUSH2 0xEB JUMP JUMPDEST SWAP3 SWAP2 POP POP JUMP JUMPDEST PUSH1 0x0 PUSH1 0x20 DUP3 ADD SWAP1 POP DUP2 DUP2 SUB PUSH1 0x0 DUP4 ADD MSTORE PUSH2 0x160 DUP2 PUSH2 0xFA JUMP JUMPDEST SWAP1 POP SWAP2 SWAP1 POP JUMP JUMPDEST PUSH1 0x0 PUSH1 0x20 DUP3 ADD SWAP1 POP PUSH2 0x17C PUSH1 0x0 DUP4 ADD DUP5 PUSH2 0x11D JUMP JUMPDEST SWAP3 SWAP2 POP POP JUMP JUMPDEST PUSH1 0x0 DUP3 DUP3 MSTORE PUSH1 0x20 DUP3 ADD SWAP1 POP SWAP3 SWAP2 POP POP JUMP JUMPDEST PUSH1 0x0 DUP2 SWAP1 POP SWAP2 SWAP1 POP JUMP JUMPDEST PUSH1 0x0 DUP2 SWAP1 POP SWAP2 SWAP1 POP JUMP JUMPDEST PUSH32 0x5072696365206973206C6F7765722C2073656E64206D6F726500000000000000 PUSH1 0x0 DUP3 ADD MSTORE POP JUMP INVALID LOG2 PUSH5 0x6970667358 0x22 SLT KECCAK256 0x4A 0xC2 INVALID 0xBA RETURNDATACOPY SAR 0x5E DUP3 PUSH14 0xA3EA8417B06D9E13D0314EFB5C44 0xC5 0xCC JUMPDEST CALLDATALOAD 0xF8 MSTORE 0xC3 KECCAK256 DUP12 PUSH5 0x736F6C6343 STOP ADDMOD SMOD STOP CALLER "
				},
				"gasEstimates": {
					"creation": {
						"codeDepositCost": "103600",
						"executionCost": "153",
						"totalCost": "103753"
					},
					"external": {
						"fund()": "2556",
						"getPrice()": "329",
						"minUsd()": "2407"
					}
				},
				"methodIdentifiers": {
					"fund()": "b60d4288",
					"getPrice()": "98d5fdca",
					"minUsd()": "51b80e41"
				}
			},
			"storageLayout": {
				"storage": [
					{
						"astId": 50,
						"contract": "fundMe/FundMe.sol:FundMe",
						"label": "minUsd",
						"offset": 0,
						"slot": "0",
						"type": "t_uint256"
					},
					{
						"astId": 53,
						"contract": "fundMe/FundMe.sol:FundMe",
						"label": "priceFeed",
						"offset": 0,
						"slot": "1",
						"type": "t_contract(AggregatorV3Interface)45"
					}
				],
				"types": {
					"t_contract(AggregatorV3Interface)45": {
						"encoding": "inplace",
						"label": "contract AggregatorV3Interface",
						"numberOfBytes": "20"
					},
					"t_uint256": {
						"encoding": "inplace",
						"label": "uint256",
						"numberOfBytes": "32"
					}
				}
			},
			"userdoc": {
				"kind": "user",
				"methods": {},
				"version": 1
			}
		}
	}
}