{
	"fundMe/FundMe.sol": {
		"FundMe": {
			"abi": [
				{
					"inputs": [
						{
							"internalType": "address",
							"name": "",
							"type": "address"
						}
					],
					"name": "addressToAmountFunded",
					"outputs": [
						{
							"internalType": "uint256",
							"name": "",
							"type": "uint256"
						}
					],
					"stateMutability": "view",
					"type": "function"
				},
				{
					"inputs": [],
					"name": "fund",
					"outputs": [],
					"stateMutability": "payable",
					"type": "function"
				},
				{
					"inputs": [
						{
							"internalType": "uint256",
							"name": "",
							"type": "uint256"
						}
					],
					"name": "funders",
					"outputs": [
						{
							"internalType": "address",
							"name": "",
							"type": "address"
						}
					],
					"stateMutability": "view",
					"type": "function"
				},
				{
					"inputs": [],
					"name": "minUsd",
					"outputs": [
						{
							"internalType": "uint256",
							"name": "",
							"type": "uint256"
						}
					],
					"stateMutability": "view",
					"type": "function"
				},
				{
					"inputs": [],
					"name": "withdraw",
					"outputs": [],
					"stateMutability": "nonpayable",
					"type": "function"
				}
			],
			"devdoc": {
				"kind": "dev",
				"methods": {},
				"version": 1
			},
			"evm": {
				"assembly": "    /* \"fundMe/FundMe.sol\":89:1136  contract FundMe {... */\n  mstore(0x40, 0x80)\n    /* \"fundMe/FundMe.sol\":178:187  50 * 1e18 */\n  0x02b5e3af16b1880000\n    /* \"fundMe/FundMe.sol\":156:187  uint public  minUsd = 50 * 1e18 */\n  0x00\n  sstore\n    /* \"fundMe/FundMe.sol\":89:1136  contract FundMe {... */\n  callvalue\n  dup1\n  iszero\n  tag_1\n  jumpi\n  0x00\n  dup1\n  revert\ntag_1:\n  pop\n  dataSize(sub_0)\n  dup1\n  dataOffset(sub_0)\n  0x00\n  codecopy\n  0x00\n  return\nstop\n\nsub_0: assembly {\n        /* \"fundMe/FundMe.sol\":89:1136  contract FundMe {... */\n      mstore(0x40, 0x80)\n      jumpi(tag_1, lt(calldatasize, 0x04))\n      shr(0xe0, calldataload(0x00))\n      dup1\n      0x3ccfd60b\n      eq\n      tag_2\n      jumpi\n      dup1\n      0x3e47d6f3\n      eq\n      tag_3\n      jumpi\n      dup1\n      0x51b80e41\n      eq\n      tag_4\n      jumpi\n      dup1\n      0xb60d4288\n      eq\n      tag_5\n      jumpi\n      dup1\n      0xdc0d3dff\n      eq\n      tag_6\n      jumpi\n    tag_1:\n      0x00\n      dup1\n      revert\n        /* \"fundMe/FundMe.sol\":596:1128  function withdraw() public {... */\n    tag_2:\n      callvalue\n      dup1\n      iszero\n      tag_7\n      jumpi\n      0x00\n      dup1\n      revert\n    tag_7:\n      pop\n      tag_8\n      tag_9\n      jump\t// in\n    tag_8:\n      stop\n        /* \"fundMe/FundMe.sol\":224:277  mapping(address => uint) public addressToAmountFunded */\n    tag_3:\n      callvalue\n      dup1\n      iszero\n      tag_10\n      jumpi\n      0x00\n      dup1\n      revert\n    tag_10:\n      pop\n      tag_11\n      0x04\n      dup1\n      calldatasize\n      sub\n      dup2\n      add\n      swap1\n      tag_12\n      swap2\n      swap1\n      tag_13\n      jump\t// in\n    tag_12:\n      tag_14\n      jump\t// in\n    tag_11:\n      mload(0x40)\n      tag_15\n      swap2\n      swap1\n      tag_16\n      jump\t// in\n    tag_15:\n      mload(0x40)\n      dup1\n      swap2\n      sub\n      swap1\n      return\n        /* \"fundMe/FundMe.sol\":156:187  uint public  minUsd = 50 * 1e18 */\n    tag_4:\n      callvalue\n      dup1\n      iszero\n      tag_17\n      jumpi\n      0x00\n      dup1\n      revert\n    tag_17:\n      pop\n      tag_18\n      tag_19\n      jump\t// in\n    tag_18:\n      mload(0x40)\n      tag_20\n      swap2\n      swap1\n      tag_16\n      jump\t// in\n    tag_20:\n      mload(0x40)\n      dup1\n      swap2\n      sub\n      swap1\n      return\n        /* \"fundMe/FundMe.sol\":284:590  function fund() public payable {... */\n    tag_5:\n      tag_21\n      tag_22\n      jump\t// in\n    tag_21:\n      stop\n        /* \"fundMe/FundMe.sol\":194:218  address[] public funders */\n    tag_6:\n      callvalue\n      dup1\n      iszero\n      tag_23\n      jumpi\n      0x00\n      dup1\n      revert\n    tag_23:\n      pop\n      tag_24\n      0x04\n      dup1\n      calldatasize\n      sub\n      dup2\n      add\n      swap1\n      tag_25\n      swap2\n      swap1\n      tag_26\n      jump\t// in\n    tag_25:\n      tag_27\n      jump\t// in\n    tag_24:\n      mload(0x40)\n      tag_28\n      swap2\n      swap1\n      tag_29\n      jump\t// in\n    tag_28:\n      mload(0x40)\n      dup1\n      swap2\n      sub\n      swap1\n      return\n        /* \"fundMe/FundMe.sol\":596:1128  function withdraw() public {... */\n    tag_9:\n        /* \"fundMe/FundMe.sol\":665:671  uint i */\n      0x00\n        /* \"fundMe/FundMe.sol\":661:810  for(uint i = 0; i < funders.length; i++){... */\n    tag_31:\n        /* \"fundMe/FundMe.sol\":681:688  funders */\n      0x01\n        /* \"fundMe/FundMe.sol\":681:695  funders.length */\n      dup1\n      sload\n      swap1\n      pop\n        /* \"fundMe/FundMe.sol\":677:678  i */\n      dup2\n        /* \"fundMe/FundMe.sol\":677:695  i < funders.length */\n      lt\n        /* \"fundMe/FundMe.sol\":661:810  for(uint i = 0; i < funders.length; i++){... */\n      iszero\n      tag_32\n      jumpi\n        /* \"fundMe/FundMe.sol\":715:734  address currAddress */\n      0x00\n        /* \"fundMe/FundMe.sol\":737:744  funders */\n      0x01\n        /* \"fundMe/FundMe.sol\":745:746  i */\n      dup3\n        /* \"fundMe/FundMe.sol\":737:747  funders[i] */\n      dup2\n      sload\n      dup2\n      lt\n      tag_34\n      jumpi\n      tag_35\n      tag_36\n      jump\t// in\n    tag_35:\n    tag_34:\n      swap1\n      0x00\n      mstore\n      keccak256(0x00, 0x20)\n      add\n      0x00\n      swap1\n      sload\n      swap1\n      0x0100\n      exp\n      swap1\n      div\n      0xffffffffffffffffffffffffffffffffffffffff\n      and\n        /* \"fundMe/FundMe.sol\":715:747  address currAddress = funders[i] */\n      swap1\n      pop\n        /* \"fundMe/FundMe.sol\":798:799  0 */\n      0x00\n        /* \"fundMe/FundMe.sol\":761:782  addressToAmountFunded */\n      0x02\n        /* \"fundMe/FundMe.sol\":761:795  addressToAmountFunded[currAddress] */\n      0x00\n        /* \"fundMe/FundMe.sol\":783:794  currAddress */\n      dup4\n        /* \"fundMe/FundMe.sol\":761:795  addressToAmountFunded[currAddress] */\n      0xffffffffffffffffffffffffffffffffffffffff\n      and\n      0xffffffffffffffffffffffffffffffffffffffff\n      and\n      dup2\n      mstore\n      0x20\n      add\n      swap1\n      dup2\n      mstore\n      0x20\n      add\n      0x00\n      keccak256\n        /* \"fundMe/FundMe.sol\":761:799  addressToAmountFunded[currAddress] = 0 */\n      dup2\n      swap1\n      sstore\n      pop\n        /* \"fundMe/FundMe.sol\":701:810  {... */\n      pop\n        /* \"fundMe/FundMe.sol\":697:700  i++ */\n      dup1\n      dup1\n      tag_38\n      swap1\n      tag_39\n      jump\t// in\n    tag_38:\n      swap2\n      pop\n      pop\n        /* \"fundMe/FundMe.sol\":661:810  for(uint i = 0; i < funders.length; i++){... */\n      jump(tag_31)\n    tag_32:\n      pop\n        /* \"fundMe/FundMe.sol\":923:924  0 */\n      0x00\n        /* \"fundMe/FundMe.sol\":909:925  new address[](0) */\n      0xffffffffffffffff\n      dup2\n      gt\n      iszero\n      tag_40\n      jumpi\n      tag_41\n      tag_42\n      jump\t// in\n    tag_41:\n    tag_40:\n      mload(0x40)\n      swap1\n      dup1\n      dup3\n      mstore\n      dup1\n      0x20\n      mul\n      0x20\n      add\n      dup3\n      add\n      0x40\n      mstore\n      dup1\n      iszero\n      tag_43\n      jumpi\n      dup2\n      0x20\n      add\n      0x20\n      dup3\n      mul\n      dup1\n      calldatasize\n      dup4\n      calldatacopy\n      dup1\n      dup3\n      add\n      swap2\n      pop\n      pop\n      swap1\n      pop\n    tag_43:\n      pop\n        /* \"fundMe/FundMe.sol\":899:906  funders */\n      0x01\n        /* \"fundMe/FundMe.sol\":899:925  funders = new address[](0) */\n      swap1\n      dup1\n      mload\n      swap1\n      0x20\n      add\n      swap1\n      tag_44\n      swap3\n      swap2\n      swap1\n      tag_45\n      jump\t// in\n    tag_44:\n      pop\n        /* \"fundMe/FundMe.sol\":1020:1036  bool callSuccess */\n      0x00\n        /* \"fundMe/FundMe.sol\":1058:1062  this */\n      address\n        /* \"fundMe/FundMe.sol\":1042:1069  payable(address(this)).call */\n      0xffffffffffffffffffffffffffffffffffffffff\n      and\n        /* \"fundMe/FundMe.sol\":1078:1099  address(this).balance */\n      selfbalance\n        /* \"fundMe/FundMe.sol\":1042:1104  payable(address(this)).call{value : address(this).balance}(\"\") */\n      mload(0x40)\n      tag_46\n      swap1\n      tag_47\n      jump\t// in\n    tag_46:\n      0x00\n      mload(0x40)\n      dup1\n      dup4\n      sub\n      dup2\n      dup6\n      dup8\n      gas\n      call\n      swap3\n      pop\n      pop\n      pop\n      returndatasize\n      dup1\n      0x00\n      dup2\n      eq\n      tag_50\n      jumpi\n      mload(0x40)\n      swap2\n      pop\n      and(add(returndatasize, 0x3f), not(0x1f))\n      dup3\n      add\n      0x40\n      mstore\n      returndatasize\n      dup3\n      mstore\n      returndatasize\n      0x00\n      0x20\n      dup5\n      add\n      returndatacopy\n      jump(tag_49)\n    tag_50:\n      0x60\n      swap2\n      pop\n    tag_49:\n      pop\n        /* \"fundMe/FundMe.sol\":1019:1104  (bool callSuccess, ) = payable(address(this)).call{value : address(this).balance}(\"\") */\n      pop\n      swap1\n      pop\n        /* \"fundMe/FundMe.sol\":623:1128  {... */\n      pop\n        /* \"fundMe/FundMe.sol\":596:1128  function withdraw() public {... */\n      jump\t// out\n        /* \"fundMe/FundMe.sol\":224:277  mapping(address => uint) public addressToAmountFunded */\n    tag_14:\n      mstore(0x20, 0x02)\n      dup1\n      0x00\n      mstore\n      keccak256(0x00, 0x40)\n      0x00\n      swap2\n      pop\n      swap1\n      pop\n      sload\n      dup2\n      jump\t// out\n        /* \"fundMe/FundMe.sol\":156:187  uint public  minUsd = 50 * 1e18 */\n    tag_19:\n      sload(0x00)\n      dup2\n      jump\t// out\n        /* \"fundMe/FundMe.sol\":284:590  function fund() public payable {... */\n    tag_22:\n        /* \"fundMe/FundMe.sol\":458:464  minUsd */\n      sload(0x00)\n        /* \"fundMe/FundMe.sol\":425:454  msg.value.getConversionRate() */\n      tag_52\n        /* \"fundMe/FundMe.sol\":425:434  msg.value */\n      callvalue\n        /* \"fundMe/FundMe.sol\":425:452  msg.value.getConversionRate */\n      tag_53\n        /* \"fundMe/FundMe.sol\":425:454  msg.value.getConversionRate() */\n      jump\t// in\n    tag_52:\n        /* \"fundMe/FundMe.sol\":425:464  msg.value.getConversionRate() >= minUsd */\n      lt\n      iszero\n        /* \"fundMe/FundMe.sol\":417:494  require(msg.value.getConversionRate() >= minUsd, \"Price is lower, send more\") */\n      tag_54\n      jumpi\n      mload(0x40)\n      0x08c379a000000000000000000000000000000000000000000000000000000000\n      dup2\n      mstore\n      0x04\n      add\n      tag_55\n      swap1\n      tag_56\n      jump\t// in\n    tag_55:\n      mload(0x40)\n      dup1\n      swap2\n      sub\n      swap1\n      revert\n    tag_54:\n        /* \"fundMe/FundMe.sol\":504:511  funders */\n      0x01\n        /* \"fundMe/FundMe.sol\":517:527  msg.sender */\n      caller\n        /* \"fundMe/FundMe.sol\":504:528  funders.push(msg.sender) */\n      swap1\n      dup1\n      0x01\n      dup2\n      sload\n      add\n      dup1\n      dup3\n      sstore\n      dup1\n      swap2\n      pop\n      pop\n      0x01\n      swap1\n      sub\n      swap1\n      0x00\n      mstore\n      keccak256(0x00, 0x20)\n      add\n      0x00\n      swap1\n      swap2\n      swap1\n      swap2\n      swap1\n      swap2\n      0x0100\n      exp\n      dup2\n      sload\n      dup2\n      0xffffffffffffffffffffffffffffffffffffffff\n      mul\n      not\n      and\n      swap1\n      dup4\n      0xffffffffffffffffffffffffffffffffffffffff\n      and\n      mul\n      or\n      swap1\n      sstore\n      pop\n        /* \"fundMe/FundMe.sol\":574:583  msg.value */\n      callvalue\n        /* \"fundMe/FundMe.sol\":538:559  addressToAmountFunded */\n      0x02\n        /* \"fundMe/FundMe.sol\":538:571  addressToAmountFunded[msg.sender] */\n      0x00\n        /* \"fundMe/FundMe.sol\":560:570  msg.sender */\n      caller\n        /* \"fundMe/FundMe.sol\":538:571  addressToAmountFunded[msg.sender] */\n      0xffffffffffffffffffffffffffffffffffffffff\n      and\n      0xffffffffffffffffffffffffffffffffffffffff\n      and\n      dup2\n      mstore\n      0x20\n      add\n      swap1\n      dup2\n      mstore\n      0x20\n      add\n      0x00\n      keccak256\n        /* \"fundMe/FundMe.sol\":538:583  addressToAmountFunded[msg.sender] = msg.value */\n      dup2\n      swap1\n      sstore\n      pop\n        /* \"fundMe/FundMe.sol\":284:590  function fund() public payable {... */\n      jump\t// out\n        /* \"fundMe/FundMe.sol\":194:218  address[] public funders */\n    tag_27:\n      0x01\n      dup2\n      dup2\n      sload\n      dup2\n      lt\n      tag_58\n      jumpi\n      0x00\n      dup1\n      revert\n    tag_58:\n      swap1\n      0x00\n      mstore\n      keccak256(0x00, 0x20)\n      add\n      0x00\n      swap2\n      pop\n      sload\n      swap1\n      0x0100\n      exp\n      swap1\n      div\n      0xffffffffffffffffffffffffffffffffffffffff\n      and\n      dup2\n      jump\t// out\n        /* \"fundMe/PriceConverter.sol\":740:956  function getConversionRate(uint _ethAmount) internal view returns(uint) {... */\n    tag_53:\n        /* \"fundMe/PriceConverter.sol\":806:810  uint */\n      0x00\n        /* \"fundMe/PriceConverter.sol\":822:839  uint currEthPrice */\n      dup1\n        /* \"fundMe/PriceConverter.sol\":842:852  getPrice() */\n      tag_61\n        /* \"fundMe/PriceConverter.sol\":842:850  getPrice */\n      tag_62\n        /* \"fundMe/PriceConverter.sol\":842:852  getPrice() */\n      jump\t// in\n    tag_61:\n        /* \"fundMe/PriceConverter.sol\":822:852  uint currEthPrice = getPrice() */\n      swap1\n      pop\n        /* \"fundMe/PriceConverter.sol\":862:881  uint ethAmountToUSD */\n      0x00\n        /* \"fundMe/PriceConverter.sol\":914:918  1e18 */\n      0x0de0b6b3a7640000\n        /* \"fundMe/PriceConverter.sol\":900:910  _ethAmount */\n      dup5\n        /* \"fundMe/PriceConverter.sol\":885:897  currEthPrice */\n      dup4\n        /* \"fundMe/PriceConverter.sol\":885:910  currEthPrice * _ethAmount */\n      tag_63\n      swap2\n      swap1\n      tag_64\n      jump\t// in\n    tag_63:\n        /* \"fundMe/PriceConverter.sol\":884:918  (currEthPrice * _ethAmount) / 1e18 */\n      tag_65\n      swap2\n      swap1\n      tag_66\n      jump\t// in\n    tag_65:\n        /* \"fundMe/PriceConverter.sol\":862:918  uint ethAmountToUSD = (currEthPrice * _ethAmount) / 1e18 */\n      swap1\n      pop\n        /* \"fundMe/PriceConverter.sol\":935:949  ethAmountToUSD */\n      dup1\n        /* \"fundMe/PriceConverter.sol\":928:949  return ethAmountToUSD */\n      swap3\n      pop\n      pop\n      pop\n        /* \"fundMe/PriceConverter.sol\":740:956  function getConversionRate(uint _ethAmount) internal view returns(uint) {... */\n      swap2\n      swap1\n      pop\n      jump\t// out\n        /* \"fundMe/PriceConverter.sol\":240:734  function getPrice()  internal view  returns (uint)  {... */\n    tag_62:\n        /* \"fundMe/PriceConverter.sol\":285:289  uint */\n      0x00\n        /* \"fundMe/PriceConverter.sol\":302:333  AggregatorV3Interface priceFeed */\n      dup1\n        /* \"fundMe/PriceConverter.sol\":358:400  0x8A753747A1Fa494EC906cE90E9f37563A8AF630e */\n      0x8a753747a1fa494ec906ce90e9f37563a8af630e\n        /* \"fundMe/PriceConverter.sol\":302:401  AggregatorV3Interface priceFeed = AggregatorV3Interface(0x8A753747A1Fa494EC906cE90E9f37563A8AF630e) */\n      swap1\n      pop\n        /* \"fundMe/PriceConverter.sol\":456:465  int price */\n      0x00\n        /* \"fundMe/PriceConverter.sol\":582:591  priceFeed */\n      dup2\n        /* \"fundMe/PriceConverter.sol\":582:607  priceFeed.latestRoundData */\n      0xffffffffffffffffffffffffffffffffffffffff\n      and\n      0xfeaf968c\n        /* \"fundMe/PriceConverter.sol\":582:609  priceFeed.latestRoundData() */\n      mload(0x40)\n      dup2\n      0xffffffff\n      and\n      0xe0\n      shl\n      dup2\n      mstore\n      0x04\n      add\n      0xa0\n      mload(0x40)\n      dup1\n      dup4\n      sub\n      dup2\n      dup7\n      gas\n      staticcall\n      iszero\n      dup1\n      iszero\n      tag_69\n      jumpi\n      returndatasize\n      0x00\n      dup1\n      returndatacopy\n      revert(0x00, returndatasize)\n    tag_69:\n      pop\n      pop\n      pop\n      pop\n      mload(0x40)\n      returndatasize\n      not(0x1f)\n      0x1f\n      dup3\n      add\n      and\n      dup3\n      add\n      dup1\n      0x40\n      mstore\n      pop\n      dup2\n      add\n      swap1\n      tag_70\n      swap2\n      swap1\n      tag_71\n      jump\t// in\n    tag_70:\n        /* \"fundMe/PriceConverter.sol\":410:609  (... */\n      pop\n      pop\n      pop\n      swap2\n      pop\n      pop\n        /* \"fundMe/PriceConverter.sol\":721:725  1e10 */\n      0x02540be400\n        /* \"fundMe/PriceConverter.sol\":713:718  price */\n      dup2\n        /* \"fundMe/PriceConverter.sol\":713:725  price * 1e10 */\n      tag_72\n      swap2\n      swap1\n      tag_73\n      jump\t// in\n    tag_72:\n        /* \"fundMe/PriceConverter.sol\":698:726  return uint256(price * 1e10) */\n      swap3\n      pop\n      pop\n      pop\n        /* \"fundMe/PriceConverter.sol\":240:734  function getPrice()  internal view  returns (uint)  {... */\n      swap1\n      jump\t// out\n    tag_45:\n      dup3\n      dup1\n      sload\n      dup3\n      dup3\n      sstore\n      swap1\n      0x00\n      mstore\n      keccak256(0x00, 0x20)\n      swap1\n      dup2\n      add\n      swap3\n      dup3\n      iszero\n      tag_74\n      jumpi\n      swap2\n      0x20\n      mul\n      dup3\n      add\n    tag_75:\n      dup3\n      dup2\n      gt\n      iszero\n      tag_76\n      jumpi\n      dup3\n      mload\n      dup3\n      exp(0x0100, 0x00)\n      dup2\n      sload\n      dup2\n      0xffffffffffffffffffffffffffffffffffffffff\n      mul\n      not\n      and\n      swap1\n      dup4\n      0xffffffffffffffffffffffffffffffffffffffff\n      and\n      mul\n      or\n      swap1\n      sstore\n      pop\n      swap2\n      0x20\n      add\n      swap2\n      swap1\n      0x01\n      add\n      swap1\n      jump(tag_75)\n    tag_76:\n    tag_74:\n      pop\n      swap1\n      pop\n      tag_77\n      swap2\n      swap1\n      tag_78\n      jump\t// in\n    tag_77:\n      pop\n      swap1\n      jump\t// out\n    tag_78:\n    tag_79:\n      dup1\n      dup3\n      gt\n      iszero\n      tag_80\n      jumpi\n      0x00\n      dup2\n      0x00\n      swap1\n      sstore\n      pop\n      0x01\n      add\n      jump(tag_79)\n    tag_80:\n      pop\n      swap1\n      jump\t// out\n        /* \"#utility.yul\":88:205   */\n    tag_82:\n        /* \"#utility.yul\":197:198   */\n      0x00\n        /* \"#utility.yul\":194:195   */\n      dup1\n        /* \"#utility.yul\":187:199   */\n      revert\n        /* \"#utility.yul\":334:460   */\n    tag_84:\n        /* \"#utility.yul\":371:378   */\n      0x00\n        /* \"#utility.yul\":411:453   */\n      0xffffffffffffffffffffffffffffffffffffffff\n        /* \"#utility.yul\":404:409   */\n      dup3\n        /* \"#utility.yul\":400:454   */\n      and\n        /* \"#utility.yul\":389:454   */\n      swap1\n      pop\n        /* \"#utility.yul\":334:460   */\n      swap2\n      swap1\n      pop\n      jump\t// out\n        /* \"#utility.yul\":466:562   */\n    tag_85:\n        /* \"#utility.yul\":503:510   */\n      0x00\n        /* \"#utility.yul\":532:556   */\n      tag_114\n        /* \"#utility.yul\":550:555   */\n      dup3\n        /* \"#utility.yul\":532:556   */\n      tag_84\n      jump\t// in\n    tag_114:\n        /* \"#utility.yul\":521:556   */\n      swap1\n      pop\n        /* \"#utility.yul\":466:562   */\n      swap2\n      swap1\n      pop\n      jump\t// out\n        /* \"#utility.yul\":568:690   */\n    tag_86:\n        /* \"#utility.yul\":641:665   */\n      tag_116\n        /* \"#utility.yul\":659:664   */\n      dup2\n        /* \"#utility.yul\":641:665   */\n      tag_85\n      jump\t// in\n    tag_116:\n        /* \"#utility.yul\":634:639   */\n      dup2\n        /* \"#utility.yul\":631:666   */\n      eq\n        /* \"#utility.yul\":621:684   */\n      tag_117\n      jumpi\n        /* \"#utility.yul\":680:681   */\n      0x00\n        /* \"#utility.yul\":677:678   */\n      dup1\n        /* \"#utility.yul\":670:682   */\n      revert\n        /* \"#utility.yul\":621:684   */\n    tag_117:\n        /* \"#utility.yul\":568:690   */\n      pop\n      jump\t// out\n        /* \"#utility.yul\":696:835   */\n    tag_87:\n        /* \"#utility.yul\":742:747   */\n      0x00\n        /* \"#utility.yul\":780:786   */\n      dup2\n        /* \"#utility.yul\":767:787   */\n      calldataload\n        /* \"#utility.yul\":758:787   */\n      swap1\n      pop\n        /* \"#utility.yul\":796:829   */\n      tag_119\n        /* \"#utility.yul\":823:828   */\n      dup2\n        /* \"#utility.yul\":796:829   */\n      tag_86\n      jump\t// in\n    tag_119:\n        /* \"#utility.yul\":696:835   */\n      swap3\n      swap2\n      pop\n      pop\n      jump\t// out\n        /* \"#utility.yul\":841:1170   */\n    tag_13:\n        /* \"#utility.yul\":900:906   */\n      0x00\n        /* \"#utility.yul\":949:951   */\n      0x20\n        /* \"#utility.yul\":937:946   */\n      dup3\n        /* \"#utility.yul\":928:935   */\n      dup5\n        /* \"#utility.yul\":924:947   */\n      sub\n        /* \"#utility.yul\":920:952   */\n      slt\n        /* \"#utility.yul\":917:1036   */\n      iszero\n      tag_121\n      jumpi\n        /* \"#utility.yul\":955:1034   */\n      tag_122\n      tag_82\n      jump\t// in\n    tag_122:\n        /* \"#utility.yul\":917:1036   */\n    tag_121:\n        /* \"#utility.yul\":1075:1076   */\n      0x00\n        /* \"#utility.yul\":1100:1153   */\n      tag_123\n        /* \"#utility.yul\":1145:1152   */\n      dup5\n        /* \"#utility.yul\":1136:1142   */\n      dup3\n        /* \"#utility.yul\":1125:1134   */\n      dup6\n        /* \"#utility.yul\":1121:1143   */\n      add\n        /* \"#utility.yul\":1100:1153   */\n      tag_87\n      jump\t// in\n    tag_123:\n        /* \"#utility.yul\":1090:1153   */\n      swap2\n      pop\n        /* \"#utility.yul\":1046:1163   */\n      pop\n        /* \"#utility.yul\":841:1170   */\n      swap3\n      swap2\n      pop\n      pop\n      jump\t// out\n        /* \"#utility.yul\":1176:1253   */\n    tag_88:\n        /* \"#utility.yul\":1213:1220   */\n      0x00\n        /* \"#utility.yul\":1242:1247   */\n      dup2\n        /* \"#utility.yul\":1231:1247   */\n      swap1\n      pop\n        /* \"#utility.yul\":1176:1253   */\n      swap2\n      swap1\n      pop\n      jump\t// out\n        /* \"#utility.yul\":1259:1377   */\n    tag_89:\n        /* \"#utility.yul\":1346:1370   */\n      tag_126\n        /* \"#utility.yul\":1364:1369   */\n      dup2\n        /* \"#utility.yul\":1346:1370   */\n      tag_88\n      jump\t// in\n    tag_126:\n        /* \"#utility.yul\":1341:1344   */\n      dup3\n        /* \"#utility.yul\":1334:1371   */\n      mstore\n        /* \"#utility.yul\":1259:1377   */\n      pop\n      pop\n      jump\t// out\n        /* \"#utility.yul\":1383:1605   */\n    tag_16:\n        /* \"#utility.yul\":1476:1480   */\n      0x00\n        /* \"#utility.yul\":1514:1516   */\n      0x20\n        /* \"#utility.yul\":1503:1512   */\n      dup3\n        /* \"#utility.yul\":1499:1517   */\n      add\n        /* \"#utility.yul\":1491:1517   */\n      swap1\n      pop\n        /* \"#utility.yul\":1527:1598   */\n      tag_128\n        /* \"#utility.yul\":1595:1596   */\n      0x00\n        /* \"#utility.yul\":1584:1593   */\n      dup4\n        /* \"#utility.yul\":1580:1597   */\n      add\n        /* \"#utility.yul\":1571:1577   */\n      dup5\n        /* \"#utility.yul\":1527:1598   */\n      tag_89\n      jump\t// in\n    tag_128:\n        /* \"#utility.yul\":1383:1605   */\n      swap3\n      swap2\n      pop\n      pop\n      jump\t// out\n        /* \"#utility.yul\":1611:1733   */\n    tag_90:\n        /* \"#utility.yul\":1684:1708   */\n      tag_130\n        /* \"#utility.yul\":1702:1707   */\n      dup2\n        /* \"#utility.yul\":1684:1708   */\n      tag_88\n      jump\t// in\n    tag_130:\n        /* \"#utility.yul\":1677:1682   */\n      dup2\n        /* \"#utility.yul\":1674:1709   */\n      eq\n        /* \"#utility.yul\":1664:1727   */\n      tag_131\n      jumpi\n        /* \"#utility.yul\":1723:1724   */\n      0x00\n        /* \"#utility.yul\":1720:1721   */\n      dup1\n        /* \"#utility.yul\":1713:1725   */\n      revert\n        /* \"#utility.yul\":1664:1727   */\n    tag_131:\n        /* \"#utility.yul\":1611:1733   */\n      pop\n      jump\t// out\n        /* \"#utility.yul\":1739:1878   */\n    tag_91:\n        /* \"#utility.yul\":1785:1790   */\n      0x00\n        /* \"#utility.yul\":1823:1829   */\n      dup2\n        /* \"#utility.yul\":1810:1830   */\n      calldataload\n        /* \"#utility.yul\":1801:1830   */\n      swap1\n      pop\n        /* \"#utility.yul\":1839:1872   */\n      tag_133\n        /* \"#utility.yul\":1866:1871   */\n      dup2\n        /* \"#utility.yul\":1839:1872   */\n      tag_90\n      jump\t// in\n    tag_133:\n        /* \"#utility.yul\":1739:1878   */\n      swap3\n      swap2\n      pop\n      pop\n      jump\t// out\n        /* \"#utility.yul\":1884:2213   */\n    tag_26:\n        /* \"#utility.yul\":1943:1949   */\n      0x00\n        /* \"#utility.yul\":1992:1994   */\n      0x20\n        /* \"#utility.yul\":1980:1989   */\n      dup3\n        /* \"#utility.yul\":1971:1978   */\n      dup5\n        /* \"#utility.yul\":1967:1990   */\n      sub\n        /* \"#utility.yul\":1963:1995   */\n      slt\n        /* \"#utility.yul\":1960:2079   */\n      iszero\n      tag_135\n      jumpi\n        /* \"#utility.yul\":1998:2077   */\n      tag_136\n      tag_82\n      jump\t// in\n    tag_136:\n        /* \"#utility.yul\":1960:2079   */\n    tag_135:\n        /* \"#utility.yul\":2118:2119   */\n      0x00\n        /* \"#utility.yul\":2143:2196   */\n      tag_137\n        /* \"#utility.yul\":2188:2195   */\n      dup5\n        /* \"#utility.yul\":2179:2185   */\n      dup3\n        /* \"#utility.yul\":2168:2177   */\n      dup6\n        /* \"#utility.yul\":2164:2186   */\n      add\n        /* \"#utility.yul\":2143:2196   */\n      tag_91\n      jump\t// in\n    tag_137:\n        /* \"#utility.yul\":2133:2196   */\n      swap2\n      pop\n        /* \"#utility.yul\":2089:2206   */\n      pop\n        /* \"#utility.yul\":1884:2213   */\n      swap3\n      swap2\n      pop\n      pop\n      jump\t// out\n        /* \"#utility.yul\":2219:2337   */\n    tag_92:\n        /* \"#utility.yul\":2306:2330   */\n      tag_139\n        /* \"#utility.yul\":2324:2329   */\n      dup2\n        /* \"#utility.yul\":2306:2330   */\n      tag_85\n      jump\t// in\n    tag_139:\n        /* \"#utility.yul\":2301:2304   */\n      dup3\n        /* \"#utility.yul\":2294:2331   */\n      mstore\n        /* \"#utility.yul\":2219:2337   */\n      pop\n      pop\n      jump\t// out\n        /* \"#utility.yul\":2343:2565   */\n    tag_29:\n        /* \"#utility.yul\":2436:2440   */\n      0x00\n        /* \"#utility.yul\":2474:2476   */\n      0x20\n        /* \"#utility.yul\":2463:2472   */\n      dup3\n        /* \"#utility.yul\":2459:2477   */\n      add\n        /* \"#utility.yul\":2451:2477   */\n      swap1\n      pop\n        /* \"#utility.yul\":2487:2558   */\n      tag_141\n        /* \"#utility.yul\":2555:2556   */\n      0x00\n        /* \"#utility.yul\":2544:2553   */\n      dup4\n        /* \"#utility.yul\":2540:2557   */\n      add\n        /* \"#utility.yul\":2531:2537   */\n      dup5\n        /* \"#utility.yul\":2487:2558   */\n      tag_92\n      jump\t// in\n    tag_141:\n        /* \"#utility.yul\":2343:2565   */\n      swap3\n      swap2\n      pop\n      pop\n      jump\t// out\n        /* \"#utility.yul\":2571:2751   */\n    tag_36:\n        /* \"#utility.yul\":2619:2696   */\n      0x4e487b7100000000000000000000000000000000000000000000000000000000\n        /* \"#utility.yul\":2616:2617   */\n      0x00\n        /* \"#utility.yul\":2609:2697   */\n      mstore\n        /* \"#utility.yul\":2716:2720   */\n      0x32\n        /* \"#utility.yul\":2713:2714   */\n      0x04\n        /* \"#utility.yul\":2706:2721   */\n      mstore\n        /* \"#utility.yul\":2740:2744   */\n      0x24\n        /* \"#utility.yul\":2737:2738   */\n      0x00\n        /* \"#utility.yul\":2730:2745   */\n      revert\n        /* \"#utility.yul\":2757:2937   */\n    tag_93:\n        /* \"#utility.yul\":2805:2882   */\n      0x4e487b7100000000000000000000000000000000000000000000000000000000\n        /* \"#utility.yul\":2802:2803   */\n      0x00\n        /* \"#utility.yul\":2795:2883   */\n      mstore\n        /* \"#utility.yul\":2902:2906   */\n      0x11\n        /* \"#utility.yul\":2899:2900   */\n      0x04\n        /* \"#utility.yul\":2892:2907   */\n      mstore\n        /* \"#utility.yul\":2926:2930   */\n      0x24\n        /* \"#utility.yul\":2923:2924   */\n      0x00\n        /* \"#utility.yul\":2916:2931   */\n      revert\n        /* \"#utility.yul\":2943:3176   */\n    tag_39:\n        /* \"#utility.yul\":2982:2985   */\n      0x00\n        /* \"#utility.yul\":3005:3029   */\n      tag_145\n        /* \"#utility.yul\":3023:3028   */\n      dup3\n        /* \"#utility.yul\":3005:3029   */\n      tag_88\n      jump\t// in\n    tag_145:\n        /* \"#utility.yul\":2996:3029   */\n      swap2\n      pop\n        /* \"#utility.yul\":3051:3117   */\n      0xffffffffffffffffffffffffffffffffffffffffffffffffffffffffffffffff\n        /* \"#utility.yul\":3044:3049   */\n      dup3\n        /* \"#utility.yul\":3041:3118   */\n      sub\n        /* \"#utility.yul\":3038:3141   */\n      tag_146\n      jumpi\n        /* \"#utility.yul\":3121:3139   */\n      tag_147\n      tag_93\n      jump\t// in\n    tag_147:\n        /* \"#utility.yul\":3038:3141   */\n    tag_146:\n        /* \"#utility.yul\":3168:3169   */\n      0x01\n        /* \"#utility.yul\":3161:3166   */\n      dup3\n        /* \"#utility.yul\":3157:3170   */\n      add\n        /* \"#utility.yul\":3150:3170   */\n      swap1\n      pop\n        /* \"#utility.yul\":2943:3176   */\n      swap2\n      swap1\n      pop\n      jump\t// out\n        /* \"#utility.yul\":3182:3362   */\n    tag_42:\n        /* \"#utility.yul\":3230:3307   */\n      0x4e487b7100000000000000000000000000000000000000000000000000000000\n        /* \"#utility.yul\":3227:3228   */\n      0x00\n        /* \"#utility.yul\":3220:3308   */\n      mstore\n        /* \"#utility.yul\":3327:3331   */\n      0x41\n        /* \"#utility.yul\":3324:3325   */\n      0x04\n        /* \"#utility.yul\":3317:3332   */\n      mstore\n        /* \"#utility.yul\":3351:3355   */\n      0x24\n        /* \"#utility.yul\":3348:3349   */\n      0x00\n        /* \"#utility.yul\":3341:3356   */\n      revert\n        /* \"#utility.yul\":3368:3515   */\n    tag_94:\n        /* \"#utility.yul\":3469:3480   */\n      0x00\n        /* \"#utility.yul\":3506:3509   */\n      dup2\n        /* \"#utility.yul\":3491:3509   */\n      swap1\n      pop\n        /* \"#utility.yul\":3368:3515   */\n      swap3\n      swap2\n      pop\n      pop\n      jump\t// out\n        /* \"#utility.yul\":3521:3635   */\n    tag_95:\n      pop\n      jump\t// out\n        /* \"#utility.yul\":3641:4039   */\n    tag_96:\n        /* \"#utility.yul\":3800:3803   */\n      0x00\n        /* \"#utility.yul\":3821:3904   */\n      tag_152\n        /* \"#utility.yul\":3902:3903   */\n      0x00\n        /* \"#utility.yul\":3897:3900   */\n      dup4\n        /* \"#utility.yul\":3821:3904   */\n      tag_94\n      jump\t// in\n    tag_152:\n        /* \"#utility.yul\":3814:3904   */\n      swap2\n      pop\n        /* \"#utility.yul\":3913:4006   */\n      tag_153\n        /* \"#utility.yul\":4002:4005   */\n      dup3\n        /* \"#utility.yul\":3913:4006   */\n      tag_95\n      jump\t// in\n    tag_153:\n        /* \"#utility.yul\":4031:4032   */\n      0x00\n        /* \"#utility.yul\":4026:4029   */\n      dup3\n        /* \"#utility.yul\":4022:4033   */\n      add\n        /* \"#utility.yul\":4015:4033   */\n      swap1\n      pop\n        /* \"#utility.yul\":3641:4039   */\n      swap2\n      swap1\n      pop\n      jump\t// out\n        /* \"#utility.yul\":4045:4424   */\n    tag_47:\n        /* \"#utility.yul\":4229:4232   */\n      0x00\n        /* \"#utility.yul\":4251:4398   */\n      tag_155\n        /* \"#utility.yul\":4394:4397   */\n      dup3\n        /* \"#utility.yul\":4251:4398   */\n      tag_96\n      jump\t// in\n    tag_155:\n        /* \"#utility.yul\":4244:4398   */\n      swap2\n      pop\n        /* \"#utility.yul\":4415:4418   */\n      dup2\n        /* \"#utility.yul\":4408:4418   */\n      swap1\n      pop\n        /* \"#utility.yul\":4045:4424   */\n      swap2\n      swap1\n      pop\n      jump\t// out\n        /* \"#utility.yul\":4430:4599   */\n    tag_97:\n        /* \"#utility.yul\":4514:4525   */\n      0x00\n        /* \"#utility.yul\":4548:4554   */\n      dup3\n        /* \"#utility.yul\":4543:4546   */\n      dup3\n        /* \"#utility.yul\":4536:4555   */\n      mstore\n        /* \"#utility.yul\":4588:4592   */\n      0x20\n        /* \"#utility.yul\":4583:4586   */\n      dup3\n        /* \"#utility.yul\":4579:4593   */\n      add\n        /* \"#utility.yul\":4564:4593   */\n      swap1\n      pop\n        /* \"#utility.yul\":4430:4599   */\n      swap3\n      swap2\n      pop\n      pop\n      jump\t// out\n        /* \"#utility.yul\":4605:4780   */\n    tag_98:\n        /* \"#utility.yul\":4745:4772   */\n      0x5072696365206973206c6f7765722c2073656e64206d6f726500000000000000\n        /* \"#utility.yul\":4741:4742   */\n      0x00\n        /* \"#utility.yul\":4733:4739   */\n      dup3\n        /* \"#utility.yul\":4729:4743   */\n      add\n        /* \"#utility.yul\":4722:4773   */\n      mstore\n        /* \"#utility.yul\":4605:4780   */\n      pop\n      jump\t// out\n        /* \"#utility.yul\":4786:5152   */\n    tag_99:\n        /* \"#utility.yul\":4928:4931   */\n      0x00\n        /* \"#utility.yul\":4949:5016   */\n      tag_159\n        /* \"#utility.yul\":5013:5015   */\n      0x19\n        /* \"#utility.yul\":5008:5011   */\n      dup4\n        /* \"#utility.yul\":4949:5016   */\n      tag_97\n      jump\t// in\n    tag_159:\n        /* \"#utility.yul\":4942:5016   */\n      swap2\n      pop\n        /* \"#utility.yul\":5025:5118   */\n      tag_160\n        /* \"#utility.yul\":5114:5117   */\n      dup3\n        /* \"#utility.yul\":5025:5118   */\n      tag_98\n      jump\t// in\n    tag_160:\n        /* \"#utility.yul\":5143:5145   */\n      0x20\n        /* \"#utility.yul\":5138:5141   */\n      dup3\n        /* \"#utility.yul\":5134:5146   */\n      add\n        /* \"#utility.yul\":5127:5146   */\n      swap1\n      pop\n        /* \"#utility.yul\":4786:5152   */\n      swap2\n      swap1\n      pop\n      jump\t// out\n        /* \"#utility.yul\":5158:5577   */\n    tag_56:\n        /* \"#utility.yul\":5324:5328   */\n      0x00\n        /* \"#utility.yul\":5362:5364   */\n      0x20\n        /* \"#utility.yul\":5351:5360   */\n      dup3\n        /* \"#utility.yul\":5347:5365   */\n      add\n        /* \"#utility.yul\":5339:5365   */\n      swap1\n      pop\n        /* \"#utility.yul\":5411:5420   */\n      dup2\n        /* \"#utility.yul\":5405:5409   */\n      dup2\n        /* \"#utility.yul\":5401:5421   */\n      sub\n        /* \"#utility.yul\":5397:5398   */\n      0x00\n        /* \"#utility.yul\":5386:5395   */\n      dup4\n        /* \"#utility.yul\":5382:5399   */\n      add\n        /* \"#utility.yul\":5375:5422   */\n      mstore\n        /* \"#utility.yul\":5439:5570   */\n      tag_162\n        /* \"#utility.yul\":5565:5569   */\n      dup2\n        /* \"#utility.yul\":5439:5570   */\n      tag_99\n      jump\t// in\n    tag_162:\n        /* \"#utility.yul\":5431:5570   */\n      swap1\n      pop\n        /* \"#utility.yul\":5158:5577   */\n      swap2\n      swap1\n      pop\n      jump\t// out\n        /* \"#utility.yul\":5583:5931   */\n    tag_64:\n        /* \"#utility.yul\":5623:5630   */\n      0x00\n        /* \"#utility.yul\":5646:5666   */\n      tag_164\n        /* \"#utility.yul\":5664:5665   */\n      dup3\n        /* \"#utility.yul\":5646:5666   */\n      tag_88\n      jump\t// in\n    tag_164:\n        /* \"#utility.yul\":5641:5666   */\n      swap2\n      pop\n        /* \"#utility.yul\":5680:5700   */\n      tag_165\n        /* \"#utility.yul\":5698:5699   */\n      dup4\n        /* \"#utility.yul\":5680:5700   */\n      tag_88\n      jump\t// in\n    tag_165:\n        /* \"#utility.yul\":5675:5700   */\n      swap3\n      pop\n        /* \"#utility.yul\":5868:5869   */\n      dup2\n        /* \"#utility.yul\":5800:5866   */\n      0xffffffffffffffffffffffffffffffffffffffffffffffffffffffffffffffff\n        /* \"#utility.yul\":5796:5870   */\n      div\n        /* \"#utility.yul\":5793:5794   */\n      dup4\n        /* \"#utility.yul\":5790:5871   */\n      gt\n        /* \"#utility.yul\":5785:5786   */\n      dup3\n        /* \"#utility.yul\":5778:5787   */\n      iszero\n        /* \"#utility.yul\":5771:5788   */\n      iszero\n        /* \"#utility.yul\":5767:5872   */\n      and\n        /* \"#utility.yul\":5764:5895   */\n      iszero\n      tag_166\n      jumpi\n        /* \"#utility.yul\":5875:5893   */\n      tag_167\n      tag_93\n      jump\t// in\n    tag_167:\n        /* \"#utility.yul\":5764:5895   */\n    tag_166:\n        /* \"#utility.yul\":5923:5924   */\n      dup3\n        /* \"#utility.yul\":5920:5921   */\n      dup3\n        /* \"#utility.yul\":5916:5925   */\n      mul\n        /* \"#utility.yul\":5905:5925   */\n      swap1\n      pop\n        /* \"#utility.yul\":5583:5931   */\n      swap3\n      swap2\n      pop\n      pop\n      jump\t// out\n        /* \"#utility.yul\":5937:6117   */\n    tag_100:\n        /* \"#utility.yul\":5985:6062   */\n      0x4e487b7100000000000000000000000000000000000000000000000000000000\n        /* \"#utility.yul\":5982:5983   */\n      0x00\n        /* \"#utility.yul\":5975:6063   */\n      mstore\n        /* \"#utility.yul\":6082:6086   */\n      0x12\n        /* \"#utility.yul\":6079:6080   */\n      0x04\n        /* \"#utility.yul\":6072:6087   */\n      mstore\n        /* \"#utility.yul\":6106:6110   */\n      0x24\n        /* \"#utility.yul\":6103:6104   */\n      0x00\n        /* \"#utility.yul\":6096:6111   */\n      revert\n        /* \"#utility.yul\":6123:6308   */\n    tag_66:\n        /* \"#utility.yul\":6163:6164   */\n      0x00\n        /* \"#utility.yul\":6180:6200   */\n      tag_170\n        /* \"#utility.yul\":6198:6199   */\n      dup3\n        /* \"#utility.yul\":6180:6200   */\n      tag_88\n      jump\t// in\n    tag_170:\n        /* \"#utility.yul\":6175:6200   */\n      swap2\n      pop\n        /* \"#utility.yul\":6214:6234   */\n      tag_171\n        /* \"#utility.yul\":6232:6233   */\n      dup4\n        /* \"#utility.yul\":6214:6234   */\n      tag_88\n      jump\t// in\n    tag_171:\n        /* \"#utility.yul\":6209:6234   */\n      swap3\n      pop\n        /* \"#utility.yul\":6253:6254   */\n      dup3\n        /* \"#utility.yul\":6243:6278   */\n      tag_172\n      jumpi\n        /* \"#utility.yul\":6258:6276   */\n      tag_173\n      tag_100\n      jump\t// in\n    tag_173:\n        /* \"#utility.yul\":6243:6278   */\n    tag_172:\n        /* \"#utility.yul\":6300:6301   */\n      dup3\n        /* \"#utility.yul\":6297:6298   */\n      dup3\n        /* \"#utility.yul\":6293:6302   */\n      div\n        /* \"#utility.yul\":6288:6302   */\n      swap1\n      pop\n        /* \"#utility.yul\":6123:6308   */\n      swap3\n      swap2\n      pop\n      pop\n      jump\t// out\n        /* \"#utility.yul\":6314:6419   */\n    tag_101:\n        /* \"#utility.yul\":6350:6357   */\n      0x00\n        /* \"#utility.yul\":6390:6412   */\n      0xffffffffffffffffffff\n        /* \"#utility.yul\":6383:6388   */\n      dup3\n        /* \"#utility.yul\":6379:6413   */\n      and\n        /* \"#utility.yul\":6368:6413   */\n      swap1\n      pop\n        /* \"#utility.yul\":6314:6419   */\n      swap2\n      swap1\n      pop\n      jump\t// out\n        /* \"#utility.yul\":6425:6545   */\n    tag_102:\n        /* \"#utility.yul\":6497:6520   */\n      tag_176\n        /* \"#utility.yul\":6514:6519   */\n      dup2\n        /* \"#utility.yul\":6497:6520   */\n      tag_101\n      jump\t// in\n    tag_176:\n        /* \"#utility.yul\":6490:6495   */\n      dup2\n        /* \"#utility.yul\":6487:6521   */\n      eq\n        /* \"#utility.yul\":6477:6539   */\n      tag_177\n      jumpi\n        /* \"#utility.yul\":6535:6536   */\n      0x00\n        /* \"#utility.yul\":6532:6533   */\n      dup1\n        /* \"#utility.yul\":6525:6537   */\n      revert\n        /* \"#utility.yul\":6477:6539   */\n    tag_177:\n        /* \"#utility.yul\":6425:6545   */\n      pop\n      jump\t// out\n        /* \"#utility.yul\":6551:6692   */\n    tag_103:\n        /* \"#utility.yul\":6607:6612   */\n      0x00\n        /* \"#utility.yul\":6638:6644   */\n      dup2\n        /* \"#utility.yul\":6632:6645   */\n      mload\n        /* \"#utility.yul\":6623:6645   */\n      swap1\n      pop\n        /* \"#utility.yul\":6654:6686   */\n      tag_179\n        /* \"#utility.yul\":6680:6685   */\n      dup2\n        /* \"#utility.yul\":6654:6686   */\n      tag_102\n      jump\t// in\n    tag_179:\n        /* \"#utility.yul\":6551:6692   */\n      swap3\n      swap2\n      pop\n      pop\n      jump\t// out\n        /* \"#utility.yul\":6698:6774   */\n    tag_104:\n        /* \"#utility.yul\":6734:6741   */\n      0x00\n        /* \"#utility.yul\":6763:6768   */\n      dup2\n        /* \"#utility.yul\":6752:6768   */\n      swap1\n      pop\n        /* \"#utility.yul\":6698:6774   */\n      swap2\n      swap1\n      pop\n      jump\t// out\n        /* \"#utility.yul\":6780:6900   */\n    tag_105:\n        /* \"#utility.yul\":6852:6875   */\n      tag_182\n        /* \"#utility.yul\":6869:6874   */\n      dup2\n        /* \"#utility.yul\":6852:6875   */\n      tag_104\n      jump\t// in\n    tag_182:\n        /* \"#utility.yul\":6845:6850   */\n      dup2\n        /* \"#utility.yul\":6842:6876   */\n      eq\n        /* \"#utility.yul\":6832:6894   */\n      tag_183\n      jumpi\n        /* \"#utility.yul\":6890:6891   */\n      0x00\n        /* \"#utility.yul\":6887:6888   */\n      dup1\n        /* \"#utility.yul\":6880:6892   */\n      revert\n        /* \"#utility.yul\":6832:6894   */\n    tag_183:\n        /* \"#utility.yul\":6780:6900   */\n      pop\n      jump\t// out\n        /* \"#utility.yul\":6906:7047   */\n    tag_106:\n        /* \"#utility.yul\":6962:6967   */\n      0x00\n        /* \"#utility.yul\":6993:6999   */\n      dup2\n        /* \"#utility.yul\":6987:7000   */\n      mload\n        /* \"#utility.yul\":6978:7000   */\n      swap1\n      pop\n        /* \"#utility.yul\":7009:7041   */\n      tag_185\n        /* \"#utility.yul\":7035:7040   */\n      dup2\n        /* \"#utility.yul\":7009:7041   */\n      tag_105\n      jump\t// in\n    tag_185:\n        /* \"#utility.yul\":6906:7047   */\n      swap3\n      swap2\n      pop\n      pop\n      jump\t// out\n        /* \"#utility.yul\":7053:7196   */\n    tag_107:\n        /* \"#utility.yul\":7110:7115   */\n      0x00\n        /* \"#utility.yul\":7141:7147   */\n      dup2\n        /* \"#utility.yul\":7135:7148   */\n      mload\n        /* \"#utility.yul\":7126:7148   */\n      swap1\n      pop\n        /* \"#utility.yul\":7157:7190   */\n      tag_187\n        /* \"#utility.yul\":7184:7189   */\n      dup2\n        /* \"#utility.yul\":7157:7190   */\n      tag_90\n      jump\t// in\n    tag_187:\n        /* \"#utility.yul\":7053:7196   */\n      swap3\n      swap2\n      pop\n      pop\n      jump\t// out\n        /* \"#utility.yul\":7202:8173   */\n    tag_71:\n        /* \"#utility.yul\":7305:7311   */\n      0x00\n        /* \"#utility.yul\":7313:7319   */\n      dup1\n        /* \"#utility.yul\":7321:7327   */\n      0x00\n        /* \"#utility.yul\":7329:7335   */\n      dup1\n        /* \"#utility.yul\":7337:7343   */\n      0x00\n        /* \"#utility.yul\":7386:7389   */\n      0xa0\n        /* \"#utility.yul\":7374:7383   */\n      dup7\n        /* \"#utility.yul\":7365:7372   */\n      dup9\n        /* \"#utility.yul\":7361:7384   */\n      sub\n        /* \"#utility.yul\":7357:7390   */\n      slt\n        /* \"#utility.yul\":7354:7474   */\n      iszero\n      tag_189\n      jumpi\n        /* \"#utility.yul\":7393:7472   */\n      tag_190\n      tag_82\n      jump\t// in\n    tag_190:\n        /* \"#utility.yul\":7354:7474   */\n    tag_189:\n        /* \"#utility.yul\":7513:7514   */\n      0x00\n        /* \"#utility.yul\":7538:7601   */\n      tag_191\n        /* \"#utility.yul\":7593:7600   */\n      dup9\n        /* \"#utility.yul\":7584:7590   */\n      dup3\n        /* \"#utility.yul\":7573:7582   */\n      dup10\n        /* \"#utility.yul\":7569:7591   */\n      add\n        /* \"#utility.yul\":7538:7601   */\n      tag_103\n      jump\t// in\n    tag_191:\n        /* \"#utility.yul\":7528:7601   */\n      swap6\n      pop\n        /* \"#utility.yul\":7484:7611   */\n      pop\n        /* \"#utility.yul\":7650:7652   */\n      0x20\n        /* \"#utility.yul\":7676:7739   */\n      tag_192\n        /* \"#utility.yul\":7731:7738   */\n      dup9\n        /* \"#utility.yul\":7722:7728   */\n      dup3\n        /* \"#utility.yul\":7711:7720   */\n      dup10\n        /* \"#utility.yul\":7707:7729   */\n      add\n        /* \"#utility.yul\":7676:7739   */\n      tag_106\n      jump\t// in\n    tag_192:\n        /* \"#utility.yul\":7666:7739   */\n      swap5\n      pop\n        /* \"#utility.yul\":7621:7749   */\n      pop\n        /* \"#utility.yul\":7788:7790   */\n      0x40\n        /* \"#utility.yul\":7814:7878   */\n      tag_193\n        /* \"#utility.yul\":7870:7877   */\n      dup9\n        /* \"#utility.yul\":7861:7867   */\n      dup3\n        /* \"#utility.yul\":7850:7859   */\n      dup10\n        /* \"#utility.yul\":7846:7868   */\n      add\n        /* \"#utility.yul\":7814:7878   */\n      tag_107\n      jump\t// in\n    tag_193:\n        /* \"#utility.yul\":7804:7878   */\n      swap4\n      pop\n        /* \"#utility.yul\":7759:7888   */\n      pop\n        /* \"#utility.yul\":7927:7929   */\n      0x60\n        /* \"#utility.yul\":7953:8017   */\n      tag_194\n        /* \"#utility.yul\":8009:8016   */\n      dup9\n        /* \"#utility.yul\":8000:8006   */\n      dup3\n        /* \"#utility.yul\":7989:7998   */\n      dup10\n        /* \"#utility.yul\":7985:8007   */\n      add\n        /* \"#utility.yul\":7953:8017   */\n      tag_107\n      jump\t// in\n    tag_194:\n        /* \"#utility.yul\":7943:8017   */\n      swap3\n      pop\n        /* \"#utility.yul\":7898:8027   */\n      pop\n        /* \"#utility.yul\":8066:8069   */\n      0x80\n        /* \"#utility.yul\":8093:8156   */\n      tag_195\n        /* \"#utility.yul\":8148:8155   */\n      dup9\n        /* \"#utility.yul\":8139:8145   */\n      dup3\n        /* \"#utility.yul\":8128:8137   */\n      dup10\n        /* \"#utility.yul\":8124:8146   */\n      add\n        /* \"#utility.yul\":8093:8156   */\n      tag_103\n      jump\t// in\n    tag_195:\n        /* \"#utility.yul\":8083:8156   */\n      swap2\n      pop\n        /* \"#utility.yul\":8037:8166   */\n      pop\n        /* \"#utility.yul\":7202:8173   */\n      swap3\n      swap6\n      pop\n      swap3\n      swap6\n      swap1\n      swap4\n      pop\n      jump\t// out\n        /* \"#utility.yul\":8179:9170   */\n    tag_73:\n        /* \"#utility.yul\":8218:8225   */\n      0x00\n        /* \"#utility.yul\":8241:8260   */\n      tag_197\n        /* \"#utility.yul\":8258:8259   */\n      dup3\n        /* \"#utility.yul\":8241:8260   */\n      tag_104\n      jump\t// in\n    tag_197:\n        /* \"#utility.yul\":8236:8260   */\n      swap2\n      pop\n        /* \"#utility.yul\":8274:8293   */\n      tag_198\n        /* \"#utility.yul\":8291:8292   */\n      dup4\n        /* \"#utility.yul\":8274:8293   */\n      tag_104\n      jump\t// in\n    tag_198:\n        /* \"#utility.yul\":8269:8293   */\n      swap3\n      pop\n        /* \"#utility.yul\":8475:8476   */\n      dup3\n        /* \"#utility.yul\":8407:8473   */\n      0x7fffffffffffffffffffffffffffffffffffffffffffffffffffffffffffffff\n        /* \"#utility.yul\":8403:8477   */\n      div\n        /* \"#utility.yul\":8400:8401   */\n      dup3\n        /* \"#utility.yul\":8397:8478   */\n      gt\n        /* \"#utility.yul\":8392:8393   */\n      0x00\n        /* \"#utility.yul\":8389:8390   */\n      dup5\n        /* \"#utility.yul\":8385:8394   */\n      sgt\n        /* \"#utility.yul\":8381:8382   */\n      0x00\n        /* \"#utility.yul\":8378:8379   */\n      dup5\n        /* \"#utility.yul\":8374:8383   */\n      sgt\n        /* \"#utility.yul\":8370:8395   */\n      and\n        /* \"#utility.yul\":8366:8479   */\n      and\n        /* \"#utility.yul\":8363:8502   */\n      iszero\n      tag_199\n      jumpi\n        /* \"#utility.yul\":8482:8500   */\n      tag_200\n      tag_93\n      jump\t// in\n    tag_200:\n        /* \"#utility.yul\":8363:8502   */\n    tag_199:\n        /* \"#utility.yul\":8686:8687   */\n      dup2\n        /* \"#utility.yul\":8618:8684   */\n      0x8000000000000000000000000000000000000000000000000000000000000000\n        /* \"#utility.yul\":8613:8688   */\n      sdiv\n        /* \"#utility.yul\":8610:8611   */\n      dup4\n        /* \"#utility.yul\":8606:8689   */\n      slt\n        /* \"#utility.yul\":8601:8602   */\n      0x00\n        /* \"#utility.yul\":8598:8599   */\n      dup5\n        /* \"#utility.yul\":8594:8603   */\n      slt\n        /* \"#utility.yul\":8590:8591   */\n      0x00\n        /* \"#utility.yul\":8587:8588   */\n      dup5\n        /* \"#utility.yul\":8583:8592   */\n      sgt\n        /* \"#utility.yul\":8579:8604   */\n      and\n        /* \"#utility.yul\":8575:8690   */\n      and\n        /* \"#utility.yul\":8572:8713   */\n      iszero\n      tag_201\n      jumpi\n        /* \"#utility.yul\":8693:8711   */\n      tag_202\n      tag_93\n      jump\t// in\n    tag_202:\n        /* \"#utility.yul\":8572:8713   */\n    tag_201:\n        /* \"#utility.yul\":8897:8898   */\n      dup3\n        /* \"#utility.yul\":8829:8895   */\n      0x8000000000000000000000000000000000000000000000000000000000000000\n        /* \"#utility.yul\":8824:8899   */\n      sdiv\n        /* \"#utility.yul\":8821:8822   */\n      dup3\n        /* \"#utility.yul\":8817:8900   */\n      slt\n        /* \"#utility.yul\":8812:8813   */\n      0x00\n        /* \"#utility.yul\":8809:8810   */\n      dup5\n        /* \"#utility.yul\":8805:8814   */\n      sgt\n        /* \"#utility.yul\":8801:8802   */\n      0x00\n        /* \"#utility.yul\":8798:8799   */\n      dup5\n        /* \"#utility.yul\":8794:8803   */\n      slt\n        /* \"#utility.yul\":8790:8815   */\n      and\n        /* \"#utility.yul\":8786:8901   */\n      and\n        /* \"#utility.yul\":8783:8924   */\n      iszero\n      tag_203\n      jumpi\n        /* \"#utility.yul\":8904:8922   */\n      tag_204\n      tag_93\n      jump\t// in\n    tag_204:\n        /* \"#utility.yul\":8783:8924   */\n    tag_203:\n        /* \"#utility.yul\":9107:9108   */\n      dup3\n        /* \"#utility.yul\":9039:9105   */\n      0x7fffffffffffffffffffffffffffffffffffffffffffffffffffffffffffffff\n        /* \"#utility.yul\":9034:9109   */\n      sdiv\n        /* \"#utility.yul\":9031:9032   */\n      dup3\n        /* \"#utility.yul\":9027:9110   */\n      slt\n        /* \"#utility.yul\":9022:9023   */\n      0x00\n        /* \"#utility.yul\":9019:9020   */\n      dup5\n        /* \"#utility.yul\":9015:9024   */\n      slt\n        /* \"#utility.yul\":9011:9012   */\n      0x00\n        /* \"#utility.yul\":9008:9009   */\n      dup5\n        /* \"#utility.yul\":9004:9013   */\n      slt\n        /* \"#utility.yul\":9000:9025   */\n      and\n        /* \"#utility.yul\":8996:9111   */\n      and\n        /* \"#utility.yul\":8993:9134   */\n      iszero\n      tag_205\n      jumpi\n        /* \"#utility.yul\":9114:9132   */\n      tag_206\n      tag_93\n      jump\t// in\n    tag_206:\n        /* \"#utility.yul\":8993:9134   */\n    tag_205:\n        /* \"#utility.yul\":9162:9163   */\n      dup3\n        /* \"#utility.yul\":9159:9160   */\n      dup3\n        /* \"#utility.yul\":9155:9164   */\n      mul\n        /* \"#utility.yul\":9144:9164   */\n      swap1\n      pop\n        /* \"#utility.yul\":8179:9170   */\n      swap3\n      swap2\n      pop\n      pop\n      jump\t// out\n\n    auxdata: 0xa2646970667358221220da01a0656593bd6ec9674d33d8a326289025b8a81497e494c16e0230ebcb045964736f6c634300080e0033\n}\n",
				"bytecode": {
					"linkReferences": {},
					"object": "60806040526802b5e3af16b188000060005534801561001d57600080fd5b50610b5c8061002d6000396000f3fe60806040526004361061004a5760003560e01c80633ccfd60b1461004f5780633e47d6f31461006657806351b80e41146100a3578063b60d4288146100ce578063dc0d3dff146100d8575b600080fd5b34801561005b57600080fd5b50610064610115565b005b34801561007257600080fd5b5061008d600480360381019061008891906105d1565b610291565b60405161009a9190610617565b60405180910390f35b3480156100af57600080fd5b506100b86102a9565b6040516100c59190610617565b60405180910390f35b6100d66102af565b005b3480156100e457600080fd5b506100ff60048036038101906100fa919061065e565b6103a5565b60405161010c919061069a565b60405180910390f35b60005b6001805490508110156101c15760006001828154811061013b5761013a6106b5565b5b9060005260206000200160009054906101000a900473ffffffffffffffffffffffffffffffffffffffff1690506000600260008373ffffffffffffffffffffffffffffffffffffffff1673ffffffffffffffffffffffffffffffffffffffff168152602001908152602001600020819055505080806101b990610713565b915050610118565b50600067ffffffffffffffff8111156101dd576101dc61075b565b5b60405190808252806020026020018201604052801561020b5781602001602082028036833780820191505090505b50600190805190602001906102219291906104c7565b5060003073ffffffffffffffffffffffffffffffffffffffff1647604051610248906107bb565b60006040518083038185875af1925050503d8060008114610285576040519150601f19603f3d011682016040523d82523d6000602084013e61028a565b606091505b5050905050565b60026020528060005260406000206000915090505481565b60005481565b6000546102bb346103e4565b10156102fc576040517f08c379a00000000000000000000000000000000000000000000000000000000081526004016102f39061082d565b60405180910390fd5b6001339080600181540180825580915050600190039060005260206000200160009091909190916101000a81548173ffffffffffffffffffffffffffffffffffffffff021916908373ffffffffffffffffffffffffffffffffffffffff16021790555034600260003373ffffffffffffffffffffffffffffffffffffffff1673ffffffffffffffffffffffffffffffffffffffff16815260200190815260200160002081905550565b600181815481106103b557600080fd5b906000526020600020016000915054906101000a900473ffffffffffffffffffffffffffffffffffffffff1681565b6000806103ef61041e565b90506000670de0b6b3a76400008483610408919061084d565b61041291906108d6565b90508092505050919050565b600080738a753747a1fa494ec906ce90e9f37563a8af630e905060008173ffffffffffffffffffffffffffffffffffffffff1663feaf968c6040518163ffffffff1660e01b815260040160a060405180830381865afa158015610485573d6000803e3d6000fd5b505050506040513d601f19601f820116820180604052508101906104a99190610994565b5050509150506402540be400816104c09190610a0f565b9250505090565b828054828255906000526020600020908101928215610540579160200282015b8281111561053f5782518260006101000a81548173ffffffffffffffffffffffffffffffffffffffff021916908373ffffffffffffffffffffffffffffffffffffffff160217905550916020019190600101906104e7565b5b50905061054d9190610551565b5090565b5b8082111561056a576000816000905550600101610552565b5090565b600080fd5b600073ffffffffffffffffffffffffffffffffffffffff82169050919050565b600061059e82610573565b9050919050565b6105ae81610593565b81146105b957600080fd5b50565b6000813590506105cb816105a5565b92915050565b6000602082840312156105e7576105e661056e565b5b60006105f5848285016105bc565b91505092915050565b6000819050919050565b610611816105fe565b82525050565b600060208201905061062c6000830184610608565b92915050565b61063b816105fe565b811461064657600080fd5b50565b60008135905061065881610632565b92915050565b6000602082840312156106745761067361056e565b5b600061068284828501610649565b91505092915050565b61069481610593565b82525050565b60006020820190506106af600083018461068b565b92915050565b7f4e487b7100000000000000000000000000000000000000000000000000000000600052603260045260246000fd5b7f4e487b7100000000000000000000000000000000000000000000000000000000600052601160045260246000fd5b600061071e826105fe565b91507fffffffffffffffffffffffffffffffffffffffffffffffffffffffffffffffff82036107505761074f6106e4565b5b600182019050919050565b7f4e487b7100000000000000000000000000000000000000000000000000000000600052604160045260246000fd5b600081905092915050565b50565b60006107a560008361078a565b91506107b082610795565b600082019050919050565b60006107c682610798565b9150819050919050565b600082825260208201905092915050565b7f5072696365206973206c6f7765722c2073656e64206d6f726500000000000000600082015250565b60006108176019836107d0565b9150610822826107e1565b602082019050919050565b600060208201905081810360008301526108468161080a565b9050919050565b6000610858826105fe565b9150610863836105fe565b9250817fffffffffffffffffffffffffffffffffffffffffffffffffffffffffffffffff048311821515161561089c5761089b6106e4565b5b828202905092915050565b7f4e487b7100000000000000000000000000000000000000000000000000000000600052601260045260246000fd5b60006108e1826105fe565b91506108ec836105fe565b9250826108fc576108fb6108a7565b5b828204905092915050565b600069ffffffffffffffffffff82169050919050565b61092681610907565b811461093157600080fd5b50565b6000815190506109438161091d565b92915050565b6000819050919050565b61095c81610949565b811461096757600080fd5b50565b60008151905061097981610953565b92915050565b60008151905061098e81610632565b92915050565b600080600080600060a086880312156109b0576109af61056e565b5b60006109be88828901610934565b95505060206109cf8882890161096a565b94505060406109e08882890161097f565b93505060606109f18882890161097f565b9250506080610a0288828901610934565b9150509295509295909350565b6000610a1a82610949565b9150610a2583610949565b9250827f7fffffffffffffffffffffffffffffffffffffffffffffffffffffffffffffff0482116000841360008413161615610a6457610a636106e4565b5b817f80000000000000000000000000000000000000000000000000000000000000000583126000841260008413161615610aa157610aa06106e4565b5b827f80000000000000000000000000000000000000000000000000000000000000000582126000841360008412161615610ade57610add6106e4565b5b827f7fffffffffffffffffffffffffffffffffffffffffffffffffffffffffffffff0582126000841260008412161615610b1b57610b1a6106e4565b5b82820290509291505056fea2646970667358221220da01a0656593bd6ec9674d33d8a326289025b8a81497e494c16e0230ebcb045964736f6c634300080e0033",
					"opcodes": "PUSH1 0x80 PUSH1 0x40 MSTORE PUSH9 0x2B5E3AF16B1880000 PUSH1 0x0 SSTORE CALLVALUE DUP1 ISZERO PUSH2 0x1D JUMPI PUSH1 0x0 DUP1 REVERT JUMPDEST POP PUSH2 0xB5C DUP1 PUSH2 0x2D PUSH1 0x0 CODECOPY PUSH1 0x0 RETURN INVALID PUSH1 0x80 PUSH1 0x40 MSTORE PUSH1 0x4 CALLDATASIZE LT PUSH2 0x4A JUMPI PUSH1 0x0 CALLDATALOAD PUSH1 0xE0 SHR DUP1 PUSH4 0x3CCFD60B EQ PUSH2 0x4F JUMPI DUP1 PUSH4 0x3E47D6F3 EQ PUSH2 0x66 JUMPI DUP1 PUSH4 0x51B80E41 EQ PUSH2 0xA3 JUMPI DUP1 PUSH4 0xB60D4288 EQ PUSH2 0xCE JUMPI DUP1 PUSH4 0xDC0D3DFF EQ PUSH2 0xD8 JUMPI JUMPDEST PUSH1 0x0 DUP1 REVERT JUMPDEST CALLVALUE DUP1 ISZERO PUSH2 0x5B JUMPI PUSH1 0x0 DUP1 REVERT JUMPDEST POP PUSH2 0x64 PUSH2 0x115 JUMP JUMPDEST STOP JUMPDEST CALLVALUE DUP1 ISZERO PUSH2 0x72 JUMPI PUSH1 0x0 DUP1 REVERT JUMPDEST POP PUSH2 0x8D PUSH1 0x4 DUP1 CALLDATASIZE SUB DUP2 ADD SWAP1 PUSH2 0x88 SWAP2 SWAP1 PUSH2 0x5D1 JUMP JUMPDEST PUSH2 0x291 JUMP JUMPDEST PUSH1 0x40 MLOAD PUSH2 0x9A SWAP2 SWAP1 PUSH2 0x617 JUMP JUMPDEST PUSH1 0x40 MLOAD DUP1 SWAP2 SUB SWAP1 RETURN JUMPDEST CALLVALUE DUP1 ISZERO PUSH2 0xAF JUMPI PUSH1 0x0 DUP1 REVERT JUMPDEST POP PUSH2 0xB8 PUSH2 0x2A9 JUMP JUMPDEST PUSH1 0x40 MLOAD PUSH2 0xC5 SWAP2 SWAP1 PUSH2 0x617 JUMP JUMPDEST PUSH1 0x40 MLOAD DUP1 SWAP2 SUB SWAP1 RETURN JUMPDEST PUSH2 0xD6 PUSH2 0x2AF JUMP JUMPDEST STOP JUMPDEST CALLVALUE DUP1 ISZERO PUSH2 0xE4 JUMPI PUSH1 0x0 DUP1 REVERT JUMPDEST POP PUSH2 0xFF PUSH1 0x4 DUP1 CALLDATASIZE SUB DUP2 ADD SWAP1 PUSH2 0xFA SWAP2 SWAP1 PUSH2 0x65E JUMP JUMPDEST PUSH2 0x3A5 JUMP JUMPDEST PUSH1 0x40 MLOAD PUSH2 0x10C SWAP2 SWAP1 PUSH2 0x69A JUMP JUMPDEST PUSH1 0x40 MLOAD DUP1 SWAP2 SUB SWAP1 RETURN JUMPDEST PUSH1 0x0 JUMPDEST PUSH1 0x1 DUP1 SLOAD SWAP1 POP DUP2 LT ISZERO PUSH2 0x1C1 JUMPI PUSH1 0x0 PUSH1 0x1 DUP3 DUP2 SLOAD DUP2 LT PUSH2 0x13B JUMPI PUSH2 0x13A PUSH2 0x6B5 JUMP JUMPDEST JUMPDEST SWAP1 PUSH1 0x0 MSTORE PUSH1 0x20 PUSH1 0x0 KECCAK256 ADD PUSH1 0x0 SWAP1 SLOAD SWAP1 PUSH2 0x100 EXP SWAP1 DIV PUSH20 0xFFFFFFFFFFFFFFFFFFFFFFFFFFFFFFFFFFFFFFFF AND SWAP1 POP PUSH1 0x0 PUSH1 0x2 PUSH1 0x0 DUP4 PUSH20 0xFFFFFFFFFFFFFFFFFFFFFFFFFFFFFFFFFFFFFFFF AND PUSH20 0xFFFFFFFFFFFFFFFFFFFFFFFFFFFFFFFFFFFFFFFF AND DUP2 MSTORE PUSH1 0x20 ADD SWAP1 DUP2 MSTORE PUSH1 0x20 ADD PUSH1 0x0 KECCAK256 DUP2 SWAP1 SSTORE POP POP DUP1 DUP1 PUSH2 0x1B9 SWAP1 PUSH2 0x713 JUMP JUMPDEST SWAP2 POP POP PUSH2 0x118 JUMP JUMPDEST POP PUSH1 0x0 PUSH8 0xFFFFFFFFFFFFFFFF DUP2 GT ISZERO PUSH2 0x1DD JUMPI PUSH2 0x1DC PUSH2 0x75B JUMP JUMPDEST JUMPDEST PUSH1 0x40 MLOAD SWAP1 DUP1 DUP3 MSTORE DUP1 PUSH1 0x20 MUL PUSH1 0x20 ADD DUP3 ADD PUSH1 0x40 MSTORE DUP1 ISZERO PUSH2 0x20B JUMPI DUP2 PUSH1 0x20 ADD PUSH1 0x20 DUP3 MUL DUP1 CALLDATASIZE DUP4 CALLDATACOPY DUP1 DUP3 ADD SWAP2 POP POP SWAP1 POP JUMPDEST POP PUSH1 0x1 SWAP1 DUP1 MLOAD SWAP1 PUSH1 0x20 ADD SWAP1 PUSH2 0x221 SWAP3 SWAP2 SWAP1 PUSH2 0x4C7 JUMP JUMPDEST POP PUSH1 0x0 ADDRESS PUSH20 0xFFFFFFFFFFFFFFFFFFFFFFFFFFFFFFFFFFFFFFFF AND SELFBALANCE PUSH1 0x40 MLOAD PUSH2 0x248 SWAP1 PUSH2 0x7BB JUMP JUMPDEST PUSH1 0x0 PUSH1 0x40 MLOAD DUP1 DUP4 SUB DUP2 DUP6 DUP8 GAS CALL SWAP3 POP POP POP RETURNDATASIZE DUP1 PUSH1 0x0 DUP2 EQ PUSH2 0x285 JUMPI PUSH1 0x40 MLOAD SWAP2 POP PUSH1 0x1F NOT PUSH1 0x3F RETURNDATASIZE ADD AND DUP3 ADD PUSH1 0x40 MSTORE RETURNDATASIZE DUP3 MSTORE RETURNDATASIZE PUSH1 0x0 PUSH1 0x20 DUP5 ADD RETURNDATACOPY PUSH2 0x28A JUMP JUMPDEST PUSH1 0x60 SWAP2 POP JUMPDEST POP POP SWAP1 POP POP JUMP JUMPDEST PUSH1 0x2 PUSH1 0x20 MSTORE DUP1 PUSH1 0x0 MSTORE PUSH1 0x40 PUSH1 0x0 KECCAK256 PUSH1 0x0 SWAP2 POP SWAP1 POP SLOAD DUP2 JUMP JUMPDEST PUSH1 0x0 SLOAD DUP2 JUMP JUMPDEST PUSH1 0x0 SLOAD PUSH2 0x2BB CALLVALUE PUSH2 0x3E4 JUMP JUMPDEST LT ISZERO PUSH2 0x2FC JUMPI PUSH1 0x40 MLOAD PUSH32 0x8C379A000000000000000000000000000000000000000000000000000000000 DUP2 MSTORE PUSH1 0x4 ADD PUSH2 0x2F3 SWAP1 PUSH2 0x82D JUMP JUMPDEST PUSH1 0x40 MLOAD DUP1 SWAP2 SUB SWAP1 REVERT JUMPDEST PUSH1 0x1 CALLER SWAP1 DUP1 PUSH1 0x1 DUP2 SLOAD ADD DUP1 DUP3 SSTORE DUP1 SWAP2 POP POP PUSH1 0x1 SWAP1 SUB SWAP1 PUSH1 0x0 MSTORE PUSH1 0x20 PUSH1 0x0 KECCAK256 ADD PUSH1 0x0 SWAP1 SWAP2 SWAP1 SWAP2 SWAP1 SWAP2 PUSH2 0x100 EXP DUP2 SLOAD DUP2 PUSH20 0xFFFFFFFFFFFFFFFFFFFFFFFFFFFFFFFFFFFFFFFF MUL NOT AND SWAP1 DUP4 PUSH20 0xFFFFFFFFFFFFFFFFFFFFFFFFFFFFFFFFFFFFFFFF AND MUL OR SWAP1 SSTORE POP CALLVALUE PUSH1 0x2 PUSH1 0x0 CALLER PUSH20 0xFFFFFFFFFFFFFFFFFFFFFFFFFFFFFFFFFFFFFFFF AND PUSH20 0xFFFFFFFFFFFFFFFFFFFFFFFFFFFFFFFFFFFFFFFF AND DUP2 MSTORE PUSH1 0x20 ADD SWAP1 DUP2 MSTORE PUSH1 0x20 ADD PUSH1 0x0 KECCAK256 DUP2 SWAP1 SSTORE POP JUMP JUMPDEST PUSH1 0x1 DUP2 DUP2 SLOAD DUP2 LT PUSH2 0x3B5 JUMPI PUSH1 0x0 DUP1 REVERT JUMPDEST SWAP1 PUSH1 0x0 MSTORE PUSH1 0x20 PUSH1 0x0 KECCAK256 ADD PUSH1 0x0 SWAP2 POP SLOAD SWAP1 PUSH2 0x100 EXP SWAP1 DIV PUSH20 0xFFFFFFFFFFFFFFFFFFFFFFFFFFFFFFFFFFFFFFFF AND DUP2 JUMP JUMPDEST PUSH1 0x0 DUP1 PUSH2 0x3EF PUSH2 0x41E JUMP JUMPDEST SWAP1 POP PUSH1 0x0 PUSH8 0xDE0B6B3A7640000 DUP5 DUP4 PUSH2 0x408 SWAP2 SWAP1 PUSH2 0x84D JUMP JUMPDEST PUSH2 0x412 SWAP2 SWAP1 PUSH2 0x8D6 JUMP JUMPDEST SWAP1 POP DUP1 SWAP3 POP POP POP SWAP2 SWAP1 POP JUMP JUMPDEST PUSH1 0x0 DUP1 PUSH20 0x8A753747A1FA494EC906CE90E9F37563A8AF630E SWAP1 POP PUSH1 0x0 DUP2 PUSH20 0xFFFFFFFFFFFFFFFFFFFFFFFFFFFFFFFFFFFFFFFF AND PUSH4 0xFEAF968C PUSH1 0x40 MLOAD DUP2 PUSH4 0xFFFFFFFF AND PUSH1 0xE0 SHL DUP2 MSTORE PUSH1 0x4 ADD PUSH1 0xA0 PUSH1 0x40 MLOAD DUP1 DUP4 SUB DUP2 DUP7 GAS STATICCALL ISZERO DUP1 ISZERO PUSH2 0x485 JUMPI RETURNDATASIZE PUSH1 0x0 DUP1 RETURNDATACOPY RETURNDATASIZE PUSH1 0x0 REVERT JUMPDEST POP POP POP POP PUSH1 0x40 MLOAD RETURNDATASIZE PUSH1 0x1F NOT PUSH1 0x1F DUP3 ADD AND DUP3 ADD DUP1 PUSH1 0x40 MSTORE POP DUP2 ADD SWAP1 PUSH2 0x4A9 SWAP2 SWAP1 PUSH2 0x994 JUMP JUMPDEST POP POP POP SWAP2 POP POP PUSH5 0x2540BE400 DUP2 PUSH2 0x4C0 SWAP2 SWAP1 PUSH2 0xA0F JUMP JUMPDEST SWAP3 POP POP POP SWAP1 JUMP JUMPDEST DUP3 DUP1 SLOAD DUP3 DUP3 SSTORE SWAP1 PUSH1 0x0 MSTORE PUSH1 0x20 PUSH1 0x0 KECCAK256 SWAP1 DUP2 ADD SWAP3 DUP3 ISZERO PUSH2 0x540 JUMPI SWAP2 PUSH1 0x20 MUL DUP3 ADD JUMPDEST DUP3 DUP2 GT ISZERO PUSH2 0x53F JUMPI DUP3 MLOAD DUP3 PUSH1 0x0 PUSH2 0x100 EXP DUP2 SLOAD DUP2 PUSH20 0xFFFFFFFFFFFFFFFFFFFFFFFFFFFFFFFFFFFFFFFF MUL NOT AND SWAP1 DUP4 PUSH20 0xFFFFFFFFFFFFFFFFFFFFFFFFFFFFFFFFFFFFFFFF AND MUL OR SWAP1 SSTORE POP SWAP2 PUSH1 0x20 ADD SWAP2 SWAP1 PUSH1 0x1 ADD SWAP1 PUSH2 0x4E7 JUMP JUMPDEST JUMPDEST POP SWAP1 POP PUSH2 0x54D SWAP2 SWAP1 PUSH2 0x551 JUMP JUMPDEST POP SWAP1 JUMP JUMPDEST JUMPDEST DUP1 DUP3 GT ISZERO PUSH2 0x56A JUMPI PUSH1 0x0 DUP2 PUSH1 0x0 SWAP1 SSTORE POP PUSH1 0x1 ADD PUSH2 0x552 JUMP JUMPDEST POP SWAP1 JUMP JUMPDEST PUSH1 0x0 DUP1 REVERT JUMPDEST PUSH1 0x0 PUSH20 0xFFFFFFFFFFFFFFFFFFFFFFFFFFFFFFFFFFFFFFFF DUP3 AND SWAP1 POP SWAP2 SWAP1 POP JUMP JUMPDEST PUSH1 0x0 PUSH2 0x59E DUP3 PUSH2 0x573 JUMP JUMPDEST SWAP1 POP SWAP2 SWAP1 POP JUMP JUMPDEST PUSH2 0x5AE DUP2 PUSH2 0x593 JUMP JUMPDEST DUP2 EQ PUSH2 0x5B9 JUMPI PUSH1 0x0 DUP1 REVERT JUMPDEST POP JUMP JUMPDEST PUSH1 0x0 DUP2 CALLDATALOAD SWAP1 POP PUSH2 0x5CB DUP2 PUSH2 0x5A5 JUMP JUMPDEST SWAP3 SWAP2 POP POP JUMP JUMPDEST PUSH1 0x0 PUSH1 0x20 DUP3 DUP5 SUB SLT ISZERO PUSH2 0x5E7 JUMPI PUSH2 0x5E6 PUSH2 0x56E JUMP JUMPDEST JUMPDEST PUSH1 0x0 PUSH2 0x5F5 DUP5 DUP3 DUP6 ADD PUSH2 0x5BC JUMP JUMPDEST SWAP2 POP POP SWAP3 SWAP2 POP POP JUMP JUMPDEST PUSH1 0x0 DUP2 SWAP1 POP SWAP2 SWAP1 POP JUMP JUMPDEST PUSH2 0x611 DUP2 PUSH2 0x5FE JUMP JUMPDEST DUP3 MSTORE POP POP JUMP JUMPDEST PUSH1 0x0 PUSH1 0x20 DUP3 ADD SWAP1 POP PUSH2 0x62C PUSH1 0x0 DUP4 ADD DUP5 PUSH2 0x608 JUMP JUMPDEST SWAP3 SWAP2 POP POP JUMP JUMPDEST PUSH2 0x63B DUP2 PUSH2 0x5FE JUMP JUMPDEST DUP2 EQ PUSH2 0x646 JUMPI PUSH1 0x0 DUP1 REVERT JUMPDEST POP JUMP JUMPDEST PUSH1 0x0 DUP2 CALLDATALOAD SWAP1 POP PUSH2 0x658 DUP2 PUSH2 0x632 JUMP JUMPDEST SWAP3 SWAP2 POP POP JUMP JUMPDEST PUSH1 0x0 PUSH1 0x20 DUP3 DUP5 SUB SLT ISZERO PUSH2 0x674 JUMPI PUSH2 0x673 PUSH2 0x56E JUMP JUMPDEST JUMPDEST PUSH1 0x0 PUSH2 0x682 DUP5 DUP3 DUP6 ADD PUSH2 0x649 JUMP JUMPDEST SWAP2 POP POP SWAP3 SWAP2 POP POP JUMP JUMPDEST PUSH2 0x694 DUP2 PUSH2 0x593 JUMP JUMPDEST DUP3 MSTORE POP POP JUMP JUMPDEST PUSH1 0x0 PUSH1 0x20 DUP3 ADD SWAP1 POP PUSH2 0x6AF PUSH1 0x0 DUP4 ADD DUP5 PUSH2 0x68B JUMP JUMPDEST SWAP3 SWAP2 POP POP JUMP JUMPDEST PUSH32 0x4E487B7100000000000000000000000000000000000000000000000000000000 PUSH1 0x0 MSTORE PUSH1 0x32 PUSH1 0x4 MSTORE PUSH1 0x24 PUSH1 0x0 REVERT JUMPDEST PUSH32 0x4E487B7100000000000000000000000000000000000000000000000000000000 PUSH1 0x0 MSTORE PUSH1 0x11 PUSH1 0x4 MSTORE PUSH1 0x24 PUSH1 0x0 REVERT JUMPDEST PUSH1 0x0 PUSH2 0x71E DUP3 PUSH2 0x5FE JUMP JUMPDEST SWAP2 POP PUSH32 0xFFFFFFFFFFFFFFFFFFFFFFFFFFFFFFFFFFFFFFFFFFFFFFFFFFFFFFFFFFFFFFFF DUP3 SUB PUSH2 0x750 JUMPI PUSH2 0x74F PUSH2 0x6E4 JUMP JUMPDEST JUMPDEST PUSH1 0x1 DUP3 ADD SWAP1 POP SWAP2 SWAP1 POP JUMP JUMPDEST PUSH32 0x4E487B7100000000000000000000000000000000000000000000000000000000 PUSH1 0x0 MSTORE PUSH1 0x41 PUSH1 0x4 MSTORE PUSH1 0x24 PUSH1 0x0 REVERT JUMPDEST PUSH1 0x0 DUP2 SWAP1 POP SWAP3 SWAP2 POP POP JUMP JUMPDEST POP JUMP JUMPDEST PUSH1 0x0 PUSH2 0x7A5 PUSH1 0x0 DUP4 PUSH2 0x78A JUMP JUMPDEST SWAP2 POP PUSH2 0x7B0 DUP3 PUSH2 0x795 JUMP JUMPDEST PUSH1 0x0 DUP3 ADD SWAP1 POP SWAP2 SWAP1 POP JUMP JUMPDEST PUSH1 0x0 PUSH2 0x7C6 DUP3 PUSH2 0x798 JUMP JUMPDEST SWAP2 POP DUP2 SWAP1 POP SWAP2 SWAP1 POP JUMP JUMPDEST PUSH1 0x0 DUP3 DUP3 MSTORE PUSH1 0x20 DUP3 ADD SWAP1 POP SWAP3 SWAP2 POP POP JUMP JUMPDEST PUSH32 0x5072696365206973206C6F7765722C2073656E64206D6F726500000000000000 PUSH1 0x0 DUP3 ADD MSTORE POP JUMP JUMPDEST PUSH1 0x0 PUSH2 0x817 PUSH1 0x19 DUP4 PUSH2 0x7D0 JUMP JUMPDEST SWAP2 POP PUSH2 0x822 DUP3 PUSH2 0x7E1 JUMP JUMPDEST PUSH1 0x20 DUP3 ADD SWAP1 POP SWAP2 SWAP1 POP JUMP JUMPDEST PUSH1 0x0 PUSH1 0x20 DUP3 ADD SWAP1 POP DUP2 DUP2 SUB PUSH1 0x0 DUP4 ADD MSTORE PUSH2 0x846 DUP2 PUSH2 0x80A JUMP JUMPDEST SWAP1 POP SWAP2 SWAP1 POP JUMP JUMPDEST PUSH1 0x0 PUSH2 0x858 DUP3 PUSH2 0x5FE JUMP JUMPDEST SWAP2 POP PUSH2 0x863 DUP4 PUSH2 0x5FE JUMP JUMPDEST SWAP3 POP DUP2 PUSH32 0xFFFFFFFFFFFFFFFFFFFFFFFFFFFFFFFFFFFFFFFFFFFFFFFFFFFFFFFFFFFFFFFF DIV DUP4 GT DUP3 ISZERO ISZERO AND ISZERO PUSH2 0x89C JUMPI PUSH2 0x89B PUSH2 0x6E4 JUMP JUMPDEST JUMPDEST DUP3 DUP3 MUL SWAP1 POP SWAP3 SWAP2 POP POP JUMP JUMPDEST PUSH32 0x4E487B7100000000000000000000000000000000000000000000000000000000 PUSH1 0x0 MSTORE PUSH1 0x12 PUSH1 0x4 MSTORE PUSH1 0x24 PUSH1 0x0 REVERT JUMPDEST PUSH1 0x0 PUSH2 0x8E1 DUP3 PUSH2 0x5FE JUMP JUMPDEST SWAP2 POP PUSH2 0x8EC DUP4 PUSH2 0x5FE JUMP JUMPDEST SWAP3 POP DUP3 PUSH2 0x8FC JUMPI PUSH2 0x8FB PUSH2 0x8A7 JUMP JUMPDEST JUMPDEST DUP3 DUP3 DIV SWAP1 POP SWAP3 SWAP2 POP POP JUMP JUMPDEST PUSH1 0x0 PUSH10 0xFFFFFFFFFFFFFFFFFFFF DUP3 AND SWAP1 POP SWAP2 SWAP1 POP JUMP JUMPDEST PUSH2 0x926 DUP2 PUSH2 0x907 JUMP JUMPDEST DUP2 EQ PUSH2 0x931 JUMPI PUSH1 0x0 DUP1 REVERT JUMPDEST POP JUMP JUMPDEST PUSH1 0x0 DUP2 MLOAD SWAP1 POP PUSH2 0x943 DUP2 PUSH2 0x91D JUMP JUMPDEST SWAP3 SWAP2 POP POP JUMP JUMPDEST PUSH1 0x0 DUP2 SWAP1 POP SWAP2 SWAP1 POP JUMP JUMPDEST PUSH2 0x95C DUP2 PUSH2 0x949 JUMP JUMPDEST DUP2 EQ PUSH2 0x967 JUMPI PUSH1 0x0 DUP1 REVERT JUMPDEST POP JUMP JUMPDEST PUSH1 0x0 DUP2 MLOAD SWAP1 POP PUSH2 0x979 DUP2 PUSH2 0x953 JUMP JUMPDEST SWAP3 SWAP2 POP POP JUMP JUMPDEST PUSH1 0x0 DUP2 MLOAD SWAP1 POP PUSH2 0x98E DUP2 PUSH2 0x632 JUMP JUMPDEST SWAP3 SWAP2 POP POP JUMP JUMPDEST PUSH1 0x0 DUP1 PUSH1 0x0 DUP1 PUSH1 0x0 PUSH1 0xA0 DUP7 DUP9 SUB SLT ISZERO PUSH2 0x9B0 JUMPI PUSH2 0x9AF PUSH2 0x56E JUMP JUMPDEST JUMPDEST PUSH1 0x0 PUSH2 0x9BE DUP9 DUP3 DUP10 ADD PUSH2 0x934 JUMP JUMPDEST SWAP6 POP POP PUSH1 0x20 PUSH2 0x9CF DUP9 DUP3 DUP10 ADD PUSH2 0x96A JUMP JUMPDEST SWAP5 POP POP PUSH1 0x40 PUSH2 0x9E0 DUP9 DUP3 DUP10 ADD PUSH2 0x97F JUMP JUMPDEST SWAP4 POP POP PUSH1 0x60 PUSH2 0x9F1 DUP9 DUP3 DUP10 ADD PUSH2 0x97F JUMP JUMPDEST SWAP3 POP POP PUSH1 0x80 PUSH2 0xA02 DUP9 DUP3 DUP10 ADD PUSH2 0x934 JUMP JUMPDEST SWAP2 POP POP SWAP3 SWAP6 POP SWAP3 SWAP6 SWAP1 SWAP4 POP JUMP JUMPDEST PUSH1 0x0 PUSH2 0xA1A DUP3 PUSH2 0x949 JUMP JUMPDEST SWAP2 POP PUSH2 0xA25 DUP4 PUSH2 0x949 JUMP JUMPDEST SWAP3 POP DUP3 PUSH32 0x7FFFFFFFFFFFFFFFFFFFFFFFFFFFFFFFFFFFFFFFFFFFFFFFFFFFFFFFFFFFFFFF DIV DUP3 GT PUSH1 0x0 DUP5 SGT PUSH1 0x0 DUP5 SGT AND AND ISZERO PUSH2 0xA64 JUMPI PUSH2 0xA63 PUSH2 0x6E4 JUMP JUMPDEST JUMPDEST DUP2 PUSH32 0x8000000000000000000000000000000000000000000000000000000000000000 SDIV DUP4 SLT PUSH1 0x0 DUP5 SLT PUSH1 0x0 DUP5 SGT AND AND ISZERO PUSH2 0xAA1 JUMPI PUSH2 0xAA0 PUSH2 0x6E4 JUMP JUMPDEST JUMPDEST DUP3 PUSH32 0x8000000000000000000000000000000000000000000000000000000000000000 SDIV DUP3 SLT PUSH1 0x0 DUP5 SGT PUSH1 0x0 DUP5 SLT AND AND ISZERO PUSH2 0xADE JUMPI PUSH2 0xADD PUSH2 0x6E4 JUMP JUMPDEST JUMPDEST DUP3 PUSH32 0x7FFFFFFFFFFFFFFFFFFFFFFFFFFFFFFFFFFFFFFFFFFFFFFFFFFFFFFFFFFFFFFF SDIV DUP3 SLT PUSH1 0x0 DUP5 SLT PUSH1 0x0 DUP5 SLT AND AND ISZERO PUSH2 0xB1B JUMPI PUSH2 0xB1A PUSH2 0x6E4 JUMP JUMPDEST JUMPDEST DUP3 DUP3 MUL SWAP1 POP SWAP3 SWAP2 POP POP JUMP INVALID LOG2 PUSH5 0x6970667358 0x22 SLT KECCAK256 0xDA ADD LOG0 PUSH6 0x6593BD6EC967 0x4D CALLER 0xD8 LOG3 0x26 0x28 SWAP1 0x25 0xB8 0xA8 EQ SWAP8 0xE4 SWAP5 0xC1 PUSH15 0x230EBCB045964736F6C634300080E STOP CALLER "
				},
				"gasEstimates": {
					"creation": {
						"codeDepositCost": "581600",
						"executionCost": "22719",
						"totalCost": "604319"
					},
					"external": {
						"addressToAmountFunded(address)": "2814",
						"fund()": "infinite",
						"funders(uint256)": "5022",
						"minUsd()": "2451",
						"withdraw()": "infinite"
					}
				},
				"methodIdentifiers": {
					"addressToAmountFunded(address)": "3e47d6f3",
					"fund()": "b60d4288",
					"funders(uint256)": "dc0d3dff",
					"minUsd()": "51b80e41",
					"withdraw()": "3ccfd60b"
				}
			},
			"storageLayout": {
				"storage": [
					{
						"astId": 56,
						"contract": "fundMe/FundMe.sol:FundMe",
						"label": "minUsd",
						"offset": 0,
						"slot": "0",
						"type": "t_uint256"
					},
					{
						"astId": 59,
						"contract": "fundMe/FundMe.sol:FundMe",
						"label": "funders",
						"offset": 0,
						"slot": "1",
						"type": "t_array(t_address)dyn_storage"
					},
					{
						"astId": 63,
						"contract": "fundMe/FundMe.sol:FundMe",
						"label": "addressToAmountFunded",
						"offset": 0,
						"slot": "2",
						"type": "t_mapping(t_address,t_uint256)"
					}
				],
				"types": {
					"t_address": {
						"encoding": "inplace",
						"label": "address",
						"numberOfBytes": "20"
					},
					"t_array(t_address)dyn_storage": {
						"base": "t_address",
						"encoding": "dynamic_array",
						"label": "address[]",
						"numberOfBytes": "32"
					},
					"t_mapping(t_address,t_uint256)": {
						"encoding": "mapping",
						"key": "t_address",
						"label": "mapping(address => uint256)",
						"numberOfBytes": "32",
						"value": "t_uint256"
					},
					"t_uint256": {
						"encoding": "inplace",
						"label": "uint256",
						"numberOfBytes": "32"
					}
				}
			},
			"userdoc": {
				"kind": "user",
				"methods": {},
				"version": 1
			}
		}
	}
}