{
	"fundMe/FundMe.sol": {
		"FundMe": {
			"abi": [
				{
					"inputs": [
						{
							"internalType": "address",
							"name": "",
							"type": "address"
						}
					],
					"name": "addressToAmountFunded",
					"outputs": [
						{
							"internalType": "uint256",
							"name": "",
							"type": "uint256"
						}
					],
					"stateMutability": "view",
					"type": "function"
				},
				{
					"inputs": [],
					"name": "fund",
					"outputs": [],
					"stateMutability": "payable",
					"type": "function"
				},
				{
					"inputs": [
						{
							"internalType": "uint256",
							"name": "",
							"type": "uint256"
						}
					],
					"name": "funders",
					"outputs": [
						{
							"internalType": "address",
							"name": "",
							"type": "address"
						}
					],
					"stateMutability": "view",
					"type": "function"
				},
				{
					"inputs": [
						{
							"internalType": "uint256",
							"name": "_ethAmount",
							"type": "uint256"
						}
					],
					"name": "getConversionRate",
					"outputs": [
						{
							"internalType": "uint256",
							"name": "",
							"type": "uint256"
						}
					],
					"stateMutability": "view",
					"type": "function"
				},
				{
					"inputs": [],
					"name": "getPrice",
					"outputs": [
						{
							"internalType": "uint256",
							"name": "",
							"type": "uint256"
						}
					],
					"stateMutability": "view",
					"type": "function"
				},
				{
					"inputs": [],
					"name": "minUsd",
					"outputs": [
						{
							"internalType": "uint256",
							"name": "",
							"type": "uint256"
						}
					],
					"stateMutability": "view",
					"type": "function"
				}
			],
			"devdoc": {
				"kind": "dev",
				"methods": {},
				"version": 1
			},
			"evm": {
				"assembly": "    /* \"fundMe/FundMe.sol\":135:1171  contract FundMe {... */\n  mstore(0x40, 0x80)\n    /* \"fundMe/FundMe.sol\":180:189  50 * 1e18 */\n  0x02b5e3af16b1880000\n    /* \"fundMe/FundMe.sol\":158:189  uint public  minUsd = 50 * 1e18 */\n  0x00\n  sstore\n    /* \"fundMe/FundMe.sol\":135:1171  contract FundMe {... */\n  callvalue\n  dup1\n  iszero\n  tag_1\n  jumpi\n  0x00\n  dup1\n  revert\ntag_1:\n  pop\n  dataSize(sub_0)\n  dup1\n  dataOffset(sub_0)\n  0x00\n  codecopy\n  0x00\n  return\nstop\n\nsub_0: assembly {\n        /* \"fundMe/FundMe.sol\":135:1171  contract FundMe {... */\n      mstore(0x40, 0x80)\n      jumpi(tag_1, lt(calldatasize, 0x04))\n      shr(0xe0, calldataload(0x00))\n      dup1\n      0x3e47d6f3\n      eq\n      tag_2\n      jumpi\n      dup1\n      0x51b80e41\n      eq\n      tag_3\n      jumpi\n      dup1\n      0x6e5b6b28\n      eq\n      tag_4\n      jumpi\n      dup1\n      0x98d5fdca\n      eq\n      tag_5\n      jumpi\n      dup1\n      0xb60d4288\n      eq\n      tag_6\n      jumpi\n      dup1\n      0xdc0d3dff\n      eq\n      tag_7\n      jumpi\n    tag_1:\n      0x00\n      dup1\n      revert\n        /* \"fundMe/FundMe.sol\":226:279  mapping(address => uint) public addressToAmountFunded */\n    tag_2:\n      callvalue\n      dup1\n      iszero\n      tag_8\n      jumpi\n      0x00\n      dup1\n      revert\n    tag_8:\n      pop\n      tag_9\n      0x04\n      dup1\n      calldatasize\n      sub\n      dup2\n      add\n      swap1\n      tag_10\n      swap2\n      swap1\n      tag_11\n      jump\t// in\n    tag_10:\n      tag_12\n      jump\t// in\n    tag_9:\n      mload(0x40)\n      tag_13\n      swap2\n      swap1\n      tag_14\n      jump\t// in\n    tag_13:\n      mload(0x40)\n      dup1\n      swap2\n      sub\n      swap1\n      return\n        /* \"fundMe/FundMe.sol\":158:189  uint public  minUsd = 50 * 1e18 */\n    tag_3:\n      callvalue\n      dup1\n      iszero\n      tag_15\n      jumpi\n      0x00\n      dup1\n      revert\n    tag_15:\n      pop\n      tag_16\n      tag_17\n      jump\t// in\n    tag_16:\n      mload(0x40)\n      tag_18\n      swap2\n      swap1\n      tag_14\n      jump\t// in\n    tag_18:\n      mload(0x40)\n      dup1\n      swap2\n      sub\n      swap1\n      return\n        /* \"fundMe/FundMe.sol\":954:1168  function getConversionRate(uint _ethAmount) public view returns(uint) {... */\n    tag_4:\n      callvalue\n      dup1\n      iszero\n      tag_19\n      jumpi\n      0x00\n      dup1\n      revert\n    tag_19:\n      pop\n      tag_20\n      0x04\n      dup1\n      calldatasize\n      sub\n      dup2\n      add\n      swap1\n      tag_21\n      swap2\n      swap1\n      tag_22\n      jump\t// in\n    tag_21:\n      tag_23\n      jump\t// in\n    tag_20:\n      mload(0x40)\n      tag_24\n      swap2\n      swap1\n      tag_14\n      jump\t// in\n    tag_24:\n      mload(0x40)\n      dup1\n      swap2\n      sub\n      swap1\n      return\n        /* \"fundMe/FundMe.sol\":460:948  function getPrice() public view returns (uint) {... */\n    tag_5:\n      callvalue\n      dup1\n      iszero\n      tag_25\n      jumpi\n      0x00\n      dup1\n      revert\n    tag_25:\n      pop\n      tag_26\n      tag_27\n      jump\t// in\n    tag_26:\n      mload(0x40)\n      tag_28\n      swap2\n      swap1\n      tag_14\n      jump\t// in\n    tag_28:\n      mload(0x40)\n      dup1\n      swap2\n      sub\n      swap1\n      return\n        /* \"fundMe/FundMe.sol\":286:454  function fund() public payable {... */\n    tag_6:\n      tag_29\n      tag_30\n      jump\t// in\n    tag_29:\n      stop\n        /* \"fundMe/FundMe.sol\":196:220  address[] public funders */\n    tag_7:\n      callvalue\n      dup1\n      iszero\n      tag_31\n      jumpi\n      0x00\n      dup1\n      revert\n    tag_31:\n      pop\n      tag_32\n      0x04\n      dup1\n      calldatasize\n      sub\n      dup2\n      add\n      swap1\n      tag_33\n      swap2\n      swap1\n      tag_22\n      jump\t// in\n    tag_33:\n      tag_34\n      jump\t// in\n    tag_32:\n      mload(0x40)\n      tag_35\n      swap2\n      swap1\n      tag_36\n      jump\t// in\n    tag_35:\n      mload(0x40)\n      dup1\n      swap2\n      sub\n      swap1\n      return\n        /* \"fundMe/FundMe.sol\":226:279  mapping(address => uint) public addressToAmountFunded */\n    tag_12:\n      mstore(0x20, 0x02)\n      dup1\n      0x00\n      mstore\n      keccak256(0x00, 0x40)\n      0x00\n      swap2\n      pop\n      swap1\n      pop\n      sload\n      dup2\n      jump\t// out\n        /* \"fundMe/FundMe.sol\":158:189  uint public  minUsd = 50 * 1e18 */\n    tag_17:\n      sload(0x00)\n      dup2\n      jump\t// out\n        /* \"fundMe/FundMe.sol\":954:1168  function getConversionRate(uint _ethAmount) public view returns(uint) {... */\n    tag_23:\n        /* \"fundMe/FundMe.sol\":1018:1022  uint */\n      0x00\n        /* \"fundMe/FundMe.sol\":1034:1051  uint currEthPrice */\n      dup1\n        /* \"fundMe/FundMe.sol\":1054:1064  getPrice() */\n      tag_38\n        /* \"fundMe/FundMe.sol\":1054:1062  getPrice */\n      tag_27\n        /* \"fundMe/FundMe.sol\":1054:1064  getPrice() */\n      jump\t// in\n    tag_38:\n        /* \"fundMe/FundMe.sol\":1034:1064  uint currEthPrice = getPrice() */\n      swap1\n      pop\n        /* \"fundMe/FundMe.sol\":1074:1093  uint ethAmountToUSD */\n      0x00\n        /* \"fundMe/FundMe.sol\":1126:1130  1e18 */\n      0x0de0b6b3a7640000\n        /* \"fundMe/FundMe.sol\":1112:1122  _ethAmount */\n      dup5\n        /* \"fundMe/FundMe.sol\":1097:1109  currEthPrice */\n      dup4\n        /* \"fundMe/FundMe.sol\":1097:1122  currEthPrice * _ethAmount */\n      tag_39\n      swap2\n      swap1\n      tag_40\n      jump\t// in\n    tag_39:\n        /* \"fundMe/FundMe.sol\":1096:1130  (currEthPrice * _ethAmount) / 1e18 */\n      tag_41\n      swap2\n      swap1\n      tag_42\n      jump\t// in\n    tag_41:\n        /* \"fundMe/FundMe.sol\":1074:1130  uint ethAmountToUSD = (currEthPrice * _ethAmount) / 1e18 */\n      swap1\n      pop\n        /* \"fundMe/FundMe.sol\":1147:1161  ethAmountToUSD */\n      dup1\n        /* \"fundMe/FundMe.sol\":1140:1161  return ethAmountToUSD */\n      swap3\n      pop\n      pop\n      pop\n        /* \"fundMe/FundMe.sol\":954:1168  function getConversionRate(uint _ethAmount) public view returns(uint) {... */\n      swap2\n      swap1\n      pop\n      jump\t// out\n        /* \"fundMe/FundMe.sol\":460:948  function getPrice() public view returns (uint) {... */\n    tag_27:\n        /* \"fundMe/FundMe.sol\":501:505  uint */\n      0x00\n        /* \"fundMe/FundMe.sol\":517:548  AggregatorV3Interface priceFeed */\n      dup1\n        /* \"fundMe/FundMe.sol\":573:615  0x8A753747A1Fa494EC906cE90E9f37563A8AF630e */\n      0x8a753747a1fa494ec906ce90e9f37563a8af630e\n        /* \"fundMe/FundMe.sol\":517:616  AggregatorV3Interface priceFeed = AggregatorV3Interface(0x8A753747A1Fa494EC906cE90E9f37563A8AF630e) */\n      swap1\n      pop\n        /* \"fundMe/FundMe.sol\":671:680  int price */\n      0x00\n        /* \"fundMe/FundMe.sol\":797:806  priceFeed */\n      dup2\n        /* \"fundMe/FundMe.sol\":797:822  priceFeed.latestRoundData */\n      0xffffffffffffffffffffffffffffffffffffffff\n      and\n      0xfeaf968c\n        /* \"fundMe/FundMe.sol\":797:824  priceFeed.latestRoundData() */\n      mload(0x40)\n      dup2\n      0xffffffff\n      and\n      0xe0\n      shl\n      dup2\n      mstore\n      0x04\n      add\n      0xa0\n      mload(0x40)\n      dup1\n      dup4\n      sub\n      dup2\n      dup7\n      gas\n      staticcall\n      iszero\n      dup1\n      iszero\n      tag_45\n      jumpi\n      returndatasize\n      0x00\n      dup1\n      returndatacopy\n      revert(0x00, returndatasize)\n    tag_45:\n      pop\n      pop\n      pop\n      pop\n      mload(0x40)\n      returndatasize\n      not(0x1f)\n      0x1f\n      dup3\n      add\n      and\n      dup3\n      add\n      dup1\n      0x40\n      mstore\n      pop\n      dup2\n      add\n      swap1\n      tag_46\n      swap2\n      swap1\n      tag_47\n      jump\t// in\n    tag_46:\n        /* \"fundMe/FundMe.sol\":625:824  (... */\n      pop\n      pop\n      pop\n      swap2\n      pop\n      pop\n        /* \"fundMe/FundMe.sol\":935:939  1e10 */\n      0x02540be400\n        /* \"fundMe/FundMe.sol\":927:932  price */\n      dup2\n        /* \"fundMe/FundMe.sol\":927:939  price * 1e10 */\n      tag_48\n      swap2\n      swap1\n      tag_49\n      jump\t// in\n    tag_48:\n        /* \"fundMe/FundMe.sol\":912:940  return uint256(price * 1e10) */\n      swap3\n      pop\n      pop\n      pop\n        /* \"fundMe/FundMe.sol\":460:948  function getPrice() public view returns (uint) {... */\n      swap1\n      jump\t// out\n        /* \"fundMe/FundMe.sol\":286:454  function fund() public payable {... */\n    tag_30:\n        /* \"fundMe/FundMe.sol\":368:374  minUsd */\n      sload(0x00)\n        /* \"fundMe/FundMe.sol\":336:364  getConversionRate(msg.value) */\n      tag_51\n        /* \"fundMe/FundMe.sol\":354:363  msg.value */\n      callvalue\n        /* \"fundMe/FundMe.sol\":336:353  getConversionRate */\n      tag_23\n        /* \"fundMe/FundMe.sol\":336:364  getConversionRate(msg.value) */\n      jump\t// in\n    tag_51:\n        /* \"fundMe/FundMe.sol\":336:374  getConversionRate(msg.value) >= minUsd */\n      lt\n      iszero\n        /* \"fundMe/FundMe.sol\":328:404  require(getConversionRate(msg.value) >= minUsd, \"Price is lower, send more\") */\n      tag_52\n      jumpi\n      mload(0x40)\n      0x08c379a000000000000000000000000000000000000000000000000000000000\n      dup2\n      mstore\n      0x04\n      add\n      tag_53\n      swap1\n      tag_54\n      jump\t// in\n    tag_53:\n      mload(0x40)\n      dup1\n      swap2\n      sub\n      swap1\n      revert\n    tag_52:\n        /* \"fundMe/FundMe.sol\":414:421  funders */\n      0x01\n        /* \"fundMe/FundMe.sol\":427:437  msg.sender */\n      caller\n        /* \"fundMe/FundMe.sol\":414:438  funders.push(msg.sender) */\n      swap1\n      dup1\n      0x01\n      dup2\n      sload\n      add\n      dup1\n      dup3\n      sstore\n      dup1\n      swap2\n      pop\n      pop\n      0x01\n      swap1\n      sub\n      swap1\n      0x00\n      mstore\n      keccak256(0x00, 0x20)\n      add\n      0x00\n      swap1\n      swap2\n      swap1\n      swap2\n      swap1\n      swap2\n      0x0100\n      exp\n      dup2\n      sload\n      dup2\n      0xffffffffffffffffffffffffffffffffffffffff\n      mul\n      not\n      and\n      swap1\n      dup4\n      0xffffffffffffffffffffffffffffffffffffffff\n      and\n      mul\n      or\n      swap1\n      sstore\n      pop\n        /* \"fundMe/FundMe.sol\":286:454  function fund() public payable {... */\n      jump\t// out\n        /* \"fundMe/FundMe.sol\":196:220  address[] public funders */\n    tag_34:\n      0x01\n      dup2\n      dup2\n      sload\n      dup2\n      lt\n      tag_56\n      jumpi\n      0x00\n      dup1\n      revert\n    tag_56:\n      swap1\n      0x00\n      mstore\n      keccak256(0x00, 0x20)\n      add\n      0x00\n      swap2\n      pop\n      sload\n      swap1\n      0x0100\n      exp\n      swap1\n      div\n      0xffffffffffffffffffffffffffffffffffffffff\n      and\n      dup2\n      jump\t// out\n        /* \"#utility.yul\":88:205   */\n    tag_59:\n        /* \"#utility.yul\":197:198   */\n      0x00\n        /* \"#utility.yul\":194:195   */\n      dup1\n        /* \"#utility.yul\":187:199   */\n      revert\n        /* \"#utility.yul\":334:460   */\n    tag_61:\n        /* \"#utility.yul\":371:378   */\n      0x00\n        /* \"#utility.yul\":411:453   */\n      0xffffffffffffffffffffffffffffffffffffffff\n        /* \"#utility.yul\":404:409   */\n      dup3\n        /* \"#utility.yul\":400:454   */\n      and\n        /* \"#utility.yul\":389:454   */\n      swap1\n      pop\n        /* \"#utility.yul\":334:460   */\n      swap2\n      swap1\n      pop\n      jump\t// out\n        /* \"#utility.yul\":466:562   */\n    tag_62:\n        /* \"#utility.yul\":503:510   */\n      0x00\n        /* \"#utility.yul\":532:556   */\n      tag_88\n        /* \"#utility.yul\":550:555   */\n      dup3\n        /* \"#utility.yul\":532:556   */\n      tag_61\n      jump\t// in\n    tag_88:\n        /* \"#utility.yul\":521:556   */\n      swap1\n      pop\n        /* \"#utility.yul\":466:562   */\n      swap2\n      swap1\n      pop\n      jump\t// out\n        /* \"#utility.yul\":568:690   */\n    tag_63:\n        /* \"#utility.yul\":641:665   */\n      tag_90\n        /* \"#utility.yul\":659:664   */\n      dup2\n        /* \"#utility.yul\":641:665   */\n      tag_62\n      jump\t// in\n    tag_90:\n        /* \"#utility.yul\":634:639   */\n      dup2\n        /* \"#utility.yul\":631:666   */\n      eq\n        /* \"#utility.yul\":621:684   */\n      tag_91\n      jumpi\n        /* \"#utility.yul\":680:681   */\n      0x00\n        /* \"#utility.yul\":677:678   */\n      dup1\n        /* \"#utility.yul\":670:682   */\n      revert\n        /* \"#utility.yul\":621:684   */\n    tag_91:\n        /* \"#utility.yul\":568:690   */\n      pop\n      jump\t// out\n        /* \"#utility.yul\":696:835   */\n    tag_64:\n        /* \"#utility.yul\":742:747   */\n      0x00\n        /* \"#utility.yul\":780:786   */\n      dup2\n        /* \"#utility.yul\":767:787   */\n      calldataload\n        /* \"#utility.yul\":758:787   */\n      swap1\n      pop\n        /* \"#utility.yul\":796:829   */\n      tag_93\n        /* \"#utility.yul\":823:828   */\n      dup2\n        /* \"#utility.yul\":796:829   */\n      tag_63\n      jump\t// in\n    tag_93:\n        /* \"#utility.yul\":696:835   */\n      swap3\n      swap2\n      pop\n      pop\n      jump\t// out\n        /* \"#utility.yul\":841:1170   */\n    tag_11:\n        /* \"#utility.yul\":900:906   */\n      0x00\n        /* \"#utility.yul\":949:951   */\n      0x20\n        /* \"#utility.yul\":937:946   */\n      dup3\n        /* \"#utility.yul\":928:935   */\n      dup5\n        /* \"#utility.yul\":924:947   */\n      sub\n        /* \"#utility.yul\":920:952   */\n      slt\n        /* \"#utility.yul\":917:1036   */\n      iszero\n      tag_95\n      jumpi\n        /* \"#utility.yul\":955:1034   */\n      tag_96\n      tag_59\n      jump\t// in\n    tag_96:\n        /* \"#utility.yul\":917:1036   */\n    tag_95:\n        /* \"#utility.yul\":1075:1076   */\n      0x00\n        /* \"#utility.yul\":1100:1153   */\n      tag_97\n        /* \"#utility.yul\":1145:1152   */\n      dup5\n        /* \"#utility.yul\":1136:1142   */\n      dup3\n        /* \"#utility.yul\":1125:1134   */\n      dup6\n        /* \"#utility.yul\":1121:1143   */\n      add\n        /* \"#utility.yul\":1100:1153   */\n      tag_64\n      jump\t// in\n    tag_97:\n        /* \"#utility.yul\":1090:1153   */\n      swap2\n      pop\n        /* \"#utility.yul\":1046:1163   */\n      pop\n        /* \"#utility.yul\":841:1170   */\n      swap3\n      swap2\n      pop\n      pop\n      jump\t// out\n        /* \"#utility.yul\":1176:1253   */\n    tag_65:\n        /* \"#utility.yul\":1213:1220   */\n      0x00\n        /* \"#utility.yul\":1242:1247   */\n      dup2\n        /* \"#utility.yul\":1231:1247   */\n      swap1\n      pop\n        /* \"#utility.yul\":1176:1253   */\n      swap2\n      swap1\n      pop\n      jump\t// out\n        /* \"#utility.yul\":1259:1377   */\n    tag_66:\n        /* \"#utility.yul\":1346:1370   */\n      tag_100\n        /* \"#utility.yul\":1364:1369   */\n      dup2\n        /* \"#utility.yul\":1346:1370   */\n      tag_65\n      jump\t// in\n    tag_100:\n        /* \"#utility.yul\":1341:1344   */\n      dup3\n        /* \"#utility.yul\":1334:1371   */\n      mstore\n        /* \"#utility.yul\":1259:1377   */\n      pop\n      pop\n      jump\t// out\n        /* \"#utility.yul\":1383:1605   */\n    tag_14:\n        /* \"#utility.yul\":1476:1480   */\n      0x00\n        /* \"#utility.yul\":1514:1516   */\n      0x20\n        /* \"#utility.yul\":1503:1512   */\n      dup3\n        /* \"#utility.yul\":1499:1517   */\n      add\n        /* \"#utility.yul\":1491:1517   */\n      swap1\n      pop\n        /* \"#utility.yul\":1527:1598   */\n      tag_102\n        /* \"#utility.yul\":1595:1596   */\n      0x00\n        /* \"#utility.yul\":1584:1593   */\n      dup4\n        /* \"#utility.yul\":1580:1597   */\n      add\n        /* \"#utility.yul\":1571:1577   */\n      dup5\n        /* \"#utility.yul\":1527:1598   */\n      tag_66\n      jump\t// in\n    tag_102:\n        /* \"#utility.yul\":1383:1605   */\n      swap3\n      swap2\n      pop\n      pop\n      jump\t// out\n        /* \"#utility.yul\":1611:1733   */\n    tag_67:\n        /* \"#utility.yul\":1684:1708   */\n      tag_104\n        /* \"#utility.yul\":1702:1707   */\n      dup2\n        /* \"#utility.yul\":1684:1708   */\n      tag_65\n      jump\t// in\n    tag_104:\n        /* \"#utility.yul\":1677:1682   */\n      dup2\n        /* \"#utility.yul\":1674:1709   */\n      eq\n        /* \"#utility.yul\":1664:1727   */\n      tag_105\n      jumpi\n        /* \"#utility.yul\":1723:1724   */\n      0x00\n        /* \"#utility.yul\":1720:1721   */\n      dup1\n        /* \"#utility.yul\":1713:1725   */\n      revert\n        /* \"#utility.yul\":1664:1727   */\n    tag_105:\n        /* \"#utility.yul\":1611:1733   */\n      pop\n      jump\t// out\n        /* \"#utility.yul\":1739:1878   */\n    tag_68:\n        /* \"#utility.yul\":1785:1790   */\n      0x00\n        /* \"#utility.yul\":1823:1829   */\n      dup2\n        /* \"#utility.yul\":1810:1830   */\n      calldataload\n        /* \"#utility.yul\":1801:1830   */\n      swap1\n      pop\n        /* \"#utility.yul\":1839:1872   */\n      tag_107\n        /* \"#utility.yul\":1866:1871   */\n      dup2\n        /* \"#utility.yul\":1839:1872   */\n      tag_67\n      jump\t// in\n    tag_107:\n        /* \"#utility.yul\":1739:1878   */\n      swap3\n      swap2\n      pop\n      pop\n      jump\t// out\n        /* \"#utility.yul\":1884:2213   */\n    tag_22:\n        /* \"#utility.yul\":1943:1949   */\n      0x00\n        /* \"#utility.yul\":1992:1994   */\n      0x20\n        /* \"#utility.yul\":1980:1989   */\n      dup3\n        /* \"#utility.yul\":1971:1978   */\n      dup5\n        /* \"#utility.yul\":1967:1990   */\n      sub\n        /* \"#utility.yul\":1963:1995   */\n      slt\n        /* \"#utility.yul\":1960:2079   */\n      iszero\n      tag_109\n      jumpi\n        /* \"#utility.yul\":1998:2077   */\n      tag_110\n      tag_59\n      jump\t// in\n    tag_110:\n        /* \"#utility.yul\":1960:2079   */\n    tag_109:\n        /* \"#utility.yul\":2118:2119   */\n      0x00\n        /* \"#utility.yul\":2143:2196   */\n      tag_111\n        /* \"#utility.yul\":2188:2195   */\n      dup5\n        /* \"#utility.yul\":2179:2185   */\n      dup3\n        /* \"#utility.yul\":2168:2177   */\n      dup6\n        /* \"#utility.yul\":2164:2186   */\n      add\n        /* \"#utility.yul\":2143:2196   */\n      tag_68\n      jump\t// in\n    tag_111:\n        /* \"#utility.yul\":2133:2196   */\n      swap2\n      pop\n        /* \"#utility.yul\":2089:2206   */\n      pop\n        /* \"#utility.yul\":1884:2213   */\n      swap3\n      swap2\n      pop\n      pop\n      jump\t// out\n        /* \"#utility.yul\":2219:2337   */\n    tag_69:\n        /* \"#utility.yul\":2306:2330   */\n      tag_113\n        /* \"#utility.yul\":2324:2329   */\n      dup2\n        /* \"#utility.yul\":2306:2330   */\n      tag_62\n      jump\t// in\n    tag_113:\n        /* \"#utility.yul\":2301:2304   */\n      dup3\n        /* \"#utility.yul\":2294:2331   */\n      mstore\n        /* \"#utility.yul\":2219:2337   */\n      pop\n      pop\n      jump\t// out\n        /* \"#utility.yul\":2343:2565   */\n    tag_36:\n        /* \"#utility.yul\":2436:2440   */\n      0x00\n        /* \"#utility.yul\":2474:2476   */\n      0x20\n        /* \"#utility.yul\":2463:2472   */\n      dup3\n        /* \"#utility.yul\":2459:2477   */\n      add\n        /* \"#utility.yul\":2451:2477   */\n      swap1\n      pop\n        /* \"#utility.yul\":2487:2558   */\n      tag_115\n        /* \"#utility.yul\":2555:2556   */\n      0x00\n        /* \"#utility.yul\":2544:2553   */\n      dup4\n        /* \"#utility.yul\":2540:2557   */\n      add\n        /* \"#utility.yul\":2531:2537   */\n      dup5\n        /* \"#utility.yul\":2487:2558   */\n      tag_69\n      jump\t// in\n    tag_115:\n        /* \"#utility.yul\":2343:2565   */\n      swap3\n      swap2\n      pop\n      pop\n      jump\t// out\n        /* \"#utility.yul\":2571:2751   */\n    tag_70:\n        /* \"#utility.yul\":2619:2696   */\n      0x4e487b7100000000000000000000000000000000000000000000000000000000\n        /* \"#utility.yul\":2616:2617   */\n      0x00\n        /* \"#utility.yul\":2609:2697   */\n      mstore\n        /* \"#utility.yul\":2716:2720   */\n      0x11\n        /* \"#utility.yul\":2713:2714   */\n      0x04\n        /* \"#utility.yul\":2706:2721   */\n      mstore\n        /* \"#utility.yul\":2740:2744   */\n      0x24\n        /* \"#utility.yul\":2737:2738   */\n      0x00\n        /* \"#utility.yul\":2730:2745   */\n      revert\n        /* \"#utility.yul\":2757:3105   */\n    tag_40:\n        /* \"#utility.yul\":2797:2804   */\n      0x00\n        /* \"#utility.yul\":2820:2840   */\n      tag_118\n        /* \"#utility.yul\":2838:2839   */\n      dup3\n        /* \"#utility.yul\":2820:2840   */\n      tag_65\n      jump\t// in\n    tag_118:\n        /* \"#utility.yul\":2815:2840   */\n      swap2\n      pop\n        /* \"#utility.yul\":2854:2874   */\n      tag_119\n        /* \"#utility.yul\":2872:2873   */\n      dup4\n        /* \"#utility.yul\":2854:2874   */\n      tag_65\n      jump\t// in\n    tag_119:\n        /* \"#utility.yul\":2849:2874   */\n      swap3\n      pop\n        /* \"#utility.yul\":3042:3043   */\n      dup2\n        /* \"#utility.yul\":2974:3040   */\n      0xffffffffffffffffffffffffffffffffffffffffffffffffffffffffffffffff\n        /* \"#utility.yul\":2970:3044   */\n      div\n        /* \"#utility.yul\":2967:2968   */\n      dup4\n        /* \"#utility.yul\":2964:3045   */\n      gt\n        /* \"#utility.yul\":2959:2960   */\n      dup3\n        /* \"#utility.yul\":2952:2961   */\n      iszero\n        /* \"#utility.yul\":2945:2962   */\n      iszero\n        /* \"#utility.yul\":2941:3046   */\n      and\n        /* \"#utility.yul\":2938:3069   */\n      iszero\n      tag_120\n      jumpi\n        /* \"#utility.yul\":3049:3067   */\n      tag_121\n      tag_70\n      jump\t// in\n    tag_121:\n        /* \"#utility.yul\":2938:3069   */\n    tag_120:\n        /* \"#utility.yul\":3097:3098   */\n      dup3\n        /* \"#utility.yul\":3094:3095   */\n      dup3\n        /* \"#utility.yul\":3090:3099   */\n      mul\n        /* \"#utility.yul\":3079:3099   */\n      swap1\n      pop\n        /* \"#utility.yul\":2757:3105   */\n      swap3\n      swap2\n      pop\n      pop\n      jump\t// out\n        /* \"#utility.yul\":3111:3291   */\n    tag_71:\n        /* \"#utility.yul\":3159:3236   */\n      0x4e487b7100000000000000000000000000000000000000000000000000000000\n        /* \"#utility.yul\":3156:3157   */\n      0x00\n        /* \"#utility.yul\":3149:3237   */\n      mstore\n        /* \"#utility.yul\":3256:3260   */\n      0x12\n        /* \"#utility.yul\":3253:3254   */\n      0x04\n        /* \"#utility.yul\":3246:3261   */\n      mstore\n        /* \"#utility.yul\":3280:3284   */\n      0x24\n        /* \"#utility.yul\":3277:3278   */\n      0x00\n        /* \"#utility.yul\":3270:3285   */\n      revert\n        /* \"#utility.yul\":3297:3482   */\n    tag_42:\n        /* \"#utility.yul\":3337:3338   */\n      0x00\n        /* \"#utility.yul\":3354:3374   */\n      tag_124\n        /* \"#utility.yul\":3372:3373   */\n      dup3\n        /* \"#utility.yul\":3354:3374   */\n      tag_65\n      jump\t// in\n    tag_124:\n        /* \"#utility.yul\":3349:3374   */\n      swap2\n      pop\n        /* \"#utility.yul\":3388:3408   */\n      tag_125\n        /* \"#utility.yul\":3406:3407   */\n      dup4\n        /* \"#utility.yul\":3388:3408   */\n      tag_65\n      jump\t// in\n    tag_125:\n        /* \"#utility.yul\":3383:3408   */\n      swap3\n      pop\n        /* \"#utility.yul\":3427:3428   */\n      dup3\n        /* \"#utility.yul\":3417:3452   */\n      tag_126\n      jumpi\n        /* \"#utility.yul\":3432:3450   */\n      tag_127\n      tag_71\n      jump\t// in\n    tag_127:\n        /* \"#utility.yul\":3417:3452   */\n    tag_126:\n        /* \"#utility.yul\":3474:3475   */\n      dup3\n        /* \"#utility.yul\":3471:3472   */\n      dup3\n        /* \"#utility.yul\":3467:3476   */\n      div\n        /* \"#utility.yul\":3462:3476   */\n      swap1\n      pop\n        /* \"#utility.yul\":3297:3482   */\n      swap3\n      swap2\n      pop\n      pop\n      jump\t// out\n        /* \"#utility.yul\":3488:3593   */\n    tag_72:\n        /* \"#utility.yul\":3524:3531   */\n      0x00\n        /* \"#utility.yul\":3564:3586   */\n      0xffffffffffffffffffff\n        /* \"#utility.yul\":3557:3562   */\n      dup3\n        /* \"#utility.yul\":3553:3587   */\n      and\n        /* \"#utility.yul\":3542:3587   */\n      swap1\n      pop\n        /* \"#utility.yul\":3488:3593   */\n      swap2\n      swap1\n      pop\n      jump\t// out\n        /* \"#utility.yul\":3599:3719   */\n    tag_73:\n        /* \"#utility.yul\":3671:3694   */\n      tag_130\n        /* \"#utility.yul\":3688:3693   */\n      dup2\n        /* \"#utility.yul\":3671:3694   */\n      tag_72\n      jump\t// in\n    tag_130:\n        /* \"#utility.yul\":3664:3669   */\n      dup2\n        /* \"#utility.yul\":3661:3695   */\n      eq\n        /* \"#utility.yul\":3651:3713   */\n      tag_131\n      jumpi\n        /* \"#utility.yul\":3709:3710   */\n      0x00\n        /* \"#utility.yul\":3706:3707   */\n      dup1\n        /* \"#utility.yul\":3699:3711   */\n      revert\n        /* \"#utility.yul\":3651:3713   */\n    tag_131:\n        /* \"#utility.yul\":3599:3719   */\n      pop\n      jump\t// out\n        /* \"#utility.yul\":3725:3866   */\n    tag_74:\n        /* \"#utility.yul\":3781:3786   */\n      0x00\n        /* \"#utility.yul\":3812:3818   */\n      dup2\n        /* \"#utility.yul\":3806:3819   */\n      mload\n        /* \"#utility.yul\":3797:3819   */\n      swap1\n      pop\n        /* \"#utility.yul\":3828:3860   */\n      tag_133\n        /* \"#utility.yul\":3854:3859   */\n      dup2\n        /* \"#utility.yul\":3828:3860   */\n      tag_73\n      jump\t// in\n    tag_133:\n        /* \"#utility.yul\":3725:3866   */\n      swap3\n      swap2\n      pop\n      pop\n      jump\t// out\n        /* \"#utility.yul\":3872:3948   */\n    tag_75:\n        /* \"#utility.yul\":3908:3915   */\n      0x00\n        /* \"#utility.yul\":3937:3942   */\n      dup2\n        /* \"#utility.yul\":3926:3942   */\n      swap1\n      pop\n        /* \"#utility.yul\":3872:3948   */\n      swap2\n      swap1\n      pop\n      jump\t// out\n        /* \"#utility.yul\":3954:4074   */\n    tag_76:\n        /* \"#utility.yul\":4026:4049   */\n      tag_136\n        /* \"#utility.yul\":4043:4048   */\n      dup2\n        /* \"#utility.yul\":4026:4049   */\n      tag_75\n      jump\t// in\n    tag_136:\n        /* \"#utility.yul\":4019:4024   */\n      dup2\n        /* \"#utility.yul\":4016:4050   */\n      eq\n        /* \"#utility.yul\":4006:4068   */\n      tag_137\n      jumpi\n        /* \"#utility.yul\":4064:4065   */\n      0x00\n        /* \"#utility.yul\":4061:4062   */\n      dup1\n        /* \"#utility.yul\":4054:4066   */\n      revert\n        /* \"#utility.yul\":4006:4068   */\n    tag_137:\n        /* \"#utility.yul\":3954:4074   */\n      pop\n      jump\t// out\n        /* \"#utility.yul\":4080:4221   */\n    tag_77:\n        /* \"#utility.yul\":4136:4141   */\n      0x00\n        /* \"#utility.yul\":4167:4173   */\n      dup2\n        /* \"#utility.yul\":4161:4174   */\n      mload\n        /* \"#utility.yul\":4152:4174   */\n      swap1\n      pop\n        /* \"#utility.yul\":4183:4215   */\n      tag_139\n        /* \"#utility.yul\":4209:4214   */\n      dup2\n        /* \"#utility.yul\":4183:4215   */\n      tag_76\n      jump\t// in\n    tag_139:\n        /* \"#utility.yul\":4080:4221   */\n      swap3\n      swap2\n      pop\n      pop\n      jump\t// out\n        /* \"#utility.yul\":4227:4370   */\n    tag_78:\n        /* \"#utility.yul\":4284:4289   */\n      0x00\n        /* \"#utility.yul\":4315:4321   */\n      dup2\n        /* \"#utility.yul\":4309:4322   */\n      mload\n        /* \"#utility.yul\":4300:4322   */\n      swap1\n      pop\n        /* \"#utility.yul\":4331:4364   */\n      tag_141\n        /* \"#utility.yul\":4358:4363   */\n      dup2\n        /* \"#utility.yul\":4331:4364   */\n      tag_67\n      jump\t// in\n    tag_141:\n        /* \"#utility.yul\":4227:4370   */\n      swap3\n      swap2\n      pop\n      pop\n      jump\t// out\n        /* \"#utility.yul\":4376:5347   */\n    tag_47:\n        /* \"#utility.yul\":4479:4485   */\n      0x00\n        /* \"#utility.yul\":4487:4493   */\n      dup1\n        /* \"#utility.yul\":4495:4501   */\n      0x00\n        /* \"#utility.yul\":4503:4509   */\n      dup1\n        /* \"#utility.yul\":4511:4517   */\n      0x00\n        /* \"#utility.yul\":4560:4563   */\n      0xa0\n        /* \"#utility.yul\":4548:4557   */\n      dup7\n        /* \"#utility.yul\":4539:4546   */\n      dup9\n        /* \"#utility.yul\":4535:4558   */\n      sub\n        /* \"#utility.yul\":4531:4564   */\n      slt\n        /* \"#utility.yul\":4528:4648   */\n      iszero\n      tag_143\n      jumpi\n        /* \"#utility.yul\":4567:4646   */\n      tag_144\n      tag_59\n      jump\t// in\n    tag_144:\n        /* \"#utility.yul\":4528:4648   */\n    tag_143:\n        /* \"#utility.yul\":4687:4688   */\n      0x00\n        /* \"#utility.yul\":4712:4775   */\n      tag_145\n        /* \"#utility.yul\":4767:4774   */\n      dup9\n        /* \"#utility.yul\":4758:4764   */\n      dup3\n        /* \"#utility.yul\":4747:4756   */\n      dup10\n        /* \"#utility.yul\":4743:4765   */\n      add\n        /* \"#utility.yul\":4712:4775   */\n      tag_74\n      jump\t// in\n    tag_145:\n        /* \"#utility.yul\":4702:4775   */\n      swap6\n      pop\n        /* \"#utility.yul\":4658:4785   */\n      pop\n        /* \"#utility.yul\":4824:4826   */\n      0x20\n        /* \"#utility.yul\":4850:4913   */\n      tag_146\n        /* \"#utility.yul\":4905:4912   */\n      dup9\n        /* \"#utility.yul\":4896:4902   */\n      dup3\n        /* \"#utility.yul\":4885:4894   */\n      dup10\n        /* \"#utility.yul\":4881:4903   */\n      add\n        /* \"#utility.yul\":4850:4913   */\n      tag_77\n      jump\t// in\n    tag_146:\n        /* \"#utility.yul\":4840:4913   */\n      swap5\n      pop\n        /* \"#utility.yul\":4795:4923   */\n      pop\n        /* \"#utility.yul\":4962:4964   */\n      0x40\n        /* \"#utility.yul\":4988:5052   */\n      tag_147\n        /* \"#utility.yul\":5044:5051   */\n      dup9\n        /* \"#utility.yul\":5035:5041   */\n      dup3\n        /* \"#utility.yul\":5024:5033   */\n      dup10\n        /* \"#utility.yul\":5020:5042   */\n      add\n        /* \"#utility.yul\":4988:5052   */\n      tag_78\n      jump\t// in\n    tag_147:\n        /* \"#utility.yul\":4978:5052   */\n      swap4\n      pop\n        /* \"#utility.yul\":4933:5062   */\n      pop\n        /* \"#utility.yul\":5101:5103   */\n      0x60\n        /* \"#utility.yul\":5127:5191   */\n      tag_148\n        /* \"#utility.yul\":5183:5190   */\n      dup9\n        /* \"#utility.yul\":5174:5180   */\n      dup3\n        /* \"#utility.yul\":5163:5172   */\n      dup10\n        /* \"#utility.yul\":5159:5181   */\n      add\n        /* \"#utility.yul\":5127:5191   */\n      tag_78\n      jump\t// in\n    tag_148:\n        /* \"#utility.yul\":5117:5191   */\n      swap3\n      pop\n        /* \"#utility.yul\":5072:5201   */\n      pop\n        /* \"#utility.yul\":5240:5243   */\n      0x80\n        /* \"#utility.yul\":5267:5330   */\n      tag_149\n        /* \"#utility.yul\":5322:5329   */\n      dup9\n        /* \"#utility.yul\":5313:5319   */\n      dup3\n        /* \"#utility.yul\":5302:5311   */\n      dup10\n        /* \"#utility.yul\":5298:5320   */\n      add\n        /* \"#utility.yul\":5267:5330   */\n      tag_74\n      jump\t// in\n    tag_149:\n        /* \"#utility.yul\":5257:5330   */\n      swap2\n      pop\n        /* \"#utility.yul\":5211:5340   */\n      pop\n        /* \"#utility.yul\":4376:5347   */\n      swap3\n      swap6\n      pop\n      swap3\n      swap6\n      swap1\n      swap4\n      pop\n      jump\t// out\n        /* \"#utility.yul\":5353:6344   */\n    tag_49:\n        /* \"#utility.yul\":5392:5399   */\n      0x00\n        /* \"#utility.yul\":5415:5434   */\n      tag_151\n        /* \"#utility.yul\":5432:5433   */\n      dup3\n        /* \"#utility.yul\":5415:5434   */\n      tag_75\n      jump\t// in\n    tag_151:\n        /* \"#utility.yul\":5410:5434   */\n      swap2\n      pop\n        /* \"#utility.yul\":5448:5467   */\n      tag_152\n        /* \"#utility.yul\":5465:5466   */\n      dup4\n        /* \"#utility.yul\":5448:5467   */\n      tag_75\n      jump\t// in\n    tag_152:\n        /* \"#utility.yul\":5443:5467   */\n      swap3\n      pop\n        /* \"#utility.yul\":5649:5650   */\n      dup3\n        /* \"#utility.yul\":5581:5647   */\n      0x7fffffffffffffffffffffffffffffffffffffffffffffffffffffffffffffff\n        /* \"#utility.yul\":5577:5651   */\n      div\n        /* \"#utility.yul\":5574:5575   */\n      dup3\n        /* \"#utility.yul\":5571:5652   */\n      gt\n        /* \"#utility.yul\":5566:5567   */\n      0x00\n        /* \"#utility.yul\":5563:5564   */\n      dup5\n        /* \"#utility.yul\":5559:5568   */\n      sgt\n        /* \"#utility.yul\":5555:5556   */\n      0x00\n        /* \"#utility.yul\":5552:5553   */\n      dup5\n        /* \"#utility.yul\":5548:5557   */\n      sgt\n        /* \"#utility.yul\":5544:5569   */\n      and\n        /* \"#utility.yul\":5540:5653   */\n      and\n        /* \"#utility.yul\":5537:5676   */\n      iszero\n      tag_153\n      jumpi\n        /* \"#utility.yul\":5656:5674   */\n      tag_154\n      tag_70\n      jump\t// in\n    tag_154:\n        /* \"#utility.yul\":5537:5676   */\n    tag_153:\n        /* \"#utility.yul\":5860:5861   */\n      dup2\n        /* \"#utility.yul\":5792:5858   */\n      0x8000000000000000000000000000000000000000000000000000000000000000\n        /* \"#utility.yul\":5787:5862   */\n      sdiv\n        /* \"#utility.yul\":5784:5785   */\n      dup4\n        /* \"#utility.yul\":5780:5863   */\n      slt\n        /* \"#utility.yul\":5775:5776   */\n      0x00\n        /* \"#utility.yul\":5772:5773   */\n      dup5\n        /* \"#utility.yul\":5768:5777   */\n      slt\n        /* \"#utility.yul\":5764:5765   */\n      0x00\n        /* \"#utility.yul\":5761:5762   */\n      dup5\n        /* \"#utility.yul\":5757:5766   */\n      sgt\n        /* \"#utility.yul\":5753:5778   */\n      and\n        /* \"#utility.yul\":5749:5864   */\n      and\n        /* \"#utility.yul\":5746:5887   */\n      iszero\n      tag_155\n      jumpi\n        /* \"#utility.yul\":5867:5885   */\n      tag_156\n      tag_70\n      jump\t// in\n    tag_156:\n        /* \"#utility.yul\":5746:5887   */\n    tag_155:\n        /* \"#utility.yul\":6071:6072   */\n      dup3\n        /* \"#utility.yul\":6003:6069   */\n      0x8000000000000000000000000000000000000000000000000000000000000000\n        /* \"#utility.yul\":5998:6073   */\n      sdiv\n        /* \"#utility.yul\":5995:5996   */\n      dup3\n        /* \"#utility.yul\":5991:6074   */\n      slt\n        /* \"#utility.yul\":5986:5987   */\n      0x00\n        /* \"#utility.yul\":5983:5984   */\n      dup5\n        /* \"#utility.yul\":5979:5988   */\n      sgt\n        /* \"#utility.yul\":5975:5976   */\n      0x00\n        /* \"#utility.yul\":5972:5973   */\n      dup5\n        /* \"#utility.yul\":5968:5977   */\n      slt\n        /* \"#utility.yul\":5964:5989   */\n      and\n        /* \"#utility.yul\":5960:6075   */\n      and\n        /* \"#utility.yul\":5957:6098   */\n      iszero\n      tag_157\n      jumpi\n        /* \"#utility.yul\":6078:6096   */\n      tag_158\n      tag_70\n      jump\t// in\n    tag_158:\n        /* \"#utility.yul\":5957:6098   */\n    tag_157:\n        /* \"#utility.yul\":6281:6282   */\n      dup3\n        /* \"#utility.yul\":6213:6279   */\n      0x7fffffffffffffffffffffffffffffffffffffffffffffffffffffffffffffff\n        /* \"#utility.yul\":6208:6283   */\n      sdiv\n        /* \"#utility.yul\":6205:6206   */\n      dup3\n        /* \"#utility.yul\":6201:6284   */\n      slt\n        /* \"#utility.yul\":6196:6197   */\n      0x00\n        /* \"#utility.yul\":6193:6194   */\n      dup5\n        /* \"#utility.yul\":6189:6198   */\n      slt\n        /* \"#utility.yul\":6185:6186   */\n      0x00\n        /* \"#utility.yul\":6182:6183   */\n      dup5\n        /* \"#utility.yul\":6178:6187   */\n      slt\n        /* \"#utility.yul\":6174:6199   */\n      and\n        /* \"#utility.yul\":6170:6285   */\n      and\n        /* \"#utility.yul\":6167:6308   */\n      iszero\n      tag_159\n      jumpi\n        /* \"#utility.yul\":6288:6306   */\n      tag_160\n      tag_70\n      jump\t// in\n    tag_160:\n        /* \"#utility.yul\":6167:6308   */\n    tag_159:\n        /* \"#utility.yul\":6336:6337   */\n      dup3\n        /* \"#utility.yul\":6333:6334   */\n      dup3\n        /* \"#utility.yul\":6329:6338   */\n      mul\n        /* \"#utility.yul\":6318:6338   */\n      swap1\n      pop\n        /* \"#utility.yul\":5353:6344   */\n      swap3\n      swap2\n      pop\n      pop\n      jump\t// out\n        /* \"#utility.yul\":6350:6519   */\n    tag_79:\n        /* \"#utility.yul\":6434:6445   */\n      0x00\n        /* \"#utility.yul\":6468:6474   */\n      dup3\n        /* \"#utility.yul\":6463:6466   */\n      dup3\n        /* \"#utility.yul\":6456:6475   */\n      mstore\n        /* \"#utility.yul\":6508:6512   */\n      0x20\n        /* \"#utility.yul\":6503:6506   */\n      dup3\n        /* \"#utility.yul\":6499:6513   */\n      add\n        /* \"#utility.yul\":6484:6513   */\n      swap1\n      pop\n        /* \"#utility.yul\":6350:6519   */\n      swap3\n      swap2\n      pop\n      pop\n      jump\t// out\n        /* \"#utility.yul\":6525:6700   */\n    tag_80:\n        /* \"#utility.yul\":6665:6692   */\n      0x5072696365206973206c6f7765722c2073656e64206d6f726500000000000000\n        /* \"#utility.yul\":6661:6662   */\n      0x00\n        /* \"#utility.yul\":6653:6659   */\n      dup3\n        /* \"#utility.yul\":6649:6663   */\n      add\n        /* \"#utility.yul\":6642:6693   */\n      mstore\n        /* \"#utility.yul\":6525:6700   */\n      pop\n      jump\t// out\n        /* \"#utility.yul\":6706:7072   */\n    tag_81:\n        /* \"#utility.yul\":6848:6851   */\n      0x00\n        /* \"#utility.yul\":6869:6936   */\n      tag_164\n        /* \"#utility.yul\":6933:6935   */\n      0x19\n        /* \"#utility.yul\":6928:6931   */\n      dup4\n        /* \"#utility.yul\":6869:6936   */\n      tag_79\n      jump\t// in\n    tag_164:\n        /* \"#utility.yul\":6862:6936   */\n      swap2\n      pop\n        /* \"#utility.yul\":6945:7038   */\n      tag_165\n        /* \"#utility.yul\":7034:7037   */\n      dup3\n        /* \"#utility.yul\":6945:7038   */\n      tag_80\n      jump\t// in\n    tag_165:\n        /* \"#utility.yul\":7063:7065   */\n      0x20\n        /* \"#utility.yul\":7058:7061   */\n      dup3\n        /* \"#utility.yul\":7054:7066   */\n      add\n        /* \"#utility.yul\":7047:7066   */\n      swap1\n      pop\n        /* \"#utility.yul\":6706:7072   */\n      swap2\n      swap1\n      pop\n      jump\t// out\n        /* \"#utility.yul\":7078:7497   */\n    tag_54:\n        /* \"#utility.yul\":7244:7248   */\n      0x00\n        /* \"#utility.yul\":7282:7284   */\n      0x20\n        /* \"#utility.yul\":7271:7280   */\n      dup3\n        /* \"#utility.yul\":7267:7285   */\n      add\n        /* \"#utility.yul\":7259:7285   */\n      swap1\n      pop\n        /* \"#utility.yul\":7331:7340   */\n      dup2\n        /* \"#utility.yul\":7325:7329   */\n      dup2\n        /* \"#utility.yul\":7321:7341   */\n      sub\n        /* \"#utility.yul\":7317:7318   */\n      0x00\n        /* \"#utility.yul\":7306:7315   */\n      dup4\n        /* \"#utility.yul\":7302:7319   */\n      add\n        /* \"#utility.yul\":7295:7342   */\n      mstore\n        /* \"#utility.yul\":7359:7490   */\n      tag_167\n        /* \"#utility.yul\":7485:7489   */\n      dup2\n        /* \"#utility.yul\":7359:7490   */\n      tag_81\n      jump\t// in\n    tag_167:\n        /* \"#utility.yul\":7351:7490   */\n      swap1\n      pop\n        /* \"#utility.yul\":7078:7497   */\n      swap2\n      swap1\n      pop\n      jump\t// out\n\n    auxdata: 0xa2646970667358221220143c68dc83fde84c90741cf07a80104ea58abaa0e4c0f832f8869f803e2fe47a64736f6c634300080e0033\n}\n",
				"bytecode": {
					"linkReferences": {},
					"object": "60806040526802b5e3af16b188000060005534801561001d57600080fd5b506108658061002d6000396000f3fe6080604052600436106100555760003560e01c80633e47d6f31461005a57806351b80e41146100975780636e5b6b28146100c257806398d5fdca146100ff578063b60d42881461012a578063dc0d3dff14610134575b600080fd5b34801561006657600080fd5b50610081600480360381019061007c91906103c6565b610171565b60405161008e919061040c565b60405180910390f35b3480156100a357600080fd5b506100ac610189565b6040516100b9919061040c565b60405180910390f35b3480156100ce57600080fd5b506100e960048036038101906100e49190610453565b61018f565b6040516100f6919061040c565b60405180910390f35b34801561010b57600080fd5b506101146101c9565b604051610121919061040c565b60405180910390f35b610132610272565b005b34801561014057600080fd5b5061015b60048036038101906101569190610453565b610324565b604051610168919061048f565b60405180910390f35b60026020528060005260406000206000915090505481565b60005481565b60008061019a6101c9565b90506000670de0b6b3a764000084836101b391906104d9565b6101bd9190610562565b90508092505050919050565b600080738a753747a1fa494ec906ce90e9f37563a8af630e905060008173ffffffffffffffffffffffffffffffffffffffff1663feaf968c6040518163ffffffff1660e01b815260040160a060405180830381865afa158015610230573d6000803e3d6000fd5b505050506040513d601f19601f820116820180604052508101906102549190610620565b5050509150506402540be4008161026b919061069b565b9250505090565b60005461027e3461018f565b10156102bf576040517f08c379a00000000000000000000000000000000000000000000000000000000081526004016102b69061080f565b60405180910390fd5b6001339080600181540180825580915050600190039060005260206000200160009091909190916101000a81548173ffffffffffffffffffffffffffffffffffffffff021916908373ffffffffffffffffffffffffffffffffffffffff160217905550565b6001818154811061033457600080fd5b906000526020600020016000915054906101000a900473ffffffffffffffffffffffffffffffffffffffff1681565b600080fd5b600073ffffffffffffffffffffffffffffffffffffffff82169050919050565b600061039382610368565b9050919050565b6103a381610388565b81146103ae57600080fd5b50565b6000813590506103c08161039a565b92915050565b6000602082840312156103dc576103db610363565b5b60006103ea848285016103b1565b91505092915050565b6000819050919050565b610406816103f3565b82525050565b600060208201905061042160008301846103fd565b92915050565b610430816103f3565b811461043b57600080fd5b50565b60008135905061044d81610427565b92915050565b60006020828403121561046957610468610363565b5b60006104778482850161043e565b91505092915050565b61048981610388565b82525050565b60006020820190506104a46000830184610480565b92915050565b7f4e487b7100000000000000000000000000000000000000000000000000000000600052601160045260246000fd5b60006104e4826103f3565b91506104ef836103f3565b9250817fffffffffffffffffffffffffffffffffffffffffffffffffffffffffffffffff0483118215151615610528576105276104aa565b5b828202905092915050565b7f4e487b7100000000000000000000000000000000000000000000000000000000600052601260045260246000fd5b600061056d826103f3565b9150610578836103f3565b92508261058857610587610533565b5b828204905092915050565b600069ffffffffffffffffffff82169050919050565b6105b281610593565b81146105bd57600080fd5b50565b6000815190506105cf816105a9565b92915050565b6000819050919050565b6105e8816105d5565b81146105f357600080fd5b50565b600081519050610605816105df565b92915050565b60008151905061061a81610427565b92915050565b600080600080600060a0868803121561063c5761063b610363565b5b600061064a888289016105c0565b955050602061065b888289016105f6565b945050604061066c8882890161060b565b935050606061067d8882890161060b565b925050608061068e888289016105c0565b9150509295509295909350565b60006106a6826105d5565b91506106b1836105d5565b9250827f7fffffffffffffffffffffffffffffffffffffffffffffffffffffffffffffff04821160008413600084131616156106f0576106ef6104aa565b5b817f8000000000000000000000000000000000000000000000000000000000000000058312600084126000841316161561072d5761072c6104aa565b5b827f8000000000000000000000000000000000000000000000000000000000000000058212600084136000841216161561076a576107696104aa565b5b827f7fffffffffffffffffffffffffffffffffffffffffffffffffffffffffffffff05821260008412600084121616156107a7576107a66104aa565b5b828202905092915050565b600082825260208201905092915050565b7f5072696365206973206c6f7765722c2073656e64206d6f726500000000000000600082015250565b60006107f96019836107b2565b9150610804826107c3565b602082019050919050565b60006020820190508181036000830152610828816107ec565b905091905056fea2646970667358221220143c68dc83fde84c90741cf07a80104ea58abaa0e4c0f832f8869f803e2fe47a64736f6c634300080e0033",
					"opcodes": "PUSH1 0x80 PUSH1 0x40 MSTORE PUSH9 0x2B5E3AF16B1880000 PUSH1 0x0 SSTORE CALLVALUE DUP1 ISZERO PUSH2 0x1D JUMPI PUSH1 0x0 DUP1 REVERT JUMPDEST POP PUSH2 0x865 DUP1 PUSH2 0x2D PUSH1 0x0 CODECOPY PUSH1 0x0 RETURN INVALID PUSH1 0x80 PUSH1 0x40 MSTORE PUSH1 0x4 CALLDATASIZE LT PUSH2 0x55 JUMPI PUSH1 0x0 CALLDATALOAD PUSH1 0xE0 SHR DUP1 PUSH4 0x3E47D6F3 EQ PUSH2 0x5A JUMPI DUP1 PUSH4 0x51B80E41 EQ PUSH2 0x97 JUMPI DUP1 PUSH4 0x6E5B6B28 EQ PUSH2 0xC2 JUMPI DUP1 PUSH4 0x98D5FDCA EQ PUSH2 0xFF JUMPI DUP1 PUSH4 0xB60D4288 EQ PUSH2 0x12A JUMPI DUP1 PUSH4 0xDC0D3DFF EQ PUSH2 0x134 JUMPI JUMPDEST PUSH1 0x0 DUP1 REVERT JUMPDEST CALLVALUE DUP1 ISZERO PUSH2 0x66 JUMPI PUSH1 0x0 DUP1 REVERT JUMPDEST POP PUSH2 0x81 PUSH1 0x4 DUP1 CALLDATASIZE SUB DUP2 ADD SWAP1 PUSH2 0x7C SWAP2 SWAP1 PUSH2 0x3C6 JUMP JUMPDEST PUSH2 0x171 JUMP JUMPDEST PUSH1 0x40 MLOAD PUSH2 0x8E SWAP2 SWAP1 PUSH2 0x40C JUMP JUMPDEST PUSH1 0x40 MLOAD DUP1 SWAP2 SUB SWAP1 RETURN JUMPDEST CALLVALUE DUP1 ISZERO PUSH2 0xA3 JUMPI PUSH1 0x0 DUP1 REVERT JUMPDEST POP PUSH2 0xAC PUSH2 0x189 JUMP JUMPDEST PUSH1 0x40 MLOAD PUSH2 0xB9 SWAP2 SWAP1 PUSH2 0x40C JUMP JUMPDEST PUSH1 0x40 MLOAD DUP1 SWAP2 SUB SWAP1 RETURN JUMPDEST CALLVALUE DUP1 ISZERO PUSH2 0xCE JUMPI PUSH1 0x0 DUP1 REVERT JUMPDEST POP PUSH2 0xE9 PUSH1 0x4 DUP1 CALLDATASIZE SUB DUP2 ADD SWAP1 PUSH2 0xE4 SWAP2 SWAP1 PUSH2 0x453 JUMP JUMPDEST PUSH2 0x18F JUMP JUMPDEST PUSH1 0x40 MLOAD PUSH2 0xF6 SWAP2 SWAP1 PUSH2 0x40C JUMP JUMPDEST PUSH1 0x40 MLOAD DUP1 SWAP2 SUB SWAP1 RETURN JUMPDEST CALLVALUE DUP1 ISZERO PUSH2 0x10B JUMPI PUSH1 0x0 DUP1 REVERT JUMPDEST POP PUSH2 0x114 PUSH2 0x1C9 JUMP JUMPDEST PUSH1 0x40 MLOAD PUSH2 0x121 SWAP2 SWAP1 PUSH2 0x40C JUMP JUMPDEST PUSH1 0x40 MLOAD DUP1 SWAP2 SUB SWAP1 RETURN JUMPDEST PUSH2 0x132 PUSH2 0x272 JUMP JUMPDEST STOP JUMPDEST CALLVALUE DUP1 ISZERO PUSH2 0x140 JUMPI PUSH1 0x0 DUP1 REVERT JUMPDEST POP PUSH2 0x15B PUSH1 0x4 DUP1 CALLDATASIZE SUB DUP2 ADD SWAP1 PUSH2 0x156 SWAP2 SWAP1 PUSH2 0x453 JUMP JUMPDEST PUSH2 0x324 JUMP JUMPDEST PUSH1 0x40 MLOAD PUSH2 0x168 SWAP2 SWAP1 PUSH2 0x48F JUMP JUMPDEST PUSH1 0x40 MLOAD DUP1 SWAP2 SUB SWAP1 RETURN JUMPDEST PUSH1 0x2 PUSH1 0x20 MSTORE DUP1 PUSH1 0x0 MSTORE PUSH1 0x40 PUSH1 0x0 KECCAK256 PUSH1 0x0 SWAP2 POP SWAP1 POP SLOAD DUP2 JUMP JUMPDEST PUSH1 0x0 SLOAD DUP2 JUMP JUMPDEST PUSH1 0x0 DUP1 PUSH2 0x19A PUSH2 0x1C9 JUMP JUMPDEST SWAP1 POP PUSH1 0x0 PUSH8 0xDE0B6B3A7640000 DUP5 DUP4 PUSH2 0x1B3 SWAP2 SWAP1 PUSH2 0x4D9 JUMP JUMPDEST PUSH2 0x1BD SWAP2 SWAP1 PUSH2 0x562 JUMP JUMPDEST SWAP1 POP DUP1 SWAP3 POP POP POP SWAP2 SWAP1 POP JUMP JUMPDEST PUSH1 0x0 DUP1 PUSH20 0x8A753747A1FA494EC906CE90E9F37563A8AF630E SWAP1 POP PUSH1 0x0 DUP2 PUSH20 0xFFFFFFFFFFFFFFFFFFFFFFFFFFFFFFFFFFFFFFFF AND PUSH4 0xFEAF968C PUSH1 0x40 MLOAD DUP2 PUSH4 0xFFFFFFFF AND PUSH1 0xE0 SHL DUP2 MSTORE PUSH1 0x4 ADD PUSH1 0xA0 PUSH1 0x40 MLOAD DUP1 DUP4 SUB DUP2 DUP7 GAS STATICCALL ISZERO DUP1 ISZERO PUSH2 0x230 JUMPI RETURNDATASIZE PUSH1 0x0 DUP1 RETURNDATACOPY RETURNDATASIZE PUSH1 0x0 REVERT JUMPDEST POP POP POP POP PUSH1 0x40 MLOAD RETURNDATASIZE PUSH1 0x1F NOT PUSH1 0x1F DUP3 ADD AND DUP3 ADD DUP1 PUSH1 0x40 MSTORE POP DUP2 ADD SWAP1 PUSH2 0x254 SWAP2 SWAP1 PUSH2 0x620 JUMP JUMPDEST POP POP POP SWAP2 POP POP PUSH5 0x2540BE400 DUP2 PUSH2 0x26B SWAP2 SWAP1 PUSH2 0x69B JUMP JUMPDEST SWAP3 POP POP POP SWAP1 JUMP JUMPDEST PUSH1 0x0 SLOAD PUSH2 0x27E CALLVALUE PUSH2 0x18F JUMP JUMPDEST LT ISZERO PUSH2 0x2BF JUMPI PUSH1 0x40 MLOAD PUSH32 0x8C379A000000000000000000000000000000000000000000000000000000000 DUP2 MSTORE PUSH1 0x4 ADD PUSH2 0x2B6 SWAP1 PUSH2 0x80F JUMP JUMPDEST PUSH1 0x40 MLOAD DUP1 SWAP2 SUB SWAP1 REVERT JUMPDEST PUSH1 0x1 CALLER SWAP1 DUP1 PUSH1 0x1 DUP2 SLOAD ADD DUP1 DUP3 SSTORE DUP1 SWAP2 POP POP PUSH1 0x1 SWAP1 SUB SWAP1 PUSH1 0x0 MSTORE PUSH1 0x20 PUSH1 0x0 KECCAK256 ADD PUSH1 0x0 SWAP1 SWAP2 SWAP1 SWAP2 SWAP1 SWAP2 PUSH2 0x100 EXP DUP2 SLOAD DUP2 PUSH20 0xFFFFFFFFFFFFFFFFFFFFFFFFFFFFFFFFFFFFFFFF MUL NOT AND SWAP1 DUP4 PUSH20 0xFFFFFFFFFFFFFFFFFFFFFFFFFFFFFFFFFFFFFFFF AND MUL OR SWAP1 SSTORE POP JUMP JUMPDEST PUSH1 0x1 DUP2 DUP2 SLOAD DUP2 LT PUSH2 0x334 JUMPI PUSH1 0x0 DUP1 REVERT JUMPDEST SWAP1 PUSH1 0x0 MSTORE PUSH1 0x20 PUSH1 0x0 KECCAK256 ADD PUSH1 0x0 SWAP2 POP SLOAD SWAP1 PUSH2 0x100 EXP SWAP1 DIV PUSH20 0xFFFFFFFFFFFFFFFFFFFFFFFFFFFFFFFFFFFFFFFF AND DUP2 JUMP JUMPDEST PUSH1 0x0 DUP1 REVERT JUMPDEST PUSH1 0x0 PUSH20 0xFFFFFFFFFFFFFFFFFFFFFFFFFFFFFFFFFFFFFFFF DUP3 AND SWAP1 POP SWAP2 SWAP1 POP JUMP JUMPDEST PUSH1 0x0 PUSH2 0x393 DUP3 PUSH2 0x368 JUMP JUMPDEST SWAP1 POP SWAP2 SWAP1 POP JUMP JUMPDEST PUSH2 0x3A3 DUP2 PUSH2 0x388 JUMP JUMPDEST DUP2 EQ PUSH2 0x3AE JUMPI PUSH1 0x0 DUP1 REVERT JUMPDEST POP JUMP JUMPDEST PUSH1 0x0 DUP2 CALLDATALOAD SWAP1 POP PUSH2 0x3C0 DUP2 PUSH2 0x39A JUMP JUMPDEST SWAP3 SWAP2 POP POP JUMP JUMPDEST PUSH1 0x0 PUSH1 0x20 DUP3 DUP5 SUB SLT ISZERO PUSH2 0x3DC JUMPI PUSH2 0x3DB PUSH2 0x363 JUMP JUMPDEST JUMPDEST PUSH1 0x0 PUSH2 0x3EA DUP5 DUP3 DUP6 ADD PUSH2 0x3B1 JUMP JUMPDEST SWAP2 POP POP SWAP3 SWAP2 POP POP JUMP JUMPDEST PUSH1 0x0 DUP2 SWAP1 POP SWAP2 SWAP1 POP JUMP JUMPDEST PUSH2 0x406 DUP2 PUSH2 0x3F3 JUMP JUMPDEST DUP3 MSTORE POP POP JUMP JUMPDEST PUSH1 0x0 PUSH1 0x20 DUP3 ADD SWAP1 POP PUSH2 0x421 PUSH1 0x0 DUP4 ADD DUP5 PUSH2 0x3FD JUMP JUMPDEST SWAP3 SWAP2 POP POP JUMP JUMPDEST PUSH2 0x430 DUP2 PUSH2 0x3F3 JUMP JUMPDEST DUP2 EQ PUSH2 0x43B JUMPI PUSH1 0x0 DUP1 REVERT JUMPDEST POP JUMP JUMPDEST PUSH1 0x0 DUP2 CALLDATALOAD SWAP1 POP PUSH2 0x44D DUP2 PUSH2 0x427 JUMP JUMPDEST SWAP3 SWAP2 POP POP JUMP JUMPDEST PUSH1 0x0 PUSH1 0x20 DUP3 DUP5 SUB SLT ISZERO PUSH2 0x469 JUMPI PUSH2 0x468 PUSH2 0x363 JUMP JUMPDEST JUMPDEST PUSH1 0x0 PUSH2 0x477 DUP5 DUP3 DUP6 ADD PUSH2 0x43E JUMP JUMPDEST SWAP2 POP POP SWAP3 SWAP2 POP POP JUMP JUMPDEST PUSH2 0x489 DUP2 PUSH2 0x388 JUMP JUMPDEST DUP3 MSTORE POP POP JUMP JUMPDEST PUSH1 0x0 PUSH1 0x20 DUP3 ADD SWAP1 POP PUSH2 0x4A4 PUSH1 0x0 DUP4 ADD DUP5 PUSH2 0x480 JUMP JUMPDEST SWAP3 SWAP2 POP POP JUMP JUMPDEST PUSH32 0x4E487B7100000000000000000000000000000000000000000000000000000000 PUSH1 0x0 MSTORE PUSH1 0x11 PUSH1 0x4 MSTORE PUSH1 0x24 PUSH1 0x0 REVERT JUMPDEST PUSH1 0x0 PUSH2 0x4E4 DUP3 PUSH2 0x3F3 JUMP JUMPDEST SWAP2 POP PUSH2 0x4EF DUP4 PUSH2 0x3F3 JUMP JUMPDEST SWAP3 POP DUP2 PUSH32 0xFFFFFFFFFFFFFFFFFFFFFFFFFFFFFFFFFFFFFFFFFFFFFFFFFFFFFFFFFFFFFFFF DIV DUP4 GT DUP3 ISZERO ISZERO AND ISZERO PUSH2 0x528 JUMPI PUSH2 0x527 PUSH2 0x4AA JUMP JUMPDEST JUMPDEST DUP3 DUP3 MUL SWAP1 POP SWAP3 SWAP2 POP POP JUMP JUMPDEST PUSH32 0x4E487B7100000000000000000000000000000000000000000000000000000000 PUSH1 0x0 MSTORE PUSH1 0x12 PUSH1 0x4 MSTORE PUSH1 0x24 PUSH1 0x0 REVERT JUMPDEST PUSH1 0x0 PUSH2 0x56D DUP3 PUSH2 0x3F3 JUMP JUMPDEST SWAP2 POP PUSH2 0x578 DUP4 PUSH2 0x3F3 JUMP JUMPDEST SWAP3 POP DUP3 PUSH2 0x588 JUMPI PUSH2 0x587 PUSH2 0x533 JUMP JUMPDEST JUMPDEST DUP3 DUP3 DIV SWAP1 POP SWAP3 SWAP2 POP POP JUMP JUMPDEST PUSH1 0x0 PUSH10 0xFFFFFFFFFFFFFFFFFFFF DUP3 AND SWAP1 POP SWAP2 SWAP1 POP JUMP JUMPDEST PUSH2 0x5B2 DUP2 PUSH2 0x593 JUMP JUMPDEST DUP2 EQ PUSH2 0x5BD JUMPI PUSH1 0x0 DUP1 REVERT JUMPDEST POP JUMP JUMPDEST PUSH1 0x0 DUP2 MLOAD SWAP1 POP PUSH2 0x5CF DUP2 PUSH2 0x5A9 JUMP JUMPDEST SWAP3 SWAP2 POP POP JUMP JUMPDEST PUSH1 0x0 DUP2 SWAP1 POP SWAP2 SWAP1 POP JUMP JUMPDEST PUSH2 0x5E8 DUP2 PUSH2 0x5D5 JUMP JUMPDEST DUP2 EQ PUSH2 0x5F3 JUMPI PUSH1 0x0 DUP1 REVERT JUMPDEST POP JUMP JUMPDEST PUSH1 0x0 DUP2 MLOAD SWAP1 POP PUSH2 0x605 DUP2 PUSH2 0x5DF JUMP JUMPDEST SWAP3 SWAP2 POP POP JUMP JUMPDEST PUSH1 0x0 DUP2 MLOAD SWAP1 POP PUSH2 0x61A DUP2 PUSH2 0x427 JUMP JUMPDEST SWAP3 SWAP2 POP POP JUMP JUMPDEST PUSH1 0x0 DUP1 PUSH1 0x0 DUP1 PUSH1 0x0 PUSH1 0xA0 DUP7 DUP9 SUB SLT ISZERO PUSH2 0x63C JUMPI PUSH2 0x63B PUSH2 0x363 JUMP JUMPDEST JUMPDEST PUSH1 0x0 PUSH2 0x64A DUP9 DUP3 DUP10 ADD PUSH2 0x5C0 JUMP JUMPDEST SWAP6 POP POP PUSH1 0x20 PUSH2 0x65B DUP9 DUP3 DUP10 ADD PUSH2 0x5F6 JUMP JUMPDEST SWAP5 POP POP PUSH1 0x40 PUSH2 0x66C DUP9 DUP3 DUP10 ADD PUSH2 0x60B JUMP JUMPDEST SWAP4 POP POP PUSH1 0x60 PUSH2 0x67D DUP9 DUP3 DUP10 ADD PUSH2 0x60B JUMP JUMPDEST SWAP3 POP POP PUSH1 0x80 PUSH2 0x68E DUP9 DUP3 DUP10 ADD PUSH2 0x5C0 JUMP JUMPDEST SWAP2 POP POP SWAP3 SWAP6 POP SWAP3 SWAP6 SWAP1 SWAP4 POP JUMP JUMPDEST PUSH1 0x0 PUSH2 0x6A6 DUP3 PUSH2 0x5D5 JUMP JUMPDEST SWAP2 POP PUSH2 0x6B1 DUP4 PUSH2 0x5D5 JUMP JUMPDEST SWAP3 POP DUP3 PUSH32 0x7FFFFFFFFFFFFFFFFFFFFFFFFFFFFFFFFFFFFFFFFFFFFFFFFFFFFFFFFFFFFFFF DIV DUP3 GT PUSH1 0x0 DUP5 SGT PUSH1 0x0 DUP5 SGT AND AND ISZERO PUSH2 0x6F0 JUMPI PUSH2 0x6EF PUSH2 0x4AA JUMP JUMPDEST JUMPDEST DUP2 PUSH32 0x8000000000000000000000000000000000000000000000000000000000000000 SDIV DUP4 SLT PUSH1 0x0 DUP5 SLT PUSH1 0x0 DUP5 SGT AND AND ISZERO PUSH2 0x72D JUMPI PUSH2 0x72C PUSH2 0x4AA JUMP JUMPDEST JUMPDEST DUP3 PUSH32 0x8000000000000000000000000000000000000000000000000000000000000000 SDIV DUP3 SLT PUSH1 0x0 DUP5 SGT PUSH1 0x0 DUP5 SLT AND AND ISZERO PUSH2 0x76A JUMPI PUSH2 0x769 PUSH2 0x4AA JUMP JUMPDEST JUMPDEST DUP3 PUSH32 0x7FFFFFFFFFFFFFFFFFFFFFFFFFFFFFFFFFFFFFFFFFFFFFFFFFFFFFFFFFFFFFFF SDIV DUP3 SLT PUSH1 0x0 DUP5 SLT PUSH1 0x0 DUP5 SLT AND AND ISZERO PUSH2 0x7A7 JUMPI PUSH2 0x7A6 PUSH2 0x4AA JUMP JUMPDEST JUMPDEST DUP3 DUP3 MUL SWAP1 POP SWAP3 SWAP2 POP POP JUMP JUMPDEST PUSH1 0x0 DUP3 DUP3 MSTORE PUSH1 0x20 DUP3 ADD SWAP1 POP SWAP3 SWAP2 POP POP JUMP JUMPDEST PUSH32 0x5072696365206973206C6F7765722C2073656E64206D6F726500000000000000 PUSH1 0x0 DUP3 ADD MSTORE POP JUMP JUMPDEST PUSH1 0x0 PUSH2 0x7F9 PUSH1 0x19 DUP4 PUSH2 0x7B2 JUMP JUMPDEST SWAP2 POP PUSH2 0x804 DUP3 PUSH2 0x7C3 JUMP JUMPDEST PUSH1 0x20 DUP3 ADD SWAP1 POP SWAP2 SWAP1 POP JUMP JUMPDEST PUSH1 0x0 PUSH1 0x20 DUP3 ADD SWAP1 POP DUP2 DUP2 SUB PUSH1 0x0 DUP4 ADD MSTORE PUSH2 0x828 DUP2 PUSH2 0x7EC JUMP JUMPDEST SWAP1 POP SWAP2 SWAP1 POP JUMP INVALID LOG2 PUSH5 0x6970667358 0x22 SLT KECCAK256 EQ EXTCODECOPY PUSH9 0xDC83FDE84C90741CF0 PUSH27 0x80104EA58ABAA0E4C0F832F8869F803E2FE47A64736F6C63430008 0xE STOP CALLER "
				},
				"gasEstimates": {
					"creation": {
						"codeDepositCost": "429800",
						"executionCost": "22574",
						"totalCost": "452374"
					},
					"external": {
						"addressToAmountFunded(address)": "2792",
						"fund()": "infinite",
						"funders(uint256)": "5044",
						"getConversionRate(uint256)": "infinite",
						"getPrice()": "infinite",
						"minUsd()": "2429"
					}
				},
				"methodIdentifiers": {
					"addressToAmountFunded(address)": "3e47d6f3",
					"fund()": "b60d4288",
					"funders(uint256)": "dc0d3dff",
					"getConversionRate(uint256)": "6e5b6b28",
					"getPrice()": "98d5fdca",
					"minUsd()": "51b80e41"
				}
			},
			"storageLayout": {
				"storage": [
					{
						"astId": 53,
						"contract": "fundMe/FundMe.sol:FundMe",
						"label": "minUsd",
						"offset": 0,
						"slot": "0",
						"type": "t_uint256"
					},
					{
						"astId": 56,
						"contract": "fundMe/FundMe.sol:FundMe",
						"label": "funders",
						"offset": 0,
						"slot": "1",
						"type": "t_array(t_address)dyn_storage"
					},
					{
						"astId": 60,
						"contract": "fundMe/FundMe.sol:FundMe",
						"label": "addressToAmountFunded",
						"offset": 0,
						"slot": "2",
						"type": "t_mapping(t_address,t_uint256)"
					}
				],
				"types": {
					"t_address": {
						"encoding": "inplace",
						"label": "address",
						"numberOfBytes": "20"
					},
					"t_array(t_address)dyn_storage": {
						"base": "t_address",
						"encoding": "dynamic_array",
						"label": "address[]",
						"numberOfBytes": "32"
					},
					"t_mapping(t_address,t_uint256)": {
						"encoding": "mapping",
						"key": "t_address",
						"label": "mapping(address => uint256)",
						"numberOfBytes": "32",
						"value": "t_uint256"
					},
					"t_uint256": {
						"encoding": "inplace",
						"label": "uint256",
						"numberOfBytes": "32"
					}
				}
			},
			"userdoc": {
				"kind": "user",
				"methods": {},
				"version": 1
			}
		}
	}
}