{
	"fundMe/FundMe.sol": {
		"FundMe": {
			"abi": [
				{
					"inputs": [],
					"stateMutability": "nonpayable",
					"type": "constructor"
				},
				{
					"inputs": [],
					"name": "MIN_USD",
					"outputs": [
						{
							"internalType": "uint256",
							"name": "",
							"type": "uint256"
						}
					],
					"stateMutability": "view",
					"type": "function"
				},
				{
					"inputs": [
						{
							"internalType": "address",
							"name": "",
							"type": "address"
						}
					],
					"name": "addressToAmountFunded",
					"outputs": [
						{
							"internalType": "uint256",
							"name": "",
							"type": "uint256"
						}
					],
					"stateMutability": "view",
					"type": "function"
				},
				{
					"inputs": [],
					"name": "fund",
					"outputs": [],
					"stateMutability": "payable",
					"type": "function"
				},
				{
					"inputs": [
						{
							"internalType": "uint256",
							"name": "",
							"type": "uint256"
						}
					],
					"name": "funders",
					"outputs": [
						{
							"internalType": "address",
							"name": "",
							"type": "address"
						}
					],
					"stateMutability": "view",
					"type": "function"
				},
				{
					"inputs": [],
					"name": "i_owner",
					"outputs": [
						{
							"internalType": "address",
							"name": "",
							"type": "address"
						}
					],
					"stateMutability": "view",
					"type": "function"
				},
				{
					"inputs": [],
					"name": "withdraw",
					"outputs": [],
					"stateMutability": "nonpayable",
					"type": "function"
				}
			],
			"devdoc": {
				"kind": "dev",
				"methods": {},
				"version": 1
			},
			"evm": {
				"assembly": "    /* \"fundMe/FundMe.sol\":89:1394  contract FundMe {... */\n  mstore(0x40, 0xa0)\n    /* \"fundMe/FundMe.sol\":333:385  constructor() {... */\n  callvalue\n  dup1\n  iszero\n  tag_1\n  jumpi\n  0x00\n  dup1\n  revert\ntag_1:\n  pop\n    /* \"fundMe/FundMe.sol\":367:377  msg.sender */\n  caller\n    /* \"fundMe/FundMe.sol\":357:377  i_owner = msg.sender */\n  0xffffffffffffffffffffffffffffffffffffffff\n  and\n  0x80\n  dup2\n  0xffffffffffffffffffffffffffffffffffffffff\n  and\n  dup2\n  mstore\n  pop\n  pop\n    /* \"fundMe/FundMe.sol\":89:1394  contract FundMe {... */\n  mload(0x80)\n  codecopy(0x00, dataOffset(sub_0), dataSize(sub_0))\n  0x00\n  assignImmutable(\"0x59d26ca75eb04b47ab1bca5d789d02e4d0cf9ff8cb49c9041caeeeab4eccafbf\")\n  return(0x00, dataSize(sub_0))\nstop\n\nsub_0: assembly {\n        /* \"fundMe/FundMe.sol\":89:1394  contract FundMe {... */\n      mstore(0x40, 0x80)\n      jumpi(tag_1, lt(calldatasize, 0x04))\n      shr(0xe0, calldataload(0x00))\n      dup1\n      0x213dbea2\n      eq\n      tag_2\n      jumpi\n      dup1\n      0x3ccfd60b\n      eq\n      tag_3\n      jumpi\n      dup1\n      0x3e47d6f3\n      eq\n      tag_4\n      jumpi\n      dup1\n      0xb60d4288\n      eq\n      tag_5\n      jumpi\n      dup1\n      0xdba6335f\n      eq\n      tag_6\n      jumpi\n      dup1\n      0xdc0d3dff\n      eq\n      tag_7\n      jumpi\n    tag_1:\n      0x00\n      dup1\n      revert\n        /* \"fundMe/FundMe.sol\":155:196  uint public  constant MIN_USD = 50 * 1e18 */\n    tag_2:\n      callvalue\n      dup1\n      iszero\n      tag_8\n      jumpi\n      0x00\n      dup1\n      revert\n    tag_8:\n      pop\n      tag_9\n      tag_10\n      jump\t// in\n    tag_9:\n      mload(0x40)\n      tag_11\n      swap2\n      swap1\n      tag_12\n      jump\t// in\n    tag_11:\n      mload(0x40)\n      dup1\n      swap2\n      sub\n      swap1\n      return\n        /* \"fundMe/FundMe.sol\":704:1275  function withdraw() public onlyOwner {... */\n    tag_3:\n      callvalue\n      dup1\n      iszero\n      tag_13\n      jumpi\n      0x00\n      dup1\n      revert\n    tag_13:\n      pop\n      tag_14\n      tag_15\n      jump\t// in\n    tag_14:\n      stop\n        /* \"fundMe/FundMe.sol\":272:325  mapping(address => uint) public addressToAmountFunded */\n    tag_4:\n      callvalue\n      dup1\n      iszero\n      tag_16\n      jumpi\n      0x00\n      dup1\n      revert\n    tag_16:\n      pop\n      tag_17\n      0x04\n      dup1\n      calldatasize\n      sub\n      dup2\n      add\n      swap1\n      tag_18\n      swap2\n      swap1\n      tag_19\n      jump\t// in\n    tag_18:\n      tag_20\n      jump\t// in\n    tag_17:\n      mload(0x40)\n      tag_21\n      swap2\n      swap1\n      tag_12\n      jump\t// in\n    tag_21:\n      mload(0x40)\n      dup1\n      swap2\n      sub\n      swap1\n      return\n        /* \"fundMe/FundMe.sol\":391:698  function fund() public payable {... */\n    tag_5:\n      tag_22\n      tag_23\n      jump\t// in\n    tag_22:\n      stop\n        /* \"fundMe/FundMe.sol\":202:235  address  public immutable i_owner */\n    tag_6:\n      callvalue\n      dup1\n      iszero\n      tag_24\n      jumpi\n      0x00\n      dup1\n      revert\n    tag_24:\n      pop\n      tag_25\n      tag_26\n      jump\t// in\n    tag_25:\n      mload(0x40)\n      tag_27\n      swap2\n      swap1\n      tag_28\n      jump\t// in\n    tag_27:\n      mload(0x40)\n      dup1\n      swap2\n      sub\n      swap1\n      return\n        /* \"fundMe/FundMe.sol\":242:266  address[] public funders */\n    tag_7:\n      callvalue\n      dup1\n      iszero\n      tag_29\n      jumpi\n      0x00\n      dup1\n      revert\n    tag_29:\n      pop\n      tag_30\n      0x04\n      dup1\n      calldatasize\n      sub\n      dup2\n      add\n      swap1\n      tag_31\n      swap2\n      swap1\n      tag_32\n      jump\t// in\n    tag_31:\n      tag_33\n      jump\t// in\n    tag_30:\n      mload(0x40)\n      tag_34\n      swap2\n      swap1\n      tag_28\n      jump\t// in\n    tag_34:\n      mload(0x40)\n      dup1\n      swap2\n      sub\n      swap1\n      return\n        /* \"fundMe/FundMe.sol\":155:196  uint public  constant MIN_USD = 50 * 1e18 */\n    tag_10:\n        /* \"fundMe/FundMe.sol\":187:196  50 * 1e18 */\n      0x02b5e3af16b1880000\n        /* \"fundMe/FundMe.sol\":155:196  uint public  constant MIN_USD = 50 * 1e18 */\n      dup2\n      jump\t// out\n        /* \"fundMe/FundMe.sol\":704:1275  function withdraw() public onlyOwner {... */\n    tag_15:\n        /* \"fundMe/FundMe.sol\":1332:1339  i_owner */\n      immutable(\"0x59d26ca75eb04b47ab1bca5d789d02e4d0cf9ff8cb49c9041caeeeab4eccafbf\")\n        /* \"fundMe/FundMe.sol\":1318:1339  msg.sender == i_owner */\n      0xffffffffffffffffffffffffffffffffffffffff\n      and\n        /* \"fundMe/FundMe.sol\":1318:1328  msg.sender */\n      caller\n        /* \"fundMe/FundMe.sol\":1318:1339  msg.sender == i_owner */\n      0xffffffffffffffffffffffffffffffffffffffff\n      and\n      eq\n        /* \"fundMe/FundMe.sol\":1310:1368  require(msg.sender == i_owner, \"Not i_owner the contract\") */\n      tag_36\n      jumpi\n      mload(0x40)\n      0x08c379a000000000000000000000000000000000000000000000000000000000\n      dup2\n      mstore\n      0x04\n      add\n      tag_37\n      swap1\n      tag_38\n      jump\t// in\n    tag_37:\n      mload(0x40)\n      dup1\n      swap2\n      sub\n      swap1\n      revert\n    tag_36:\n        /* \"fundMe/FundMe.sol\":783:789  uint i */\n      0x00\n        /* \"fundMe/FundMe.sol\":779:928  for(uint i = 0; i < funders.length; i++){... */\n    tag_40:\n        /* \"fundMe/FundMe.sol\":799:806  funders */\n      0x00\n        /* \"fundMe/FundMe.sol\":799:813  funders.length */\n      dup1\n      sload\n      swap1\n      pop\n        /* \"fundMe/FundMe.sol\":795:796  i */\n      dup2\n        /* \"fundMe/FundMe.sol\":795:813  i < funders.length */\n      lt\n        /* \"fundMe/FundMe.sol\":779:928  for(uint i = 0; i < funders.length; i++){... */\n      iszero\n      tag_41\n      jumpi\n        /* \"fundMe/FundMe.sol\":833:852  address currAddress */\n      0x00\n        /* \"fundMe/FundMe.sol\":855:862  funders */\n      dup1\n        /* \"fundMe/FundMe.sol\":863:864  i */\n      dup3\n        /* \"fundMe/FundMe.sol\":855:865  funders[i] */\n      dup2\n      sload\n      dup2\n      lt\n      tag_43\n      jumpi\n      tag_44\n      tag_45\n      jump\t// in\n    tag_44:\n    tag_43:\n      swap1\n      0x00\n      mstore\n      keccak256(0x00, 0x20)\n      add\n      0x00\n      swap1\n      sload\n      swap1\n      0x0100\n      exp\n      swap1\n      div\n      0xffffffffffffffffffffffffffffffffffffffff\n      and\n        /* \"fundMe/FundMe.sol\":833:865  address currAddress = funders[i] */\n      swap1\n      pop\n        /* \"fundMe/FundMe.sol\":916:917  0 */\n      0x00\n        /* \"fundMe/FundMe.sol\":879:900  addressToAmountFunded */\n      0x01\n        /* \"fundMe/FundMe.sol\":879:913  addressToAmountFunded[currAddress] */\n      0x00\n        /* \"fundMe/FundMe.sol\":901:912  currAddress */\n      dup4\n        /* \"fundMe/FundMe.sol\":879:913  addressToAmountFunded[currAddress] */\n      0xffffffffffffffffffffffffffffffffffffffff\n      and\n      0xffffffffffffffffffffffffffffffffffffffff\n      and\n      dup2\n      mstore\n      0x20\n      add\n      swap1\n      dup2\n      mstore\n      0x20\n      add\n      0x00\n      keccak256\n        /* \"fundMe/FundMe.sol\":879:917  addressToAmountFunded[currAddress] = 0 */\n      dup2\n      swap1\n      sstore\n      pop\n        /* \"fundMe/FundMe.sol\":819:928  {... */\n      pop\n        /* \"fundMe/FundMe.sol\":815:818  i++ */\n      dup1\n      dup1\n      tag_47\n      swap1\n      tag_48\n      jump\t// in\n    tag_47:\n      swap2\n      pop\n      pop\n        /* \"fundMe/FundMe.sol\":779:928  for(uint i = 0; i < funders.length; i++){... */\n      jump(tag_40)\n    tag_41:\n      pop\n        /* \"fundMe/FundMe.sol\":1041:1042  0 */\n      0x00\n        /* \"fundMe/FundMe.sol\":1027:1043  new address[](0) */\n      0xffffffffffffffff\n      dup2\n      gt\n      iszero\n      tag_49\n      jumpi\n      tag_50\n      tag_51\n      jump\t// in\n    tag_50:\n    tag_49:\n      mload(0x40)\n      swap1\n      dup1\n      dup3\n      mstore\n      dup1\n      0x20\n      mul\n      0x20\n      add\n      dup3\n      add\n      0x40\n      mstore\n      dup1\n      iszero\n      tag_52\n      jumpi\n      dup2\n      0x20\n      add\n      0x20\n      dup3\n      mul\n      dup1\n      calldatasize\n      dup4\n      calldatacopy\n      dup1\n      dup3\n      add\n      swap2\n      pop\n      pop\n      swap1\n      pop\n    tag_52:\n      pop\n        /* \"fundMe/FundMe.sol\":1017:1024  funders */\n      0x00\n        /* \"fundMe/FundMe.sol\":1017:1043  funders = new address[](0) */\n      swap1\n      dup1\n      mload\n      swap1\n      0x20\n      add\n      swap1\n      tag_53\n      swap3\n      swap2\n      swap1\n      tag_54\n      jump\t// in\n    tag_53:\n      pop\n        /* \"fundMe/FundMe.sol\":1138:1154  bool callSuccess */\n      0x00\n        /* \"fundMe/FundMe.sol\":1176:1180  this */\n      address\n        /* \"fundMe/FundMe.sol\":1160:1187  payable(address(this)).call */\n      0xffffffffffffffffffffffffffffffffffffffff\n      and\n        /* \"fundMe/FundMe.sol\":1196:1217  address(this).balance */\n      selfbalance\n        /* \"fundMe/FundMe.sol\":1160:1222  payable(address(this)).call{value : address(this).balance}(\"\") */\n      mload(0x40)\n      tag_55\n      swap1\n      tag_56\n      jump\t// in\n    tag_55:\n      0x00\n      mload(0x40)\n      dup1\n      dup4\n      sub\n      dup2\n      dup6\n      dup8\n      gas\n      call\n      swap3\n      pop\n      pop\n      pop\n      returndatasize\n      dup1\n      0x00\n      dup2\n      eq\n      tag_59\n      jumpi\n      mload(0x40)\n      swap2\n      pop\n      and(add(returndatasize, 0x3f), not(0x1f))\n      dup3\n      add\n      0x40\n      mstore\n      returndatasize\n      dup3\n      mstore\n      returndatasize\n      0x00\n      0x20\n      dup5\n      add\n      returndatacopy\n      jump(tag_58)\n    tag_59:\n      0x60\n      swap2\n      pop\n    tag_58:\n      pop\n        /* \"fundMe/FundMe.sol\":1137:1222  (bool callSuccess, ) = payable(address(this)).call{value : address(this).balance}(\"\") */\n      pop\n      swap1\n      pop\n        /* \"fundMe/FundMe.sol\":1240:1251  callSuccess */\n      dup1\n        /* \"fundMe/FundMe.sol\":1232:1268  require(callSuccess, \"Call falied \") */\n      tag_60\n      jumpi\n      mload(0x40)\n      0x08c379a000000000000000000000000000000000000000000000000000000000\n      dup2\n      mstore\n      0x04\n      add\n      tag_61\n      swap1\n      tag_62\n      jump\t// in\n    tag_61:\n      mload(0x40)\n      dup1\n      swap2\n      sub\n      swap1\n      revert\n    tag_60:\n        /* \"fundMe/FundMe.sol\":741:1275  {... */\n      pop\n        /* \"fundMe/FundMe.sol\":704:1275  function withdraw() public onlyOwner {... */\n      jump\t// out\n        /* \"fundMe/FundMe.sol\":272:325  mapping(address => uint) public addressToAmountFunded */\n    tag_20:\n      mstore(0x20, 0x01)\n      dup1\n      0x00\n      mstore\n      keccak256(0x00, 0x40)\n      0x00\n      swap2\n      pop\n      swap1\n      pop\n      sload\n      dup2\n      jump\t// out\n        /* \"fundMe/FundMe.sol\":391:698  function fund() public payable {... */\n    tag_23:\n        /* \"fundMe/FundMe.sol\":187:196  50 * 1e18 */\n      0x02b5e3af16b1880000\n        /* \"fundMe/FundMe.sol\":532:561  msg.value.getConversionRate() */\n      tag_64\n        /* \"fundMe/FundMe.sol\":532:541  msg.value */\n      callvalue\n        /* \"fundMe/FundMe.sol\":532:559  msg.value.getConversionRate */\n      tag_65\n        /* \"fundMe/FundMe.sol\":532:561  msg.value.getConversionRate() */\n      jump\t// in\n    tag_64:\n        /* \"fundMe/FundMe.sol\":532:572  msg.value.getConversionRate() >= MIN_USD */\n      lt\n      iszero\n        /* \"fundMe/FundMe.sol\":524:602  require(msg.value.getConversionRate() >= MIN_USD, \"Price is lower, send more\") */\n      tag_66\n      jumpi\n      mload(0x40)\n      0x08c379a000000000000000000000000000000000000000000000000000000000\n      dup2\n      mstore\n      0x04\n      add\n      tag_67\n      swap1\n      tag_68\n      jump\t// in\n    tag_67:\n      mload(0x40)\n      dup1\n      swap2\n      sub\n      swap1\n      revert\n    tag_66:\n        /* \"fundMe/FundMe.sol\":612:619  funders */\n      0x00\n        /* \"fundMe/FundMe.sol\":625:635  msg.sender */\n      caller\n        /* \"fundMe/FundMe.sol\":612:636  funders.push(msg.sender) */\n      swap1\n      dup1\n      0x01\n      dup2\n      sload\n      add\n      dup1\n      dup3\n      sstore\n      dup1\n      swap2\n      pop\n      pop\n      0x01\n      swap1\n      sub\n      swap1\n      0x00\n      mstore\n      keccak256(0x00, 0x20)\n      add\n      0x00\n      swap1\n      swap2\n      swap1\n      swap2\n      swap1\n      swap2\n      0x0100\n      exp\n      dup2\n      sload\n      dup2\n      0xffffffffffffffffffffffffffffffffffffffff\n      mul\n      not\n      and\n      swap1\n      dup4\n      0xffffffffffffffffffffffffffffffffffffffff\n      and\n      mul\n      or\n      swap1\n      sstore\n      pop\n        /* \"fundMe/FundMe.sol\":682:691  msg.value */\n      callvalue\n        /* \"fundMe/FundMe.sol\":646:667  addressToAmountFunded */\n      0x01\n        /* \"fundMe/FundMe.sol\":646:679  addressToAmountFunded[msg.sender] */\n      0x00\n        /* \"fundMe/FundMe.sol\":668:678  msg.sender */\n      caller\n        /* \"fundMe/FundMe.sol\":646:679  addressToAmountFunded[msg.sender] */\n      0xffffffffffffffffffffffffffffffffffffffff\n      and\n      0xffffffffffffffffffffffffffffffffffffffff\n      and\n      dup2\n      mstore\n      0x20\n      add\n      swap1\n      dup2\n      mstore\n      0x20\n      add\n      0x00\n      keccak256\n        /* \"fundMe/FundMe.sol\":646:691  addressToAmountFunded[msg.sender] = msg.value */\n      dup2\n      swap1\n      sstore\n      pop\n        /* \"fundMe/FundMe.sol\":391:698  function fund() public payable {... */\n      jump\t// out\n        /* \"fundMe/FundMe.sol\":202:235  address  public immutable i_owner */\n    tag_26:\n      immutable(\"0x59d26ca75eb04b47ab1bca5d789d02e4d0cf9ff8cb49c9041caeeeab4eccafbf\")\n      dup2\n      jump\t// out\n        /* \"fundMe/FundMe.sol\":242:266  address[] public funders */\n    tag_33:\n      0x00\n      dup2\n      dup2\n      sload\n      dup2\n      lt\n      tag_70\n      jumpi\n      0x00\n      dup1\n      revert\n    tag_70:\n      swap1\n      0x00\n      mstore\n      keccak256(0x00, 0x20)\n      add\n      0x00\n      swap2\n      pop\n      sload\n      swap1\n      0x0100\n      exp\n      swap1\n      div\n      0xffffffffffffffffffffffffffffffffffffffff\n      and\n      dup2\n      jump\t// out\n        /* \"fundMe/PriceConverter.sol\":740:956  function getConversionRate(uint _ethAmount) internal view returns(uint) {... */\n    tag_65:\n        /* \"fundMe/PriceConverter.sol\":806:810  uint */\n      0x00\n        /* \"fundMe/PriceConverter.sol\":822:839  uint currEthPrice */\n      dup1\n        /* \"fundMe/PriceConverter.sol\":842:852  getPrice() */\n      tag_73\n        /* \"fundMe/PriceConverter.sol\":842:850  getPrice */\n      tag_74\n        /* \"fundMe/PriceConverter.sol\":842:852  getPrice() */\n      jump\t// in\n    tag_73:\n        /* \"fundMe/PriceConverter.sol\":822:852  uint currEthPrice = getPrice() */\n      swap1\n      pop\n        /* \"fundMe/PriceConverter.sol\":862:881  uint ethAmountToUSD */\n      0x00\n        /* \"fundMe/PriceConverter.sol\":914:918  1e18 */\n      0x0de0b6b3a7640000\n        /* \"fundMe/PriceConverter.sol\":900:910  _ethAmount */\n      dup5\n        /* \"fundMe/PriceConverter.sol\":885:897  currEthPrice */\n      dup4\n        /* \"fundMe/PriceConverter.sol\":885:910  currEthPrice * _ethAmount */\n      tag_75\n      swap2\n      swap1\n      tag_76\n      jump\t// in\n    tag_75:\n        /* \"fundMe/PriceConverter.sol\":884:918  (currEthPrice * _ethAmount) / 1e18 */\n      tag_77\n      swap2\n      swap1\n      tag_78\n      jump\t// in\n    tag_77:\n        /* \"fundMe/PriceConverter.sol\":862:918  uint ethAmountToUSD = (currEthPrice * _ethAmount) / 1e18 */\n      swap1\n      pop\n        /* \"fundMe/PriceConverter.sol\":935:949  ethAmountToUSD */\n      dup1\n        /* \"fundMe/PriceConverter.sol\":928:949  return ethAmountToUSD */\n      swap3\n      pop\n      pop\n      pop\n        /* \"fundMe/PriceConverter.sol\":740:956  function getConversionRate(uint _ethAmount) internal view returns(uint) {... */\n      swap2\n      swap1\n      pop\n      jump\t// out\n        /* \"fundMe/PriceConverter.sol\":240:734  function getPrice()  internal view  returns (uint)  {... */\n    tag_74:\n        /* \"fundMe/PriceConverter.sol\":285:289  uint */\n      0x00\n        /* \"fundMe/PriceConverter.sol\":302:333  AggregatorV3Interface priceFeed */\n      dup1\n        /* \"fundMe/PriceConverter.sol\":358:400  0x8A753747A1Fa494EC906cE90E9f37563A8AF630e */\n      0x8a753747a1fa494ec906ce90e9f37563a8af630e\n        /* \"fundMe/PriceConverter.sol\":302:401  AggregatorV3Interface priceFeed = AggregatorV3Interface(0x8A753747A1Fa494EC906cE90E9f37563A8AF630e) */\n      swap1\n      pop\n        /* \"fundMe/PriceConverter.sol\":456:465  int price */\n      0x00\n        /* \"fundMe/PriceConverter.sol\":582:591  priceFeed */\n      dup2\n        /* \"fundMe/PriceConverter.sol\":582:607  priceFeed.latestRoundData */\n      0xffffffffffffffffffffffffffffffffffffffff\n      and\n      0xfeaf968c\n        /* \"fundMe/PriceConverter.sol\":582:609  priceFeed.latestRoundData() */\n      mload(0x40)\n      dup2\n      0xffffffff\n      and\n      0xe0\n      shl\n      dup2\n      mstore\n      0x04\n      add\n      0xa0\n      mload(0x40)\n      dup1\n      dup4\n      sub\n      dup2\n      dup7\n      gas\n      staticcall\n      iszero\n      dup1\n      iszero\n      tag_81\n      jumpi\n      returndatasize\n      0x00\n      dup1\n      returndatacopy\n      revert(0x00, returndatasize)\n    tag_81:\n      pop\n      pop\n      pop\n      pop\n      mload(0x40)\n      returndatasize\n      not(0x1f)\n      0x1f\n      dup3\n      add\n      and\n      dup3\n      add\n      dup1\n      0x40\n      mstore\n      pop\n      dup2\n      add\n      swap1\n      tag_82\n      swap2\n      swap1\n      tag_83\n      jump\t// in\n    tag_82:\n        /* \"fundMe/PriceConverter.sol\":410:609  (... */\n      pop\n      pop\n      pop\n      swap2\n      pop\n      pop\n        /* \"fundMe/PriceConverter.sol\":721:725  1e10 */\n      0x02540be400\n        /* \"fundMe/PriceConverter.sol\":713:718  price */\n      dup2\n        /* \"fundMe/PriceConverter.sol\":713:725  price * 1e10 */\n      tag_84\n      swap2\n      swap1\n      tag_85\n      jump\t// in\n    tag_84:\n        /* \"fundMe/PriceConverter.sol\":698:726  return uint256(price * 1e10) */\n      swap3\n      pop\n      pop\n      pop\n        /* \"fundMe/PriceConverter.sol\":240:734  function getPrice()  internal view  returns (uint)  {... */\n      swap1\n      jump\t// out\n    tag_54:\n      dup3\n      dup1\n      sload\n      dup3\n      dup3\n      sstore\n      swap1\n      0x00\n      mstore\n      keccak256(0x00, 0x20)\n      swap1\n      dup2\n      add\n      swap3\n      dup3\n      iszero\n      tag_86\n      jumpi\n      swap2\n      0x20\n      mul\n      dup3\n      add\n    tag_87:\n      dup3\n      dup2\n      gt\n      iszero\n      tag_88\n      jumpi\n      dup3\n      mload\n      dup3\n      exp(0x0100, 0x00)\n      dup2\n      sload\n      dup2\n      0xffffffffffffffffffffffffffffffffffffffff\n      mul\n      not\n      and\n      swap1\n      dup4\n      0xffffffffffffffffffffffffffffffffffffffff\n      and\n      mul\n      or\n      swap1\n      sstore\n      pop\n      swap2\n      0x20\n      add\n      swap2\n      swap1\n      0x01\n      add\n      swap1\n      jump(tag_87)\n    tag_88:\n    tag_86:\n      pop\n      swap1\n      pop\n      tag_89\n      swap2\n      swap1\n      tag_90\n      jump\t// in\n    tag_89:\n      pop\n      swap1\n      jump\t// out\n    tag_90:\n    tag_91:\n      dup1\n      dup3\n      gt\n      iszero\n      tag_92\n      jumpi\n      0x00\n      dup2\n      0x00\n      swap1\n      sstore\n      pop\n      0x01\n      add\n      jump(tag_91)\n    tag_92:\n      pop\n      swap1\n      jump\t// out\n        /* \"#utility.yul\":7:84   */\n    tag_93:\n        /* \"#utility.yul\":44:51   */\n      0x00\n        /* \"#utility.yul\":73:78   */\n      dup2\n        /* \"#utility.yul\":62:78   */\n      swap1\n      pop\n        /* \"#utility.yul\":7:84   */\n      swap2\n      swap1\n      pop\n      jump\t// out\n        /* \"#utility.yul\":90:208   */\n    tag_94:\n        /* \"#utility.yul\":177:201   */\n      tag_127\n        /* \"#utility.yul\":195:200   */\n      dup2\n        /* \"#utility.yul\":177:201   */\n      tag_93\n      jump\t// in\n    tag_127:\n        /* \"#utility.yul\":172:175   */\n      dup3\n        /* \"#utility.yul\":165:202   */\n      mstore\n        /* \"#utility.yul\":90:208   */\n      pop\n      pop\n      jump\t// out\n        /* \"#utility.yul\":214:436   */\n    tag_12:\n        /* \"#utility.yul\":307:311   */\n      0x00\n        /* \"#utility.yul\":345:347   */\n      0x20\n        /* \"#utility.yul\":334:343   */\n      dup3\n        /* \"#utility.yul\":330:348   */\n      add\n        /* \"#utility.yul\":322:348   */\n      swap1\n      pop\n        /* \"#utility.yul\":358:429   */\n      tag_129\n        /* \"#utility.yul\":426:427   */\n      0x00\n        /* \"#utility.yul\":415:424   */\n      dup4\n        /* \"#utility.yul\":411:428   */\n      add\n        /* \"#utility.yul\":402:408   */\n      dup5\n        /* \"#utility.yul\":358:429   */\n      tag_94\n      jump\t// in\n    tag_129:\n        /* \"#utility.yul\":214:436   */\n      swap3\n      swap2\n      pop\n      pop\n      jump\t// out\n        /* \"#utility.yul\":523:640   */\n    tag_96:\n        /* \"#utility.yul\":632:633   */\n      0x00\n        /* \"#utility.yul\":629:630   */\n      dup1\n        /* \"#utility.yul\":622:634   */\n      revert\n        /* \"#utility.yul\":769:895   */\n    tag_98:\n        /* \"#utility.yul\":806:813   */\n      0x00\n        /* \"#utility.yul\":846:888   */\n      0xffffffffffffffffffffffffffffffffffffffff\n        /* \"#utility.yul\":839:844   */\n      dup3\n        /* \"#utility.yul\":835:889   */\n      and\n        /* \"#utility.yul\":824:889   */\n      swap1\n      pop\n        /* \"#utility.yul\":769:895   */\n      swap2\n      swap1\n      pop\n      jump\t// out\n        /* \"#utility.yul\":901:997   */\n    tag_99:\n        /* \"#utility.yul\":938:945   */\n      0x00\n        /* \"#utility.yul\":967:991   */\n      tag_135\n        /* \"#utility.yul\":985:990   */\n      dup3\n        /* \"#utility.yul\":967:991   */\n      tag_98\n      jump\t// in\n    tag_135:\n        /* \"#utility.yul\":956:991   */\n      swap1\n      pop\n        /* \"#utility.yul\":901:997   */\n      swap2\n      swap1\n      pop\n      jump\t// out\n        /* \"#utility.yul\":1003:1125   */\n    tag_100:\n        /* \"#utility.yul\":1076:1100   */\n      tag_137\n        /* \"#utility.yul\":1094:1099   */\n      dup2\n        /* \"#utility.yul\":1076:1100   */\n      tag_99\n      jump\t// in\n    tag_137:\n        /* \"#utility.yul\":1069:1074   */\n      dup2\n        /* \"#utility.yul\":1066:1101   */\n      eq\n        /* \"#utility.yul\":1056:1119   */\n      tag_138\n      jumpi\n        /* \"#utility.yul\":1115:1116   */\n      0x00\n        /* \"#utility.yul\":1112:1113   */\n      dup1\n        /* \"#utility.yul\":1105:1117   */\n      revert\n        /* \"#utility.yul\":1056:1119   */\n    tag_138:\n        /* \"#utility.yul\":1003:1125   */\n      pop\n      jump\t// out\n        /* \"#utility.yul\":1131:1270   */\n    tag_101:\n        /* \"#utility.yul\":1177:1182   */\n      0x00\n        /* \"#utility.yul\":1215:1221   */\n      dup2\n        /* \"#utility.yul\":1202:1222   */\n      calldataload\n        /* \"#utility.yul\":1193:1222   */\n      swap1\n      pop\n        /* \"#utility.yul\":1231:1264   */\n      tag_140\n        /* \"#utility.yul\":1258:1263   */\n      dup2\n        /* \"#utility.yul\":1231:1264   */\n      tag_100\n      jump\t// in\n    tag_140:\n        /* \"#utility.yul\":1131:1270   */\n      swap3\n      swap2\n      pop\n      pop\n      jump\t// out\n        /* \"#utility.yul\":1276:1605   */\n    tag_19:\n        /* \"#utility.yul\":1335:1341   */\n      0x00\n        /* \"#utility.yul\":1384:1386   */\n      0x20\n        /* \"#utility.yul\":1372:1381   */\n      dup3\n        /* \"#utility.yul\":1363:1370   */\n      dup5\n        /* \"#utility.yul\":1359:1382   */\n      sub\n        /* \"#utility.yul\":1355:1387   */\n      slt\n        /* \"#utility.yul\":1352:1471   */\n      iszero\n      tag_142\n      jumpi\n        /* \"#utility.yul\":1390:1469   */\n      tag_143\n      tag_96\n      jump\t// in\n    tag_143:\n        /* \"#utility.yul\":1352:1471   */\n    tag_142:\n        /* \"#utility.yul\":1510:1511   */\n      0x00\n        /* \"#utility.yul\":1535:1588   */\n      tag_144\n        /* \"#utility.yul\":1580:1587   */\n      dup5\n        /* \"#utility.yul\":1571:1577   */\n      dup3\n        /* \"#utility.yul\":1560:1569   */\n      dup6\n        /* \"#utility.yul\":1556:1578   */\n      add\n        /* \"#utility.yul\":1535:1588   */\n      tag_101\n      jump\t// in\n    tag_144:\n        /* \"#utility.yul\":1525:1588   */\n      swap2\n      pop\n        /* \"#utility.yul\":1481:1598   */\n      pop\n        /* \"#utility.yul\":1276:1605   */\n      swap3\n      swap2\n      pop\n      pop\n      jump\t// out\n        /* \"#utility.yul\":1611:1729   */\n    tag_102:\n        /* \"#utility.yul\":1698:1722   */\n      tag_146\n        /* \"#utility.yul\":1716:1721   */\n      dup2\n        /* \"#utility.yul\":1698:1722   */\n      tag_99\n      jump\t// in\n    tag_146:\n        /* \"#utility.yul\":1693:1696   */\n      dup3\n        /* \"#utility.yul\":1686:1723   */\n      mstore\n        /* \"#utility.yul\":1611:1729   */\n      pop\n      pop\n      jump\t// out\n        /* \"#utility.yul\":1735:1957   */\n    tag_28:\n        /* \"#utility.yul\":1828:1832   */\n      0x00\n        /* \"#utility.yul\":1866:1868   */\n      0x20\n        /* \"#utility.yul\":1855:1864   */\n      dup3\n        /* \"#utility.yul\":1851:1869   */\n      add\n        /* \"#utility.yul\":1843:1869   */\n      swap1\n      pop\n        /* \"#utility.yul\":1879:1950   */\n      tag_148\n        /* \"#utility.yul\":1947:1948   */\n      0x00\n        /* \"#utility.yul\":1936:1945   */\n      dup4\n        /* \"#utility.yul\":1932:1949   */\n      add\n        /* \"#utility.yul\":1923:1929   */\n      dup5\n        /* \"#utility.yul\":1879:1950   */\n      tag_102\n      jump\t// in\n    tag_148:\n        /* \"#utility.yul\":1735:1957   */\n      swap3\n      swap2\n      pop\n      pop\n      jump\t// out\n        /* \"#utility.yul\":1963:2085   */\n    tag_103:\n        /* \"#utility.yul\":2036:2060   */\n      tag_150\n        /* \"#utility.yul\":2054:2059   */\n      dup2\n        /* \"#utility.yul\":2036:2060   */\n      tag_93\n      jump\t// in\n    tag_150:\n        /* \"#utility.yul\":2029:2034   */\n      dup2\n        /* \"#utility.yul\":2026:2061   */\n      eq\n        /* \"#utility.yul\":2016:2079   */\n      tag_151\n      jumpi\n        /* \"#utility.yul\":2075:2076   */\n      0x00\n        /* \"#utility.yul\":2072:2073   */\n      dup1\n        /* \"#utility.yul\":2065:2077   */\n      revert\n        /* \"#utility.yul\":2016:2079   */\n    tag_151:\n        /* \"#utility.yul\":1963:2085   */\n      pop\n      jump\t// out\n        /* \"#utility.yul\":2091:2230   */\n    tag_104:\n        /* \"#utility.yul\":2137:2142   */\n      0x00\n        /* \"#utility.yul\":2175:2181   */\n      dup2\n        /* \"#utility.yul\":2162:2182   */\n      calldataload\n        /* \"#utility.yul\":2153:2182   */\n      swap1\n      pop\n        /* \"#utility.yul\":2191:2224   */\n      tag_153\n        /* \"#utility.yul\":2218:2223   */\n      dup2\n        /* \"#utility.yul\":2191:2224   */\n      tag_103\n      jump\t// in\n    tag_153:\n        /* \"#utility.yul\":2091:2230   */\n      swap3\n      swap2\n      pop\n      pop\n      jump\t// out\n        /* \"#utility.yul\":2236:2565   */\n    tag_32:\n        /* \"#utility.yul\":2295:2301   */\n      0x00\n        /* \"#utility.yul\":2344:2346   */\n      0x20\n        /* \"#utility.yul\":2332:2341   */\n      dup3\n        /* \"#utility.yul\":2323:2330   */\n      dup5\n        /* \"#utility.yul\":2319:2342   */\n      sub\n        /* \"#utility.yul\":2315:2347   */\n      slt\n        /* \"#utility.yul\":2312:2431   */\n      iszero\n      tag_155\n      jumpi\n        /* \"#utility.yul\":2350:2429   */\n      tag_156\n      tag_96\n      jump\t// in\n    tag_156:\n        /* \"#utility.yul\":2312:2431   */\n    tag_155:\n        /* \"#utility.yul\":2470:2471   */\n      0x00\n        /* \"#utility.yul\":2495:2548   */\n      tag_157\n        /* \"#utility.yul\":2540:2547   */\n      dup5\n        /* \"#utility.yul\":2531:2537   */\n      dup3\n        /* \"#utility.yul\":2520:2529   */\n      dup6\n        /* \"#utility.yul\":2516:2538   */\n      add\n        /* \"#utility.yul\":2495:2548   */\n      tag_104\n      jump\t// in\n    tag_157:\n        /* \"#utility.yul\":2485:2548   */\n      swap2\n      pop\n        /* \"#utility.yul\":2441:2558   */\n      pop\n        /* \"#utility.yul\":2236:2565   */\n      swap3\n      swap2\n      pop\n      pop\n      jump\t// out\n        /* \"#utility.yul\":2571:2740   */\n    tag_105:\n        /* \"#utility.yul\":2655:2666   */\n      0x00\n        /* \"#utility.yul\":2689:2695   */\n      dup3\n        /* \"#utility.yul\":2684:2687   */\n      dup3\n        /* \"#utility.yul\":2677:2696   */\n      mstore\n        /* \"#utility.yul\":2729:2733   */\n      0x20\n        /* \"#utility.yul\":2724:2727   */\n      dup3\n        /* \"#utility.yul\":2720:2734   */\n      add\n        /* \"#utility.yul\":2705:2734   */\n      swap1\n      pop\n        /* \"#utility.yul\":2571:2740   */\n      swap3\n      swap2\n      pop\n      pop\n      jump\t// out\n        /* \"#utility.yul\":2746:2920   */\n    tag_106:\n        /* \"#utility.yul\":2886:2912   */\n      0x4e6f7420695f6f776e65722074686520636f6e74726163740000000000000000\n        /* \"#utility.yul\":2882:2883   */\n      0x00\n        /* \"#utility.yul\":2874:2880   */\n      dup3\n        /* \"#utility.yul\":2870:2884   */\n      add\n        /* \"#utility.yul\":2863:2913   */\n      mstore\n        /* \"#utility.yul\":2746:2920   */\n      pop\n      jump\t// out\n        /* \"#utility.yul\":2926:3292   */\n    tag_107:\n        /* \"#utility.yul\":3068:3071   */\n      0x00\n        /* \"#utility.yul\":3089:3156   */\n      tag_161\n        /* \"#utility.yul\":3153:3155   */\n      0x18\n        /* \"#utility.yul\":3148:3151   */\n      dup4\n        /* \"#utility.yul\":3089:3156   */\n      tag_105\n      jump\t// in\n    tag_161:\n        /* \"#utility.yul\":3082:3156   */\n      swap2\n      pop\n        /* \"#utility.yul\":3165:3258   */\n      tag_162\n        /* \"#utility.yul\":3254:3257   */\n      dup3\n        /* \"#utility.yul\":3165:3258   */\n      tag_106\n      jump\t// in\n    tag_162:\n        /* \"#utility.yul\":3283:3285   */\n      0x20\n        /* \"#utility.yul\":3278:3281   */\n      dup3\n        /* \"#utility.yul\":3274:3286   */\n      add\n        /* \"#utility.yul\":3267:3286   */\n      swap1\n      pop\n        /* \"#utility.yul\":2926:3292   */\n      swap2\n      swap1\n      pop\n      jump\t// out\n        /* \"#utility.yul\":3298:3717   */\n    tag_38:\n        /* \"#utility.yul\":3464:3468   */\n      0x00\n        /* \"#utility.yul\":3502:3504   */\n      0x20\n        /* \"#utility.yul\":3491:3500   */\n      dup3\n        /* \"#utility.yul\":3487:3505   */\n      add\n        /* \"#utility.yul\":3479:3505   */\n      swap1\n      pop\n        /* \"#utility.yul\":3551:3560   */\n      dup2\n        /* \"#utility.yul\":3545:3549   */\n      dup2\n        /* \"#utility.yul\":3541:3561   */\n      sub\n        /* \"#utility.yul\":3537:3538   */\n      0x00\n        /* \"#utility.yul\":3526:3535   */\n      dup4\n        /* \"#utility.yul\":3522:3539   */\n      add\n        /* \"#utility.yul\":3515:3562   */\n      mstore\n        /* \"#utility.yul\":3579:3710   */\n      tag_164\n        /* \"#utility.yul\":3705:3709   */\n      dup2\n        /* \"#utility.yul\":3579:3710   */\n      tag_107\n      jump\t// in\n    tag_164:\n        /* \"#utility.yul\":3571:3710   */\n      swap1\n      pop\n        /* \"#utility.yul\":3298:3717   */\n      swap2\n      swap1\n      pop\n      jump\t// out\n        /* \"#utility.yul\":3723:3903   */\n    tag_45:\n        /* \"#utility.yul\":3771:3848   */\n      0x4e487b7100000000000000000000000000000000000000000000000000000000\n        /* \"#utility.yul\":3768:3769   */\n      0x00\n        /* \"#utility.yul\":3761:3849   */\n      mstore\n        /* \"#utility.yul\":3868:3872   */\n      0x32\n        /* \"#utility.yul\":3865:3866   */\n      0x04\n        /* \"#utility.yul\":3858:3873   */\n      mstore\n        /* \"#utility.yul\":3892:3896   */\n      0x24\n        /* \"#utility.yul\":3889:3890   */\n      0x00\n        /* \"#utility.yul\":3882:3897   */\n      revert\n        /* \"#utility.yul\":3909:4089   */\n    tag_108:\n        /* \"#utility.yul\":3957:4034   */\n      0x4e487b7100000000000000000000000000000000000000000000000000000000\n        /* \"#utility.yul\":3954:3955   */\n      0x00\n        /* \"#utility.yul\":3947:4035   */\n      mstore\n        /* \"#utility.yul\":4054:4058   */\n      0x11\n        /* \"#utility.yul\":4051:4052   */\n      0x04\n        /* \"#utility.yul\":4044:4059   */\n      mstore\n        /* \"#utility.yul\":4078:4082   */\n      0x24\n        /* \"#utility.yul\":4075:4076   */\n      0x00\n        /* \"#utility.yul\":4068:4083   */\n      revert\n        /* \"#utility.yul\":4095:4328   */\n    tag_48:\n        /* \"#utility.yul\":4134:4137   */\n      0x00\n        /* \"#utility.yul\":4157:4181   */\n      tag_168\n        /* \"#utility.yul\":4175:4180   */\n      dup3\n        /* \"#utility.yul\":4157:4181   */\n      tag_93\n      jump\t// in\n    tag_168:\n        /* \"#utility.yul\":4148:4181   */\n      swap2\n      pop\n        /* \"#utility.yul\":4203:4269   */\n      0xffffffffffffffffffffffffffffffffffffffffffffffffffffffffffffffff\n        /* \"#utility.yul\":4196:4201   */\n      dup3\n        /* \"#utility.yul\":4193:4270   */\n      sub\n        /* \"#utility.yul\":4190:4293   */\n      tag_169\n      jumpi\n        /* \"#utility.yul\":4273:4291   */\n      tag_170\n      tag_108\n      jump\t// in\n    tag_170:\n        /* \"#utility.yul\":4190:4293   */\n    tag_169:\n        /* \"#utility.yul\":4320:4321   */\n      0x01\n        /* \"#utility.yul\":4313:4318   */\n      dup3\n        /* \"#utility.yul\":4309:4322   */\n      add\n        /* \"#utility.yul\":4302:4322   */\n      swap1\n      pop\n        /* \"#utility.yul\":4095:4328   */\n      swap2\n      swap1\n      pop\n      jump\t// out\n        /* \"#utility.yul\":4334:4514   */\n    tag_51:\n        /* \"#utility.yul\":4382:4459   */\n      0x4e487b7100000000000000000000000000000000000000000000000000000000\n        /* \"#utility.yul\":4379:4380   */\n      0x00\n        /* \"#utility.yul\":4372:4460   */\n      mstore\n        /* \"#utility.yul\":4479:4483   */\n      0x41\n        /* \"#utility.yul\":4476:4477   */\n      0x04\n        /* \"#utility.yul\":4469:4484   */\n      mstore\n        /* \"#utility.yul\":4503:4507   */\n      0x24\n        /* \"#utility.yul\":4500:4501   */\n      0x00\n        /* \"#utility.yul\":4493:4508   */\n      revert\n        /* \"#utility.yul\":4520:4667   */\n    tag_109:\n        /* \"#utility.yul\":4621:4632   */\n      0x00\n        /* \"#utility.yul\":4658:4661   */\n      dup2\n        /* \"#utility.yul\":4643:4661   */\n      swap1\n      pop\n        /* \"#utility.yul\":4520:4667   */\n      swap3\n      swap2\n      pop\n      pop\n      jump\t// out\n        /* \"#utility.yul\":4673:4787   */\n    tag_110:\n      pop\n      jump\t// out\n        /* \"#utility.yul\":4793:5191   */\n    tag_111:\n        /* \"#utility.yul\":4952:4955   */\n      0x00\n        /* \"#utility.yul\":4973:5056   */\n      tag_175\n        /* \"#utility.yul\":5054:5055   */\n      0x00\n        /* \"#utility.yul\":5049:5052   */\n      dup4\n        /* \"#utility.yul\":4973:5056   */\n      tag_109\n      jump\t// in\n    tag_175:\n        /* \"#utility.yul\":4966:5056   */\n      swap2\n      pop\n        /* \"#utility.yul\":5065:5158   */\n      tag_176\n        /* \"#utility.yul\":5154:5157   */\n      dup3\n        /* \"#utility.yul\":5065:5158   */\n      tag_110\n      jump\t// in\n    tag_176:\n        /* \"#utility.yul\":5183:5184   */\n      0x00\n        /* \"#utility.yul\":5178:5181   */\n      dup3\n        /* \"#utility.yul\":5174:5185   */\n      add\n        /* \"#utility.yul\":5167:5185   */\n      swap1\n      pop\n        /* \"#utility.yul\":4793:5191   */\n      swap2\n      swap1\n      pop\n      jump\t// out\n        /* \"#utility.yul\":5197:5576   */\n    tag_56:\n        /* \"#utility.yul\":5381:5384   */\n      0x00\n        /* \"#utility.yul\":5403:5550   */\n      tag_178\n        /* \"#utility.yul\":5546:5549   */\n      dup3\n        /* \"#utility.yul\":5403:5550   */\n      tag_111\n      jump\t// in\n    tag_178:\n        /* \"#utility.yul\":5396:5550   */\n      swap2\n      pop\n        /* \"#utility.yul\":5567:5570   */\n      dup2\n        /* \"#utility.yul\":5560:5570   */\n      swap1\n      pop\n        /* \"#utility.yul\":5197:5576   */\n      swap2\n      swap1\n      pop\n      jump\t// out\n        /* \"#utility.yul\":5582:5744   */\n    tag_112:\n        /* \"#utility.yul\":5722:5736   */\n      0x43616c6c2066616c696564200000000000000000000000000000000000000000\n        /* \"#utility.yul\":5718:5719   */\n      0x00\n        /* \"#utility.yul\":5710:5716   */\n      dup3\n        /* \"#utility.yul\":5706:5720   */\n      add\n        /* \"#utility.yul\":5699:5737   */\n      mstore\n        /* \"#utility.yul\":5582:5744   */\n      pop\n      jump\t// out\n        /* \"#utility.yul\":5750:6116   */\n    tag_113:\n        /* \"#utility.yul\":5892:5895   */\n      0x00\n        /* \"#utility.yul\":5913:5980   */\n      tag_181\n        /* \"#utility.yul\":5977:5979   */\n      0x0c\n        /* \"#utility.yul\":5972:5975   */\n      dup4\n        /* \"#utility.yul\":5913:5980   */\n      tag_105\n      jump\t// in\n    tag_181:\n        /* \"#utility.yul\":5906:5980   */\n      swap2\n      pop\n        /* \"#utility.yul\":5989:6082   */\n      tag_182\n        /* \"#utility.yul\":6078:6081   */\n      dup3\n        /* \"#utility.yul\":5989:6082   */\n      tag_112\n      jump\t// in\n    tag_182:\n        /* \"#utility.yul\":6107:6109   */\n      0x20\n        /* \"#utility.yul\":6102:6105   */\n      dup3\n        /* \"#utility.yul\":6098:6110   */\n      add\n        /* \"#utility.yul\":6091:6110   */\n      swap1\n      pop\n        /* \"#utility.yul\":5750:6116   */\n      swap2\n      swap1\n      pop\n      jump\t// out\n        /* \"#utility.yul\":6122:6541   */\n    tag_62:\n        /* \"#utility.yul\":6288:6292   */\n      0x00\n        /* \"#utility.yul\":6326:6328   */\n      0x20\n        /* \"#utility.yul\":6315:6324   */\n      dup3\n        /* \"#utility.yul\":6311:6329   */\n      add\n        /* \"#utility.yul\":6303:6329   */\n      swap1\n      pop\n        /* \"#utility.yul\":6375:6384   */\n      dup2\n        /* \"#utility.yul\":6369:6373   */\n      dup2\n        /* \"#utility.yul\":6365:6385   */\n      sub\n        /* \"#utility.yul\":6361:6362   */\n      0x00\n        /* \"#utility.yul\":6350:6359   */\n      dup4\n        /* \"#utility.yul\":6346:6363   */\n      add\n        /* \"#utility.yul\":6339:6386   */\n      mstore\n        /* \"#utility.yul\":6403:6534   */\n      tag_184\n        /* \"#utility.yul\":6529:6533   */\n      dup2\n        /* \"#utility.yul\":6403:6534   */\n      tag_113\n      jump\t// in\n    tag_184:\n        /* \"#utility.yul\":6395:6534   */\n      swap1\n      pop\n        /* \"#utility.yul\":6122:6541   */\n      swap2\n      swap1\n      pop\n      jump\t// out\n        /* \"#utility.yul\":6547:6722   */\n    tag_114:\n        /* \"#utility.yul\":6687:6714   */\n      0x5072696365206973206c6f7765722c2073656e64206d6f726500000000000000\n        /* \"#utility.yul\":6683:6684   */\n      0x00\n        /* \"#utility.yul\":6675:6681   */\n      dup3\n        /* \"#utility.yul\":6671:6685   */\n      add\n        /* \"#utility.yul\":6664:6715   */\n      mstore\n        /* \"#utility.yul\":6547:6722   */\n      pop\n      jump\t// out\n        /* \"#utility.yul\":6728:7094   */\n    tag_115:\n        /* \"#utility.yul\":6870:6873   */\n      0x00\n        /* \"#utility.yul\":6891:6958   */\n      tag_187\n        /* \"#utility.yul\":6955:6957   */\n      0x19\n        /* \"#utility.yul\":6950:6953   */\n      dup4\n        /* \"#utility.yul\":6891:6958   */\n      tag_105\n      jump\t// in\n    tag_187:\n        /* \"#utility.yul\":6884:6958   */\n      swap2\n      pop\n        /* \"#utility.yul\":6967:7060   */\n      tag_188\n        /* \"#utility.yul\":7056:7059   */\n      dup3\n        /* \"#utility.yul\":6967:7060   */\n      tag_114\n      jump\t// in\n    tag_188:\n        /* \"#utility.yul\":7085:7087   */\n      0x20\n        /* \"#utility.yul\":7080:7083   */\n      dup3\n        /* \"#utility.yul\":7076:7088   */\n      add\n        /* \"#utility.yul\":7069:7088   */\n      swap1\n      pop\n        /* \"#utility.yul\":6728:7094   */\n      swap2\n      swap1\n      pop\n      jump\t// out\n        /* \"#utility.yul\":7100:7519   */\n    tag_68:\n        /* \"#utility.yul\":7266:7270   */\n      0x00\n        /* \"#utility.yul\":7304:7306   */\n      0x20\n        /* \"#utility.yul\":7293:7302   */\n      dup3\n        /* \"#utility.yul\":7289:7307   */\n      add\n        /* \"#utility.yul\":7281:7307   */\n      swap1\n      pop\n        /* \"#utility.yul\":7353:7362   */\n      dup2\n        /* \"#utility.yul\":7347:7351   */\n      dup2\n        /* \"#utility.yul\":7343:7363   */\n      sub\n        /* \"#utility.yul\":7339:7340   */\n      0x00\n        /* \"#utility.yul\":7328:7337   */\n      dup4\n        /* \"#utility.yul\":7324:7341   */\n      add\n        /* \"#utility.yul\":7317:7364   */\n      mstore\n        /* \"#utility.yul\":7381:7512   */\n      tag_190\n        /* \"#utility.yul\":7507:7511   */\n      dup2\n        /* \"#utility.yul\":7381:7512   */\n      tag_115\n      jump\t// in\n    tag_190:\n        /* \"#utility.yul\":7373:7512   */\n      swap1\n      pop\n        /* \"#utility.yul\":7100:7519   */\n      swap2\n      swap1\n      pop\n      jump\t// out\n        /* \"#utility.yul\":7525:7873   */\n    tag_76:\n        /* \"#utility.yul\":7565:7572   */\n      0x00\n        /* \"#utility.yul\":7588:7608   */\n      tag_192\n        /* \"#utility.yul\":7606:7607   */\n      dup3\n        /* \"#utility.yul\":7588:7608   */\n      tag_93\n      jump\t// in\n    tag_192:\n        /* \"#utility.yul\":7583:7608   */\n      swap2\n      pop\n        /* \"#utility.yul\":7622:7642   */\n      tag_193\n        /* \"#utility.yul\":7640:7641   */\n      dup4\n        /* \"#utility.yul\":7622:7642   */\n      tag_93\n      jump\t// in\n    tag_193:\n        /* \"#utility.yul\":7617:7642   */\n      swap3\n      pop\n        /* \"#utility.yul\":7810:7811   */\n      dup2\n        /* \"#utility.yul\":7742:7808   */\n      0xffffffffffffffffffffffffffffffffffffffffffffffffffffffffffffffff\n        /* \"#utility.yul\":7738:7812   */\n      div\n        /* \"#utility.yul\":7735:7736   */\n      dup4\n        /* \"#utility.yul\":7732:7813   */\n      gt\n        /* \"#utility.yul\":7727:7728   */\n      dup3\n        /* \"#utility.yul\":7720:7729   */\n      iszero\n        /* \"#utility.yul\":7713:7730   */\n      iszero\n        /* \"#utility.yul\":7709:7814   */\n      and\n        /* \"#utility.yul\":7706:7837   */\n      iszero\n      tag_194\n      jumpi\n        /* \"#utility.yul\":7817:7835   */\n      tag_195\n      tag_108\n      jump\t// in\n    tag_195:\n        /* \"#utility.yul\":7706:7837   */\n    tag_194:\n        /* \"#utility.yul\":7865:7866   */\n      dup3\n        /* \"#utility.yul\":7862:7863   */\n      dup3\n        /* \"#utility.yul\":7858:7867   */\n      mul\n        /* \"#utility.yul\":7847:7867   */\n      swap1\n      pop\n        /* \"#utility.yul\":7525:7873   */\n      swap3\n      swap2\n      pop\n      pop\n      jump\t// out\n        /* \"#utility.yul\":7879:8059   */\n    tag_116:\n        /* \"#utility.yul\":7927:8004   */\n      0x4e487b7100000000000000000000000000000000000000000000000000000000\n        /* \"#utility.yul\":7924:7925   */\n      0x00\n        /* \"#utility.yul\":7917:8005   */\n      mstore\n        /* \"#utility.yul\":8024:8028   */\n      0x12\n        /* \"#utility.yul\":8021:8022   */\n      0x04\n        /* \"#utility.yul\":8014:8029   */\n      mstore\n        /* \"#utility.yul\":8048:8052   */\n      0x24\n        /* \"#utility.yul\":8045:8046   */\n      0x00\n        /* \"#utility.yul\":8038:8053   */\n      revert\n        /* \"#utility.yul\":8065:8250   */\n    tag_78:\n        /* \"#utility.yul\":8105:8106   */\n      0x00\n        /* \"#utility.yul\":8122:8142   */\n      tag_198\n        /* \"#utility.yul\":8140:8141   */\n      dup3\n        /* \"#utility.yul\":8122:8142   */\n      tag_93\n      jump\t// in\n    tag_198:\n        /* \"#utility.yul\":8117:8142   */\n      swap2\n      pop\n        /* \"#utility.yul\":8156:8176   */\n      tag_199\n        /* \"#utility.yul\":8174:8175   */\n      dup4\n        /* \"#utility.yul\":8156:8176   */\n      tag_93\n      jump\t// in\n    tag_199:\n        /* \"#utility.yul\":8151:8176   */\n      swap3\n      pop\n        /* \"#utility.yul\":8195:8196   */\n      dup3\n        /* \"#utility.yul\":8185:8220   */\n      tag_200\n      jumpi\n        /* \"#utility.yul\":8200:8218   */\n      tag_201\n      tag_116\n      jump\t// in\n    tag_201:\n        /* \"#utility.yul\":8185:8220   */\n    tag_200:\n        /* \"#utility.yul\":8242:8243   */\n      dup3\n        /* \"#utility.yul\":8239:8240   */\n      dup3\n        /* \"#utility.yul\":8235:8244   */\n      div\n        /* \"#utility.yul\":8230:8244   */\n      swap1\n      pop\n        /* \"#utility.yul\":8065:8250   */\n      swap3\n      swap2\n      pop\n      pop\n      jump\t// out\n        /* \"#utility.yul\":8256:8361   */\n    tag_117:\n        /* \"#utility.yul\":8292:8299   */\n      0x00\n        /* \"#utility.yul\":8332:8354   */\n      0xffffffffffffffffffff\n        /* \"#utility.yul\":8325:8330   */\n      dup3\n        /* \"#utility.yul\":8321:8355   */\n      and\n        /* \"#utility.yul\":8310:8355   */\n      swap1\n      pop\n        /* \"#utility.yul\":8256:8361   */\n      swap2\n      swap1\n      pop\n      jump\t// out\n        /* \"#utility.yul\":8367:8487   */\n    tag_118:\n        /* \"#utility.yul\":8439:8462   */\n      tag_204\n        /* \"#utility.yul\":8456:8461   */\n      dup2\n        /* \"#utility.yul\":8439:8462   */\n      tag_117\n      jump\t// in\n    tag_204:\n        /* \"#utility.yul\":8432:8437   */\n      dup2\n        /* \"#utility.yul\":8429:8463   */\n      eq\n        /* \"#utility.yul\":8419:8481   */\n      tag_205\n      jumpi\n        /* \"#utility.yul\":8477:8478   */\n      0x00\n        /* \"#utility.yul\":8474:8475   */\n      dup1\n        /* \"#utility.yul\":8467:8479   */\n      revert\n        /* \"#utility.yul\":8419:8481   */\n    tag_205:\n        /* \"#utility.yul\":8367:8487   */\n      pop\n      jump\t// out\n        /* \"#utility.yul\":8493:8634   */\n    tag_119:\n        /* \"#utility.yul\":8549:8554   */\n      0x00\n        /* \"#utility.yul\":8580:8586   */\n      dup2\n        /* \"#utility.yul\":8574:8587   */\n      mload\n        /* \"#utility.yul\":8565:8587   */\n      swap1\n      pop\n        /* \"#utility.yul\":8596:8628   */\n      tag_207\n        /* \"#utility.yul\":8622:8627   */\n      dup2\n        /* \"#utility.yul\":8596:8628   */\n      tag_118\n      jump\t// in\n    tag_207:\n        /* \"#utility.yul\":8493:8634   */\n      swap3\n      swap2\n      pop\n      pop\n      jump\t// out\n        /* \"#utility.yul\":8640:8716   */\n    tag_120:\n        /* \"#utility.yul\":8676:8683   */\n      0x00\n        /* \"#utility.yul\":8705:8710   */\n      dup2\n        /* \"#utility.yul\":8694:8710   */\n      swap1\n      pop\n        /* \"#utility.yul\":8640:8716   */\n      swap2\n      swap1\n      pop\n      jump\t// out\n        /* \"#utility.yul\":8722:8842   */\n    tag_121:\n        /* \"#utility.yul\":8794:8817   */\n      tag_210\n        /* \"#utility.yul\":8811:8816   */\n      dup2\n        /* \"#utility.yul\":8794:8817   */\n      tag_120\n      jump\t// in\n    tag_210:\n        /* \"#utility.yul\":8787:8792   */\n      dup2\n        /* \"#utility.yul\":8784:8818   */\n      eq\n        /* \"#utility.yul\":8774:8836   */\n      tag_211\n      jumpi\n        /* \"#utility.yul\":8832:8833   */\n      0x00\n        /* \"#utility.yul\":8829:8830   */\n      dup1\n        /* \"#utility.yul\":8822:8834   */\n      revert\n        /* \"#utility.yul\":8774:8836   */\n    tag_211:\n        /* \"#utility.yul\":8722:8842   */\n      pop\n      jump\t// out\n        /* \"#utility.yul\":8848:8989   */\n    tag_122:\n        /* \"#utility.yul\":8904:8909   */\n      0x00\n        /* \"#utility.yul\":8935:8941   */\n      dup2\n        /* \"#utility.yul\":8929:8942   */\n      mload\n        /* \"#utility.yul\":8920:8942   */\n      swap1\n      pop\n        /* \"#utility.yul\":8951:8983   */\n      tag_213\n        /* \"#utility.yul\":8977:8982   */\n      dup2\n        /* \"#utility.yul\":8951:8983   */\n      tag_121\n      jump\t// in\n    tag_213:\n        /* \"#utility.yul\":8848:8989   */\n      swap3\n      swap2\n      pop\n      pop\n      jump\t// out\n        /* \"#utility.yul\":8995:9138   */\n    tag_123:\n        /* \"#utility.yul\":9052:9057   */\n      0x00\n        /* \"#utility.yul\":9083:9089   */\n      dup2\n        /* \"#utility.yul\":9077:9090   */\n      mload\n        /* \"#utility.yul\":9068:9090   */\n      swap1\n      pop\n        /* \"#utility.yul\":9099:9132   */\n      tag_215\n        /* \"#utility.yul\":9126:9131   */\n      dup2\n        /* \"#utility.yul\":9099:9132   */\n      tag_103\n      jump\t// in\n    tag_215:\n        /* \"#utility.yul\":8995:9138   */\n      swap3\n      swap2\n      pop\n      pop\n      jump\t// out\n        /* \"#utility.yul\":9144:10115   */\n    tag_83:\n        /* \"#utility.yul\":9247:9253   */\n      0x00\n        /* \"#utility.yul\":9255:9261   */\n      dup1\n        /* \"#utility.yul\":9263:9269   */\n      0x00\n        /* \"#utility.yul\":9271:9277   */\n      dup1\n        /* \"#utility.yul\":9279:9285   */\n      0x00\n        /* \"#utility.yul\":9328:9331   */\n      0xa0\n        /* \"#utility.yul\":9316:9325   */\n      dup7\n        /* \"#utility.yul\":9307:9314   */\n      dup9\n        /* \"#utility.yul\":9303:9326   */\n      sub\n        /* \"#utility.yul\":9299:9332   */\n      slt\n        /* \"#utility.yul\":9296:9416   */\n      iszero\n      tag_217\n      jumpi\n        /* \"#utility.yul\":9335:9414   */\n      tag_218\n      tag_96\n      jump\t// in\n    tag_218:\n        /* \"#utility.yul\":9296:9416   */\n    tag_217:\n        /* \"#utility.yul\":9455:9456   */\n      0x00\n        /* \"#utility.yul\":9480:9543   */\n      tag_219\n        /* \"#utility.yul\":9535:9542   */\n      dup9\n        /* \"#utility.yul\":9526:9532   */\n      dup3\n        /* \"#utility.yul\":9515:9524   */\n      dup10\n        /* \"#utility.yul\":9511:9533   */\n      add\n        /* \"#utility.yul\":9480:9543   */\n      tag_119\n      jump\t// in\n    tag_219:\n        /* \"#utility.yul\":9470:9543   */\n      swap6\n      pop\n        /* \"#utility.yul\":9426:9553   */\n      pop\n        /* \"#utility.yul\":9592:9594   */\n      0x20\n        /* \"#utility.yul\":9618:9681   */\n      tag_220\n        /* \"#utility.yul\":9673:9680   */\n      dup9\n        /* \"#utility.yul\":9664:9670   */\n      dup3\n        /* \"#utility.yul\":9653:9662   */\n      dup10\n        /* \"#utility.yul\":9649:9671   */\n      add\n        /* \"#utility.yul\":9618:9681   */\n      tag_122\n      jump\t// in\n    tag_220:\n        /* \"#utility.yul\":9608:9681   */\n      swap5\n      pop\n        /* \"#utility.yul\":9563:9691   */\n      pop\n        /* \"#utility.yul\":9730:9732   */\n      0x40\n        /* \"#utility.yul\":9756:9820   */\n      tag_221\n        /* \"#utility.yul\":9812:9819   */\n      dup9\n        /* \"#utility.yul\":9803:9809   */\n      dup3\n        /* \"#utility.yul\":9792:9801   */\n      dup10\n        /* \"#utility.yul\":9788:9810   */\n      add\n        /* \"#utility.yul\":9756:9820   */\n      tag_123\n      jump\t// in\n    tag_221:\n        /* \"#utility.yul\":9746:9820   */\n      swap4\n      pop\n        /* \"#utility.yul\":9701:9830   */\n      pop\n        /* \"#utility.yul\":9869:9871   */\n      0x60\n        /* \"#utility.yul\":9895:9959   */\n      tag_222\n        /* \"#utility.yul\":9951:9958   */\n      dup9\n        /* \"#utility.yul\":9942:9948   */\n      dup3\n        /* \"#utility.yul\":9931:9940   */\n      dup10\n        /* \"#utility.yul\":9927:9949   */\n      add\n        /* \"#utility.yul\":9895:9959   */\n      tag_123\n      jump\t// in\n    tag_222:\n        /* \"#utility.yul\":9885:9959   */\n      swap3\n      pop\n        /* \"#utility.yul\":9840:9969   */\n      pop\n        /* \"#utility.yul\":10008:10011   */\n      0x80\n        /* \"#utility.yul\":10035:10098   */\n      tag_223\n        /* \"#utility.yul\":10090:10097   */\n      dup9\n        /* \"#utility.yul\":10081:10087   */\n      dup3\n        /* \"#utility.yul\":10070:10079   */\n      dup10\n        /* \"#utility.yul\":10066:10088   */\n      add\n        /* \"#utility.yul\":10035:10098   */\n      tag_119\n      jump\t// in\n    tag_223:\n        /* \"#utility.yul\":10025:10098   */\n      swap2\n      pop\n        /* \"#utility.yul\":9979:10108   */\n      pop\n        /* \"#utility.yul\":9144:10115   */\n      swap3\n      swap6\n      pop\n      swap3\n      swap6\n      swap1\n      swap4\n      pop\n      jump\t// out\n        /* \"#utility.yul\":10121:11112   */\n    tag_85:\n        /* \"#utility.yul\":10160:10167   */\n      0x00\n        /* \"#utility.yul\":10183:10202   */\n      tag_225\n        /* \"#utility.yul\":10200:10201   */\n      dup3\n        /* \"#utility.yul\":10183:10202   */\n      tag_120\n      jump\t// in\n    tag_225:\n        /* \"#utility.yul\":10178:10202   */\n      swap2\n      pop\n        /* \"#utility.yul\":10216:10235   */\n      tag_226\n        /* \"#utility.yul\":10233:10234   */\n      dup4\n        /* \"#utility.yul\":10216:10235   */\n      tag_120\n      jump\t// in\n    tag_226:\n        /* \"#utility.yul\":10211:10235   */\n      swap3\n      pop\n        /* \"#utility.yul\":10417:10418   */\n      dup3\n        /* \"#utility.yul\":10349:10415   */\n      0x7fffffffffffffffffffffffffffffffffffffffffffffffffffffffffffffff\n        /* \"#utility.yul\":10345:10419   */\n      div\n        /* \"#utility.yul\":10342:10343   */\n      dup3\n        /* \"#utility.yul\":10339:10420   */\n      gt\n        /* \"#utility.yul\":10334:10335   */\n      0x00\n        /* \"#utility.yul\":10331:10332   */\n      dup5\n        /* \"#utility.yul\":10327:10336   */\n      sgt\n        /* \"#utility.yul\":10323:10324   */\n      0x00\n        /* \"#utility.yul\":10320:10321   */\n      dup5\n        /* \"#utility.yul\":10316:10325   */\n      sgt\n        /* \"#utility.yul\":10312:10337   */\n      and\n        /* \"#utility.yul\":10308:10421   */\n      and\n        /* \"#utility.yul\":10305:10444   */\n      iszero\n      tag_227\n      jumpi\n        /* \"#utility.yul\":10424:10442   */\n      tag_228\n      tag_108\n      jump\t// in\n    tag_228:\n        /* \"#utility.yul\":10305:10444   */\n    tag_227:\n        /* \"#utility.yul\":10628:10629   */\n      dup2\n        /* \"#utility.yul\":10560:10626   */\n      0x8000000000000000000000000000000000000000000000000000000000000000\n        /* \"#utility.yul\":10555:10630   */\n      sdiv\n        /* \"#utility.yul\":10552:10553   */\n      dup4\n        /* \"#utility.yul\":10548:10631   */\n      slt\n        /* \"#utility.yul\":10543:10544   */\n      0x00\n        /* \"#utility.yul\":10540:10541   */\n      dup5\n        /* \"#utility.yul\":10536:10545   */\n      slt\n        /* \"#utility.yul\":10532:10533   */\n      0x00\n        /* \"#utility.yul\":10529:10530   */\n      dup5\n        /* \"#utility.yul\":10525:10534   */\n      sgt\n        /* \"#utility.yul\":10521:10546   */\n      and\n        /* \"#utility.yul\":10517:10632   */\n      and\n        /* \"#utility.yul\":10514:10655   */\n      iszero\n      tag_229\n      jumpi\n        /* \"#utility.yul\":10635:10653   */\n      tag_230\n      tag_108\n      jump\t// in\n    tag_230:\n        /* \"#utility.yul\":10514:10655   */\n    tag_229:\n        /* \"#utility.yul\":10839:10840   */\n      dup3\n        /* \"#utility.yul\":10771:10837   */\n      0x8000000000000000000000000000000000000000000000000000000000000000\n        /* \"#utility.yul\":10766:10841   */\n      sdiv\n        /* \"#utility.yul\":10763:10764   */\n      dup3\n        /* \"#utility.yul\":10759:10842   */\n      slt\n        /* \"#utility.yul\":10754:10755   */\n      0x00\n        /* \"#utility.yul\":10751:10752   */\n      dup5\n        /* \"#utility.yul\":10747:10756   */\n      sgt\n        /* \"#utility.yul\":10743:10744   */\n      0x00\n        /* \"#utility.yul\":10740:10741   */\n      dup5\n        /* \"#utility.yul\":10736:10745   */\n      slt\n        /* \"#utility.yul\":10732:10757   */\n      and\n        /* \"#utility.yul\":10728:10843   */\n      and\n        /* \"#utility.yul\":10725:10866   */\n      iszero\n      tag_231\n      jumpi\n        /* \"#utility.yul\":10846:10864   */\n      tag_232\n      tag_108\n      jump\t// in\n    tag_232:\n        /* \"#utility.yul\":10725:10866   */\n    tag_231:\n        /* \"#utility.yul\":11049:11050   */\n      dup3\n        /* \"#utility.yul\":10981:11047   */\n      0x7fffffffffffffffffffffffffffffffffffffffffffffffffffffffffffffff\n        /* \"#utility.yul\":10976:11051   */\n      sdiv\n        /* \"#utility.yul\":10973:10974   */\n      dup3\n        /* \"#utility.yul\":10969:11052   */\n      slt\n        /* \"#utility.yul\":10964:10965   */\n      0x00\n        /* \"#utility.yul\":10961:10962   */\n      dup5\n        /* \"#utility.yul\":10957:10966   */\n      slt\n        /* \"#utility.yul\":10953:10954   */\n      0x00\n        /* \"#utility.yul\":10950:10951   */\n      dup5\n        /* \"#utility.yul\":10946:10955   */\n      slt\n        /* \"#utility.yul\":10942:10967   */\n      and\n        /* \"#utility.yul\":10938:11053   */\n      and\n        /* \"#utility.yul\":10935:11076   */\n      iszero\n      tag_233\n      jumpi\n        /* \"#utility.yul\":11056:11074   */\n      tag_234\n      tag_108\n      jump\t// in\n    tag_234:\n        /* \"#utility.yul\":10935:11076   */\n    tag_233:\n        /* \"#utility.yul\":11104:11105   */\n      dup3\n        /* \"#utility.yul\":11101:11102   */\n      dup3\n        /* \"#utility.yul\":11097:11106   */\n      mul\n        /* \"#utility.yul\":11086:11106   */\n      swap1\n      pop\n        /* \"#utility.yul\":10121:11112   */\n      swap3\n      swap2\n      pop\n      pop\n      jump\t// out\n\n    auxdata: 0xa26469706673582212200c8e32e6c00f2c2911bc3dfdeef2dd7c612e66238a94a03cb4388b01ed1f480364736f6c634300080e0033\n}\n",
				"bytecode": {
					"linkReferences": {},
					"object": "60a060405234801561001057600080fd5b503373ffffffffffffffffffffffffffffffffffffffff1660808173ffffffffffffffffffffffffffffffffffffffff1681525050608051610d696100676000396000818161015a01526104b80152610d696000f3fe6080604052600436106100555760003560e01c8063213dbea21461005a5780633ccfd60b146100855780633e47d6f31461009c578063b60d4288146100d9578063dba6335f146100e3578063dc0d3dff1461010e575b600080fd5b34801561006657600080fd5b5061006f61014b565b60405161007c91906106bc565b60405180910390f35b34801561009157600080fd5b5061009a610158565b005b3480156100a857600080fd5b506100c360048036038101906100be919061073a565b6103a1565b6040516100d091906106bc565b60405180910390f35b6100e16103b9565b005b3480156100ef57600080fd5b506100f86104b6565b6040516101059190610776565b60405180910390f35b34801561011a57600080fd5b50610135600480360381019061013091906107bd565b6104da565b6040516101429190610776565b60405180910390f35b6802b5e3af16b188000081565b7f000000000000000000000000000000000000000000000000000000000000000073ffffffffffffffffffffffffffffffffffffffff163373ffffffffffffffffffffffffffffffffffffffff16146101e6576040517f08c379a00000000000000000000000000000000000000000000000000000000081526004016101dd90610847565b60405180910390fd5b60005b60008054905081101561029157600080828154811061020b5761020a610867565b5b9060005260206000200160009054906101000a900473ffffffffffffffffffffffffffffffffffffffff1690506000600160008373ffffffffffffffffffffffffffffffffffffffff1673ffffffffffffffffffffffffffffffffffffffff16815260200190815260200160002081905550508080610289906108c5565b9150506101e9565b50600067ffffffffffffffff8111156102ad576102ac61090d565b5b6040519080825280602002602001820160405280156102db5781602001602082028036833780820191505090505b50600090805190602001906102f19291906105fc565b5060003073ffffffffffffffffffffffffffffffffffffffff16476040516103189061096d565b60006040518083038185875af1925050503d8060008114610355576040519150601f19603f3d011682016040523d82523d6000602084013e61035a565b606091505b505090508061039e576040517f08c379a0000000000000000000000000000000000000000000000000000000008152600401610395906109ce565b60405180910390fd5b50565b60016020528060005260406000206000915090505481565b6802b5e3af16b18800006103cc34610519565b101561040d576040517f08c379a000000000000000000000000000000000000000000000000000000000815260040161040490610a3a565b60405180910390fd5b6000339080600181540180825580915050600190039060005260206000200160009091909190916101000a81548173ffffffffffffffffffffffffffffffffffffffff021916908373ffffffffffffffffffffffffffffffffffffffff16021790555034600160003373ffffffffffffffffffffffffffffffffffffffff1673ffffffffffffffffffffffffffffffffffffffff16815260200190815260200160002081905550565b7f000000000000000000000000000000000000000000000000000000000000000081565b600081815481106104ea57600080fd5b906000526020600020016000915054906101000a900473ffffffffffffffffffffffffffffffffffffffff1681565b600080610524610553565b90506000670de0b6b3a7640000848361053d9190610a5a565b6105479190610ae3565b90508092505050919050565b600080738a753747a1fa494ec906ce90e9f37563a8af630e905060008173ffffffffffffffffffffffffffffffffffffffff1663feaf968c6040518163ffffffff1660e01b815260040160a060405180830381865afa1580156105ba573d6000803e3d6000fd5b505050506040513d601f19601f820116820180604052508101906105de9190610ba1565b5050509150506402540be400816105f59190610c1c565b9250505090565b828054828255906000526020600020908101928215610675579160200282015b828111156106745782518260006101000a81548173ffffffffffffffffffffffffffffffffffffffff021916908373ffffffffffffffffffffffffffffffffffffffff1602179055509160200191906001019061061c565b5b5090506106829190610686565b5090565b5b8082111561069f576000816000905550600101610687565b5090565b6000819050919050565b6106b6816106a3565b82525050565b60006020820190506106d160008301846106ad565b92915050565b600080fd5b600073ffffffffffffffffffffffffffffffffffffffff82169050919050565b6000610707826106dc565b9050919050565b610717816106fc565b811461072257600080fd5b50565b6000813590506107348161070e565b92915050565b6000602082840312156107505761074f6106d7565b5b600061075e84828501610725565b91505092915050565b610770816106fc565b82525050565b600060208201905061078b6000830184610767565b92915050565b61079a816106a3565b81146107a557600080fd5b50565b6000813590506107b781610791565b92915050565b6000602082840312156107d3576107d26106d7565b5b60006107e1848285016107a8565b91505092915050565b600082825260208201905092915050565b7f4e6f7420695f6f776e65722074686520636f6e74726163740000000000000000600082015250565b60006108316018836107ea565b915061083c826107fb565b602082019050919050565b6000602082019050818103600083015261086081610824565b9050919050565b7f4e487b7100000000000000000000000000000000000000000000000000000000600052603260045260246000fd5b7f4e487b7100000000000000000000000000000000000000000000000000000000600052601160045260246000fd5b60006108d0826106a3565b91507fffffffffffffffffffffffffffffffffffffffffffffffffffffffffffffffff820361090257610901610896565b5b600182019050919050565b7f4e487b7100000000000000000000000000000000000000000000000000000000600052604160045260246000fd5b600081905092915050565b50565b600061095760008361093c565b915061096282610947565b600082019050919050565b60006109788261094a565b9150819050919050565b7f43616c6c2066616c696564200000000000000000000000000000000000000000600082015250565b60006109b8600c836107ea565b91506109c382610982565b602082019050919050565b600060208201905081810360008301526109e7816109ab565b9050919050565b7f5072696365206973206c6f7765722c2073656e64206d6f726500000000000000600082015250565b6000610a246019836107ea565b9150610a2f826109ee565b602082019050919050565b60006020820190508181036000830152610a5381610a17565b9050919050565b6000610a65826106a3565b9150610a70836106a3565b9250817fffffffffffffffffffffffffffffffffffffffffffffffffffffffffffffffff0483118215151615610aa957610aa8610896565b5b828202905092915050565b7f4e487b7100000000000000000000000000000000000000000000000000000000600052601260045260246000fd5b6000610aee826106a3565b9150610af9836106a3565b925082610b0957610b08610ab4565b5b828204905092915050565b600069ffffffffffffffffffff82169050919050565b610b3381610b14565b8114610b3e57600080fd5b50565b600081519050610b5081610b2a565b92915050565b6000819050919050565b610b6981610b56565b8114610b7457600080fd5b50565b600081519050610b8681610b60565b92915050565b600081519050610b9b81610791565b92915050565b600080600080600060a08688031215610bbd57610bbc6106d7565b5b6000610bcb88828901610b41565b9550506020610bdc88828901610b77565b9450506040610bed88828901610b8c565b9350506060610bfe88828901610b8c565b9250506080610c0f88828901610b41565b9150509295509295909350565b6000610c2782610b56565b9150610c3283610b56565b9250827f7fffffffffffffffffffffffffffffffffffffffffffffffffffffffffffffff0482116000841360008413161615610c7157610c70610896565b5b817f80000000000000000000000000000000000000000000000000000000000000000583126000841260008413161615610cae57610cad610896565b5b827f80000000000000000000000000000000000000000000000000000000000000000582126000841360008412161615610ceb57610cea610896565b5b827f7fffffffffffffffffffffffffffffffffffffffffffffffffffffffffffffff0582126000841260008412161615610d2857610d27610896565b5b82820290509291505056fea26469706673582212200c8e32e6c00f2c2911bc3dfdeef2dd7c612e66238a94a03cb4388b01ed1f480364736f6c634300080e0033",
					"opcodes": "PUSH1 0xA0 PUSH1 0x40 MSTORE CALLVALUE DUP1 ISZERO PUSH2 0x10 JUMPI PUSH1 0x0 DUP1 REVERT JUMPDEST POP CALLER PUSH20 0xFFFFFFFFFFFFFFFFFFFFFFFFFFFFFFFFFFFFFFFF AND PUSH1 0x80 DUP2 PUSH20 0xFFFFFFFFFFFFFFFFFFFFFFFFFFFFFFFFFFFFFFFF AND DUP2 MSTORE POP POP PUSH1 0x80 MLOAD PUSH2 0xD69 PUSH2 0x67 PUSH1 0x0 CODECOPY PUSH1 0x0 DUP2 DUP2 PUSH2 0x15A ADD MSTORE PUSH2 0x4B8 ADD MSTORE PUSH2 0xD69 PUSH1 0x0 RETURN INVALID PUSH1 0x80 PUSH1 0x40 MSTORE PUSH1 0x4 CALLDATASIZE LT PUSH2 0x55 JUMPI PUSH1 0x0 CALLDATALOAD PUSH1 0xE0 SHR DUP1 PUSH4 0x213DBEA2 EQ PUSH2 0x5A JUMPI DUP1 PUSH4 0x3CCFD60B EQ PUSH2 0x85 JUMPI DUP1 PUSH4 0x3E47D6F3 EQ PUSH2 0x9C JUMPI DUP1 PUSH4 0xB60D4288 EQ PUSH2 0xD9 JUMPI DUP1 PUSH4 0xDBA6335F EQ PUSH2 0xE3 JUMPI DUP1 PUSH4 0xDC0D3DFF EQ PUSH2 0x10E JUMPI JUMPDEST PUSH1 0x0 DUP1 REVERT JUMPDEST CALLVALUE DUP1 ISZERO PUSH2 0x66 JUMPI PUSH1 0x0 DUP1 REVERT JUMPDEST POP PUSH2 0x6F PUSH2 0x14B JUMP JUMPDEST PUSH1 0x40 MLOAD PUSH2 0x7C SWAP2 SWAP1 PUSH2 0x6BC JUMP JUMPDEST PUSH1 0x40 MLOAD DUP1 SWAP2 SUB SWAP1 RETURN JUMPDEST CALLVALUE DUP1 ISZERO PUSH2 0x91 JUMPI PUSH1 0x0 DUP1 REVERT JUMPDEST POP PUSH2 0x9A PUSH2 0x158 JUMP JUMPDEST STOP JUMPDEST CALLVALUE DUP1 ISZERO PUSH2 0xA8 JUMPI PUSH1 0x0 DUP1 REVERT JUMPDEST POP PUSH2 0xC3 PUSH1 0x4 DUP1 CALLDATASIZE SUB DUP2 ADD SWAP1 PUSH2 0xBE SWAP2 SWAP1 PUSH2 0x73A JUMP JUMPDEST PUSH2 0x3A1 JUMP JUMPDEST PUSH1 0x40 MLOAD PUSH2 0xD0 SWAP2 SWAP1 PUSH2 0x6BC JUMP JUMPDEST PUSH1 0x40 MLOAD DUP1 SWAP2 SUB SWAP1 RETURN JUMPDEST PUSH2 0xE1 PUSH2 0x3B9 JUMP JUMPDEST STOP JUMPDEST CALLVALUE DUP1 ISZERO PUSH2 0xEF JUMPI PUSH1 0x0 DUP1 REVERT JUMPDEST POP PUSH2 0xF8 PUSH2 0x4B6 JUMP JUMPDEST PUSH1 0x40 MLOAD PUSH2 0x105 SWAP2 SWAP1 PUSH2 0x776 JUMP JUMPDEST PUSH1 0x40 MLOAD DUP1 SWAP2 SUB SWAP1 RETURN JUMPDEST CALLVALUE DUP1 ISZERO PUSH2 0x11A JUMPI PUSH1 0x0 DUP1 REVERT JUMPDEST POP PUSH2 0x135 PUSH1 0x4 DUP1 CALLDATASIZE SUB DUP2 ADD SWAP1 PUSH2 0x130 SWAP2 SWAP1 PUSH2 0x7BD JUMP JUMPDEST PUSH2 0x4DA JUMP JUMPDEST PUSH1 0x40 MLOAD PUSH2 0x142 SWAP2 SWAP1 PUSH2 0x776 JUMP JUMPDEST PUSH1 0x40 MLOAD DUP1 SWAP2 SUB SWAP1 RETURN JUMPDEST PUSH9 0x2B5E3AF16B1880000 DUP2 JUMP JUMPDEST PUSH32 0x0 PUSH20 0xFFFFFFFFFFFFFFFFFFFFFFFFFFFFFFFFFFFFFFFF AND CALLER PUSH20 0xFFFFFFFFFFFFFFFFFFFFFFFFFFFFFFFFFFFFFFFF AND EQ PUSH2 0x1E6 JUMPI PUSH1 0x40 MLOAD PUSH32 0x8C379A000000000000000000000000000000000000000000000000000000000 DUP2 MSTORE PUSH1 0x4 ADD PUSH2 0x1DD SWAP1 PUSH2 0x847 JUMP JUMPDEST PUSH1 0x40 MLOAD DUP1 SWAP2 SUB SWAP1 REVERT JUMPDEST PUSH1 0x0 JUMPDEST PUSH1 0x0 DUP1 SLOAD SWAP1 POP DUP2 LT ISZERO PUSH2 0x291 JUMPI PUSH1 0x0 DUP1 DUP3 DUP2 SLOAD DUP2 LT PUSH2 0x20B JUMPI PUSH2 0x20A PUSH2 0x867 JUMP JUMPDEST JUMPDEST SWAP1 PUSH1 0x0 MSTORE PUSH1 0x20 PUSH1 0x0 KECCAK256 ADD PUSH1 0x0 SWAP1 SLOAD SWAP1 PUSH2 0x100 EXP SWAP1 DIV PUSH20 0xFFFFFFFFFFFFFFFFFFFFFFFFFFFFFFFFFFFFFFFF AND SWAP1 POP PUSH1 0x0 PUSH1 0x1 PUSH1 0x0 DUP4 PUSH20 0xFFFFFFFFFFFFFFFFFFFFFFFFFFFFFFFFFFFFFFFF AND PUSH20 0xFFFFFFFFFFFFFFFFFFFFFFFFFFFFFFFFFFFFFFFF AND DUP2 MSTORE PUSH1 0x20 ADD SWAP1 DUP2 MSTORE PUSH1 0x20 ADD PUSH1 0x0 KECCAK256 DUP2 SWAP1 SSTORE POP POP DUP1 DUP1 PUSH2 0x289 SWAP1 PUSH2 0x8C5 JUMP JUMPDEST SWAP2 POP POP PUSH2 0x1E9 JUMP JUMPDEST POP PUSH1 0x0 PUSH8 0xFFFFFFFFFFFFFFFF DUP2 GT ISZERO PUSH2 0x2AD JUMPI PUSH2 0x2AC PUSH2 0x90D JUMP JUMPDEST JUMPDEST PUSH1 0x40 MLOAD SWAP1 DUP1 DUP3 MSTORE DUP1 PUSH1 0x20 MUL PUSH1 0x20 ADD DUP3 ADD PUSH1 0x40 MSTORE DUP1 ISZERO PUSH2 0x2DB JUMPI DUP2 PUSH1 0x20 ADD PUSH1 0x20 DUP3 MUL DUP1 CALLDATASIZE DUP4 CALLDATACOPY DUP1 DUP3 ADD SWAP2 POP POP SWAP1 POP JUMPDEST POP PUSH1 0x0 SWAP1 DUP1 MLOAD SWAP1 PUSH1 0x20 ADD SWAP1 PUSH2 0x2F1 SWAP3 SWAP2 SWAP1 PUSH2 0x5FC JUMP JUMPDEST POP PUSH1 0x0 ADDRESS PUSH20 0xFFFFFFFFFFFFFFFFFFFFFFFFFFFFFFFFFFFFFFFF AND SELFBALANCE PUSH1 0x40 MLOAD PUSH2 0x318 SWAP1 PUSH2 0x96D JUMP JUMPDEST PUSH1 0x0 PUSH1 0x40 MLOAD DUP1 DUP4 SUB DUP2 DUP6 DUP8 GAS CALL SWAP3 POP POP POP RETURNDATASIZE DUP1 PUSH1 0x0 DUP2 EQ PUSH2 0x355 JUMPI PUSH1 0x40 MLOAD SWAP2 POP PUSH1 0x1F NOT PUSH1 0x3F RETURNDATASIZE ADD AND DUP3 ADD PUSH1 0x40 MSTORE RETURNDATASIZE DUP3 MSTORE RETURNDATASIZE PUSH1 0x0 PUSH1 0x20 DUP5 ADD RETURNDATACOPY PUSH2 0x35A JUMP JUMPDEST PUSH1 0x60 SWAP2 POP JUMPDEST POP POP SWAP1 POP DUP1 PUSH2 0x39E JUMPI PUSH1 0x40 MLOAD PUSH32 0x8C379A000000000000000000000000000000000000000000000000000000000 DUP2 MSTORE PUSH1 0x4 ADD PUSH2 0x395 SWAP1 PUSH2 0x9CE JUMP JUMPDEST PUSH1 0x40 MLOAD DUP1 SWAP2 SUB SWAP1 REVERT JUMPDEST POP JUMP JUMPDEST PUSH1 0x1 PUSH1 0x20 MSTORE DUP1 PUSH1 0x0 MSTORE PUSH1 0x40 PUSH1 0x0 KECCAK256 PUSH1 0x0 SWAP2 POP SWAP1 POP SLOAD DUP2 JUMP JUMPDEST PUSH9 0x2B5E3AF16B1880000 PUSH2 0x3CC CALLVALUE PUSH2 0x519 JUMP JUMPDEST LT ISZERO PUSH2 0x40D JUMPI PUSH1 0x40 MLOAD PUSH32 0x8C379A000000000000000000000000000000000000000000000000000000000 DUP2 MSTORE PUSH1 0x4 ADD PUSH2 0x404 SWAP1 PUSH2 0xA3A JUMP JUMPDEST PUSH1 0x40 MLOAD DUP1 SWAP2 SUB SWAP1 REVERT JUMPDEST PUSH1 0x0 CALLER SWAP1 DUP1 PUSH1 0x1 DUP2 SLOAD ADD DUP1 DUP3 SSTORE DUP1 SWAP2 POP POP PUSH1 0x1 SWAP1 SUB SWAP1 PUSH1 0x0 MSTORE PUSH1 0x20 PUSH1 0x0 KECCAK256 ADD PUSH1 0x0 SWAP1 SWAP2 SWAP1 SWAP2 SWAP1 SWAP2 PUSH2 0x100 EXP DUP2 SLOAD DUP2 PUSH20 0xFFFFFFFFFFFFFFFFFFFFFFFFFFFFFFFFFFFFFFFF MUL NOT AND SWAP1 DUP4 PUSH20 0xFFFFFFFFFFFFFFFFFFFFFFFFFFFFFFFFFFFFFFFF AND MUL OR SWAP1 SSTORE POP CALLVALUE PUSH1 0x1 PUSH1 0x0 CALLER PUSH20 0xFFFFFFFFFFFFFFFFFFFFFFFFFFFFFFFFFFFFFFFF AND PUSH20 0xFFFFFFFFFFFFFFFFFFFFFFFFFFFFFFFFFFFFFFFF AND DUP2 MSTORE PUSH1 0x20 ADD SWAP1 DUP2 MSTORE PUSH1 0x20 ADD PUSH1 0x0 KECCAK256 DUP2 SWAP1 SSTORE POP JUMP JUMPDEST PUSH32 0x0 DUP2 JUMP JUMPDEST PUSH1 0x0 DUP2 DUP2 SLOAD DUP2 LT PUSH2 0x4EA JUMPI PUSH1 0x0 DUP1 REVERT JUMPDEST SWAP1 PUSH1 0x0 MSTORE PUSH1 0x20 PUSH1 0x0 KECCAK256 ADD PUSH1 0x0 SWAP2 POP SLOAD SWAP1 PUSH2 0x100 EXP SWAP1 DIV PUSH20 0xFFFFFFFFFFFFFFFFFFFFFFFFFFFFFFFFFFFFFFFF AND DUP2 JUMP JUMPDEST PUSH1 0x0 DUP1 PUSH2 0x524 PUSH2 0x553 JUMP JUMPDEST SWAP1 POP PUSH1 0x0 PUSH8 0xDE0B6B3A7640000 DUP5 DUP4 PUSH2 0x53D SWAP2 SWAP1 PUSH2 0xA5A JUMP JUMPDEST PUSH2 0x547 SWAP2 SWAP1 PUSH2 0xAE3 JUMP JUMPDEST SWAP1 POP DUP1 SWAP3 POP POP POP SWAP2 SWAP1 POP JUMP JUMPDEST PUSH1 0x0 DUP1 PUSH20 0x8A753747A1FA494EC906CE90E9F37563A8AF630E SWAP1 POP PUSH1 0x0 DUP2 PUSH20 0xFFFFFFFFFFFFFFFFFFFFFFFFFFFFFFFFFFFFFFFF AND PUSH4 0xFEAF968C PUSH1 0x40 MLOAD DUP2 PUSH4 0xFFFFFFFF AND PUSH1 0xE0 SHL DUP2 MSTORE PUSH1 0x4 ADD PUSH1 0xA0 PUSH1 0x40 MLOAD DUP1 DUP4 SUB DUP2 DUP7 GAS STATICCALL ISZERO DUP1 ISZERO PUSH2 0x5BA JUMPI RETURNDATASIZE PUSH1 0x0 DUP1 RETURNDATACOPY RETURNDATASIZE PUSH1 0x0 REVERT JUMPDEST POP POP POP POP PUSH1 0x40 MLOAD RETURNDATASIZE PUSH1 0x1F NOT PUSH1 0x1F DUP3 ADD AND DUP3 ADD DUP1 PUSH1 0x40 MSTORE POP DUP2 ADD SWAP1 PUSH2 0x5DE SWAP2 SWAP1 PUSH2 0xBA1 JUMP JUMPDEST POP POP POP SWAP2 POP POP PUSH5 0x2540BE400 DUP2 PUSH2 0x5F5 SWAP2 SWAP1 PUSH2 0xC1C JUMP JUMPDEST SWAP3 POP POP POP SWAP1 JUMP JUMPDEST DUP3 DUP1 SLOAD DUP3 DUP3 SSTORE SWAP1 PUSH1 0x0 MSTORE PUSH1 0x20 PUSH1 0x0 KECCAK256 SWAP1 DUP2 ADD SWAP3 DUP3 ISZERO PUSH2 0x675 JUMPI SWAP2 PUSH1 0x20 MUL DUP3 ADD JUMPDEST DUP3 DUP2 GT ISZERO PUSH2 0x674 JUMPI DUP3 MLOAD DUP3 PUSH1 0x0 PUSH2 0x100 EXP DUP2 SLOAD DUP2 PUSH20 0xFFFFFFFFFFFFFFFFFFFFFFFFFFFFFFFFFFFFFFFF MUL NOT AND SWAP1 DUP4 PUSH20 0xFFFFFFFFFFFFFFFFFFFFFFFFFFFFFFFFFFFFFFFF AND MUL OR SWAP1 SSTORE POP SWAP2 PUSH1 0x20 ADD SWAP2 SWAP1 PUSH1 0x1 ADD SWAP1 PUSH2 0x61C JUMP JUMPDEST JUMPDEST POP SWAP1 POP PUSH2 0x682 SWAP2 SWAP1 PUSH2 0x686 JUMP JUMPDEST POP SWAP1 JUMP JUMPDEST JUMPDEST DUP1 DUP3 GT ISZERO PUSH2 0x69F JUMPI PUSH1 0x0 DUP2 PUSH1 0x0 SWAP1 SSTORE POP PUSH1 0x1 ADD PUSH2 0x687 JUMP JUMPDEST POP SWAP1 JUMP JUMPDEST PUSH1 0x0 DUP2 SWAP1 POP SWAP2 SWAP1 POP JUMP JUMPDEST PUSH2 0x6B6 DUP2 PUSH2 0x6A3 JUMP JUMPDEST DUP3 MSTORE POP POP JUMP JUMPDEST PUSH1 0x0 PUSH1 0x20 DUP3 ADD SWAP1 POP PUSH2 0x6D1 PUSH1 0x0 DUP4 ADD DUP5 PUSH2 0x6AD JUMP JUMPDEST SWAP3 SWAP2 POP POP JUMP JUMPDEST PUSH1 0x0 DUP1 REVERT JUMPDEST PUSH1 0x0 PUSH20 0xFFFFFFFFFFFFFFFFFFFFFFFFFFFFFFFFFFFFFFFF DUP3 AND SWAP1 POP SWAP2 SWAP1 POP JUMP JUMPDEST PUSH1 0x0 PUSH2 0x707 DUP3 PUSH2 0x6DC JUMP JUMPDEST SWAP1 POP SWAP2 SWAP1 POP JUMP JUMPDEST PUSH2 0x717 DUP2 PUSH2 0x6FC JUMP JUMPDEST DUP2 EQ PUSH2 0x722 JUMPI PUSH1 0x0 DUP1 REVERT JUMPDEST POP JUMP JUMPDEST PUSH1 0x0 DUP2 CALLDATALOAD SWAP1 POP PUSH2 0x734 DUP2 PUSH2 0x70E JUMP JUMPDEST SWAP3 SWAP2 POP POP JUMP JUMPDEST PUSH1 0x0 PUSH1 0x20 DUP3 DUP5 SUB SLT ISZERO PUSH2 0x750 JUMPI PUSH2 0x74F PUSH2 0x6D7 JUMP JUMPDEST JUMPDEST PUSH1 0x0 PUSH2 0x75E DUP5 DUP3 DUP6 ADD PUSH2 0x725 JUMP JUMPDEST SWAP2 POP POP SWAP3 SWAP2 POP POP JUMP JUMPDEST PUSH2 0x770 DUP2 PUSH2 0x6FC JUMP JUMPDEST DUP3 MSTORE POP POP JUMP JUMPDEST PUSH1 0x0 PUSH1 0x20 DUP3 ADD SWAP1 POP PUSH2 0x78B PUSH1 0x0 DUP4 ADD DUP5 PUSH2 0x767 JUMP JUMPDEST SWAP3 SWAP2 POP POP JUMP JUMPDEST PUSH2 0x79A DUP2 PUSH2 0x6A3 JUMP JUMPDEST DUP2 EQ PUSH2 0x7A5 JUMPI PUSH1 0x0 DUP1 REVERT JUMPDEST POP JUMP JUMPDEST PUSH1 0x0 DUP2 CALLDATALOAD SWAP1 POP PUSH2 0x7B7 DUP2 PUSH2 0x791 JUMP JUMPDEST SWAP3 SWAP2 POP POP JUMP JUMPDEST PUSH1 0x0 PUSH1 0x20 DUP3 DUP5 SUB SLT ISZERO PUSH2 0x7D3 JUMPI PUSH2 0x7D2 PUSH2 0x6D7 JUMP JUMPDEST JUMPDEST PUSH1 0x0 PUSH2 0x7E1 DUP5 DUP3 DUP6 ADD PUSH2 0x7A8 JUMP JUMPDEST SWAP2 POP POP SWAP3 SWAP2 POP POP JUMP JUMPDEST PUSH1 0x0 DUP3 DUP3 MSTORE PUSH1 0x20 DUP3 ADD SWAP1 POP SWAP3 SWAP2 POP POP JUMP JUMPDEST PUSH32 0x4E6F7420695F6F776E65722074686520636F6E74726163740000000000000000 PUSH1 0x0 DUP3 ADD MSTORE POP JUMP JUMPDEST PUSH1 0x0 PUSH2 0x831 PUSH1 0x18 DUP4 PUSH2 0x7EA JUMP JUMPDEST SWAP2 POP PUSH2 0x83C DUP3 PUSH2 0x7FB JUMP JUMPDEST PUSH1 0x20 DUP3 ADD SWAP1 POP SWAP2 SWAP1 POP JUMP JUMPDEST PUSH1 0x0 PUSH1 0x20 DUP3 ADD SWAP1 POP DUP2 DUP2 SUB PUSH1 0x0 DUP4 ADD MSTORE PUSH2 0x860 DUP2 PUSH2 0x824 JUMP JUMPDEST SWAP1 POP SWAP2 SWAP1 POP JUMP JUMPDEST PUSH32 0x4E487B7100000000000000000000000000000000000000000000000000000000 PUSH1 0x0 MSTORE PUSH1 0x32 PUSH1 0x4 MSTORE PUSH1 0x24 PUSH1 0x0 REVERT JUMPDEST PUSH32 0x4E487B7100000000000000000000000000000000000000000000000000000000 PUSH1 0x0 MSTORE PUSH1 0x11 PUSH1 0x4 MSTORE PUSH1 0x24 PUSH1 0x0 REVERT JUMPDEST PUSH1 0x0 PUSH2 0x8D0 DUP3 PUSH2 0x6A3 JUMP JUMPDEST SWAP2 POP PUSH32 0xFFFFFFFFFFFFFFFFFFFFFFFFFFFFFFFFFFFFFFFFFFFFFFFFFFFFFFFFFFFFFFFF DUP3 SUB PUSH2 0x902 JUMPI PUSH2 0x901 PUSH2 0x896 JUMP JUMPDEST JUMPDEST PUSH1 0x1 DUP3 ADD SWAP1 POP SWAP2 SWAP1 POP JUMP JUMPDEST PUSH32 0x4E487B7100000000000000000000000000000000000000000000000000000000 PUSH1 0x0 MSTORE PUSH1 0x41 PUSH1 0x4 MSTORE PUSH1 0x24 PUSH1 0x0 REVERT JUMPDEST PUSH1 0x0 DUP2 SWAP1 POP SWAP3 SWAP2 POP POP JUMP JUMPDEST POP JUMP JUMPDEST PUSH1 0x0 PUSH2 0x957 PUSH1 0x0 DUP4 PUSH2 0x93C JUMP JUMPDEST SWAP2 POP PUSH2 0x962 DUP3 PUSH2 0x947 JUMP JUMPDEST PUSH1 0x0 DUP3 ADD SWAP1 POP SWAP2 SWAP1 POP JUMP JUMPDEST PUSH1 0x0 PUSH2 0x978 DUP3 PUSH2 0x94A JUMP JUMPDEST SWAP2 POP DUP2 SWAP1 POP SWAP2 SWAP1 POP JUMP JUMPDEST PUSH32 0x43616C6C2066616C696564200000000000000000000000000000000000000000 PUSH1 0x0 DUP3 ADD MSTORE POP JUMP JUMPDEST PUSH1 0x0 PUSH2 0x9B8 PUSH1 0xC DUP4 PUSH2 0x7EA JUMP JUMPDEST SWAP2 POP PUSH2 0x9C3 DUP3 PUSH2 0x982 JUMP JUMPDEST PUSH1 0x20 DUP3 ADD SWAP1 POP SWAP2 SWAP1 POP JUMP JUMPDEST PUSH1 0x0 PUSH1 0x20 DUP3 ADD SWAP1 POP DUP2 DUP2 SUB PUSH1 0x0 DUP4 ADD MSTORE PUSH2 0x9E7 DUP2 PUSH2 0x9AB JUMP JUMPDEST SWAP1 POP SWAP2 SWAP1 POP JUMP JUMPDEST PUSH32 0x5072696365206973206C6F7765722C2073656E64206D6F726500000000000000 PUSH1 0x0 DUP3 ADD MSTORE POP JUMP JUMPDEST PUSH1 0x0 PUSH2 0xA24 PUSH1 0x19 DUP4 PUSH2 0x7EA JUMP JUMPDEST SWAP2 POP PUSH2 0xA2F DUP3 PUSH2 0x9EE JUMP JUMPDEST PUSH1 0x20 DUP3 ADD SWAP1 POP SWAP2 SWAP1 POP JUMP JUMPDEST PUSH1 0x0 PUSH1 0x20 DUP3 ADD SWAP1 POP DUP2 DUP2 SUB PUSH1 0x0 DUP4 ADD MSTORE PUSH2 0xA53 DUP2 PUSH2 0xA17 JUMP JUMPDEST SWAP1 POP SWAP2 SWAP1 POP JUMP JUMPDEST PUSH1 0x0 PUSH2 0xA65 DUP3 PUSH2 0x6A3 JUMP JUMPDEST SWAP2 POP PUSH2 0xA70 DUP4 PUSH2 0x6A3 JUMP JUMPDEST SWAP3 POP DUP2 PUSH32 0xFFFFFFFFFFFFFFFFFFFFFFFFFFFFFFFFFFFFFFFFFFFFFFFFFFFFFFFFFFFFFFFF DIV DUP4 GT DUP3 ISZERO ISZERO AND ISZERO PUSH2 0xAA9 JUMPI PUSH2 0xAA8 PUSH2 0x896 JUMP JUMPDEST JUMPDEST DUP3 DUP3 MUL SWAP1 POP SWAP3 SWAP2 POP POP JUMP JUMPDEST PUSH32 0x4E487B7100000000000000000000000000000000000000000000000000000000 PUSH1 0x0 MSTORE PUSH1 0x12 PUSH1 0x4 MSTORE PUSH1 0x24 PUSH1 0x0 REVERT JUMPDEST PUSH1 0x0 PUSH2 0xAEE DUP3 PUSH2 0x6A3 JUMP JUMPDEST SWAP2 POP PUSH2 0xAF9 DUP4 PUSH2 0x6A3 JUMP JUMPDEST SWAP3 POP DUP3 PUSH2 0xB09 JUMPI PUSH2 0xB08 PUSH2 0xAB4 JUMP JUMPDEST JUMPDEST DUP3 DUP3 DIV SWAP1 POP SWAP3 SWAP2 POP POP JUMP JUMPDEST PUSH1 0x0 PUSH10 0xFFFFFFFFFFFFFFFFFFFF DUP3 AND SWAP1 POP SWAP2 SWAP1 POP JUMP JUMPDEST PUSH2 0xB33 DUP2 PUSH2 0xB14 JUMP JUMPDEST DUP2 EQ PUSH2 0xB3E JUMPI PUSH1 0x0 DUP1 REVERT JUMPDEST POP JUMP JUMPDEST PUSH1 0x0 DUP2 MLOAD SWAP1 POP PUSH2 0xB50 DUP2 PUSH2 0xB2A JUMP JUMPDEST SWAP3 SWAP2 POP POP JUMP JUMPDEST PUSH1 0x0 DUP2 SWAP1 POP SWAP2 SWAP1 POP JUMP JUMPDEST PUSH2 0xB69 DUP2 PUSH2 0xB56 JUMP JUMPDEST DUP2 EQ PUSH2 0xB74 JUMPI PUSH1 0x0 DUP1 REVERT JUMPDEST POP JUMP JUMPDEST PUSH1 0x0 DUP2 MLOAD SWAP1 POP PUSH2 0xB86 DUP2 PUSH2 0xB60 JUMP JUMPDEST SWAP3 SWAP2 POP POP JUMP JUMPDEST PUSH1 0x0 DUP2 MLOAD SWAP1 POP PUSH2 0xB9B DUP2 PUSH2 0x791 JUMP JUMPDEST SWAP3 SWAP2 POP POP JUMP JUMPDEST PUSH1 0x0 DUP1 PUSH1 0x0 DUP1 PUSH1 0x0 PUSH1 0xA0 DUP7 DUP9 SUB SLT ISZERO PUSH2 0xBBD JUMPI PUSH2 0xBBC PUSH2 0x6D7 JUMP JUMPDEST JUMPDEST PUSH1 0x0 PUSH2 0xBCB DUP9 DUP3 DUP10 ADD PUSH2 0xB41 JUMP JUMPDEST SWAP6 POP POP PUSH1 0x20 PUSH2 0xBDC DUP9 DUP3 DUP10 ADD PUSH2 0xB77 JUMP JUMPDEST SWAP5 POP POP PUSH1 0x40 PUSH2 0xBED DUP9 DUP3 DUP10 ADD PUSH2 0xB8C JUMP JUMPDEST SWAP4 POP POP PUSH1 0x60 PUSH2 0xBFE DUP9 DUP3 DUP10 ADD PUSH2 0xB8C JUMP JUMPDEST SWAP3 POP POP PUSH1 0x80 PUSH2 0xC0F DUP9 DUP3 DUP10 ADD PUSH2 0xB41 JUMP JUMPDEST SWAP2 POP POP SWAP3 SWAP6 POP SWAP3 SWAP6 SWAP1 SWAP4 POP JUMP JUMPDEST PUSH1 0x0 PUSH2 0xC27 DUP3 PUSH2 0xB56 JUMP JUMPDEST SWAP2 POP PUSH2 0xC32 DUP4 PUSH2 0xB56 JUMP JUMPDEST SWAP3 POP DUP3 PUSH32 0x7FFFFFFFFFFFFFFFFFFFFFFFFFFFFFFFFFFFFFFFFFFFFFFFFFFFFFFFFFFFFFFF DIV DUP3 GT PUSH1 0x0 DUP5 SGT PUSH1 0x0 DUP5 SGT AND AND ISZERO PUSH2 0xC71 JUMPI PUSH2 0xC70 PUSH2 0x896 JUMP JUMPDEST JUMPDEST DUP2 PUSH32 0x8000000000000000000000000000000000000000000000000000000000000000 SDIV DUP4 SLT PUSH1 0x0 DUP5 SLT PUSH1 0x0 DUP5 SGT AND AND ISZERO PUSH2 0xCAE JUMPI PUSH2 0xCAD PUSH2 0x896 JUMP JUMPDEST JUMPDEST DUP3 PUSH32 0x8000000000000000000000000000000000000000000000000000000000000000 SDIV DUP3 SLT PUSH1 0x0 DUP5 SGT PUSH1 0x0 DUP5 SLT AND AND ISZERO PUSH2 0xCEB JUMPI PUSH2 0xCEA PUSH2 0x896 JUMP JUMPDEST JUMPDEST DUP3 PUSH32 0x7FFFFFFFFFFFFFFFFFFFFFFFFFFFFFFFFFFFFFFFFFFFFFFFFFFFFFFFFFFFFFFF SDIV DUP3 SLT PUSH1 0x0 DUP5 SLT PUSH1 0x0 DUP5 SLT AND AND ISZERO PUSH2 0xD28 JUMPI PUSH2 0xD27 PUSH2 0x896 JUMP JUMPDEST JUMPDEST DUP3 DUP3 MUL SWAP1 POP SWAP3 SWAP2 POP POP JUMP INVALID LOG2 PUSH5 0x6970667358 0x22 SLT KECCAK256 0xC DUP15 ORIGIN 0xE6 0xC0 0xF 0x2C 0x29 GT 0xBC RETURNDATASIZE REVERT 0xEE CALLCODE 0xDD PUSH29 0x612E66238A94A03CB4388B01ED1F480364736F6C634300080E00330000 "
				},
				"gasEstimates": {
					"creation": {
						"codeDepositCost": "686600",
						"executionCost": "infinite",
						"totalCost": "infinite"
					},
					"external": {
						"MIN_USD()": "307",
						"addressToAmountFunded(address)": "2836",
						"fund()": "infinite",
						"funders(uint256)": "5044",
						"i_owner()": "infinite",
						"withdraw()": "infinite"
					}
				},
				"methodIdentifiers": {
					"MIN_USD()": "213dbea2",
					"addressToAmountFunded(address)": "3e47d6f3",
					"fund()": "b60d4288",
					"funders(uint256)": "dc0d3dff",
					"i_owner()": "dba6335f",
					"withdraw()": "3ccfd60b"
				}
			},
			"storageLayout": {
				"storage": [
					{
						"astId": 61,
						"contract": "fundMe/FundMe.sol:FundMe",
						"label": "funders",
						"offset": 0,
						"slot": "0",
						"type": "t_array(t_address)dyn_storage"
					},
					{
						"astId": 65,
						"contract": "fundMe/FundMe.sol:FundMe",
						"label": "addressToAmountFunded",
						"offset": 0,
						"slot": "1",
						"type": "t_mapping(t_address,t_uint256)"
					}
				],
				"types": {
					"t_address": {
						"encoding": "inplace",
						"label": "address",
						"numberOfBytes": "20"
					},
					"t_array(t_address)dyn_storage": {
						"base": "t_address",
						"encoding": "dynamic_array",
						"label": "address[]",
						"numberOfBytes": "32"
					},
					"t_mapping(t_address,t_uint256)": {
						"encoding": "mapping",
						"key": "t_address",
						"label": "mapping(address => uint256)",
						"numberOfBytes": "32",
						"value": "t_uint256"
					},
					"t_uint256": {
						"encoding": "inplace",
						"label": "uint256",
						"numberOfBytes": "32"
					}
				}
			},
			"userdoc": {
				"kind": "user",
				"methods": {},
				"version": 1
			}
		}
	}
}