{
	"fundMe/FundMe.sol": {
		"FundMe": {
			"abi": [
				{
					"inputs": [
						{
							"internalType": "address",
							"name": "",
							"type": "address"
						}
					],
					"name": "addressToAmountFunded",
					"outputs": [
						{
							"internalType": "uint256",
							"name": "",
							"type": "uint256"
						}
					],
					"stateMutability": "view",
					"type": "function"
				},
				{
					"inputs": [],
					"name": "fund",
					"outputs": [],
					"stateMutability": "payable",
					"type": "function"
				},
				{
					"inputs": [
						{
							"internalType": "uint256",
							"name": "",
							"type": "uint256"
						}
					],
					"name": "funders",
					"outputs": [
						{
							"internalType": "address",
							"name": "",
							"type": "address"
						}
					],
					"stateMutability": "view",
					"type": "function"
				},
				{
					"inputs": [],
					"name": "minUsd",
					"outputs": [
						{
							"internalType": "uint256",
							"name": "",
							"type": "uint256"
						}
					],
					"stateMutability": "view",
					"type": "function"
				},
				{
					"inputs": [],
					"name": "withdraw",
					"outputs": [],
					"stateMutability": "nonpayable",
					"type": "function"
				}
			],
			"devdoc": {
				"kind": "dev",
				"methods": {},
				"version": 1
			},
			"evm": {
				"assembly": "    /* \"fundMe/FundMe.sol\":89:746  contract FundMe {... */\n  mstore(0x40, 0x80)\n    /* \"fundMe/FundMe.sol\":178:187  50 * 1e18 */\n  0x02b5e3af16b1880000\n    /* \"fundMe/FundMe.sol\":156:187  uint public  minUsd = 50 * 1e18 */\n  0x00\n  sstore\n    /* \"fundMe/FundMe.sol\":89:746  contract FundMe {... */\n  callvalue\n  dup1\n  iszero\n  tag_1\n  jumpi\n  0x00\n  dup1\n  revert\ntag_1:\n  pop\n  dataSize(sub_0)\n  dup1\n  dataOffset(sub_0)\n  0x00\n  codecopy\n  0x00\n  return\nstop\n\nsub_0: assembly {\n        /* \"fundMe/FundMe.sol\":89:746  contract FundMe {... */\n      mstore(0x40, 0x80)\n      jumpi(tag_1, lt(calldatasize, 0x04))\n      shr(0xe0, calldataload(0x00))\n      dup1\n      0x3ccfd60b\n      eq\n      tag_2\n      jumpi\n      dup1\n      0x3e47d6f3\n      eq\n      tag_3\n      jumpi\n      dup1\n      0x51b80e41\n      eq\n      tag_4\n      jumpi\n      dup1\n      0xb60d4288\n      eq\n      tag_5\n      jumpi\n      dup1\n      0xdc0d3dff\n      eq\n      tag_6\n      jumpi\n    tag_1:\n      0x00\n      dup1\n      revert\n        /* \"fundMe/FundMe.sol\":596:738  function withdraw() public {... */\n    tag_2:\n      callvalue\n      dup1\n      iszero\n      tag_7\n      jumpi\n      0x00\n      dup1\n      revert\n    tag_7:\n      pop\n      tag_8\n      tag_9\n      jump\t// in\n    tag_8:\n      stop\n        /* \"fundMe/FundMe.sol\":224:277  mapping(address => uint) public addressToAmountFunded */\n    tag_3:\n      callvalue\n      dup1\n      iszero\n      tag_10\n      jumpi\n      0x00\n      dup1\n      revert\n    tag_10:\n      pop\n      tag_11\n      0x04\n      dup1\n      calldatasize\n      sub\n      dup2\n      add\n      swap1\n      tag_12\n      swap2\n      swap1\n      tag_13\n      jump\t// in\n    tag_12:\n      tag_14\n      jump\t// in\n    tag_11:\n      mload(0x40)\n      tag_15\n      swap2\n      swap1\n      tag_16\n      jump\t// in\n    tag_15:\n      mload(0x40)\n      dup1\n      swap2\n      sub\n      swap1\n      return\n        /* \"fundMe/FundMe.sol\":156:187  uint public  minUsd = 50 * 1e18 */\n    tag_4:\n      callvalue\n      dup1\n      iszero\n      tag_17\n      jumpi\n      0x00\n      dup1\n      revert\n    tag_17:\n      pop\n      tag_18\n      tag_19\n      jump\t// in\n    tag_18:\n      mload(0x40)\n      tag_20\n      swap2\n      swap1\n      tag_16\n      jump\t// in\n    tag_20:\n      mload(0x40)\n      dup1\n      swap2\n      sub\n      swap1\n      return\n        /* \"fundMe/FundMe.sol\":284:590  function fund() public payable {... */\n    tag_5:\n      tag_21\n      tag_22\n      jump\t// in\n    tag_21:\n      stop\n        /* \"fundMe/FundMe.sol\":194:218  address[] public funders */\n    tag_6:\n      callvalue\n      dup1\n      iszero\n      tag_23\n      jumpi\n      0x00\n      dup1\n      revert\n    tag_23:\n      pop\n      tag_24\n      0x04\n      dup1\n      calldatasize\n      sub\n      dup2\n      add\n      swap1\n      tag_25\n      swap2\n      swap1\n      tag_26\n      jump\t// in\n    tag_25:\n      tag_27\n      jump\t// in\n    tag_24:\n      mload(0x40)\n      tag_28\n      swap2\n      swap1\n      tag_29\n      jump\t// in\n    tag_28:\n      mload(0x40)\n      dup1\n      swap2\n      sub\n      swap1\n      return\n        /* \"fundMe/FundMe.sol\":596:738  function withdraw() public {... */\n    tag_9:\n        /* \"fundMe/FundMe.sol\":665:671  uint i */\n      0x00\n        /* \"fundMe/FundMe.sol\":661:726  for(uint i = 0; i < funders.length; i++){... */\n    tag_31:\n        /* \"fundMe/FundMe.sol\":681:688  funders */\n      0x01\n        /* \"fundMe/FundMe.sol\":681:695  funders.length */\n      dup1\n      sload\n      swap1\n      pop\n        /* \"fundMe/FundMe.sol\":677:678  i */\n      dup2\n        /* \"fundMe/FundMe.sol\":677:695  i < funders.length */\n      lt\n        /* \"fundMe/FundMe.sol\":661:726  for(uint i = 0; i < funders.length; i++){... */\n      iszero\n      tag_32\n      jumpi\n        /* \"fundMe/FundMe.sol\":697:700  i++ */\n      dup1\n      dup1\n      tag_34\n      swap1\n      tag_35\n      jump\t// in\n    tag_34:\n      swap2\n      pop\n      pop\n        /* \"fundMe/FundMe.sol\":661:726  for(uint i = 0; i < funders.length; i++){... */\n      jump(tag_31)\n    tag_32:\n      pop\n        /* \"fundMe/FundMe.sol\":596:738  function withdraw() public {... */\n      jump\t// out\n        /* \"fundMe/FundMe.sol\":224:277  mapping(address => uint) public addressToAmountFunded */\n    tag_14:\n      mstore(0x20, 0x02)\n      dup1\n      0x00\n      mstore\n      keccak256(0x00, 0x40)\n      0x00\n      swap2\n      pop\n      swap1\n      pop\n      sload\n      dup2\n      jump\t// out\n        /* \"fundMe/FundMe.sol\":156:187  uint public  minUsd = 50 * 1e18 */\n    tag_19:\n      sload(0x00)\n      dup2\n      jump\t// out\n        /* \"fundMe/FundMe.sol\":284:590  function fund() public payable {... */\n    tag_22:\n        /* \"fundMe/FundMe.sol\":458:464  minUsd */\n      sload(0x00)\n        /* \"fundMe/FundMe.sol\":425:454  msg.value.getConversionRate() */\n      tag_37\n        /* \"fundMe/FundMe.sol\":425:434  msg.value */\n      callvalue\n        /* \"fundMe/FundMe.sol\":425:452  msg.value.getConversionRate */\n      tag_38\n        /* \"fundMe/FundMe.sol\":425:454  msg.value.getConversionRate() */\n      jump\t// in\n    tag_37:\n        /* \"fundMe/FundMe.sol\":425:464  msg.value.getConversionRate() >= minUsd */\n      lt\n      iszero\n        /* \"fundMe/FundMe.sol\":417:494  require(msg.value.getConversionRate() >= minUsd, \"Price is lower, send more\") */\n      tag_39\n      jumpi\n      mload(0x40)\n      0x08c379a000000000000000000000000000000000000000000000000000000000\n      dup2\n      mstore\n      0x04\n      add\n      tag_40\n      swap1\n      tag_41\n      jump\t// in\n    tag_40:\n      mload(0x40)\n      dup1\n      swap2\n      sub\n      swap1\n      revert\n    tag_39:\n        /* \"fundMe/FundMe.sol\":504:511  funders */\n      0x01\n        /* \"fundMe/FundMe.sol\":517:527  msg.sender */\n      caller\n        /* \"fundMe/FundMe.sol\":504:528  funders.push(msg.sender) */\n      swap1\n      dup1\n      0x01\n      dup2\n      sload\n      add\n      dup1\n      dup3\n      sstore\n      dup1\n      swap2\n      pop\n      pop\n      0x01\n      swap1\n      sub\n      swap1\n      0x00\n      mstore\n      keccak256(0x00, 0x20)\n      add\n      0x00\n      swap1\n      swap2\n      swap1\n      swap2\n      swap1\n      swap2\n      0x0100\n      exp\n      dup2\n      sload\n      dup2\n      0xffffffffffffffffffffffffffffffffffffffff\n      mul\n      not\n      and\n      swap1\n      dup4\n      0xffffffffffffffffffffffffffffffffffffffff\n      and\n      mul\n      or\n      swap1\n      sstore\n      pop\n        /* \"fundMe/FundMe.sol\":574:583  msg.value */\n      callvalue\n        /* \"fundMe/FundMe.sol\":538:559  addressToAmountFunded */\n      0x02\n        /* \"fundMe/FundMe.sol\":538:571  addressToAmountFunded[msg.sender] */\n      0x00\n        /* \"fundMe/FundMe.sol\":560:570  msg.sender */\n      caller\n        /* \"fundMe/FundMe.sol\":538:571  addressToAmountFunded[msg.sender] */\n      0xffffffffffffffffffffffffffffffffffffffff\n      and\n      0xffffffffffffffffffffffffffffffffffffffff\n      and\n      dup2\n      mstore\n      0x20\n      add\n      swap1\n      dup2\n      mstore\n      0x20\n      add\n      0x00\n      keccak256\n        /* \"fundMe/FundMe.sol\":538:583  addressToAmountFunded[msg.sender] = msg.value */\n      dup2\n      swap1\n      sstore\n      pop\n        /* \"fundMe/FundMe.sol\":284:590  function fund() public payable {... */\n      jump\t// out\n        /* \"fundMe/FundMe.sol\":194:218  address[] public funders */\n    tag_27:\n      0x01\n      dup2\n      dup2\n      sload\n      dup2\n      lt\n      tag_43\n      jumpi\n      0x00\n      dup1\n      revert\n    tag_43:\n      swap1\n      0x00\n      mstore\n      keccak256(0x00, 0x20)\n      add\n      0x00\n      swap2\n      pop\n      sload\n      swap1\n      0x0100\n      exp\n      swap1\n      div\n      0xffffffffffffffffffffffffffffffffffffffff\n      and\n      dup2\n      jump\t// out\n        /* \"fundMe/PriceConverter.sol\":740:956  function getConversionRate(uint _ethAmount) internal view returns(uint) {... */\n    tag_38:\n        /* \"fundMe/PriceConverter.sol\":806:810  uint */\n      0x00\n        /* \"fundMe/PriceConverter.sol\":822:839  uint currEthPrice */\n      dup1\n        /* \"fundMe/PriceConverter.sol\":842:852  getPrice() */\n      tag_46\n        /* \"fundMe/PriceConverter.sol\":842:850  getPrice */\n      tag_47\n        /* \"fundMe/PriceConverter.sol\":842:852  getPrice() */\n      jump\t// in\n    tag_46:\n        /* \"fundMe/PriceConverter.sol\":822:852  uint currEthPrice = getPrice() */\n      swap1\n      pop\n        /* \"fundMe/PriceConverter.sol\":862:881  uint ethAmountToUSD */\n      0x00\n        /* \"fundMe/PriceConverter.sol\":914:918  1e18 */\n      0x0de0b6b3a7640000\n        /* \"fundMe/PriceConverter.sol\":900:910  _ethAmount */\n      dup5\n        /* \"fundMe/PriceConverter.sol\":885:897  currEthPrice */\n      dup4\n        /* \"fundMe/PriceConverter.sol\":885:910  currEthPrice * _ethAmount */\n      tag_48\n      swap2\n      swap1\n      tag_49\n      jump\t// in\n    tag_48:\n        /* \"fundMe/PriceConverter.sol\":884:918  (currEthPrice * _ethAmount) / 1e18 */\n      tag_50\n      swap2\n      swap1\n      tag_51\n      jump\t// in\n    tag_50:\n        /* \"fundMe/PriceConverter.sol\":862:918  uint ethAmountToUSD = (currEthPrice * _ethAmount) / 1e18 */\n      swap1\n      pop\n        /* \"fundMe/PriceConverter.sol\":935:949  ethAmountToUSD */\n      dup1\n        /* \"fundMe/PriceConverter.sol\":928:949  return ethAmountToUSD */\n      swap3\n      pop\n      pop\n      pop\n        /* \"fundMe/PriceConverter.sol\":740:956  function getConversionRate(uint _ethAmount) internal view returns(uint) {... */\n      swap2\n      swap1\n      pop\n      jump\t// out\n        /* \"fundMe/PriceConverter.sol\":240:734  function getPrice()  internal view  returns (uint)  {... */\n    tag_47:\n        /* \"fundMe/PriceConverter.sol\":285:289  uint */\n      0x00\n        /* \"fundMe/PriceConverter.sol\":302:333  AggregatorV3Interface priceFeed */\n      dup1\n        /* \"fundMe/PriceConverter.sol\":358:400  0x8A753747A1Fa494EC906cE90E9f37563A8AF630e */\n      0x8a753747a1fa494ec906ce90e9f37563a8af630e\n        /* \"fundMe/PriceConverter.sol\":302:401  AggregatorV3Interface priceFeed = AggregatorV3Interface(0x8A753747A1Fa494EC906cE90E9f37563A8AF630e) */\n      swap1\n      pop\n        /* \"fundMe/PriceConverter.sol\":456:465  int price */\n      0x00\n        /* \"fundMe/PriceConverter.sol\":582:591  priceFeed */\n      dup2\n        /* \"fundMe/PriceConverter.sol\":582:607  priceFeed.latestRoundData */\n      0xffffffffffffffffffffffffffffffffffffffff\n      and\n      0xfeaf968c\n        /* \"fundMe/PriceConverter.sol\":582:609  priceFeed.latestRoundData() */\n      mload(0x40)\n      dup2\n      0xffffffff\n      and\n      0xe0\n      shl\n      dup2\n      mstore\n      0x04\n      add\n      0xa0\n      mload(0x40)\n      dup1\n      dup4\n      sub\n      dup2\n      dup7\n      gas\n      staticcall\n      iszero\n      dup1\n      iszero\n      tag_54\n      jumpi\n      returndatasize\n      0x00\n      dup1\n      returndatacopy\n      revert(0x00, returndatasize)\n    tag_54:\n      pop\n      pop\n      pop\n      pop\n      mload(0x40)\n      returndatasize\n      not(0x1f)\n      0x1f\n      dup3\n      add\n      and\n      dup3\n      add\n      dup1\n      0x40\n      mstore\n      pop\n      dup2\n      add\n      swap1\n      tag_55\n      swap2\n      swap1\n      tag_56\n      jump\t// in\n    tag_55:\n        /* \"fundMe/PriceConverter.sol\":410:609  (... */\n      pop\n      pop\n      pop\n      swap2\n      pop\n      pop\n        /* \"fundMe/PriceConverter.sol\":721:725  1e10 */\n      0x02540be400\n        /* \"fundMe/PriceConverter.sol\":713:718  price */\n      dup2\n        /* \"fundMe/PriceConverter.sol\":713:725  price * 1e10 */\n      tag_57\n      swap2\n      swap1\n      tag_58\n      jump\t// in\n    tag_57:\n        /* \"fundMe/PriceConverter.sol\":698:726  return uint256(price * 1e10) */\n      swap3\n      pop\n      pop\n      pop\n        /* \"fundMe/PriceConverter.sol\":240:734  function getPrice()  internal view  returns (uint)  {... */\n      swap1\n      jump\t// out\n        /* \"#utility.yul\":88:205   */\n    tag_60:\n        /* \"#utility.yul\":197:198   */\n      0x00\n        /* \"#utility.yul\":194:195   */\n      dup1\n        /* \"#utility.yul\":187:199   */\n      revert\n        /* \"#utility.yul\":334:460   */\n    tag_62:\n        /* \"#utility.yul\":371:378   */\n      0x00\n        /* \"#utility.yul\":411:453   */\n      0xffffffffffffffffffffffffffffffffffffffff\n        /* \"#utility.yul\":404:409   */\n      dup3\n        /* \"#utility.yul\":400:454   */\n      and\n        /* \"#utility.yul\":389:454   */\n      swap1\n      pop\n        /* \"#utility.yul\":334:460   */\n      swap2\n      swap1\n      pop\n      jump\t// out\n        /* \"#utility.yul\":466:562   */\n    tag_63:\n        /* \"#utility.yul\":503:510   */\n      0x00\n        /* \"#utility.yul\":532:556   */\n      tag_89\n        /* \"#utility.yul\":550:555   */\n      dup3\n        /* \"#utility.yul\":532:556   */\n      tag_62\n      jump\t// in\n    tag_89:\n        /* \"#utility.yul\":521:556   */\n      swap1\n      pop\n        /* \"#utility.yul\":466:562   */\n      swap2\n      swap1\n      pop\n      jump\t// out\n        /* \"#utility.yul\":568:690   */\n    tag_64:\n        /* \"#utility.yul\":641:665   */\n      tag_91\n        /* \"#utility.yul\":659:664   */\n      dup2\n        /* \"#utility.yul\":641:665   */\n      tag_63\n      jump\t// in\n    tag_91:\n        /* \"#utility.yul\":634:639   */\n      dup2\n        /* \"#utility.yul\":631:666   */\n      eq\n        /* \"#utility.yul\":621:684   */\n      tag_92\n      jumpi\n        /* \"#utility.yul\":680:681   */\n      0x00\n        /* \"#utility.yul\":677:678   */\n      dup1\n        /* \"#utility.yul\":670:682   */\n      revert\n        /* \"#utility.yul\":621:684   */\n    tag_92:\n        /* \"#utility.yul\":568:690   */\n      pop\n      jump\t// out\n        /* \"#utility.yul\":696:835   */\n    tag_65:\n        /* \"#utility.yul\":742:747   */\n      0x00\n        /* \"#utility.yul\":780:786   */\n      dup2\n        /* \"#utility.yul\":767:787   */\n      calldataload\n        /* \"#utility.yul\":758:787   */\n      swap1\n      pop\n        /* \"#utility.yul\":796:829   */\n      tag_94\n        /* \"#utility.yul\":823:828   */\n      dup2\n        /* \"#utility.yul\":796:829   */\n      tag_64\n      jump\t// in\n    tag_94:\n        /* \"#utility.yul\":696:835   */\n      swap3\n      swap2\n      pop\n      pop\n      jump\t// out\n        /* \"#utility.yul\":841:1170   */\n    tag_13:\n        /* \"#utility.yul\":900:906   */\n      0x00\n        /* \"#utility.yul\":949:951   */\n      0x20\n        /* \"#utility.yul\":937:946   */\n      dup3\n        /* \"#utility.yul\":928:935   */\n      dup5\n        /* \"#utility.yul\":924:947   */\n      sub\n        /* \"#utility.yul\":920:952   */\n      slt\n        /* \"#utility.yul\":917:1036   */\n      iszero\n      tag_96\n      jumpi\n        /* \"#utility.yul\":955:1034   */\n      tag_97\n      tag_60\n      jump\t// in\n    tag_97:\n        /* \"#utility.yul\":917:1036   */\n    tag_96:\n        /* \"#utility.yul\":1075:1076   */\n      0x00\n        /* \"#utility.yul\":1100:1153   */\n      tag_98\n        /* \"#utility.yul\":1145:1152   */\n      dup5\n        /* \"#utility.yul\":1136:1142   */\n      dup3\n        /* \"#utility.yul\":1125:1134   */\n      dup6\n        /* \"#utility.yul\":1121:1143   */\n      add\n        /* \"#utility.yul\":1100:1153   */\n      tag_65\n      jump\t// in\n    tag_98:\n        /* \"#utility.yul\":1090:1153   */\n      swap2\n      pop\n        /* \"#utility.yul\":1046:1163   */\n      pop\n        /* \"#utility.yul\":841:1170   */\n      swap3\n      swap2\n      pop\n      pop\n      jump\t// out\n        /* \"#utility.yul\":1176:1253   */\n    tag_66:\n        /* \"#utility.yul\":1213:1220   */\n      0x00\n        /* \"#utility.yul\":1242:1247   */\n      dup2\n        /* \"#utility.yul\":1231:1247   */\n      swap1\n      pop\n        /* \"#utility.yul\":1176:1253   */\n      swap2\n      swap1\n      pop\n      jump\t// out\n        /* \"#utility.yul\":1259:1377   */\n    tag_67:\n        /* \"#utility.yul\":1346:1370   */\n      tag_101\n        /* \"#utility.yul\":1364:1369   */\n      dup2\n        /* \"#utility.yul\":1346:1370   */\n      tag_66\n      jump\t// in\n    tag_101:\n        /* \"#utility.yul\":1341:1344   */\n      dup3\n        /* \"#utility.yul\":1334:1371   */\n      mstore\n        /* \"#utility.yul\":1259:1377   */\n      pop\n      pop\n      jump\t// out\n        /* \"#utility.yul\":1383:1605   */\n    tag_16:\n        /* \"#utility.yul\":1476:1480   */\n      0x00\n        /* \"#utility.yul\":1514:1516   */\n      0x20\n        /* \"#utility.yul\":1503:1512   */\n      dup3\n        /* \"#utility.yul\":1499:1517   */\n      add\n        /* \"#utility.yul\":1491:1517   */\n      swap1\n      pop\n        /* \"#utility.yul\":1527:1598   */\n      tag_103\n        /* \"#utility.yul\":1595:1596   */\n      0x00\n        /* \"#utility.yul\":1584:1593   */\n      dup4\n        /* \"#utility.yul\":1580:1597   */\n      add\n        /* \"#utility.yul\":1571:1577   */\n      dup5\n        /* \"#utility.yul\":1527:1598   */\n      tag_67\n      jump\t// in\n    tag_103:\n        /* \"#utility.yul\":1383:1605   */\n      swap3\n      swap2\n      pop\n      pop\n      jump\t// out\n        /* \"#utility.yul\":1611:1733   */\n    tag_68:\n        /* \"#utility.yul\":1684:1708   */\n      tag_105\n        /* \"#utility.yul\":1702:1707   */\n      dup2\n        /* \"#utility.yul\":1684:1708   */\n      tag_66\n      jump\t// in\n    tag_105:\n        /* \"#utility.yul\":1677:1682   */\n      dup2\n        /* \"#utility.yul\":1674:1709   */\n      eq\n        /* \"#utility.yul\":1664:1727   */\n      tag_106\n      jumpi\n        /* \"#utility.yul\":1723:1724   */\n      0x00\n        /* \"#utility.yul\":1720:1721   */\n      dup1\n        /* \"#utility.yul\":1713:1725   */\n      revert\n        /* \"#utility.yul\":1664:1727   */\n    tag_106:\n        /* \"#utility.yul\":1611:1733   */\n      pop\n      jump\t// out\n        /* \"#utility.yul\":1739:1878   */\n    tag_69:\n        /* \"#utility.yul\":1785:1790   */\n      0x00\n        /* \"#utility.yul\":1823:1829   */\n      dup2\n        /* \"#utility.yul\":1810:1830   */\n      calldataload\n        /* \"#utility.yul\":1801:1830   */\n      swap1\n      pop\n        /* \"#utility.yul\":1839:1872   */\n      tag_108\n        /* \"#utility.yul\":1866:1871   */\n      dup2\n        /* \"#utility.yul\":1839:1872   */\n      tag_68\n      jump\t// in\n    tag_108:\n        /* \"#utility.yul\":1739:1878   */\n      swap3\n      swap2\n      pop\n      pop\n      jump\t// out\n        /* \"#utility.yul\":1884:2213   */\n    tag_26:\n        /* \"#utility.yul\":1943:1949   */\n      0x00\n        /* \"#utility.yul\":1992:1994   */\n      0x20\n        /* \"#utility.yul\":1980:1989   */\n      dup3\n        /* \"#utility.yul\":1971:1978   */\n      dup5\n        /* \"#utility.yul\":1967:1990   */\n      sub\n        /* \"#utility.yul\":1963:1995   */\n      slt\n        /* \"#utility.yul\":1960:2079   */\n      iszero\n      tag_110\n      jumpi\n        /* \"#utility.yul\":1998:2077   */\n      tag_111\n      tag_60\n      jump\t// in\n    tag_111:\n        /* \"#utility.yul\":1960:2079   */\n    tag_110:\n        /* \"#utility.yul\":2118:2119   */\n      0x00\n        /* \"#utility.yul\":2143:2196   */\n      tag_112\n        /* \"#utility.yul\":2188:2195   */\n      dup5\n        /* \"#utility.yul\":2179:2185   */\n      dup3\n        /* \"#utility.yul\":2168:2177   */\n      dup6\n        /* \"#utility.yul\":2164:2186   */\n      add\n        /* \"#utility.yul\":2143:2196   */\n      tag_69\n      jump\t// in\n    tag_112:\n        /* \"#utility.yul\":2133:2196   */\n      swap2\n      pop\n        /* \"#utility.yul\":2089:2206   */\n      pop\n        /* \"#utility.yul\":1884:2213   */\n      swap3\n      swap2\n      pop\n      pop\n      jump\t// out\n        /* \"#utility.yul\":2219:2337   */\n    tag_70:\n        /* \"#utility.yul\":2306:2330   */\n      tag_114\n        /* \"#utility.yul\":2324:2329   */\n      dup2\n        /* \"#utility.yul\":2306:2330   */\n      tag_63\n      jump\t// in\n    tag_114:\n        /* \"#utility.yul\":2301:2304   */\n      dup3\n        /* \"#utility.yul\":2294:2331   */\n      mstore\n        /* \"#utility.yul\":2219:2337   */\n      pop\n      pop\n      jump\t// out\n        /* \"#utility.yul\":2343:2565   */\n    tag_29:\n        /* \"#utility.yul\":2436:2440   */\n      0x00\n        /* \"#utility.yul\":2474:2476   */\n      0x20\n        /* \"#utility.yul\":2463:2472   */\n      dup3\n        /* \"#utility.yul\":2459:2477   */\n      add\n        /* \"#utility.yul\":2451:2477   */\n      swap1\n      pop\n        /* \"#utility.yul\":2487:2558   */\n      tag_116\n        /* \"#utility.yul\":2555:2556   */\n      0x00\n        /* \"#utility.yul\":2544:2553   */\n      dup4\n        /* \"#utility.yul\":2540:2557   */\n      add\n        /* \"#utility.yul\":2531:2537   */\n      dup5\n        /* \"#utility.yul\":2487:2558   */\n      tag_70\n      jump\t// in\n    tag_116:\n        /* \"#utility.yul\":2343:2565   */\n      swap3\n      swap2\n      pop\n      pop\n      jump\t// out\n        /* \"#utility.yul\":2571:2751   */\n    tag_71:\n        /* \"#utility.yul\":2619:2696   */\n      0x4e487b7100000000000000000000000000000000000000000000000000000000\n        /* \"#utility.yul\":2616:2617   */\n      0x00\n        /* \"#utility.yul\":2609:2697   */\n      mstore\n        /* \"#utility.yul\":2716:2720   */\n      0x11\n        /* \"#utility.yul\":2713:2714   */\n      0x04\n        /* \"#utility.yul\":2706:2721   */\n      mstore\n        /* \"#utility.yul\":2740:2744   */\n      0x24\n        /* \"#utility.yul\":2737:2738   */\n      0x00\n        /* \"#utility.yul\":2730:2745   */\n      revert\n        /* \"#utility.yul\":2757:2990   */\n    tag_35:\n        /* \"#utility.yul\":2796:2799   */\n      0x00\n        /* \"#utility.yul\":2819:2843   */\n      tag_119\n        /* \"#utility.yul\":2837:2842   */\n      dup3\n        /* \"#utility.yul\":2819:2843   */\n      tag_66\n      jump\t// in\n    tag_119:\n        /* \"#utility.yul\":2810:2843   */\n      swap2\n      pop\n        /* \"#utility.yul\":2865:2931   */\n      0xffffffffffffffffffffffffffffffffffffffffffffffffffffffffffffffff\n        /* \"#utility.yul\":2858:2863   */\n      dup3\n        /* \"#utility.yul\":2855:2932   */\n      sub\n        /* \"#utility.yul\":2852:2955   */\n      tag_120\n      jumpi\n        /* \"#utility.yul\":2935:2953   */\n      tag_121\n      tag_71\n      jump\t// in\n    tag_121:\n        /* \"#utility.yul\":2852:2955   */\n    tag_120:\n        /* \"#utility.yul\":2982:2983   */\n      0x01\n        /* \"#utility.yul\":2975:2980   */\n      dup3\n        /* \"#utility.yul\":2971:2984   */\n      add\n        /* \"#utility.yul\":2964:2984   */\n      swap1\n      pop\n        /* \"#utility.yul\":2757:2990   */\n      swap2\n      swap1\n      pop\n      jump\t// out\n        /* \"#utility.yul\":2996:3165   */\n    tag_72:\n        /* \"#utility.yul\":3080:3091   */\n      0x00\n        /* \"#utility.yul\":3114:3120   */\n      dup3\n        /* \"#utility.yul\":3109:3112   */\n      dup3\n        /* \"#utility.yul\":3102:3121   */\n      mstore\n        /* \"#utility.yul\":3154:3158   */\n      0x20\n        /* \"#utility.yul\":3149:3152   */\n      dup3\n        /* \"#utility.yul\":3145:3159   */\n      add\n        /* \"#utility.yul\":3130:3159   */\n      swap1\n      pop\n        /* \"#utility.yul\":2996:3165   */\n      swap3\n      swap2\n      pop\n      pop\n      jump\t// out\n        /* \"#utility.yul\":3171:3346   */\n    tag_73:\n        /* \"#utility.yul\":3311:3338   */\n      0x5072696365206973206c6f7765722c2073656e64206d6f726500000000000000\n        /* \"#utility.yul\":3307:3308   */\n      0x00\n        /* \"#utility.yul\":3299:3305   */\n      dup3\n        /* \"#utility.yul\":3295:3309   */\n      add\n        /* \"#utility.yul\":3288:3339   */\n      mstore\n        /* \"#utility.yul\":3171:3346   */\n      pop\n      jump\t// out\n        /* \"#utility.yul\":3352:3718   */\n    tag_74:\n        /* \"#utility.yul\":3494:3497   */\n      0x00\n        /* \"#utility.yul\":3515:3582   */\n      tag_125\n        /* \"#utility.yul\":3579:3581   */\n      0x19\n        /* \"#utility.yul\":3574:3577   */\n      dup4\n        /* \"#utility.yul\":3515:3582   */\n      tag_72\n      jump\t// in\n    tag_125:\n        /* \"#utility.yul\":3508:3582   */\n      swap2\n      pop\n        /* \"#utility.yul\":3591:3684   */\n      tag_126\n        /* \"#utility.yul\":3680:3683   */\n      dup3\n        /* \"#utility.yul\":3591:3684   */\n      tag_73\n      jump\t// in\n    tag_126:\n        /* \"#utility.yul\":3709:3711   */\n      0x20\n        /* \"#utility.yul\":3704:3707   */\n      dup3\n        /* \"#utility.yul\":3700:3712   */\n      add\n        /* \"#utility.yul\":3693:3712   */\n      swap1\n      pop\n        /* \"#utility.yul\":3352:3718   */\n      swap2\n      swap1\n      pop\n      jump\t// out\n        /* \"#utility.yul\":3724:4143   */\n    tag_41:\n        /* \"#utility.yul\":3890:3894   */\n      0x00\n        /* \"#utility.yul\":3928:3930   */\n      0x20\n        /* \"#utility.yul\":3917:3926   */\n      dup3\n        /* \"#utility.yul\":3913:3931   */\n      add\n        /* \"#utility.yul\":3905:3931   */\n      swap1\n      pop\n        /* \"#utility.yul\":3977:3986   */\n      dup2\n        /* \"#utility.yul\":3971:3975   */\n      dup2\n        /* \"#utility.yul\":3967:3987   */\n      sub\n        /* \"#utility.yul\":3963:3964   */\n      0x00\n        /* \"#utility.yul\":3952:3961   */\n      dup4\n        /* \"#utility.yul\":3948:3965   */\n      add\n        /* \"#utility.yul\":3941:3988   */\n      mstore\n        /* \"#utility.yul\":4005:4136   */\n      tag_128\n        /* \"#utility.yul\":4131:4135   */\n      dup2\n        /* \"#utility.yul\":4005:4136   */\n      tag_74\n      jump\t// in\n    tag_128:\n        /* \"#utility.yul\":3997:4136   */\n      swap1\n      pop\n        /* \"#utility.yul\":3724:4143   */\n      swap2\n      swap1\n      pop\n      jump\t// out\n        /* \"#utility.yul\":4149:4497   */\n    tag_49:\n        /* \"#utility.yul\":4189:4196   */\n      0x00\n        /* \"#utility.yul\":4212:4232   */\n      tag_130\n        /* \"#utility.yul\":4230:4231   */\n      dup3\n        /* \"#utility.yul\":4212:4232   */\n      tag_66\n      jump\t// in\n    tag_130:\n        /* \"#utility.yul\":4207:4232   */\n      swap2\n      pop\n        /* \"#utility.yul\":4246:4266   */\n      tag_131\n        /* \"#utility.yul\":4264:4265   */\n      dup4\n        /* \"#utility.yul\":4246:4266   */\n      tag_66\n      jump\t// in\n    tag_131:\n        /* \"#utility.yul\":4241:4266   */\n      swap3\n      pop\n        /* \"#utility.yul\":4434:4435   */\n      dup2\n        /* \"#utility.yul\":4366:4432   */\n      0xffffffffffffffffffffffffffffffffffffffffffffffffffffffffffffffff\n        /* \"#utility.yul\":4362:4436   */\n      div\n        /* \"#utility.yul\":4359:4360   */\n      dup4\n        /* \"#utility.yul\":4356:4437   */\n      gt\n        /* \"#utility.yul\":4351:4352   */\n      dup3\n        /* \"#utility.yul\":4344:4353   */\n      iszero\n        /* \"#utility.yul\":4337:4354   */\n      iszero\n        /* \"#utility.yul\":4333:4438   */\n      and\n        /* \"#utility.yul\":4330:4461   */\n      iszero\n      tag_132\n      jumpi\n        /* \"#utility.yul\":4441:4459   */\n      tag_133\n      tag_71\n      jump\t// in\n    tag_133:\n        /* \"#utility.yul\":4330:4461   */\n    tag_132:\n        /* \"#utility.yul\":4489:4490   */\n      dup3\n        /* \"#utility.yul\":4486:4487   */\n      dup3\n        /* \"#utility.yul\":4482:4491   */\n      mul\n        /* \"#utility.yul\":4471:4491   */\n      swap1\n      pop\n        /* \"#utility.yul\":4149:4497   */\n      swap3\n      swap2\n      pop\n      pop\n      jump\t// out\n        /* \"#utility.yul\":4503:4683   */\n    tag_75:\n        /* \"#utility.yul\":4551:4628   */\n      0x4e487b7100000000000000000000000000000000000000000000000000000000\n        /* \"#utility.yul\":4548:4549   */\n      0x00\n        /* \"#utility.yul\":4541:4629   */\n      mstore\n        /* \"#utility.yul\":4648:4652   */\n      0x12\n        /* \"#utility.yul\":4645:4646   */\n      0x04\n        /* \"#utility.yul\":4638:4653   */\n      mstore\n        /* \"#utility.yul\":4672:4676   */\n      0x24\n        /* \"#utility.yul\":4669:4670   */\n      0x00\n        /* \"#utility.yul\":4662:4677   */\n      revert\n        /* \"#utility.yul\":4689:4874   */\n    tag_51:\n        /* \"#utility.yul\":4729:4730   */\n      0x00\n        /* \"#utility.yul\":4746:4766   */\n      tag_136\n        /* \"#utility.yul\":4764:4765   */\n      dup3\n        /* \"#utility.yul\":4746:4766   */\n      tag_66\n      jump\t// in\n    tag_136:\n        /* \"#utility.yul\":4741:4766   */\n      swap2\n      pop\n        /* \"#utility.yul\":4780:4800   */\n      tag_137\n        /* \"#utility.yul\":4798:4799   */\n      dup4\n        /* \"#utility.yul\":4780:4800   */\n      tag_66\n      jump\t// in\n    tag_137:\n        /* \"#utility.yul\":4775:4800   */\n      swap3\n      pop\n        /* \"#utility.yul\":4819:4820   */\n      dup3\n        /* \"#utility.yul\":4809:4844   */\n      tag_138\n      jumpi\n        /* \"#utility.yul\":4824:4842   */\n      tag_139\n      tag_75\n      jump\t// in\n    tag_139:\n        /* \"#utility.yul\":4809:4844   */\n    tag_138:\n        /* \"#utility.yul\":4866:4867   */\n      dup3\n        /* \"#utility.yul\":4863:4864   */\n      dup3\n        /* \"#utility.yul\":4859:4868   */\n      div\n        /* \"#utility.yul\":4854:4868   */\n      swap1\n      pop\n        /* \"#utility.yul\":4689:4874   */\n      swap3\n      swap2\n      pop\n      pop\n      jump\t// out\n        /* \"#utility.yul\":4880:4985   */\n    tag_76:\n        /* \"#utility.yul\":4916:4923   */\n      0x00\n        /* \"#utility.yul\":4956:4978   */\n      0xffffffffffffffffffff\n        /* \"#utility.yul\":4949:4954   */\n      dup3\n        /* \"#utility.yul\":4945:4979   */\n      and\n        /* \"#utility.yul\":4934:4979   */\n      swap1\n      pop\n        /* \"#utility.yul\":4880:4985   */\n      swap2\n      swap1\n      pop\n      jump\t// out\n        /* \"#utility.yul\":4991:5111   */\n    tag_77:\n        /* \"#utility.yul\":5063:5086   */\n      tag_142\n        /* \"#utility.yul\":5080:5085   */\n      dup2\n        /* \"#utility.yul\":5063:5086   */\n      tag_76\n      jump\t// in\n    tag_142:\n        /* \"#utility.yul\":5056:5061   */\n      dup2\n        /* \"#utility.yul\":5053:5087   */\n      eq\n        /* \"#utility.yul\":5043:5105   */\n      tag_143\n      jumpi\n        /* \"#utility.yul\":5101:5102   */\n      0x00\n        /* \"#utility.yul\":5098:5099   */\n      dup1\n        /* \"#utility.yul\":5091:5103   */\n      revert\n        /* \"#utility.yul\":5043:5105   */\n    tag_143:\n        /* \"#utility.yul\":4991:5111   */\n      pop\n      jump\t// out\n        /* \"#utility.yul\":5117:5258   */\n    tag_78:\n        /* \"#utility.yul\":5173:5178   */\n      0x00\n        /* \"#utility.yul\":5204:5210   */\n      dup2\n        /* \"#utility.yul\":5198:5211   */\n      mload\n        /* \"#utility.yul\":5189:5211   */\n      swap1\n      pop\n        /* \"#utility.yul\":5220:5252   */\n      tag_145\n        /* \"#utility.yul\":5246:5251   */\n      dup2\n        /* \"#utility.yul\":5220:5252   */\n      tag_77\n      jump\t// in\n    tag_145:\n        /* \"#utility.yul\":5117:5258   */\n      swap3\n      swap2\n      pop\n      pop\n      jump\t// out\n        /* \"#utility.yul\":5264:5340   */\n    tag_79:\n        /* \"#utility.yul\":5300:5307   */\n      0x00\n        /* \"#utility.yul\":5329:5334   */\n      dup2\n        /* \"#utility.yul\":5318:5334   */\n      swap1\n      pop\n        /* \"#utility.yul\":5264:5340   */\n      swap2\n      swap1\n      pop\n      jump\t// out\n        /* \"#utility.yul\":5346:5466   */\n    tag_80:\n        /* \"#utility.yul\":5418:5441   */\n      tag_148\n        /* \"#utility.yul\":5435:5440   */\n      dup2\n        /* \"#utility.yul\":5418:5441   */\n      tag_79\n      jump\t// in\n    tag_148:\n        /* \"#utility.yul\":5411:5416   */\n      dup2\n        /* \"#utility.yul\":5408:5442   */\n      eq\n        /* \"#utility.yul\":5398:5460   */\n      tag_149\n      jumpi\n        /* \"#utility.yul\":5456:5457   */\n      0x00\n        /* \"#utility.yul\":5453:5454   */\n      dup1\n        /* \"#utility.yul\":5446:5458   */\n      revert\n        /* \"#utility.yul\":5398:5460   */\n    tag_149:\n        /* \"#utility.yul\":5346:5466   */\n      pop\n      jump\t// out\n        /* \"#utility.yul\":5472:5613   */\n    tag_81:\n        /* \"#utility.yul\":5528:5533   */\n      0x00\n        /* \"#utility.yul\":5559:5565   */\n      dup2\n        /* \"#utility.yul\":5553:5566   */\n      mload\n        /* \"#utility.yul\":5544:5566   */\n      swap1\n      pop\n        /* \"#utility.yul\":5575:5607   */\n      tag_151\n        /* \"#utility.yul\":5601:5606   */\n      dup2\n        /* \"#utility.yul\":5575:5607   */\n      tag_80\n      jump\t// in\n    tag_151:\n        /* \"#utility.yul\":5472:5613   */\n      swap3\n      swap2\n      pop\n      pop\n      jump\t// out\n        /* \"#utility.yul\":5619:5762   */\n    tag_82:\n        /* \"#utility.yul\":5676:5681   */\n      0x00\n        /* \"#utility.yul\":5707:5713   */\n      dup2\n        /* \"#utility.yul\":5701:5714   */\n      mload\n        /* \"#utility.yul\":5692:5714   */\n      swap1\n      pop\n        /* \"#utility.yul\":5723:5756   */\n      tag_153\n        /* \"#utility.yul\":5750:5755   */\n      dup2\n        /* \"#utility.yul\":5723:5756   */\n      tag_68\n      jump\t// in\n    tag_153:\n        /* \"#utility.yul\":5619:5762   */\n      swap3\n      swap2\n      pop\n      pop\n      jump\t// out\n        /* \"#utility.yul\":5768:6739   */\n    tag_56:\n        /* \"#utility.yul\":5871:5877   */\n      0x00\n        /* \"#utility.yul\":5879:5885   */\n      dup1\n        /* \"#utility.yul\":5887:5893   */\n      0x00\n        /* \"#utility.yul\":5895:5901   */\n      dup1\n        /* \"#utility.yul\":5903:5909   */\n      0x00\n        /* \"#utility.yul\":5952:5955   */\n      0xa0\n        /* \"#utility.yul\":5940:5949   */\n      dup7\n        /* \"#utility.yul\":5931:5938   */\n      dup9\n        /* \"#utility.yul\":5927:5950   */\n      sub\n        /* \"#utility.yul\":5923:5956   */\n      slt\n        /* \"#utility.yul\":5920:6040   */\n      iszero\n      tag_155\n      jumpi\n        /* \"#utility.yul\":5959:6038   */\n      tag_156\n      tag_60\n      jump\t// in\n    tag_156:\n        /* \"#utility.yul\":5920:6040   */\n    tag_155:\n        /* \"#utility.yul\":6079:6080   */\n      0x00\n        /* \"#utility.yul\":6104:6167   */\n      tag_157\n        /* \"#utility.yul\":6159:6166   */\n      dup9\n        /* \"#utility.yul\":6150:6156   */\n      dup3\n        /* \"#utility.yul\":6139:6148   */\n      dup10\n        /* \"#utility.yul\":6135:6157   */\n      add\n        /* \"#utility.yul\":6104:6167   */\n      tag_78\n      jump\t// in\n    tag_157:\n        /* \"#utility.yul\":6094:6167   */\n      swap6\n      pop\n        /* \"#utility.yul\":6050:6177   */\n      pop\n        /* \"#utility.yul\":6216:6218   */\n      0x20\n        /* \"#utility.yul\":6242:6305   */\n      tag_158\n        /* \"#utility.yul\":6297:6304   */\n      dup9\n        /* \"#utility.yul\":6288:6294   */\n      dup3\n        /* \"#utility.yul\":6277:6286   */\n      dup10\n        /* \"#utility.yul\":6273:6295   */\n      add\n        /* \"#utility.yul\":6242:6305   */\n      tag_81\n      jump\t// in\n    tag_158:\n        /* \"#utility.yul\":6232:6305   */\n      swap5\n      pop\n        /* \"#utility.yul\":6187:6315   */\n      pop\n        /* \"#utility.yul\":6354:6356   */\n      0x40\n        /* \"#utility.yul\":6380:6444   */\n      tag_159\n        /* \"#utility.yul\":6436:6443   */\n      dup9\n        /* \"#utility.yul\":6427:6433   */\n      dup3\n        /* \"#utility.yul\":6416:6425   */\n      dup10\n        /* \"#utility.yul\":6412:6434   */\n      add\n        /* \"#utility.yul\":6380:6444   */\n      tag_82\n      jump\t// in\n    tag_159:\n        /* \"#utility.yul\":6370:6444   */\n      swap4\n      pop\n        /* \"#utility.yul\":6325:6454   */\n      pop\n        /* \"#utility.yul\":6493:6495   */\n      0x60\n        /* \"#utility.yul\":6519:6583   */\n      tag_160\n        /* \"#utility.yul\":6575:6582   */\n      dup9\n        /* \"#utility.yul\":6566:6572   */\n      dup3\n        /* \"#utility.yul\":6555:6564   */\n      dup10\n        /* \"#utility.yul\":6551:6573   */\n      add\n        /* \"#utility.yul\":6519:6583   */\n      tag_82\n      jump\t// in\n    tag_160:\n        /* \"#utility.yul\":6509:6583   */\n      swap3\n      pop\n        /* \"#utility.yul\":6464:6593   */\n      pop\n        /* \"#utility.yul\":6632:6635   */\n      0x80\n        /* \"#utility.yul\":6659:6722   */\n      tag_161\n        /* \"#utility.yul\":6714:6721   */\n      dup9\n        /* \"#utility.yul\":6705:6711   */\n      dup3\n        /* \"#utility.yul\":6694:6703   */\n      dup10\n        /* \"#utility.yul\":6690:6712   */\n      add\n        /* \"#utility.yul\":6659:6722   */\n      tag_78\n      jump\t// in\n    tag_161:\n        /* \"#utility.yul\":6649:6722   */\n      swap2\n      pop\n        /* \"#utility.yul\":6603:6732   */\n      pop\n        /* \"#utility.yul\":5768:6739   */\n      swap3\n      swap6\n      pop\n      swap3\n      swap6\n      swap1\n      swap4\n      pop\n      jump\t// out\n        /* \"#utility.yul\":6745:7736   */\n    tag_58:\n        /* \"#utility.yul\":6784:6791   */\n      0x00\n        /* \"#utility.yul\":6807:6826   */\n      tag_163\n        /* \"#utility.yul\":6824:6825   */\n      dup3\n        /* \"#utility.yul\":6807:6826   */\n      tag_79\n      jump\t// in\n    tag_163:\n        /* \"#utility.yul\":6802:6826   */\n      swap2\n      pop\n        /* \"#utility.yul\":6840:6859   */\n      tag_164\n        /* \"#utility.yul\":6857:6858   */\n      dup4\n        /* \"#utility.yul\":6840:6859   */\n      tag_79\n      jump\t// in\n    tag_164:\n        /* \"#utility.yul\":6835:6859   */\n      swap3\n      pop\n        /* \"#utility.yul\":7041:7042   */\n      dup3\n        /* \"#utility.yul\":6973:7039   */\n      0x7fffffffffffffffffffffffffffffffffffffffffffffffffffffffffffffff\n        /* \"#utility.yul\":6969:7043   */\n      div\n        /* \"#utility.yul\":6966:6967   */\n      dup3\n        /* \"#utility.yul\":6963:7044   */\n      gt\n        /* \"#utility.yul\":6958:6959   */\n      0x00\n        /* \"#utility.yul\":6955:6956   */\n      dup5\n        /* \"#utility.yul\":6951:6960   */\n      sgt\n        /* \"#utility.yul\":6947:6948   */\n      0x00\n        /* \"#utility.yul\":6944:6945   */\n      dup5\n        /* \"#utility.yul\":6940:6949   */\n      sgt\n        /* \"#utility.yul\":6936:6961   */\n      and\n        /* \"#utility.yul\":6932:7045   */\n      and\n        /* \"#utility.yul\":6929:7068   */\n      iszero\n      tag_165\n      jumpi\n        /* \"#utility.yul\":7048:7066   */\n      tag_166\n      tag_71\n      jump\t// in\n    tag_166:\n        /* \"#utility.yul\":6929:7068   */\n    tag_165:\n        /* \"#utility.yul\":7252:7253   */\n      dup2\n        /* \"#utility.yul\":7184:7250   */\n      0x8000000000000000000000000000000000000000000000000000000000000000\n        /* \"#utility.yul\":7179:7254   */\n      sdiv\n        /* \"#utility.yul\":7176:7177   */\n      dup4\n        /* \"#utility.yul\":7172:7255   */\n      slt\n        /* \"#utility.yul\":7167:7168   */\n      0x00\n        /* \"#utility.yul\":7164:7165   */\n      dup5\n        /* \"#utility.yul\":7160:7169   */\n      slt\n        /* \"#utility.yul\":7156:7157   */\n      0x00\n        /* \"#utility.yul\":7153:7154   */\n      dup5\n        /* \"#utility.yul\":7149:7158   */\n      sgt\n        /* \"#utility.yul\":7145:7170   */\n      and\n        /* \"#utility.yul\":7141:7256   */\n      and\n        /* \"#utility.yul\":7138:7279   */\n      iszero\n      tag_167\n      jumpi\n        /* \"#utility.yul\":7259:7277   */\n      tag_168\n      tag_71\n      jump\t// in\n    tag_168:\n        /* \"#utility.yul\":7138:7279   */\n    tag_167:\n        /* \"#utility.yul\":7463:7464   */\n      dup3\n        /* \"#utility.yul\":7395:7461   */\n      0x8000000000000000000000000000000000000000000000000000000000000000\n        /* \"#utility.yul\":7390:7465   */\n      sdiv\n        /* \"#utility.yul\":7387:7388   */\n      dup3\n        /* \"#utility.yul\":7383:7466   */\n      slt\n        /* \"#utility.yul\":7378:7379   */\n      0x00\n        /* \"#utility.yul\":7375:7376   */\n      dup5\n        /* \"#utility.yul\":7371:7380   */\n      sgt\n        /* \"#utility.yul\":7367:7368   */\n      0x00\n        /* \"#utility.yul\":7364:7365   */\n      dup5\n        /* \"#utility.yul\":7360:7369   */\n      slt\n        /* \"#utility.yul\":7356:7381   */\n      and\n        /* \"#utility.yul\":7352:7467   */\n      and\n        /* \"#utility.yul\":7349:7490   */\n      iszero\n      tag_169\n      jumpi\n        /* \"#utility.yul\":7470:7488   */\n      tag_170\n      tag_71\n      jump\t// in\n    tag_170:\n        /* \"#utility.yul\":7349:7490   */\n    tag_169:\n        /* \"#utility.yul\":7673:7674   */\n      dup3\n        /* \"#utility.yul\":7605:7671   */\n      0x7fffffffffffffffffffffffffffffffffffffffffffffffffffffffffffffff\n        /* \"#utility.yul\":7600:7675   */\n      sdiv\n        /* \"#utility.yul\":7597:7598   */\n      dup3\n        /* \"#utility.yul\":7593:7676   */\n      slt\n        /* \"#utility.yul\":7588:7589   */\n      0x00\n        /* \"#utility.yul\":7585:7586   */\n      dup5\n        /* \"#utility.yul\":7581:7590   */\n      slt\n        /* \"#utility.yul\":7577:7578   */\n      0x00\n        /* \"#utility.yul\":7574:7575   */\n      dup5\n        /* \"#utility.yul\":7570:7579   */\n      slt\n        /* \"#utility.yul\":7566:7591   */\n      and\n        /* \"#utility.yul\":7562:7677   */\n      and\n        /* \"#utility.yul\":7559:7700   */\n      iszero\n      tag_171\n      jumpi\n        /* \"#utility.yul\":7680:7698   */\n      tag_172\n      tag_71\n      jump\t// in\n    tag_172:\n        /* \"#utility.yul\":7559:7700   */\n    tag_171:\n        /* \"#utility.yul\":7728:7729   */\n      dup3\n        /* \"#utility.yul\":7725:7726   */\n      dup3\n        /* \"#utility.yul\":7721:7730   */\n      mul\n        /* \"#utility.yul\":7710:7730   */\n      swap1\n      pop\n        /* \"#utility.yul\":6745:7736   */\n      swap3\n      swap2\n      pop\n      pop\n      jump\t// out\n\n    auxdata: 0xa26469706673582212205b30afab1678e694d29dcabebcd0ce2616369428f67a5546cbd3a467e983c72b64736f6c634300080e0033\n}\n",
				"bytecode": {
					"linkReferences": {},
					"object": "60806040526802b5e3af16b188000060005534801561001d57600080fd5b506108bb8061002d6000396000f3fe60806040526004361061004a5760003560e01c80633ccfd60b1461004f5780633e47d6f31461006657806351b80e41146100a3578063b60d4288146100ce578063dc0d3dff146100d8575b600080fd5b34801561005b57600080fd5b50610064610115565b005b34801561007257600080fd5b5061008d600480360381019061008891906103d4565b61013b565b60405161009a919061041a565b60405180910390f35b3480156100af57600080fd5b506100b8610153565b6040516100c5919061041a565b60405180910390f35b6100d6610159565b005b3480156100e457600080fd5b506100ff60048036038101906100fa9190610461565b61024f565b60405161010c919061049d565b60405180910390f35b60005b600180549050811015610138578080610130906104e7565b915050610118565b50565b60026020528060005260406000206000915090505481565b60005481565b6000546101653461028e565b10156101a6576040517f08c379a000000000000000000000000000000000000000000000000000000000815260040161019d9061058c565b60405180910390fd5b6001339080600181540180825580915050600190039060005260206000200160009091909190916101000a81548173ffffffffffffffffffffffffffffffffffffffff021916908373ffffffffffffffffffffffffffffffffffffffff16021790555034600260003373ffffffffffffffffffffffffffffffffffffffff1673ffffffffffffffffffffffffffffffffffffffff16815260200190815260200160002081905550565b6001818154811061025f57600080fd5b906000526020600020016000915054906101000a900473ffffffffffffffffffffffffffffffffffffffff1681565b6000806102996102c8565b90506000670de0b6b3a764000084836102b291906105ac565b6102bc9190610635565b90508092505050919050565b600080738a753747a1fa494ec906ce90e9f37563a8af630e905060008173ffffffffffffffffffffffffffffffffffffffff1663feaf968c6040518163ffffffff1660e01b815260040160a060405180830381865afa15801561032f573d6000803e3d6000fd5b505050506040513d601f19601f8201168201806040525081019061035391906106f3565b5050509150506402540be4008161036a919061076e565b9250505090565b600080fd5b600073ffffffffffffffffffffffffffffffffffffffff82169050919050565b60006103a182610376565b9050919050565b6103b181610396565b81146103bc57600080fd5b50565b6000813590506103ce816103a8565b92915050565b6000602082840312156103ea576103e9610371565b5b60006103f8848285016103bf565b91505092915050565b6000819050919050565b61041481610401565b82525050565b600060208201905061042f600083018461040b565b92915050565b61043e81610401565b811461044957600080fd5b50565b60008135905061045b81610435565b92915050565b60006020828403121561047757610476610371565b5b60006104858482850161044c565b91505092915050565b61049781610396565b82525050565b60006020820190506104b2600083018461048e565b92915050565b7f4e487b7100000000000000000000000000000000000000000000000000000000600052601160045260246000fd5b60006104f282610401565b91507fffffffffffffffffffffffffffffffffffffffffffffffffffffffffffffffff8203610524576105236104b8565b5b600182019050919050565b600082825260208201905092915050565b7f5072696365206973206c6f7765722c2073656e64206d6f726500000000000000600082015250565b600061057660198361052f565b915061058182610540565b602082019050919050565b600060208201905081810360008301526105a581610569565b9050919050565b60006105b782610401565b91506105c283610401565b9250817fffffffffffffffffffffffffffffffffffffffffffffffffffffffffffffffff04831182151516156105fb576105fa6104b8565b5b828202905092915050565b7f4e487b7100000000000000000000000000000000000000000000000000000000600052601260045260246000fd5b600061064082610401565b915061064b83610401565b92508261065b5761065a610606565b5b828204905092915050565b600069ffffffffffffffffffff82169050919050565b61068581610666565b811461069057600080fd5b50565b6000815190506106a28161067c565b92915050565b6000819050919050565b6106bb816106a8565b81146106c657600080fd5b50565b6000815190506106d8816106b2565b92915050565b6000815190506106ed81610435565b92915050565b600080600080600060a0868803121561070f5761070e610371565b5b600061071d88828901610693565b955050602061072e888289016106c9565b945050604061073f888289016106de565b9350506060610750888289016106de565b925050608061076188828901610693565b9150509295509295909350565b6000610779826106a8565b9150610784836106a8565b9250827f7fffffffffffffffffffffffffffffffffffffffffffffffffffffffffffffff04821160008413600084131616156107c3576107c26104b8565b5b817f80000000000000000000000000000000000000000000000000000000000000000583126000841260008413161615610800576107ff6104b8565b5b827f8000000000000000000000000000000000000000000000000000000000000000058212600084136000841216161561083d5761083c6104b8565b5b827f7fffffffffffffffffffffffffffffffffffffffffffffffffffffffffffffff058212600084126000841216161561087a576108796104b8565b5b82820290509291505056fea26469706673582212205b30afab1678e694d29dcabebcd0ce2616369428f67a5546cbd3a467e983c72b64736f6c634300080e0033",
					"opcodes": "PUSH1 0x80 PUSH1 0x40 MSTORE PUSH9 0x2B5E3AF16B1880000 PUSH1 0x0 SSTORE CALLVALUE DUP1 ISZERO PUSH2 0x1D JUMPI PUSH1 0x0 DUP1 REVERT JUMPDEST POP PUSH2 0x8BB DUP1 PUSH2 0x2D PUSH1 0x0 CODECOPY PUSH1 0x0 RETURN INVALID PUSH1 0x80 PUSH1 0x40 MSTORE PUSH1 0x4 CALLDATASIZE LT PUSH2 0x4A JUMPI PUSH1 0x0 CALLDATALOAD PUSH1 0xE0 SHR DUP1 PUSH4 0x3CCFD60B EQ PUSH2 0x4F JUMPI DUP1 PUSH4 0x3E47D6F3 EQ PUSH2 0x66 JUMPI DUP1 PUSH4 0x51B80E41 EQ PUSH2 0xA3 JUMPI DUP1 PUSH4 0xB60D4288 EQ PUSH2 0xCE JUMPI DUP1 PUSH4 0xDC0D3DFF EQ PUSH2 0xD8 JUMPI JUMPDEST PUSH1 0x0 DUP1 REVERT JUMPDEST CALLVALUE DUP1 ISZERO PUSH2 0x5B JUMPI PUSH1 0x0 DUP1 REVERT JUMPDEST POP PUSH2 0x64 PUSH2 0x115 JUMP JUMPDEST STOP JUMPDEST CALLVALUE DUP1 ISZERO PUSH2 0x72 JUMPI PUSH1 0x0 DUP1 REVERT JUMPDEST POP PUSH2 0x8D PUSH1 0x4 DUP1 CALLDATASIZE SUB DUP2 ADD SWAP1 PUSH2 0x88 SWAP2 SWAP1 PUSH2 0x3D4 JUMP JUMPDEST PUSH2 0x13B JUMP JUMPDEST PUSH1 0x40 MLOAD PUSH2 0x9A SWAP2 SWAP1 PUSH2 0x41A JUMP JUMPDEST PUSH1 0x40 MLOAD DUP1 SWAP2 SUB SWAP1 RETURN JUMPDEST CALLVALUE DUP1 ISZERO PUSH2 0xAF JUMPI PUSH1 0x0 DUP1 REVERT JUMPDEST POP PUSH2 0xB8 PUSH2 0x153 JUMP JUMPDEST PUSH1 0x40 MLOAD PUSH2 0xC5 SWAP2 SWAP1 PUSH2 0x41A JUMP JUMPDEST PUSH1 0x40 MLOAD DUP1 SWAP2 SUB SWAP1 RETURN JUMPDEST PUSH2 0xD6 PUSH2 0x159 JUMP JUMPDEST STOP JUMPDEST CALLVALUE DUP1 ISZERO PUSH2 0xE4 JUMPI PUSH1 0x0 DUP1 REVERT JUMPDEST POP PUSH2 0xFF PUSH1 0x4 DUP1 CALLDATASIZE SUB DUP2 ADD SWAP1 PUSH2 0xFA SWAP2 SWAP1 PUSH2 0x461 JUMP JUMPDEST PUSH2 0x24F JUMP JUMPDEST PUSH1 0x40 MLOAD PUSH2 0x10C SWAP2 SWAP1 PUSH2 0x49D JUMP JUMPDEST PUSH1 0x40 MLOAD DUP1 SWAP2 SUB SWAP1 RETURN JUMPDEST PUSH1 0x0 JUMPDEST PUSH1 0x1 DUP1 SLOAD SWAP1 POP DUP2 LT ISZERO PUSH2 0x138 JUMPI DUP1 DUP1 PUSH2 0x130 SWAP1 PUSH2 0x4E7 JUMP JUMPDEST SWAP2 POP POP PUSH2 0x118 JUMP JUMPDEST POP JUMP JUMPDEST PUSH1 0x2 PUSH1 0x20 MSTORE DUP1 PUSH1 0x0 MSTORE PUSH1 0x40 PUSH1 0x0 KECCAK256 PUSH1 0x0 SWAP2 POP SWAP1 POP SLOAD DUP2 JUMP JUMPDEST PUSH1 0x0 SLOAD DUP2 JUMP JUMPDEST PUSH1 0x0 SLOAD PUSH2 0x165 CALLVALUE PUSH2 0x28E JUMP JUMPDEST LT ISZERO PUSH2 0x1A6 JUMPI PUSH1 0x40 MLOAD PUSH32 0x8C379A000000000000000000000000000000000000000000000000000000000 DUP2 MSTORE PUSH1 0x4 ADD PUSH2 0x19D SWAP1 PUSH2 0x58C JUMP JUMPDEST PUSH1 0x40 MLOAD DUP1 SWAP2 SUB SWAP1 REVERT JUMPDEST PUSH1 0x1 CALLER SWAP1 DUP1 PUSH1 0x1 DUP2 SLOAD ADD DUP1 DUP3 SSTORE DUP1 SWAP2 POP POP PUSH1 0x1 SWAP1 SUB SWAP1 PUSH1 0x0 MSTORE PUSH1 0x20 PUSH1 0x0 KECCAK256 ADD PUSH1 0x0 SWAP1 SWAP2 SWAP1 SWAP2 SWAP1 SWAP2 PUSH2 0x100 EXP DUP2 SLOAD DUP2 PUSH20 0xFFFFFFFFFFFFFFFFFFFFFFFFFFFFFFFFFFFFFFFF MUL NOT AND SWAP1 DUP4 PUSH20 0xFFFFFFFFFFFFFFFFFFFFFFFFFFFFFFFFFFFFFFFF AND MUL OR SWAP1 SSTORE POP CALLVALUE PUSH1 0x2 PUSH1 0x0 CALLER PUSH20 0xFFFFFFFFFFFFFFFFFFFFFFFFFFFFFFFFFFFFFFFF AND PUSH20 0xFFFFFFFFFFFFFFFFFFFFFFFFFFFFFFFFFFFFFFFF AND DUP2 MSTORE PUSH1 0x20 ADD SWAP1 DUP2 MSTORE PUSH1 0x20 ADD PUSH1 0x0 KECCAK256 DUP2 SWAP1 SSTORE POP JUMP JUMPDEST PUSH1 0x1 DUP2 DUP2 SLOAD DUP2 LT PUSH2 0x25F JUMPI PUSH1 0x0 DUP1 REVERT JUMPDEST SWAP1 PUSH1 0x0 MSTORE PUSH1 0x20 PUSH1 0x0 KECCAK256 ADD PUSH1 0x0 SWAP2 POP SLOAD SWAP1 PUSH2 0x100 EXP SWAP1 DIV PUSH20 0xFFFFFFFFFFFFFFFFFFFFFFFFFFFFFFFFFFFFFFFF AND DUP2 JUMP JUMPDEST PUSH1 0x0 DUP1 PUSH2 0x299 PUSH2 0x2C8 JUMP JUMPDEST SWAP1 POP PUSH1 0x0 PUSH8 0xDE0B6B3A7640000 DUP5 DUP4 PUSH2 0x2B2 SWAP2 SWAP1 PUSH2 0x5AC JUMP JUMPDEST PUSH2 0x2BC SWAP2 SWAP1 PUSH2 0x635 JUMP JUMPDEST SWAP1 POP DUP1 SWAP3 POP POP POP SWAP2 SWAP1 POP JUMP JUMPDEST PUSH1 0x0 DUP1 PUSH20 0x8A753747A1FA494EC906CE90E9F37563A8AF630E SWAP1 POP PUSH1 0x0 DUP2 PUSH20 0xFFFFFFFFFFFFFFFFFFFFFFFFFFFFFFFFFFFFFFFF AND PUSH4 0xFEAF968C PUSH1 0x40 MLOAD DUP2 PUSH4 0xFFFFFFFF AND PUSH1 0xE0 SHL DUP2 MSTORE PUSH1 0x4 ADD PUSH1 0xA0 PUSH1 0x40 MLOAD DUP1 DUP4 SUB DUP2 DUP7 GAS STATICCALL ISZERO DUP1 ISZERO PUSH2 0x32F JUMPI RETURNDATASIZE PUSH1 0x0 DUP1 RETURNDATACOPY RETURNDATASIZE PUSH1 0x0 REVERT JUMPDEST POP POP POP POP PUSH1 0x40 MLOAD RETURNDATASIZE PUSH1 0x1F NOT PUSH1 0x1F DUP3 ADD AND DUP3 ADD DUP1 PUSH1 0x40 MSTORE POP DUP2 ADD SWAP1 PUSH2 0x353 SWAP2 SWAP1 PUSH2 0x6F3 JUMP JUMPDEST POP POP POP SWAP2 POP POP PUSH5 0x2540BE400 DUP2 PUSH2 0x36A SWAP2 SWAP1 PUSH2 0x76E JUMP JUMPDEST SWAP3 POP POP POP SWAP1 JUMP JUMPDEST PUSH1 0x0 DUP1 REVERT JUMPDEST PUSH1 0x0 PUSH20 0xFFFFFFFFFFFFFFFFFFFFFFFFFFFFFFFFFFFFFFFF DUP3 AND SWAP1 POP SWAP2 SWAP1 POP JUMP JUMPDEST PUSH1 0x0 PUSH2 0x3A1 DUP3 PUSH2 0x376 JUMP JUMPDEST SWAP1 POP SWAP2 SWAP1 POP JUMP JUMPDEST PUSH2 0x3B1 DUP2 PUSH2 0x396 JUMP JUMPDEST DUP2 EQ PUSH2 0x3BC JUMPI PUSH1 0x0 DUP1 REVERT JUMPDEST POP JUMP JUMPDEST PUSH1 0x0 DUP2 CALLDATALOAD SWAP1 POP PUSH2 0x3CE DUP2 PUSH2 0x3A8 JUMP JUMPDEST SWAP3 SWAP2 POP POP JUMP JUMPDEST PUSH1 0x0 PUSH1 0x20 DUP3 DUP5 SUB SLT ISZERO PUSH2 0x3EA JUMPI PUSH2 0x3E9 PUSH2 0x371 JUMP JUMPDEST JUMPDEST PUSH1 0x0 PUSH2 0x3F8 DUP5 DUP3 DUP6 ADD PUSH2 0x3BF JUMP JUMPDEST SWAP2 POP POP SWAP3 SWAP2 POP POP JUMP JUMPDEST PUSH1 0x0 DUP2 SWAP1 POP SWAP2 SWAP1 POP JUMP JUMPDEST PUSH2 0x414 DUP2 PUSH2 0x401 JUMP JUMPDEST DUP3 MSTORE POP POP JUMP JUMPDEST PUSH1 0x0 PUSH1 0x20 DUP3 ADD SWAP1 POP PUSH2 0x42F PUSH1 0x0 DUP4 ADD DUP5 PUSH2 0x40B JUMP JUMPDEST SWAP3 SWAP2 POP POP JUMP JUMPDEST PUSH2 0x43E DUP2 PUSH2 0x401 JUMP JUMPDEST DUP2 EQ PUSH2 0x449 JUMPI PUSH1 0x0 DUP1 REVERT JUMPDEST POP JUMP JUMPDEST PUSH1 0x0 DUP2 CALLDATALOAD SWAP1 POP PUSH2 0x45B DUP2 PUSH2 0x435 JUMP JUMPDEST SWAP3 SWAP2 POP POP JUMP JUMPDEST PUSH1 0x0 PUSH1 0x20 DUP3 DUP5 SUB SLT ISZERO PUSH2 0x477 JUMPI PUSH2 0x476 PUSH2 0x371 JUMP JUMPDEST JUMPDEST PUSH1 0x0 PUSH2 0x485 DUP5 DUP3 DUP6 ADD PUSH2 0x44C JUMP JUMPDEST SWAP2 POP POP SWAP3 SWAP2 POP POP JUMP JUMPDEST PUSH2 0x497 DUP2 PUSH2 0x396 JUMP JUMPDEST DUP3 MSTORE POP POP JUMP JUMPDEST PUSH1 0x0 PUSH1 0x20 DUP3 ADD SWAP1 POP PUSH2 0x4B2 PUSH1 0x0 DUP4 ADD DUP5 PUSH2 0x48E JUMP JUMPDEST SWAP3 SWAP2 POP POP JUMP JUMPDEST PUSH32 0x4E487B7100000000000000000000000000000000000000000000000000000000 PUSH1 0x0 MSTORE PUSH1 0x11 PUSH1 0x4 MSTORE PUSH1 0x24 PUSH1 0x0 REVERT JUMPDEST PUSH1 0x0 PUSH2 0x4F2 DUP3 PUSH2 0x401 JUMP JUMPDEST SWAP2 POP PUSH32 0xFFFFFFFFFFFFFFFFFFFFFFFFFFFFFFFFFFFFFFFFFFFFFFFFFFFFFFFFFFFFFFFF DUP3 SUB PUSH2 0x524 JUMPI PUSH2 0x523 PUSH2 0x4B8 JUMP JUMPDEST JUMPDEST PUSH1 0x1 DUP3 ADD SWAP1 POP SWAP2 SWAP1 POP JUMP JUMPDEST PUSH1 0x0 DUP3 DUP3 MSTORE PUSH1 0x20 DUP3 ADD SWAP1 POP SWAP3 SWAP2 POP POP JUMP JUMPDEST PUSH32 0x5072696365206973206C6F7765722C2073656E64206D6F726500000000000000 PUSH1 0x0 DUP3 ADD MSTORE POP JUMP JUMPDEST PUSH1 0x0 PUSH2 0x576 PUSH1 0x19 DUP4 PUSH2 0x52F JUMP JUMPDEST SWAP2 POP PUSH2 0x581 DUP3 PUSH2 0x540 JUMP JUMPDEST PUSH1 0x20 DUP3 ADD SWAP1 POP SWAP2 SWAP1 POP JUMP JUMPDEST PUSH1 0x0 PUSH1 0x20 DUP3 ADD SWAP1 POP DUP2 DUP2 SUB PUSH1 0x0 DUP4 ADD MSTORE PUSH2 0x5A5 DUP2 PUSH2 0x569 JUMP JUMPDEST SWAP1 POP SWAP2 SWAP1 POP JUMP JUMPDEST PUSH1 0x0 PUSH2 0x5B7 DUP3 PUSH2 0x401 JUMP JUMPDEST SWAP2 POP PUSH2 0x5C2 DUP4 PUSH2 0x401 JUMP JUMPDEST SWAP3 POP DUP2 PUSH32 0xFFFFFFFFFFFFFFFFFFFFFFFFFFFFFFFFFFFFFFFFFFFFFFFFFFFFFFFFFFFFFFFF DIV DUP4 GT DUP3 ISZERO ISZERO AND ISZERO PUSH2 0x5FB JUMPI PUSH2 0x5FA PUSH2 0x4B8 JUMP JUMPDEST JUMPDEST DUP3 DUP3 MUL SWAP1 POP SWAP3 SWAP2 POP POP JUMP JUMPDEST PUSH32 0x4E487B7100000000000000000000000000000000000000000000000000000000 PUSH1 0x0 MSTORE PUSH1 0x12 PUSH1 0x4 MSTORE PUSH1 0x24 PUSH1 0x0 REVERT JUMPDEST PUSH1 0x0 PUSH2 0x640 DUP3 PUSH2 0x401 JUMP JUMPDEST SWAP2 POP PUSH2 0x64B DUP4 PUSH2 0x401 JUMP JUMPDEST SWAP3 POP DUP3 PUSH2 0x65B JUMPI PUSH2 0x65A PUSH2 0x606 JUMP JUMPDEST JUMPDEST DUP3 DUP3 DIV SWAP1 POP SWAP3 SWAP2 POP POP JUMP JUMPDEST PUSH1 0x0 PUSH10 0xFFFFFFFFFFFFFFFFFFFF DUP3 AND SWAP1 POP SWAP2 SWAP1 POP JUMP JUMPDEST PUSH2 0x685 DUP2 PUSH2 0x666 JUMP JUMPDEST DUP2 EQ PUSH2 0x690 JUMPI PUSH1 0x0 DUP1 REVERT JUMPDEST POP JUMP JUMPDEST PUSH1 0x0 DUP2 MLOAD SWAP1 POP PUSH2 0x6A2 DUP2 PUSH2 0x67C JUMP JUMPDEST SWAP3 SWAP2 POP POP JUMP JUMPDEST PUSH1 0x0 DUP2 SWAP1 POP SWAP2 SWAP1 POP JUMP JUMPDEST PUSH2 0x6BB DUP2 PUSH2 0x6A8 JUMP JUMPDEST DUP2 EQ PUSH2 0x6C6 JUMPI PUSH1 0x0 DUP1 REVERT JUMPDEST POP JUMP JUMPDEST PUSH1 0x0 DUP2 MLOAD SWAP1 POP PUSH2 0x6D8 DUP2 PUSH2 0x6B2 JUMP JUMPDEST SWAP3 SWAP2 POP POP JUMP JUMPDEST PUSH1 0x0 DUP2 MLOAD SWAP1 POP PUSH2 0x6ED DUP2 PUSH2 0x435 JUMP JUMPDEST SWAP3 SWAP2 POP POP JUMP JUMPDEST PUSH1 0x0 DUP1 PUSH1 0x0 DUP1 PUSH1 0x0 PUSH1 0xA0 DUP7 DUP9 SUB SLT ISZERO PUSH2 0x70F JUMPI PUSH2 0x70E PUSH2 0x371 JUMP JUMPDEST JUMPDEST PUSH1 0x0 PUSH2 0x71D DUP9 DUP3 DUP10 ADD PUSH2 0x693 JUMP JUMPDEST SWAP6 POP POP PUSH1 0x20 PUSH2 0x72E DUP9 DUP3 DUP10 ADD PUSH2 0x6C9 JUMP JUMPDEST SWAP5 POP POP PUSH1 0x40 PUSH2 0x73F DUP9 DUP3 DUP10 ADD PUSH2 0x6DE JUMP JUMPDEST SWAP4 POP POP PUSH1 0x60 PUSH2 0x750 DUP9 DUP3 DUP10 ADD PUSH2 0x6DE JUMP JUMPDEST SWAP3 POP POP PUSH1 0x80 PUSH2 0x761 DUP9 DUP3 DUP10 ADD PUSH2 0x693 JUMP JUMPDEST SWAP2 POP POP SWAP3 SWAP6 POP SWAP3 SWAP6 SWAP1 SWAP4 POP JUMP JUMPDEST PUSH1 0x0 PUSH2 0x779 DUP3 PUSH2 0x6A8 JUMP JUMPDEST SWAP2 POP PUSH2 0x784 DUP4 PUSH2 0x6A8 JUMP JUMPDEST SWAP3 POP DUP3 PUSH32 0x7FFFFFFFFFFFFFFFFFFFFFFFFFFFFFFFFFFFFFFFFFFFFFFFFFFFFFFFFFFFFFFF DIV DUP3 GT PUSH1 0x0 DUP5 SGT PUSH1 0x0 DUP5 SGT AND AND ISZERO PUSH2 0x7C3 JUMPI PUSH2 0x7C2 PUSH2 0x4B8 JUMP JUMPDEST JUMPDEST DUP2 PUSH32 0x8000000000000000000000000000000000000000000000000000000000000000 SDIV DUP4 SLT PUSH1 0x0 DUP5 SLT PUSH1 0x0 DUP5 SGT AND AND ISZERO PUSH2 0x800 JUMPI PUSH2 0x7FF PUSH2 0x4B8 JUMP JUMPDEST JUMPDEST DUP3 PUSH32 0x8000000000000000000000000000000000000000000000000000000000000000 SDIV DUP3 SLT PUSH1 0x0 DUP5 SGT PUSH1 0x0 DUP5 SLT AND AND ISZERO PUSH2 0x83D JUMPI PUSH2 0x83C PUSH2 0x4B8 JUMP JUMPDEST JUMPDEST DUP3 PUSH32 0x7FFFFFFFFFFFFFFFFFFFFFFFFFFFFFFFFFFFFFFFFFFFFFFFFFFFFFFFFFFFFFFF SDIV DUP3 SLT PUSH1 0x0 DUP5 SLT PUSH1 0x0 DUP5 SLT AND AND ISZERO PUSH2 0x87A JUMPI PUSH2 0x879 PUSH2 0x4B8 JUMP JUMPDEST JUMPDEST DUP3 DUP3 MUL SWAP1 POP SWAP3 SWAP2 POP POP JUMP INVALID LOG2 PUSH5 0x6970667358 0x22 SLT KECCAK256 JUMPDEST ADDRESS 0xAF 0xAB AND PUSH25 0xE694D29DCABEBCD0CE2616369428F67A5546CBD3A467E983C7 0x2B PUSH5 0x736F6C6343 STOP ADDMOD 0xE STOP CALLER "
				},
				"gasEstimates": {
					"creation": {
						"codeDepositCost": "447000",
						"executionCost": "22586",
						"totalCost": "469586"
					},
					"external": {
						"addressToAmountFunded(address)": "2814",
						"fund()": "infinite",
						"funders(uint256)": "5022",
						"minUsd()": "2451",
						"withdraw()": "infinite"
					}
				},
				"methodIdentifiers": {
					"addressToAmountFunded(address)": "3e47d6f3",
					"fund()": "b60d4288",
					"funders(uint256)": "dc0d3dff",
					"minUsd()": "51b80e41",
					"withdraw()": "3ccfd60b"
				}
			},
			"storageLayout": {
				"storage": [
					{
						"astId": 56,
						"contract": "fundMe/FundMe.sol:FundMe",
						"label": "minUsd",
						"offset": 0,
						"slot": "0",
						"type": "t_uint256"
					},
					{
						"astId": 59,
						"contract": "fundMe/FundMe.sol:FundMe",
						"label": "funders",
						"offset": 0,
						"slot": "1",
						"type": "t_array(t_address)dyn_storage"
					},
					{
						"astId": 63,
						"contract": "fundMe/FundMe.sol:FundMe",
						"label": "addressToAmountFunded",
						"offset": 0,
						"slot": "2",
						"type": "t_mapping(t_address,t_uint256)"
					}
				],
				"types": {
					"t_address": {
						"encoding": "inplace",
						"label": "address",
						"numberOfBytes": "20"
					},
					"t_array(t_address)dyn_storage": {
						"base": "t_address",
						"encoding": "dynamic_array",
						"label": "address[]",
						"numberOfBytes": "32"
					},
					"t_mapping(t_address,t_uint256)": {
						"encoding": "mapping",
						"key": "t_address",
						"label": "mapping(address => uint256)",
						"numberOfBytes": "32",
						"value": "t_uint256"
					},
					"t_uint256": {
						"encoding": "inplace",
						"label": "uint256",
						"numberOfBytes": "32"
					}
				}
			},
			"userdoc": {
				"kind": "user",
				"methods": {},
				"version": 1
			}
		}
	}
}