{
	"fundMe/FundMe.sol": {
		"FundMe": {
			"abi": [
				{
					"inputs": [
						{
							"internalType": "address",
							"name": "",
							"type": "address"
						}
					],
					"name": "addressToAmountFunded",
					"outputs": [
						{
							"internalType": "uint256",
							"name": "",
							"type": "uint256"
						}
					],
					"stateMutability": "view",
					"type": "function"
				},
				{
					"inputs": [],
					"name": "fund",
					"outputs": [],
					"stateMutability": "payable",
					"type": "function"
				},
				{
					"inputs": [
						{
							"internalType": "uint256",
							"name": "",
							"type": "uint256"
						}
					],
					"name": "funders",
					"outputs": [
						{
							"internalType": "address",
							"name": "",
							"type": "address"
						}
					],
					"stateMutability": "view",
					"type": "function"
				},
				{
					"inputs": [],
					"name": "minUsd",
					"outputs": [
						{
							"internalType": "uint256",
							"name": "",
							"type": "uint256"
						}
					],
					"stateMutability": "view",
					"type": "function"
				}
			],
			"devdoc": {
				"kind": "dev",
				"methods": {},
				"version": 1
			},
			"evm": {
				"assembly": "    /* \"fundMe/FundMe.sol\":89:600  contract FundMe {... */\n  mstore(0x40, 0x80)\n    /* \"fundMe/FundMe.sol\":178:187  50 * 1e18 */\n  0x02b5e3af16b1880000\n    /* \"fundMe/FundMe.sol\":156:187  uint public  minUsd = 50 * 1e18 */\n  0x00\n  sstore\n    /* \"fundMe/FundMe.sol\":89:600  contract FundMe {... */\n  callvalue\n  dup1\n  iszero\n  tag_1\n  jumpi\n  0x00\n  dup1\n  revert\ntag_1:\n  pop\n  dataSize(sub_0)\n  dup1\n  dataOffset(sub_0)\n  0x00\n  codecopy\n  0x00\n  return\nstop\n\nsub_0: assembly {\n        /* \"fundMe/FundMe.sol\":89:600  contract FundMe {... */\n      mstore(0x40, 0x80)\n      jumpi(tag_1, lt(calldatasize, 0x04))\n      shr(0xe0, calldataload(0x00))\n      dup1\n      0x3e47d6f3\n      eq\n      tag_2\n      jumpi\n      dup1\n      0x51b80e41\n      eq\n      tag_3\n      jumpi\n      dup1\n      0xb60d4288\n      eq\n      tag_4\n      jumpi\n      dup1\n      0xdc0d3dff\n      eq\n      tag_5\n      jumpi\n    tag_1:\n      0x00\n      dup1\n      revert\n        /* \"fundMe/FundMe.sol\":224:277  mapping(address => uint) public addressToAmountFunded */\n    tag_2:\n      callvalue\n      dup1\n      iszero\n      tag_6\n      jumpi\n      0x00\n      dup1\n      revert\n    tag_6:\n      pop\n      tag_7\n      0x04\n      dup1\n      calldatasize\n      sub\n      dup2\n      add\n      swap1\n      tag_8\n      swap2\n      swap1\n      tag_9\n      jump\t// in\n    tag_8:\n      tag_10\n      jump\t// in\n    tag_7:\n      mload(0x40)\n      tag_11\n      swap2\n      swap1\n      tag_12\n      jump\t// in\n    tag_11:\n      mload(0x40)\n      dup1\n      swap2\n      sub\n      swap1\n      return\n        /* \"fundMe/FundMe.sol\":156:187  uint public  minUsd = 50 * 1e18 */\n    tag_3:\n      callvalue\n      dup1\n      iszero\n      tag_13\n      jumpi\n      0x00\n      dup1\n      revert\n    tag_13:\n      pop\n      tag_14\n      tag_15\n      jump\t// in\n    tag_14:\n      mload(0x40)\n      tag_16\n      swap2\n      swap1\n      tag_12\n      jump\t// in\n    tag_16:\n      mload(0x40)\n      dup1\n      swap2\n      sub\n      swap1\n      return\n        /* \"fundMe/FundMe.sol\":284:591  function fund() public payable {... */\n    tag_4:\n      tag_17\n      tag_18\n      jump\t// in\n    tag_17:\n      stop\n        /* \"fundMe/FundMe.sol\":194:218  address[] public funders */\n    tag_5:\n      callvalue\n      dup1\n      iszero\n      tag_19\n      jumpi\n      0x00\n      dup1\n      revert\n    tag_19:\n      pop\n      tag_20\n      0x04\n      dup1\n      calldatasize\n      sub\n      dup2\n      add\n      swap1\n      tag_21\n      swap2\n      swap1\n      tag_22\n      jump\t// in\n    tag_21:\n      tag_23\n      jump\t// in\n    tag_20:\n      mload(0x40)\n      tag_24\n      swap2\n      swap1\n      tag_25\n      jump\t// in\n    tag_24:\n      mload(0x40)\n      dup1\n      swap2\n      sub\n      swap1\n      return\n        /* \"fundMe/FundMe.sol\":224:277  mapping(address => uint) public addressToAmountFunded */\n    tag_10:\n      mstore(0x20, 0x02)\n      dup1\n      0x00\n      mstore\n      keccak256(0x00, 0x40)\n      0x00\n      swap2\n      pop\n      swap1\n      pop\n      sload\n      dup2\n      jump\t// out\n        /* \"fundMe/FundMe.sol\":156:187  uint public  minUsd = 50 * 1e18 */\n    tag_15:\n      sload(0x00)\n      dup2\n      jump\t// out\n        /* \"fundMe/FundMe.sol\":284:591  function fund() public payable {... */\n    tag_18:\n        /* \"fundMe/FundMe.sol\":459:465  minUsd */\n      sload(0x00)\n        /* \"fundMe/FundMe.sol\":426:455  msg.value.getConversionRate() */\n      tag_27\n        /* \"fundMe/FundMe.sol\":426:435  msg.value */\n      callvalue\n        /* \"fundMe/FundMe.sol\":426:453  msg.value.getConversionRate */\n      tag_28\n        /* \"fundMe/FundMe.sol\":426:455  msg.value.getConversionRate() */\n      jump\t// in\n    tag_27:\n        /* \"fundMe/FundMe.sol\":426:465  msg.value.getConversionRate() >= minUsd */\n      lt\n      iszero\n        /* \"fundMe/FundMe.sol\":418:495  require(msg.value.getConversionRate() >= minUsd, \"Price is lower, send more\") */\n      tag_29\n      jumpi\n      mload(0x40)\n      0x08c379a000000000000000000000000000000000000000000000000000000000\n      dup2\n      mstore\n      0x04\n      add\n      tag_30\n      swap1\n      tag_31\n      jump\t// in\n    tag_30:\n      mload(0x40)\n      dup1\n      swap2\n      sub\n      swap1\n      revert\n    tag_29:\n        /* \"fundMe/FundMe.sol\":505:512  funders */\n      0x01\n        /* \"fundMe/FundMe.sol\":518:528  msg.sender */\n      caller\n        /* \"fundMe/FundMe.sol\":505:529  funders.push(msg.sender) */\n      swap1\n      dup1\n      0x01\n      dup2\n      sload\n      add\n      dup1\n      dup3\n      sstore\n      dup1\n      swap2\n      pop\n      pop\n      0x01\n      swap1\n      sub\n      swap1\n      0x00\n      mstore\n      keccak256(0x00, 0x20)\n      add\n      0x00\n      swap1\n      swap2\n      swap1\n      swap2\n      swap1\n      swap2\n      0x0100\n      exp\n      dup2\n      sload\n      dup2\n      0xffffffffffffffffffffffffffffffffffffffff\n      mul\n      not\n      and\n      swap1\n      dup4\n      0xffffffffffffffffffffffffffffffffffffffff\n      and\n      mul\n      or\n      swap1\n      sstore\n      pop\n        /* \"fundMe/FundMe.sol\":575:584  msg.value */\n      callvalue\n        /* \"fundMe/FundMe.sol\":539:560  addressToAmountFunded */\n      0x02\n        /* \"fundMe/FundMe.sol\":539:572  addressToAmountFunded[msg.sender] */\n      0x00\n        /* \"fundMe/FundMe.sol\":561:571  msg.sender */\n      caller\n        /* \"fundMe/FundMe.sol\":539:572  addressToAmountFunded[msg.sender] */\n      0xffffffffffffffffffffffffffffffffffffffff\n      and\n      0xffffffffffffffffffffffffffffffffffffffff\n      and\n      dup2\n      mstore\n      0x20\n      add\n      swap1\n      dup2\n      mstore\n      0x20\n      add\n      0x00\n      keccak256\n        /* \"fundMe/FundMe.sol\":539:584  addressToAmountFunded[msg.sender] = msg.value */\n      dup2\n      swap1\n      sstore\n      pop\n        /* \"fundMe/FundMe.sol\":284:591  function fund() public payable {... */\n      jump\t// out\n        /* \"fundMe/FundMe.sol\":194:218  address[] public funders */\n    tag_23:\n      0x01\n      dup2\n      dup2\n      sload\n      dup2\n      lt\n      tag_33\n      jumpi\n      0x00\n      dup1\n      revert\n    tag_33:\n      swap1\n      0x00\n      mstore\n      keccak256(0x00, 0x20)\n      add\n      0x00\n      swap2\n      pop\n      sload\n      swap1\n      0x0100\n      exp\n      swap1\n      div\n      0xffffffffffffffffffffffffffffffffffffffff\n      and\n      dup2\n      jump\t// out\n        /* \"fundMe/PriceConverter.sol\":740:956  function getConversionRate(uint _ethAmount) internal view returns(uint) {... */\n    tag_28:\n        /* \"fundMe/PriceConverter.sol\":806:810  uint */\n      0x00\n        /* \"fundMe/PriceConverter.sol\":822:839  uint currEthPrice */\n      dup1\n        /* \"fundMe/PriceConverter.sol\":842:852  getPrice() */\n      tag_36\n        /* \"fundMe/PriceConverter.sol\":842:850  getPrice */\n      tag_37\n        /* \"fundMe/PriceConverter.sol\":842:852  getPrice() */\n      jump\t// in\n    tag_36:\n        /* \"fundMe/PriceConverter.sol\":822:852  uint currEthPrice = getPrice() */\n      swap1\n      pop\n        /* \"fundMe/PriceConverter.sol\":862:881  uint ethAmountToUSD */\n      0x00\n        /* \"fundMe/PriceConverter.sol\":914:918  1e18 */\n      0x0de0b6b3a7640000\n        /* \"fundMe/PriceConverter.sol\":900:910  _ethAmount */\n      dup5\n        /* \"fundMe/PriceConverter.sol\":885:897  currEthPrice */\n      dup4\n        /* \"fundMe/PriceConverter.sol\":885:910  currEthPrice * _ethAmount */\n      tag_38\n      swap2\n      swap1\n      tag_39\n      jump\t// in\n    tag_38:\n        /* \"fundMe/PriceConverter.sol\":884:918  (currEthPrice * _ethAmount) / 1e18 */\n      tag_40\n      swap2\n      swap1\n      tag_41\n      jump\t// in\n    tag_40:\n        /* \"fundMe/PriceConverter.sol\":862:918  uint ethAmountToUSD = (currEthPrice * _ethAmount) / 1e18 */\n      swap1\n      pop\n        /* \"fundMe/PriceConverter.sol\":935:949  ethAmountToUSD */\n      dup1\n        /* \"fundMe/PriceConverter.sol\":928:949  return ethAmountToUSD */\n      swap3\n      pop\n      pop\n      pop\n        /* \"fundMe/PriceConverter.sol\":740:956  function getConversionRate(uint _ethAmount) internal view returns(uint) {... */\n      swap2\n      swap1\n      pop\n      jump\t// out\n        /* \"fundMe/PriceConverter.sol\":240:734  function getPrice()  internal view  returns (uint)  {... */\n    tag_37:\n        /* \"fundMe/PriceConverter.sol\":285:289  uint */\n      0x00\n        /* \"fundMe/PriceConverter.sol\":302:333  AggregatorV3Interface priceFeed */\n      dup1\n        /* \"fundMe/PriceConverter.sol\":358:400  0x8A753747A1Fa494EC906cE90E9f37563A8AF630e */\n      0x8a753747a1fa494ec906ce90e9f37563a8af630e\n        /* \"fundMe/PriceConverter.sol\":302:401  AggregatorV3Interface priceFeed = AggregatorV3Interface(0x8A753747A1Fa494EC906cE90E9f37563A8AF630e) */\n      swap1\n      pop\n        /* \"fundMe/PriceConverter.sol\":456:465  int price */\n      0x00\n        /* \"fundMe/PriceConverter.sol\":582:591  priceFeed */\n      dup2\n        /* \"fundMe/PriceConverter.sol\":582:607  priceFeed.latestRoundData */\n      0xffffffffffffffffffffffffffffffffffffffff\n      and\n      0xfeaf968c\n        /* \"fundMe/PriceConverter.sol\":582:609  priceFeed.latestRoundData() */\n      mload(0x40)\n      dup2\n      0xffffffff\n      and\n      0xe0\n      shl\n      dup2\n      mstore\n      0x04\n      add\n      0xa0\n      mload(0x40)\n      dup1\n      dup4\n      sub\n      dup2\n      dup7\n      gas\n      staticcall\n      iszero\n      dup1\n      iszero\n      tag_44\n      jumpi\n      returndatasize\n      0x00\n      dup1\n      returndatacopy\n      revert(0x00, returndatasize)\n    tag_44:\n      pop\n      pop\n      pop\n      pop\n      mload(0x40)\n      returndatasize\n      not(0x1f)\n      0x1f\n      dup3\n      add\n      and\n      dup3\n      add\n      dup1\n      0x40\n      mstore\n      pop\n      dup2\n      add\n      swap1\n      tag_45\n      swap2\n      swap1\n      tag_46\n      jump\t// in\n    tag_45:\n        /* \"fundMe/PriceConverter.sol\":410:609  (... */\n      pop\n      pop\n      pop\n      swap2\n      pop\n      pop\n        /* \"fundMe/PriceConverter.sol\":721:725  1e10 */\n      0x02540be400\n        /* \"fundMe/PriceConverter.sol\":713:718  price */\n      dup2\n        /* \"fundMe/PriceConverter.sol\":713:725  price * 1e10 */\n      tag_47\n      swap2\n      swap1\n      tag_48\n      jump\t// in\n    tag_47:\n        /* \"fundMe/PriceConverter.sol\":698:726  return uint256(price * 1e10) */\n      swap3\n      pop\n      pop\n      pop\n        /* \"fundMe/PriceConverter.sol\":240:734  function getPrice()  internal view  returns (uint)  {... */\n      swap1\n      jump\t// out\n        /* \"#utility.yul\":88:205   */\n    tag_50:\n        /* \"#utility.yul\":197:198   */\n      0x00\n        /* \"#utility.yul\":194:195   */\n      dup1\n        /* \"#utility.yul\":187:199   */\n      revert\n        /* \"#utility.yul\":334:460   */\n    tag_52:\n        /* \"#utility.yul\":371:378   */\n      0x00\n        /* \"#utility.yul\":411:453   */\n      0xffffffffffffffffffffffffffffffffffffffff\n        /* \"#utility.yul\":404:409   */\n      dup3\n        /* \"#utility.yul\":400:454   */\n      and\n        /* \"#utility.yul\":389:454   */\n      swap1\n      pop\n        /* \"#utility.yul\":334:460   */\n      swap2\n      swap1\n      pop\n      jump\t// out\n        /* \"#utility.yul\":466:562   */\n    tag_53:\n        /* \"#utility.yul\":503:510   */\n      0x00\n        /* \"#utility.yul\":532:556   */\n      tag_79\n        /* \"#utility.yul\":550:555   */\n      dup3\n        /* \"#utility.yul\":532:556   */\n      tag_52\n      jump\t// in\n    tag_79:\n        /* \"#utility.yul\":521:556   */\n      swap1\n      pop\n        /* \"#utility.yul\":466:562   */\n      swap2\n      swap1\n      pop\n      jump\t// out\n        /* \"#utility.yul\":568:690   */\n    tag_54:\n        /* \"#utility.yul\":641:665   */\n      tag_81\n        /* \"#utility.yul\":659:664   */\n      dup2\n        /* \"#utility.yul\":641:665   */\n      tag_53\n      jump\t// in\n    tag_81:\n        /* \"#utility.yul\":634:639   */\n      dup2\n        /* \"#utility.yul\":631:666   */\n      eq\n        /* \"#utility.yul\":621:684   */\n      tag_82\n      jumpi\n        /* \"#utility.yul\":680:681   */\n      0x00\n        /* \"#utility.yul\":677:678   */\n      dup1\n        /* \"#utility.yul\":670:682   */\n      revert\n        /* \"#utility.yul\":621:684   */\n    tag_82:\n        /* \"#utility.yul\":568:690   */\n      pop\n      jump\t// out\n        /* \"#utility.yul\":696:835   */\n    tag_55:\n        /* \"#utility.yul\":742:747   */\n      0x00\n        /* \"#utility.yul\":780:786   */\n      dup2\n        /* \"#utility.yul\":767:787   */\n      calldataload\n        /* \"#utility.yul\":758:787   */\n      swap1\n      pop\n        /* \"#utility.yul\":796:829   */\n      tag_84\n        /* \"#utility.yul\":823:828   */\n      dup2\n        /* \"#utility.yul\":796:829   */\n      tag_54\n      jump\t// in\n    tag_84:\n        /* \"#utility.yul\":696:835   */\n      swap3\n      swap2\n      pop\n      pop\n      jump\t// out\n        /* \"#utility.yul\":841:1170   */\n    tag_9:\n        /* \"#utility.yul\":900:906   */\n      0x00\n        /* \"#utility.yul\":949:951   */\n      0x20\n        /* \"#utility.yul\":937:946   */\n      dup3\n        /* \"#utility.yul\":928:935   */\n      dup5\n        /* \"#utility.yul\":924:947   */\n      sub\n        /* \"#utility.yul\":920:952   */\n      slt\n        /* \"#utility.yul\":917:1036   */\n      iszero\n      tag_86\n      jumpi\n        /* \"#utility.yul\":955:1034   */\n      tag_87\n      tag_50\n      jump\t// in\n    tag_87:\n        /* \"#utility.yul\":917:1036   */\n    tag_86:\n        /* \"#utility.yul\":1075:1076   */\n      0x00\n        /* \"#utility.yul\":1100:1153   */\n      tag_88\n        /* \"#utility.yul\":1145:1152   */\n      dup5\n        /* \"#utility.yul\":1136:1142   */\n      dup3\n        /* \"#utility.yul\":1125:1134   */\n      dup6\n        /* \"#utility.yul\":1121:1143   */\n      add\n        /* \"#utility.yul\":1100:1153   */\n      tag_55\n      jump\t// in\n    tag_88:\n        /* \"#utility.yul\":1090:1153   */\n      swap2\n      pop\n        /* \"#utility.yul\":1046:1163   */\n      pop\n        /* \"#utility.yul\":841:1170   */\n      swap3\n      swap2\n      pop\n      pop\n      jump\t// out\n        /* \"#utility.yul\":1176:1253   */\n    tag_56:\n        /* \"#utility.yul\":1213:1220   */\n      0x00\n        /* \"#utility.yul\":1242:1247   */\n      dup2\n        /* \"#utility.yul\":1231:1247   */\n      swap1\n      pop\n        /* \"#utility.yul\":1176:1253   */\n      swap2\n      swap1\n      pop\n      jump\t// out\n        /* \"#utility.yul\":1259:1377   */\n    tag_57:\n        /* \"#utility.yul\":1346:1370   */\n      tag_91\n        /* \"#utility.yul\":1364:1369   */\n      dup2\n        /* \"#utility.yul\":1346:1370   */\n      tag_56\n      jump\t// in\n    tag_91:\n        /* \"#utility.yul\":1341:1344   */\n      dup3\n        /* \"#utility.yul\":1334:1371   */\n      mstore\n        /* \"#utility.yul\":1259:1377   */\n      pop\n      pop\n      jump\t// out\n        /* \"#utility.yul\":1383:1605   */\n    tag_12:\n        /* \"#utility.yul\":1476:1480   */\n      0x00\n        /* \"#utility.yul\":1514:1516   */\n      0x20\n        /* \"#utility.yul\":1503:1512   */\n      dup3\n        /* \"#utility.yul\":1499:1517   */\n      add\n        /* \"#utility.yul\":1491:1517   */\n      swap1\n      pop\n        /* \"#utility.yul\":1527:1598   */\n      tag_93\n        /* \"#utility.yul\":1595:1596   */\n      0x00\n        /* \"#utility.yul\":1584:1593   */\n      dup4\n        /* \"#utility.yul\":1580:1597   */\n      add\n        /* \"#utility.yul\":1571:1577   */\n      dup5\n        /* \"#utility.yul\":1527:1598   */\n      tag_57\n      jump\t// in\n    tag_93:\n        /* \"#utility.yul\":1383:1605   */\n      swap3\n      swap2\n      pop\n      pop\n      jump\t// out\n        /* \"#utility.yul\":1611:1733   */\n    tag_58:\n        /* \"#utility.yul\":1684:1708   */\n      tag_95\n        /* \"#utility.yul\":1702:1707   */\n      dup2\n        /* \"#utility.yul\":1684:1708   */\n      tag_56\n      jump\t// in\n    tag_95:\n        /* \"#utility.yul\":1677:1682   */\n      dup2\n        /* \"#utility.yul\":1674:1709   */\n      eq\n        /* \"#utility.yul\":1664:1727   */\n      tag_96\n      jumpi\n        /* \"#utility.yul\":1723:1724   */\n      0x00\n        /* \"#utility.yul\":1720:1721   */\n      dup1\n        /* \"#utility.yul\":1713:1725   */\n      revert\n        /* \"#utility.yul\":1664:1727   */\n    tag_96:\n        /* \"#utility.yul\":1611:1733   */\n      pop\n      jump\t// out\n        /* \"#utility.yul\":1739:1878   */\n    tag_59:\n        /* \"#utility.yul\":1785:1790   */\n      0x00\n        /* \"#utility.yul\":1823:1829   */\n      dup2\n        /* \"#utility.yul\":1810:1830   */\n      calldataload\n        /* \"#utility.yul\":1801:1830   */\n      swap1\n      pop\n        /* \"#utility.yul\":1839:1872   */\n      tag_98\n        /* \"#utility.yul\":1866:1871   */\n      dup2\n        /* \"#utility.yul\":1839:1872   */\n      tag_58\n      jump\t// in\n    tag_98:\n        /* \"#utility.yul\":1739:1878   */\n      swap3\n      swap2\n      pop\n      pop\n      jump\t// out\n        /* \"#utility.yul\":1884:2213   */\n    tag_22:\n        /* \"#utility.yul\":1943:1949   */\n      0x00\n        /* \"#utility.yul\":1992:1994   */\n      0x20\n        /* \"#utility.yul\":1980:1989   */\n      dup3\n        /* \"#utility.yul\":1971:1978   */\n      dup5\n        /* \"#utility.yul\":1967:1990   */\n      sub\n        /* \"#utility.yul\":1963:1995   */\n      slt\n        /* \"#utility.yul\":1960:2079   */\n      iszero\n      tag_100\n      jumpi\n        /* \"#utility.yul\":1998:2077   */\n      tag_101\n      tag_50\n      jump\t// in\n    tag_101:\n        /* \"#utility.yul\":1960:2079   */\n    tag_100:\n        /* \"#utility.yul\":2118:2119   */\n      0x00\n        /* \"#utility.yul\":2143:2196   */\n      tag_102\n        /* \"#utility.yul\":2188:2195   */\n      dup5\n        /* \"#utility.yul\":2179:2185   */\n      dup3\n        /* \"#utility.yul\":2168:2177   */\n      dup6\n        /* \"#utility.yul\":2164:2186   */\n      add\n        /* \"#utility.yul\":2143:2196   */\n      tag_59\n      jump\t// in\n    tag_102:\n        /* \"#utility.yul\":2133:2196   */\n      swap2\n      pop\n        /* \"#utility.yul\":2089:2206   */\n      pop\n        /* \"#utility.yul\":1884:2213   */\n      swap3\n      swap2\n      pop\n      pop\n      jump\t// out\n        /* \"#utility.yul\":2219:2337   */\n    tag_60:\n        /* \"#utility.yul\":2306:2330   */\n      tag_104\n        /* \"#utility.yul\":2324:2329   */\n      dup2\n        /* \"#utility.yul\":2306:2330   */\n      tag_53\n      jump\t// in\n    tag_104:\n        /* \"#utility.yul\":2301:2304   */\n      dup3\n        /* \"#utility.yul\":2294:2331   */\n      mstore\n        /* \"#utility.yul\":2219:2337   */\n      pop\n      pop\n      jump\t// out\n        /* \"#utility.yul\":2343:2565   */\n    tag_25:\n        /* \"#utility.yul\":2436:2440   */\n      0x00\n        /* \"#utility.yul\":2474:2476   */\n      0x20\n        /* \"#utility.yul\":2463:2472   */\n      dup3\n        /* \"#utility.yul\":2459:2477   */\n      add\n        /* \"#utility.yul\":2451:2477   */\n      swap1\n      pop\n        /* \"#utility.yul\":2487:2558   */\n      tag_106\n        /* \"#utility.yul\":2555:2556   */\n      0x00\n        /* \"#utility.yul\":2544:2553   */\n      dup4\n        /* \"#utility.yul\":2540:2557   */\n      add\n        /* \"#utility.yul\":2531:2537   */\n      dup5\n        /* \"#utility.yul\":2487:2558   */\n      tag_60\n      jump\t// in\n    tag_106:\n        /* \"#utility.yul\":2343:2565   */\n      swap3\n      swap2\n      pop\n      pop\n      jump\t// out\n        /* \"#utility.yul\":2571:2740   */\n    tag_61:\n        /* \"#utility.yul\":2655:2666   */\n      0x00\n        /* \"#utility.yul\":2689:2695   */\n      dup3\n        /* \"#utility.yul\":2684:2687   */\n      dup3\n        /* \"#utility.yul\":2677:2696   */\n      mstore\n        /* \"#utility.yul\":2729:2733   */\n      0x20\n        /* \"#utility.yul\":2724:2727   */\n      dup3\n        /* \"#utility.yul\":2720:2734   */\n      add\n        /* \"#utility.yul\":2705:2734   */\n      swap1\n      pop\n        /* \"#utility.yul\":2571:2740   */\n      swap3\n      swap2\n      pop\n      pop\n      jump\t// out\n        /* \"#utility.yul\":2746:2921   */\n    tag_62:\n        /* \"#utility.yul\":2886:2913   */\n      0x5072696365206973206c6f7765722c2073656e64206d6f726500000000000000\n        /* \"#utility.yul\":2882:2883   */\n      0x00\n        /* \"#utility.yul\":2874:2880   */\n      dup3\n        /* \"#utility.yul\":2870:2884   */\n      add\n        /* \"#utility.yul\":2863:2914   */\n      mstore\n        /* \"#utility.yul\":2746:2921   */\n      pop\n      jump\t// out\n        /* \"#utility.yul\":2927:3293   */\n    tag_63:\n        /* \"#utility.yul\":3069:3072   */\n      0x00\n        /* \"#utility.yul\":3090:3157   */\n      tag_110\n        /* \"#utility.yul\":3154:3156   */\n      0x19\n        /* \"#utility.yul\":3149:3152   */\n      dup4\n        /* \"#utility.yul\":3090:3157   */\n      tag_61\n      jump\t// in\n    tag_110:\n        /* \"#utility.yul\":3083:3157   */\n      swap2\n      pop\n        /* \"#utility.yul\":3166:3259   */\n      tag_111\n        /* \"#utility.yul\":3255:3258   */\n      dup3\n        /* \"#utility.yul\":3166:3259   */\n      tag_62\n      jump\t// in\n    tag_111:\n        /* \"#utility.yul\":3284:3286   */\n      0x20\n        /* \"#utility.yul\":3279:3282   */\n      dup3\n        /* \"#utility.yul\":3275:3287   */\n      add\n        /* \"#utility.yul\":3268:3287   */\n      swap1\n      pop\n        /* \"#utility.yul\":2927:3293   */\n      swap2\n      swap1\n      pop\n      jump\t// out\n        /* \"#utility.yul\":3299:3718   */\n    tag_31:\n        /* \"#utility.yul\":3465:3469   */\n      0x00\n        /* \"#utility.yul\":3503:3505   */\n      0x20\n        /* \"#utility.yul\":3492:3501   */\n      dup3\n        /* \"#utility.yul\":3488:3506   */\n      add\n        /* \"#utility.yul\":3480:3506   */\n      swap1\n      pop\n        /* \"#utility.yul\":3552:3561   */\n      dup2\n        /* \"#utility.yul\":3546:3550   */\n      dup2\n        /* \"#utility.yul\":3542:3562   */\n      sub\n        /* \"#utility.yul\":3538:3539   */\n      0x00\n        /* \"#utility.yul\":3527:3536   */\n      dup4\n        /* \"#utility.yul\":3523:3540   */\n      add\n        /* \"#utility.yul\":3516:3563   */\n      mstore\n        /* \"#utility.yul\":3580:3711   */\n      tag_113\n        /* \"#utility.yul\":3706:3710   */\n      dup2\n        /* \"#utility.yul\":3580:3711   */\n      tag_63\n      jump\t// in\n    tag_113:\n        /* \"#utility.yul\":3572:3711   */\n      swap1\n      pop\n        /* \"#utility.yul\":3299:3718   */\n      swap2\n      swap1\n      pop\n      jump\t// out\n        /* \"#utility.yul\":3724:3904   */\n    tag_64:\n        /* \"#utility.yul\":3772:3849   */\n      0x4e487b7100000000000000000000000000000000000000000000000000000000\n        /* \"#utility.yul\":3769:3770   */\n      0x00\n        /* \"#utility.yul\":3762:3850   */\n      mstore\n        /* \"#utility.yul\":3869:3873   */\n      0x11\n        /* \"#utility.yul\":3866:3867   */\n      0x04\n        /* \"#utility.yul\":3859:3874   */\n      mstore\n        /* \"#utility.yul\":3893:3897   */\n      0x24\n        /* \"#utility.yul\":3890:3891   */\n      0x00\n        /* \"#utility.yul\":3883:3898   */\n      revert\n        /* \"#utility.yul\":3910:4258   */\n    tag_39:\n        /* \"#utility.yul\":3950:3957   */\n      0x00\n        /* \"#utility.yul\":3973:3993   */\n      tag_116\n        /* \"#utility.yul\":3991:3992   */\n      dup3\n        /* \"#utility.yul\":3973:3993   */\n      tag_56\n      jump\t// in\n    tag_116:\n        /* \"#utility.yul\":3968:3993   */\n      swap2\n      pop\n        /* \"#utility.yul\":4007:4027   */\n      tag_117\n        /* \"#utility.yul\":4025:4026   */\n      dup4\n        /* \"#utility.yul\":4007:4027   */\n      tag_56\n      jump\t// in\n    tag_117:\n        /* \"#utility.yul\":4002:4027   */\n      swap3\n      pop\n        /* \"#utility.yul\":4195:4196   */\n      dup2\n        /* \"#utility.yul\":4127:4193   */\n      0xffffffffffffffffffffffffffffffffffffffffffffffffffffffffffffffff\n        /* \"#utility.yul\":4123:4197   */\n      div\n        /* \"#utility.yul\":4120:4121   */\n      dup4\n        /* \"#utility.yul\":4117:4198   */\n      gt\n        /* \"#utility.yul\":4112:4113   */\n      dup3\n        /* \"#utility.yul\":4105:4114   */\n      iszero\n        /* \"#utility.yul\":4098:4115   */\n      iszero\n        /* \"#utility.yul\":4094:4199   */\n      and\n        /* \"#utility.yul\":4091:4222   */\n      iszero\n      tag_118\n      jumpi\n        /* \"#utility.yul\":4202:4220   */\n      tag_119\n      tag_64\n      jump\t// in\n    tag_119:\n        /* \"#utility.yul\":4091:4222   */\n    tag_118:\n        /* \"#utility.yul\":4250:4251   */\n      dup3\n        /* \"#utility.yul\":4247:4248   */\n      dup3\n        /* \"#utility.yul\":4243:4252   */\n      mul\n        /* \"#utility.yul\":4232:4252   */\n      swap1\n      pop\n        /* \"#utility.yul\":3910:4258   */\n      swap3\n      swap2\n      pop\n      pop\n      jump\t// out\n        /* \"#utility.yul\":4264:4444   */\n    tag_65:\n        /* \"#utility.yul\":4312:4389   */\n      0x4e487b7100000000000000000000000000000000000000000000000000000000\n        /* \"#utility.yul\":4309:4310   */\n      0x00\n        /* \"#utility.yul\":4302:4390   */\n      mstore\n        /* \"#utility.yul\":4409:4413   */\n      0x12\n        /* \"#utility.yul\":4406:4407   */\n      0x04\n        /* \"#utility.yul\":4399:4414   */\n      mstore\n        /* \"#utility.yul\":4433:4437   */\n      0x24\n        /* \"#utility.yul\":4430:4431   */\n      0x00\n        /* \"#utility.yul\":4423:4438   */\n      revert\n        /* \"#utility.yul\":4450:4635   */\n    tag_41:\n        /* \"#utility.yul\":4490:4491   */\n      0x00\n        /* \"#utility.yul\":4507:4527   */\n      tag_122\n        /* \"#utility.yul\":4525:4526   */\n      dup3\n        /* \"#utility.yul\":4507:4527   */\n      tag_56\n      jump\t// in\n    tag_122:\n        /* \"#utility.yul\":4502:4527   */\n      swap2\n      pop\n        /* \"#utility.yul\":4541:4561   */\n      tag_123\n        /* \"#utility.yul\":4559:4560   */\n      dup4\n        /* \"#utility.yul\":4541:4561   */\n      tag_56\n      jump\t// in\n    tag_123:\n        /* \"#utility.yul\":4536:4561   */\n      swap3\n      pop\n        /* \"#utility.yul\":4580:4581   */\n      dup3\n        /* \"#utility.yul\":4570:4605   */\n      tag_124\n      jumpi\n        /* \"#utility.yul\":4585:4603   */\n      tag_125\n      tag_65\n      jump\t// in\n    tag_125:\n        /* \"#utility.yul\":4570:4605   */\n    tag_124:\n        /* \"#utility.yul\":4627:4628   */\n      dup3\n        /* \"#utility.yul\":4624:4625   */\n      dup3\n        /* \"#utility.yul\":4620:4629   */\n      div\n        /* \"#utility.yul\":4615:4629   */\n      swap1\n      pop\n        /* \"#utility.yul\":4450:4635   */\n      swap3\n      swap2\n      pop\n      pop\n      jump\t// out\n        /* \"#utility.yul\":4641:4746   */\n    tag_66:\n        /* \"#utility.yul\":4677:4684   */\n      0x00\n        /* \"#utility.yul\":4717:4739   */\n      0xffffffffffffffffffff\n        /* \"#utility.yul\":4710:4715   */\n      dup3\n        /* \"#utility.yul\":4706:4740   */\n      and\n        /* \"#utility.yul\":4695:4740   */\n      swap1\n      pop\n        /* \"#utility.yul\":4641:4746   */\n      swap2\n      swap1\n      pop\n      jump\t// out\n        /* \"#utility.yul\":4752:4872   */\n    tag_67:\n        /* \"#utility.yul\":4824:4847   */\n      tag_128\n        /* \"#utility.yul\":4841:4846   */\n      dup2\n        /* \"#utility.yul\":4824:4847   */\n      tag_66\n      jump\t// in\n    tag_128:\n        /* \"#utility.yul\":4817:4822   */\n      dup2\n        /* \"#utility.yul\":4814:4848   */\n      eq\n        /* \"#utility.yul\":4804:4866   */\n      tag_129\n      jumpi\n        /* \"#utility.yul\":4862:4863   */\n      0x00\n        /* \"#utility.yul\":4859:4860   */\n      dup1\n        /* \"#utility.yul\":4852:4864   */\n      revert\n        /* \"#utility.yul\":4804:4866   */\n    tag_129:\n        /* \"#utility.yul\":4752:4872   */\n      pop\n      jump\t// out\n        /* \"#utility.yul\":4878:5019   */\n    tag_68:\n        /* \"#utility.yul\":4934:4939   */\n      0x00\n        /* \"#utility.yul\":4965:4971   */\n      dup2\n        /* \"#utility.yul\":4959:4972   */\n      mload\n        /* \"#utility.yul\":4950:4972   */\n      swap1\n      pop\n        /* \"#utility.yul\":4981:5013   */\n      tag_131\n        /* \"#utility.yul\":5007:5012   */\n      dup2\n        /* \"#utility.yul\":4981:5013   */\n      tag_67\n      jump\t// in\n    tag_131:\n        /* \"#utility.yul\":4878:5019   */\n      swap3\n      swap2\n      pop\n      pop\n      jump\t// out\n        /* \"#utility.yul\":5025:5101   */\n    tag_69:\n        /* \"#utility.yul\":5061:5068   */\n      0x00\n        /* \"#utility.yul\":5090:5095   */\n      dup2\n        /* \"#utility.yul\":5079:5095   */\n      swap1\n      pop\n        /* \"#utility.yul\":5025:5101   */\n      swap2\n      swap1\n      pop\n      jump\t// out\n        /* \"#utility.yul\":5107:5227   */\n    tag_70:\n        /* \"#utility.yul\":5179:5202   */\n      tag_134\n        /* \"#utility.yul\":5196:5201   */\n      dup2\n        /* \"#utility.yul\":5179:5202   */\n      tag_69\n      jump\t// in\n    tag_134:\n        /* \"#utility.yul\":5172:5177   */\n      dup2\n        /* \"#utility.yul\":5169:5203   */\n      eq\n        /* \"#utility.yul\":5159:5221   */\n      tag_135\n      jumpi\n        /* \"#utility.yul\":5217:5218   */\n      0x00\n        /* \"#utility.yul\":5214:5215   */\n      dup1\n        /* \"#utility.yul\":5207:5219   */\n      revert\n        /* \"#utility.yul\":5159:5221   */\n    tag_135:\n        /* \"#utility.yul\":5107:5227   */\n      pop\n      jump\t// out\n        /* \"#utility.yul\":5233:5374   */\n    tag_71:\n        /* \"#utility.yul\":5289:5294   */\n      0x00\n        /* \"#utility.yul\":5320:5326   */\n      dup2\n        /* \"#utility.yul\":5314:5327   */\n      mload\n        /* \"#utility.yul\":5305:5327   */\n      swap1\n      pop\n        /* \"#utility.yul\":5336:5368   */\n      tag_137\n        /* \"#utility.yul\":5362:5367   */\n      dup2\n        /* \"#utility.yul\":5336:5368   */\n      tag_70\n      jump\t// in\n    tag_137:\n        /* \"#utility.yul\":5233:5374   */\n      swap3\n      swap2\n      pop\n      pop\n      jump\t// out\n        /* \"#utility.yul\":5380:5523   */\n    tag_72:\n        /* \"#utility.yul\":5437:5442   */\n      0x00\n        /* \"#utility.yul\":5468:5474   */\n      dup2\n        /* \"#utility.yul\":5462:5475   */\n      mload\n        /* \"#utility.yul\":5453:5475   */\n      swap1\n      pop\n        /* \"#utility.yul\":5484:5517   */\n      tag_139\n        /* \"#utility.yul\":5511:5516   */\n      dup2\n        /* \"#utility.yul\":5484:5517   */\n      tag_58\n      jump\t// in\n    tag_139:\n        /* \"#utility.yul\":5380:5523   */\n      swap3\n      swap2\n      pop\n      pop\n      jump\t// out\n        /* \"#utility.yul\":5529:6500   */\n    tag_46:\n        /* \"#utility.yul\":5632:5638   */\n      0x00\n        /* \"#utility.yul\":5640:5646   */\n      dup1\n        /* \"#utility.yul\":5648:5654   */\n      0x00\n        /* \"#utility.yul\":5656:5662   */\n      dup1\n        /* \"#utility.yul\":5664:5670   */\n      0x00\n        /* \"#utility.yul\":5713:5716   */\n      0xa0\n        /* \"#utility.yul\":5701:5710   */\n      dup7\n        /* \"#utility.yul\":5692:5699   */\n      dup9\n        /* \"#utility.yul\":5688:5711   */\n      sub\n        /* \"#utility.yul\":5684:5717   */\n      slt\n        /* \"#utility.yul\":5681:5801   */\n      iszero\n      tag_141\n      jumpi\n        /* \"#utility.yul\":5720:5799   */\n      tag_142\n      tag_50\n      jump\t// in\n    tag_142:\n        /* \"#utility.yul\":5681:5801   */\n    tag_141:\n        /* \"#utility.yul\":5840:5841   */\n      0x00\n        /* \"#utility.yul\":5865:5928   */\n      tag_143\n        /* \"#utility.yul\":5920:5927   */\n      dup9\n        /* \"#utility.yul\":5911:5917   */\n      dup3\n        /* \"#utility.yul\":5900:5909   */\n      dup10\n        /* \"#utility.yul\":5896:5918   */\n      add\n        /* \"#utility.yul\":5865:5928   */\n      tag_68\n      jump\t// in\n    tag_143:\n        /* \"#utility.yul\":5855:5928   */\n      swap6\n      pop\n        /* \"#utility.yul\":5811:5938   */\n      pop\n        /* \"#utility.yul\":5977:5979   */\n      0x20\n        /* \"#utility.yul\":6003:6066   */\n      tag_144\n        /* \"#utility.yul\":6058:6065   */\n      dup9\n        /* \"#utility.yul\":6049:6055   */\n      dup3\n        /* \"#utility.yul\":6038:6047   */\n      dup10\n        /* \"#utility.yul\":6034:6056   */\n      add\n        /* \"#utility.yul\":6003:6066   */\n      tag_71\n      jump\t// in\n    tag_144:\n        /* \"#utility.yul\":5993:6066   */\n      swap5\n      pop\n        /* \"#utility.yul\":5948:6076   */\n      pop\n        /* \"#utility.yul\":6115:6117   */\n      0x40\n        /* \"#utility.yul\":6141:6205   */\n      tag_145\n        /* \"#utility.yul\":6197:6204   */\n      dup9\n        /* \"#utility.yul\":6188:6194   */\n      dup3\n        /* \"#utility.yul\":6177:6186   */\n      dup10\n        /* \"#utility.yul\":6173:6195   */\n      add\n        /* \"#utility.yul\":6141:6205   */\n      tag_72\n      jump\t// in\n    tag_145:\n        /* \"#utility.yul\":6131:6205   */\n      swap4\n      pop\n        /* \"#utility.yul\":6086:6215   */\n      pop\n        /* \"#utility.yul\":6254:6256   */\n      0x60\n        /* \"#utility.yul\":6280:6344   */\n      tag_146\n        /* \"#utility.yul\":6336:6343   */\n      dup9\n        /* \"#utility.yul\":6327:6333   */\n      dup3\n        /* \"#utility.yul\":6316:6325   */\n      dup10\n        /* \"#utility.yul\":6312:6334   */\n      add\n        /* \"#utility.yul\":6280:6344   */\n      tag_72\n      jump\t// in\n    tag_146:\n        /* \"#utility.yul\":6270:6344   */\n      swap3\n      pop\n        /* \"#utility.yul\":6225:6354   */\n      pop\n        /* \"#utility.yul\":6393:6396   */\n      0x80\n        /* \"#utility.yul\":6420:6483   */\n      tag_147\n        /* \"#utility.yul\":6475:6482   */\n      dup9\n        /* \"#utility.yul\":6466:6472   */\n      dup3\n        /* \"#utility.yul\":6455:6464   */\n      dup10\n        /* \"#utility.yul\":6451:6473   */\n      add\n        /* \"#utility.yul\":6420:6483   */\n      tag_68\n      jump\t// in\n    tag_147:\n        /* \"#utility.yul\":6410:6483   */\n      swap2\n      pop\n        /* \"#utility.yul\":6364:6493   */\n      pop\n        /* \"#utility.yul\":5529:6500   */\n      swap3\n      swap6\n      pop\n      swap3\n      swap6\n      swap1\n      swap4\n      pop\n      jump\t// out\n        /* \"#utility.yul\":6506:7497   */\n    tag_48:\n        /* \"#utility.yul\":6545:6552   */\n      0x00\n        /* \"#utility.yul\":6568:6587   */\n      tag_149\n        /* \"#utility.yul\":6585:6586   */\n      dup3\n        /* \"#utility.yul\":6568:6587   */\n      tag_69\n      jump\t// in\n    tag_149:\n        /* \"#utility.yul\":6563:6587   */\n      swap2\n      pop\n        /* \"#utility.yul\":6601:6620   */\n      tag_150\n        /* \"#utility.yul\":6618:6619   */\n      dup4\n        /* \"#utility.yul\":6601:6620   */\n      tag_69\n      jump\t// in\n    tag_150:\n        /* \"#utility.yul\":6596:6620   */\n      swap3\n      pop\n        /* \"#utility.yul\":6802:6803   */\n      dup3\n        /* \"#utility.yul\":6734:6800   */\n      0x7fffffffffffffffffffffffffffffffffffffffffffffffffffffffffffffff\n        /* \"#utility.yul\":6730:6804   */\n      div\n        /* \"#utility.yul\":6727:6728   */\n      dup3\n        /* \"#utility.yul\":6724:6805   */\n      gt\n        /* \"#utility.yul\":6719:6720   */\n      0x00\n        /* \"#utility.yul\":6716:6717   */\n      dup5\n        /* \"#utility.yul\":6712:6721   */\n      sgt\n        /* \"#utility.yul\":6708:6709   */\n      0x00\n        /* \"#utility.yul\":6705:6706   */\n      dup5\n        /* \"#utility.yul\":6701:6710   */\n      sgt\n        /* \"#utility.yul\":6697:6722   */\n      and\n        /* \"#utility.yul\":6693:6806   */\n      and\n        /* \"#utility.yul\":6690:6829   */\n      iszero\n      tag_151\n      jumpi\n        /* \"#utility.yul\":6809:6827   */\n      tag_152\n      tag_64\n      jump\t// in\n    tag_152:\n        /* \"#utility.yul\":6690:6829   */\n    tag_151:\n        /* \"#utility.yul\":7013:7014   */\n      dup2\n        /* \"#utility.yul\":6945:7011   */\n      0x8000000000000000000000000000000000000000000000000000000000000000\n        /* \"#utility.yul\":6940:7015   */\n      sdiv\n        /* \"#utility.yul\":6937:6938   */\n      dup4\n        /* \"#utility.yul\":6933:7016   */\n      slt\n        /* \"#utility.yul\":6928:6929   */\n      0x00\n        /* \"#utility.yul\":6925:6926   */\n      dup5\n        /* \"#utility.yul\":6921:6930   */\n      slt\n        /* \"#utility.yul\":6917:6918   */\n      0x00\n        /* \"#utility.yul\":6914:6915   */\n      dup5\n        /* \"#utility.yul\":6910:6919   */\n      sgt\n        /* \"#utility.yul\":6906:6931   */\n      and\n        /* \"#utility.yul\":6902:7017   */\n      and\n        /* \"#utility.yul\":6899:7040   */\n      iszero\n      tag_153\n      jumpi\n        /* \"#utility.yul\":7020:7038   */\n      tag_154\n      tag_64\n      jump\t// in\n    tag_154:\n        /* \"#utility.yul\":6899:7040   */\n    tag_153:\n        /* \"#utility.yul\":7224:7225   */\n      dup3\n        /* \"#utility.yul\":7156:7222   */\n      0x8000000000000000000000000000000000000000000000000000000000000000\n        /* \"#utility.yul\":7151:7226   */\n      sdiv\n        /* \"#utility.yul\":7148:7149   */\n      dup3\n        /* \"#utility.yul\":7144:7227   */\n      slt\n        /* \"#utility.yul\":7139:7140   */\n      0x00\n        /* \"#utility.yul\":7136:7137   */\n      dup5\n        /* \"#utility.yul\":7132:7141   */\n      sgt\n        /* \"#utility.yul\":7128:7129   */\n      0x00\n        /* \"#utility.yul\":7125:7126   */\n      dup5\n        /* \"#utility.yul\":7121:7130   */\n      slt\n        /* \"#utility.yul\":7117:7142   */\n      and\n        /* \"#utility.yul\":7113:7228   */\n      and\n        /* \"#utility.yul\":7110:7251   */\n      iszero\n      tag_155\n      jumpi\n        /* \"#utility.yul\":7231:7249   */\n      tag_156\n      tag_64\n      jump\t// in\n    tag_156:\n        /* \"#utility.yul\":7110:7251   */\n    tag_155:\n        /* \"#utility.yul\":7434:7435   */\n      dup3\n        /* \"#utility.yul\":7366:7432   */\n      0x7fffffffffffffffffffffffffffffffffffffffffffffffffffffffffffffff\n        /* \"#utility.yul\":7361:7436   */\n      sdiv\n        /* \"#utility.yul\":7358:7359   */\n      dup3\n        /* \"#utility.yul\":7354:7437   */\n      slt\n        /* \"#utility.yul\":7349:7350   */\n      0x00\n        /* \"#utility.yul\":7346:7347   */\n      dup5\n        /* \"#utility.yul\":7342:7351   */\n      slt\n        /* \"#utility.yul\":7338:7339   */\n      0x00\n        /* \"#utility.yul\":7335:7336   */\n      dup5\n        /* \"#utility.yul\":7331:7340   */\n      slt\n        /* \"#utility.yul\":7327:7352   */\n      and\n        /* \"#utility.yul\":7323:7438   */\n      and\n        /* \"#utility.yul\":7320:7461   */\n      iszero\n      tag_157\n      jumpi\n        /* \"#utility.yul\":7441:7459   */\n      tag_158\n      tag_64\n      jump\t// in\n    tag_158:\n        /* \"#utility.yul\":7320:7461   */\n    tag_157:\n        /* \"#utility.yul\":7489:7490   */\n      dup3\n        /* \"#utility.yul\":7486:7487   */\n      dup3\n        /* \"#utility.yul\":7482:7491   */\n      mul\n        /* \"#utility.yul\":7471:7491   */\n      swap1\n      pop\n        /* \"#utility.yul\":6506:7497   */\n      swap3\n      swap2\n      pop\n      pop\n      jump\t// out\n\n    auxdata: 0xa26469706673582212206d9934d5d397743e8f1a751e33e2c7f0a5ed64964222085c71475ed67594869964736f6c634300080e0033\n}\n",
				"bytecode": {
					"linkReferences": {},
					"object": "60806040526802b5e3af16b188000060005534801561001d57600080fd5b5061082b8061002d6000396000f3fe60806040526004361061003f5760003560e01c80633e47d6f31461004457806351b80e4114610081578063b60d4288146100ac578063dc0d3dff146100b6575b600080fd5b34801561005057600080fd5b5061006b6004803603810190610066919061038c565b6100f3565b60405161007891906103d2565b60405180910390f35b34801561008d57600080fd5b5061009661010b565b6040516100a391906103d2565b60405180910390f35b6100b4610111565b005b3480156100c257600080fd5b506100dd60048036038101906100d89190610419565b610207565b6040516100ea9190610455565b60405180910390f35b60026020528060005260406000206000915090505481565b60005481565b60005461011d34610246565b101561015e576040517f08c379a0000000000000000000000000000000000000000000000000000000008152600401610155906104cd565b60405180910390fd5b6001339080600181540180825580915050600190039060005260206000200160009091909190916101000a81548173ffffffffffffffffffffffffffffffffffffffff021916908373ffffffffffffffffffffffffffffffffffffffff16021790555034600260003373ffffffffffffffffffffffffffffffffffffffff1673ffffffffffffffffffffffffffffffffffffffff16815260200190815260200160002081905550565b6001818154811061021757600080fd5b906000526020600020016000915054906101000a900473ffffffffffffffffffffffffffffffffffffffff1681565b600080610251610280565b90506000670de0b6b3a7640000848361026a919061051c565b61027491906105a5565b90508092505050919050565b600080738a753747a1fa494ec906ce90e9f37563a8af630e905060008173ffffffffffffffffffffffffffffffffffffffff1663feaf968c6040518163ffffffff1660e01b815260040160a060405180830381865afa1580156102e7573d6000803e3d6000fd5b505050506040513d601f19601f8201168201806040525081019061030b9190610663565b5050509150506402540be4008161032291906106de565b9250505090565b600080fd5b600073ffffffffffffffffffffffffffffffffffffffff82169050919050565b60006103598261032e565b9050919050565b6103698161034e565b811461037457600080fd5b50565b60008135905061038681610360565b92915050565b6000602082840312156103a2576103a1610329565b5b60006103b084828501610377565b91505092915050565b6000819050919050565b6103cc816103b9565b82525050565b60006020820190506103e760008301846103c3565b92915050565b6103f6816103b9565b811461040157600080fd5b50565b600081359050610413816103ed565b92915050565b60006020828403121561042f5761042e610329565b5b600061043d84828501610404565b91505092915050565b61044f8161034e565b82525050565b600060208201905061046a6000830184610446565b92915050565b600082825260208201905092915050565b7f5072696365206973206c6f7765722c2073656e64206d6f726500000000000000600082015250565b60006104b7601983610470565b91506104c282610481565b602082019050919050565b600060208201905081810360008301526104e6816104aa565b9050919050565b7f4e487b7100000000000000000000000000000000000000000000000000000000600052601160045260246000fd5b6000610527826103b9565b9150610532836103b9565b9250817fffffffffffffffffffffffffffffffffffffffffffffffffffffffffffffffff048311821515161561056b5761056a6104ed565b5b828202905092915050565b7f4e487b7100000000000000000000000000000000000000000000000000000000600052601260045260246000fd5b60006105b0826103b9565b91506105bb836103b9565b9250826105cb576105ca610576565b5b828204905092915050565b600069ffffffffffffffffffff82169050919050565b6105f5816105d6565b811461060057600080fd5b50565b600081519050610612816105ec565b92915050565b6000819050919050565b61062b81610618565b811461063657600080fd5b50565b60008151905061064881610622565b92915050565b60008151905061065d816103ed565b92915050565b600080600080600060a0868803121561067f5761067e610329565b5b600061068d88828901610603565b955050602061069e88828901610639565b94505060406106af8882890161064e565b93505060606106c08882890161064e565b92505060806106d188828901610603565b9150509295509295909350565b60006106e982610618565b91506106f483610618565b9250827f7fffffffffffffffffffffffffffffffffffffffffffffffffffffffffffffff0482116000841360008413161615610733576107326104ed565b5b817f800000000000000000000000000000000000000000000000000000000000000005831260008412600084131616156107705761076f6104ed565b5b827f800000000000000000000000000000000000000000000000000000000000000005821260008413600084121616156107ad576107ac6104ed565b5b827f7fffffffffffffffffffffffffffffffffffffffffffffffffffffffffffffff05821260008412600084121616156107ea576107e96104ed565b5b82820290509291505056fea26469706673582212206d9934d5d397743e8f1a751e33e2c7f0a5ed64964222085c71475ed67594869964736f6c634300080e0033",
					"opcodes": "PUSH1 0x80 PUSH1 0x40 MSTORE PUSH9 0x2B5E3AF16B1880000 PUSH1 0x0 SSTORE CALLVALUE DUP1 ISZERO PUSH2 0x1D JUMPI PUSH1 0x0 DUP1 REVERT JUMPDEST POP PUSH2 0x82B DUP1 PUSH2 0x2D PUSH1 0x0 CODECOPY PUSH1 0x0 RETURN INVALID PUSH1 0x80 PUSH1 0x40 MSTORE PUSH1 0x4 CALLDATASIZE LT PUSH2 0x3F JUMPI PUSH1 0x0 CALLDATALOAD PUSH1 0xE0 SHR DUP1 PUSH4 0x3E47D6F3 EQ PUSH2 0x44 JUMPI DUP1 PUSH4 0x51B80E41 EQ PUSH2 0x81 JUMPI DUP1 PUSH4 0xB60D4288 EQ PUSH2 0xAC JUMPI DUP1 PUSH4 0xDC0D3DFF EQ PUSH2 0xB6 JUMPI JUMPDEST PUSH1 0x0 DUP1 REVERT JUMPDEST CALLVALUE DUP1 ISZERO PUSH2 0x50 JUMPI PUSH1 0x0 DUP1 REVERT JUMPDEST POP PUSH2 0x6B PUSH1 0x4 DUP1 CALLDATASIZE SUB DUP2 ADD SWAP1 PUSH2 0x66 SWAP2 SWAP1 PUSH2 0x38C JUMP JUMPDEST PUSH2 0xF3 JUMP JUMPDEST PUSH1 0x40 MLOAD PUSH2 0x78 SWAP2 SWAP1 PUSH2 0x3D2 JUMP JUMPDEST PUSH1 0x40 MLOAD DUP1 SWAP2 SUB SWAP1 RETURN JUMPDEST CALLVALUE DUP1 ISZERO PUSH2 0x8D JUMPI PUSH1 0x0 DUP1 REVERT JUMPDEST POP PUSH2 0x96 PUSH2 0x10B JUMP JUMPDEST PUSH1 0x40 MLOAD PUSH2 0xA3 SWAP2 SWAP1 PUSH2 0x3D2 JUMP JUMPDEST PUSH1 0x40 MLOAD DUP1 SWAP2 SUB SWAP1 RETURN JUMPDEST PUSH2 0xB4 PUSH2 0x111 JUMP JUMPDEST STOP JUMPDEST CALLVALUE DUP1 ISZERO PUSH2 0xC2 JUMPI PUSH1 0x0 DUP1 REVERT JUMPDEST POP PUSH2 0xDD PUSH1 0x4 DUP1 CALLDATASIZE SUB DUP2 ADD SWAP1 PUSH2 0xD8 SWAP2 SWAP1 PUSH2 0x419 JUMP JUMPDEST PUSH2 0x207 JUMP JUMPDEST PUSH1 0x40 MLOAD PUSH2 0xEA SWAP2 SWAP1 PUSH2 0x455 JUMP JUMPDEST PUSH1 0x40 MLOAD DUP1 SWAP2 SUB SWAP1 RETURN JUMPDEST PUSH1 0x2 PUSH1 0x20 MSTORE DUP1 PUSH1 0x0 MSTORE PUSH1 0x40 PUSH1 0x0 KECCAK256 PUSH1 0x0 SWAP2 POP SWAP1 POP SLOAD DUP2 JUMP JUMPDEST PUSH1 0x0 SLOAD DUP2 JUMP JUMPDEST PUSH1 0x0 SLOAD PUSH2 0x11D CALLVALUE PUSH2 0x246 JUMP JUMPDEST LT ISZERO PUSH2 0x15E JUMPI PUSH1 0x40 MLOAD PUSH32 0x8C379A000000000000000000000000000000000000000000000000000000000 DUP2 MSTORE PUSH1 0x4 ADD PUSH2 0x155 SWAP1 PUSH2 0x4CD JUMP JUMPDEST PUSH1 0x40 MLOAD DUP1 SWAP2 SUB SWAP1 REVERT JUMPDEST PUSH1 0x1 CALLER SWAP1 DUP1 PUSH1 0x1 DUP2 SLOAD ADD DUP1 DUP3 SSTORE DUP1 SWAP2 POP POP PUSH1 0x1 SWAP1 SUB SWAP1 PUSH1 0x0 MSTORE PUSH1 0x20 PUSH1 0x0 KECCAK256 ADD PUSH1 0x0 SWAP1 SWAP2 SWAP1 SWAP2 SWAP1 SWAP2 PUSH2 0x100 EXP DUP2 SLOAD DUP2 PUSH20 0xFFFFFFFFFFFFFFFFFFFFFFFFFFFFFFFFFFFFFFFF MUL NOT AND SWAP1 DUP4 PUSH20 0xFFFFFFFFFFFFFFFFFFFFFFFFFFFFFFFFFFFFFFFF AND MUL OR SWAP1 SSTORE POP CALLVALUE PUSH1 0x2 PUSH1 0x0 CALLER PUSH20 0xFFFFFFFFFFFFFFFFFFFFFFFFFFFFFFFFFFFFFFFF AND PUSH20 0xFFFFFFFFFFFFFFFFFFFFFFFFFFFFFFFFFFFFFFFF AND DUP2 MSTORE PUSH1 0x20 ADD SWAP1 DUP2 MSTORE PUSH1 0x20 ADD PUSH1 0x0 KECCAK256 DUP2 SWAP1 SSTORE POP JUMP JUMPDEST PUSH1 0x1 DUP2 DUP2 SLOAD DUP2 LT PUSH2 0x217 JUMPI PUSH1 0x0 DUP1 REVERT JUMPDEST SWAP1 PUSH1 0x0 MSTORE PUSH1 0x20 PUSH1 0x0 KECCAK256 ADD PUSH1 0x0 SWAP2 POP SLOAD SWAP1 PUSH2 0x100 EXP SWAP1 DIV PUSH20 0xFFFFFFFFFFFFFFFFFFFFFFFFFFFFFFFFFFFFFFFF AND DUP2 JUMP JUMPDEST PUSH1 0x0 DUP1 PUSH2 0x251 PUSH2 0x280 JUMP JUMPDEST SWAP1 POP PUSH1 0x0 PUSH8 0xDE0B6B3A7640000 DUP5 DUP4 PUSH2 0x26A SWAP2 SWAP1 PUSH2 0x51C JUMP JUMPDEST PUSH2 0x274 SWAP2 SWAP1 PUSH2 0x5A5 JUMP JUMPDEST SWAP1 POP DUP1 SWAP3 POP POP POP SWAP2 SWAP1 POP JUMP JUMPDEST PUSH1 0x0 DUP1 PUSH20 0x8A753747A1FA494EC906CE90E9F37563A8AF630E SWAP1 POP PUSH1 0x0 DUP2 PUSH20 0xFFFFFFFFFFFFFFFFFFFFFFFFFFFFFFFFFFFFFFFF AND PUSH4 0xFEAF968C PUSH1 0x40 MLOAD DUP2 PUSH4 0xFFFFFFFF AND PUSH1 0xE0 SHL DUP2 MSTORE PUSH1 0x4 ADD PUSH1 0xA0 PUSH1 0x40 MLOAD DUP1 DUP4 SUB DUP2 DUP7 GAS STATICCALL ISZERO DUP1 ISZERO PUSH2 0x2E7 JUMPI RETURNDATASIZE PUSH1 0x0 DUP1 RETURNDATACOPY RETURNDATASIZE PUSH1 0x0 REVERT JUMPDEST POP POP POP POP PUSH1 0x40 MLOAD RETURNDATASIZE PUSH1 0x1F NOT PUSH1 0x1F DUP3 ADD AND DUP3 ADD DUP1 PUSH1 0x40 MSTORE POP DUP2 ADD SWAP1 PUSH2 0x30B SWAP2 SWAP1 PUSH2 0x663 JUMP JUMPDEST POP POP POP SWAP2 POP POP PUSH5 0x2540BE400 DUP2 PUSH2 0x322 SWAP2 SWAP1 PUSH2 0x6DE JUMP JUMPDEST SWAP3 POP POP POP SWAP1 JUMP JUMPDEST PUSH1 0x0 DUP1 REVERT JUMPDEST PUSH1 0x0 PUSH20 0xFFFFFFFFFFFFFFFFFFFFFFFFFFFFFFFFFFFFFFFF DUP3 AND SWAP1 POP SWAP2 SWAP1 POP JUMP JUMPDEST PUSH1 0x0 PUSH2 0x359 DUP3 PUSH2 0x32E JUMP JUMPDEST SWAP1 POP SWAP2 SWAP1 POP JUMP JUMPDEST PUSH2 0x369 DUP2 PUSH2 0x34E JUMP JUMPDEST DUP2 EQ PUSH2 0x374 JUMPI PUSH1 0x0 DUP1 REVERT JUMPDEST POP JUMP JUMPDEST PUSH1 0x0 DUP2 CALLDATALOAD SWAP1 POP PUSH2 0x386 DUP2 PUSH2 0x360 JUMP JUMPDEST SWAP3 SWAP2 POP POP JUMP JUMPDEST PUSH1 0x0 PUSH1 0x20 DUP3 DUP5 SUB SLT ISZERO PUSH2 0x3A2 JUMPI PUSH2 0x3A1 PUSH2 0x329 JUMP JUMPDEST JUMPDEST PUSH1 0x0 PUSH2 0x3B0 DUP5 DUP3 DUP6 ADD PUSH2 0x377 JUMP JUMPDEST SWAP2 POP POP SWAP3 SWAP2 POP POP JUMP JUMPDEST PUSH1 0x0 DUP2 SWAP1 POP SWAP2 SWAP1 POP JUMP JUMPDEST PUSH2 0x3CC DUP2 PUSH2 0x3B9 JUMP JUMPDEST DUP3 MSTORE POP POP JUMP JUMPDEST PUSH1 0x0 PUSH1 0x20 DUP3 ADD SWAP1 POP PUSH2 0x3E7 PUSH1 0x0 DUP4 ADD DUP5 PUSH2 0x3C3 JUMP JUMPDEST SWAP3 SWAP2 POP POP JUMP JUMPDEST PUSH2 0x3F6 DUP2 PUSH2 0x3B9 JUMP JUMPDEST DUP2 EQ PUSH2 0x401 JUMPI PUSH1 0x0 DUP1 REVERT JUMPDEST POP JUMP JUMPDEST PUSH1 0x0 DUP2 CALLDATALOAD SWAP1 POP PUSH2 0x413 DUP2 PUSH2 0x3ED JUMP JUMPDEST SWAP3 SWAP2 POP POP JUMP JUMPDEST PUSH1 0x0 PUSH1 0x20 DUP3 DUP5 SUB SLT ISZERO PUSH2 0x42F JUMPI PUSH2 0x42E PUSH2 0x329 JUMP JUMPDEST JUMPDEST PUSH1 0x0 PUSH2 0x43D DUP5 DUP3 DUP6 ADD PUSH2 0x404 JUMP JUMPDEST SWAP2 POP POP SWAP3 SWAP2 POP POP JUMP JUMPDEST PUSH2 0x44F DUP2 PUSH2 0x34E JUMP JUMPDEST DUP3 MSTORE POP POP JUMP JUMPDEST PUSH1 0x0 PUSH1 0x20 DUP3 ADD SWAP1 POP PUSH2 0x46A PUSH1 0x0 DUP4 ADD DUP5 PUSH2 0x446 JUMP JUMPDEST SWAP3 SWAP2 POP POP JUMP JUMPDEST PUSH1 0x0 DUP3 DUP3 MSTORE PUSH1 0x20 DUP3 ADD SWAP1 POP SWAP3 SWAP2 POP POP JUMP JUMPDEST PUSH32 0x5072696365206973206C6F7765722C2073656E64206D6F726500000000000000 PUSH1 0x0 DUP3 ADD MSTORE POP JUMP JUMPDEST PUSH1 0x0 PUSH2 0x4B7 PUSH1 0x19 DUP4 PUSH2 0x470 JUMP JUMPDEST SWAP2 POP PUSH2 0x4C2 DUP3 PUSH2 0x481 JUMP JUMPDEST PUSH1 0x20 DUP3 ADD SWAP1 POP SWAP2 SWAP1 POP JUMP JUMPDEST PUSH1 0x0 PUSH1 0x20 DUP3 ADD SWAP1 POP DUP2 DUP2 SUB PUSH1 0x0 DUP4 ADD MSTORE PUSH2 0x4E6 DUP2 PUSH2 0x4AA JUMP JUMPDEST SWAP1 POP SWAP2 SWAP1 POP JUMP JUMPDEST PUSH32 0x4E487B7100000000000000000000000000000000000000000000000000000000 PUSH1 0x0 MSTORE PUSH1 0x11 PUSH1 0x4 MSTORE PUSH1 0x24 PUSH1 0x0 REVERT JUMPDEST PUSH1 0x0 PUSH2 0x527 DUP3 PUSH2 0x3B9 JUMP JUMPDEST SWAP2 POP PUSH2 0x532 DUP4 PUSH2 0x3B9 JUMP JUMPDEST SWAP3 POP DUP2 PUSH32 0xFFFFFFFFFFFFFFFFFFFFFFFFFFFFFFFFFFFFFFFFFFFFFFFFFFFFFFFFFFFFFFFF DIV DUP4 GT DUP3 ISZERO ISZERO AND ISZERO PUSH2 0x56B JUMPI PUSH2 0x56A PUSH2 0x4ED JUMP JUMPDEST JUMPDEST DUP3 DUP3 MUL SWAP1 POP SWAP3 SWAP2 POP POP JUMP JUMPDEST PUSH32 0x4E487B7100000000000000000000000000000000000000000000000000000000 PUSH1 0x0 MSTORE PUSH1 0x12 PUSH1 0x4 MSTORE PUSH1 0x24 PUSH1 0x0 REVERT JUMPDEST PUSH1 0x0 PUSH2 0x5B0 DUP3 PUSH2 0x3B9 JUMP JUMPDEST SWAP2 POP PUSH2 0x5BB DUP4 PUSH2 0x3B9 JUMP JUMPDEST SWAP3 POP DUP3 PUSH2 0x5CB JUMPI PUSH2 0x5CA PUSH2 0x576 JUMP JUMPDEST JUMPDEST DUP3 DUP3 DIV SWAP1 POP SWAP3 SWAP2 POP POP JUMP JUMPDEST PUSH1 0x0 PUSH10 0xFFFFFFFFFFFFFFFFFFFF DUP3 AND SWAP1 POP SWAP2 SWAP1 POP JUMP JUMPDEST PUSH2 0x5F5 DUP2 PUSH2 0x5D6 JUMP JUMPDEST DUP2 EQ PUSH2 0x600 JUMPI PUSH1 0x0 DUP1 REVERT JUMPDEST POP JUMP JUMPDEST PUSH1 0x0 DUP2 MLOAD SWAP1 POP PUSH2 0x612 DUP2 PUSH2 0x5EC JUMP JUMPDEST SWAP3 SWAP2 POP POP JUMP JUMPDEST PUSH1 0x0 DUP2 SWAP1 POP SWAP2 SWAP1 POP JUMP JUMPDEST PUSH2 0x62B DUP2 PUSH2 0x618 JUMP JUMPDEST DUP2 EQ PUSH2 0x636 JUMPI PUSH1 0x0 DUP1 REVERT JUMPDEST POP JUMP JUMPDEST PUSH1 0x0 DUP2 MLOAD SWAP1 POP PUSH2 0x648 DUP2 PUSH2 0x622 JUMP JUMPDEST SWAP3 SWAP2 POP POP JUMP JUMPDEST PUSH1 0x0 DUP2 MLOAD SWAP1 POP PUSH2 0x65D DUP2 PUSH2 0x3ED JUMP JUMPDEST SWAP3 SWAP2 POP POP JUMP JUMPDEST PUSH1 0x0 DUP1 PUSH1 0x0 DUP1 PUSH1 0x0 PUSH1 0xA0 DUP7 DUP9 SUB SLT ISZERO PUSH2 0x67F JUMPI PUSH2 0x67E PUSH2 0x329 JUMP JUMPDEST JUMPDEST PUSH1 0x0 PUSH2 0x68D DUP9 DUP3 DUP10 ADD PUSH2 0x603 JUMP JUMPDEST SWAP6 POP POP PUSH1 0x20 PUSH2 0x69E DUP9 DUP3 DUP10 ADD PUSH2 0x639 JUMP JUMPDEST SWAP5 POP POP PUSH1 0x40 PUSH2 0x6AF DUP9 DUP3 DUP10 ADD PUSH2 0x64E JUMP JUMPDEST SWAP4 POP POP PUSH1 0x60 PUSH2 0x6C0 DUP9 DUP3 DUP10 ADD PUSH2 0x64E JUMP JUMPDEST SWAP3 POP POP PUSH1 0x80 PUSH2 0x6D1 DUP9 DUP3 DUP10 ADD PUSH2 0x603 JUMP JUMPDEST SWAP2 POP POP SWAP3 SWAP6 POP SWAP3 SWAP6 SWAP1 SWAP4 POP JUMP JUMPDEST PUSH1 0x0 PUSH2 0x6E9 DUP3 PUSH2 0x618 JUMP JUMPDEST SWAP2 POP PUSH2 0x6F4 DUP4 PUSH2 0x618 JUMP JUMPDEST SWAP3 POP DUP3 PUSH32 0x7FFFFFFFFFFFFFFFFFFFFFFFFFFFFFFFFFFFFFFFFFFFFFFFFFFFFFFFFFFFFFFF DIV DUP3 GT PUSH1 0x0 DUP5 SGT PUSH1 0x0 DUP5 SGT AND AND ISZERO PUSH2 0x733 JUMPI PUSH2 0x732 PUSH2 0x4ED JUMP JUMPDEST JUMPDEST DUP2 PUSH32 0x8000000000000000000000000000000000000000000000000000000000000000 SDIV DUP4 SLT PUSH1 0x0 DUP5 SLT PUSH1 0x0 DUP5 SGT AND AND ISZERO PUSH2 0x770 JUMPI PUSH2 0x76F PUSH2 0x4ED JUMP JUMPDEST JUMPDEST DUP3 PUSH32 0x8000000000000000000000000000000000000000000000000000000000000000 SDIV DUP3 SLT PUSH1 0x0 DUP5 SGT PUSH1 0x0 DUP5 SLT AND AND ISZERO PUSH2 0x7AD JUMPI PUSH2 0x7AC PUSH2 0x4ED JUMP JUMPDEST JUMPDEST DUP3 PUSH32 0x7FFFFFFFFFFFFFFFFFFFFFFFFFFFFFFFFFFFFFFFFFFFFFFFFFFFFFFFFFFFFFFF SDIV DUP3 SLT PUSH1 0x0 DUP5 SLT PUSH1 0x0 DUP5 SLT AND AND ISZERO PUSH2 0x7EA JUMPI PUSH2 0x7E9 PUSH2 0x4ED JUMP JUMPDEST JUMPDEST DUP3 DUP3 MUL SWAP1 POP SWAP3 SWAP2 POP POP JUMP INVALID LOG2 PUSH5 0x6970667358 0x22 SLT KECCAK256 PUSH14 0x9934D5D397743E8F1A751E33E2C7 CREATE 0xA5 0xED PUSH5 0x964222085C PUSH18 0x475ED67594869964736F6C634300080E0033 "
				},
				"gasEstimates": {
					"creation": {
						"codeDepositCost": "418200",
						"executionCost": "22561",
						"totalCost": "440761"
					},
					"external": {
						"addressToAmountFunded(address)": "2792",
						"fund()": "infinite",
						"funders(uint256)": "5000",
						"minUsd()": "2429"
					}
				},
				"methodIdentifiers": {
					"addressToAmountFunded(address)": "3e47d6f3",
					"fund()": "b60d4288",
					"funders(uint256)": "dc0d3dff",
					"minUsd()": "51b80e41"
				}
			},
			"storageLayout": {
				"storage": [
					{
						"astId": 56,
						"contract": "fundMe/FundMe.sol:FundMe",
						"label": "minUsd",
						"offset": 0,
						"slot": "0",
						"type": "t_uint256"
					},
					{
						"astId": 59,
						"contract": "fundMe/FundMe.sol:FundMe",
						"label": "funders",
						"offset": 0,
						"slot": "1",
						"type": "t_array(t_address)dyn_storage"
					},
					{
						"astId": 63,
						"contract": "fundMe/FundMe.sol:FundMe",
						"label": "addressToAmountFunded",
						"offset": 0,
						"slot": "2",
						"type": "t_mapping(t_address,t_uint256)"
					}
				],
				"types": {
					"t_address": {
						"encoding": "inplace",
						"label": "address",
						"numberOfBytes": "20"
					},
					"t_array(t_address)dyn_storage": {
						"base": "t_address",
						"encoding": "dynamic_array",
						"label": "address[]",
						"numberOfBytes": "32"
					},
					"t_mapping(t_address,t_uint256)": {
						"encoding": "mapping",
						"key": "t_address",
						"label": "mapping(address => uint256)",
						"numberOfBytes": "32",
						"value": "t_uint256"
					},
					"t_uint256": {
						"encoding": "inplace",
						"label": "uint256",
						"numberOfBytes": "32"
					}
				}
			},
			"userdoc": {
				"kind": "user",
				"methods": {},
				"version": 1
			}
		}
	}
}