{
	"fundMe/FundMe.sol": {
		"FundMe": {
			"abi": [
				{
					"inputs": [],
					"name": "fund",
					"outputs": [],
					"stateMutability": "payable",
					"type": "function"
				},
				{
					"inputs": [],
					"name": "minUsd",
					"outputs": [
						{
							"internalType": "uint256",
							"name": "",
							"type": "uint256"
						}
					],
					"stateMutability": "view",
					"type": "function"
				}
			],
			"devdoc": {
				"kind": "dev",
				"methods": {},
				"version": 1
			},
			"evm": {
				"assembly": "    /* \"fundMe/FundMe.sol\":57:217  contract FundMe {... */\n  mstore(0x40, 0x80)\n  callvalue\n  dup1\n  iszero\n  tag_1\n  jumpi\n  0x00\n  dup1\n  revert\ntag_1:\n  pop\n  dataSize(sub_0)\n  dup1\n  dataOffset(sub_0)\n  0x00\n  codecopy\n  0x00\n  return\nstop\n\nsub_0: assembly {\n        /* \"fundMe/FundMe.sol\":57:217  contract FundMe {... */\n      mstore(0x40, 0x80)\n      jumpi(tag_1, lt(calldatasize, 0x04))\n      shr(0xe0, calldataload(0x00))\n      dup1\n      0x51b80e41\n      eq\n      tag_2\n      jumpi\n      dup1\n      0xb60d4288\n      eq\n      tag_3\n      jumpi\n    tag_1:\n      0x00\n      dup1\n      revert\n        /* \"fundMe/FundMe.sol\":80:99  uint public  minUsd */\n    tag_2:\n      callvalue\n      dup1\n      iszero\n      tag_4\n      jumpi\n      0x00\n      dup1\n      revert\n    tag_4:\n      pop\n      tag_5\n      tag_6\n      jump\t// in\n    tag_5:\n      mload(0x40)\n      tag_7\n      swap2\n      swap1\n      tag_8\n      jump\t// in\n    tag_7:\n      mload(0x40)\n      dup1\n      swap2\n      sub\n      swap1\n      return\n        /* \"fundMe/FundMe.sol\":106:212  function fund() public payable {... */\n    tag_3:\n      tag_9\n      tag_10\n      jump\t// in\n    tag_9:\n      stop\n        /* \"fundMe/FundMe.sol\":80:99  uint public  minUsd */\n    tag_6:\n      sload(0x00)\n      dup2\n      jump\t// out\n        /* \"fundMe/FundMe.sol\":106:212  function fund() public payable {... */\n    tag_10:\n        /* \"fundMe/FundMe.sol\":169:175  minUsd */\n      sload(0x00)\n        /* \"fundMe/FundMe.sol\":156:165  msg.value */\n      callvalue\n        /* \"fundMe/FundMe.sol\":156:175  msg.value >= minUsd */\n      lt\n      iszero\n        /* \"fundMe/FundMe.sol\":148:205  require(msg.value >= minUsd, \"Price is lower, send more\") */\n      tag_12\n      jumpi\n      mload(0x40)\n      0x08c379a000000000000000000000000000000000000000000000000000000000\n      dup2\n      mstore\n      0x04\n      add\n      tag_13\n      swap1\n      tag_14\n      jump\t// in\n    tag_13:\n      mload(0x40)\n      dup1\n      swap2\n      sub\n      swap1\n      revert\n    tag_12:\n        /* \"fundMe/FundMe.sol\":106:212  function fund() public payable {... */\n      jump\t// out\n        /* \"#utility.yul\":7:373   */\n    tag_16:\n        /* \"#utility.yul\":149:152   */\n      0x00\n        /* \"#utility.yul\":170:237   */\n      tag_18\n        /* \"#utility.yul\":234:236   */\n      0x19\n        /* \"#utility.yul\":229:232   */\n      dup4\n        /* \"#utility.yul\":170:237   */\n      tag_19\n      jump\t// in\n    tag_18:\n        /* \"#utility.yul\":163:237   */\n      swap2\n      pop\n        /* \"#utility.yul\":246:339   */\n      tag_20\n        /* \"#utility.yul\":335:338   */\n      dup3\n        /* \"#utility.yul\":246:339   */\n      tag_21\n      jump\t// in\n    tag_20:\n        /* \"#utility.yul\":364:366   */\n      0x20\n        /* \"#utility.yul\":359:362   */\n      dup3\n        /* \"#utility.yul\":355:367   */\n      add\n        /* \"#utility.yul\":348:367   */\n      swap1\n      pop\n        /* \"#utility.yul\":7:373   */\n      swap2\n      swap1\n      pop\n      jump\t// out\n        /* \"#utility.yul\":379:497   */\n    tag_22:\n        /* \"#utility.yul\":466:490   */\n      tag_24\n        /* \"#utility.yul\":484:489   */\n      dup2\n        /* \"#utility.yul\":466:490   */\n      tag_25\n      jump\t// in\n    tag_24:\n        /* \"#utility.yul\":461:464   */\n      dup3\n        /* \"#utility.yul\":454:491   */\n      mstore\n        /* \"#utility.yul\":379:497   */\n      pop\n      pop\n      jump\t// out\n        /* \"#utility.yul\":503:922   */\n    tag_14:\n        /* \"#utility.yul\":669:673   */\n      0x00\n        /* \"#utility.yul\":707:709   */\n      0x20\n        /* \"#utility.yul\":696:705   */\n      dup3\n        /* \"#utility.yul\":692:710   */\n      add\n        /* \"#utility.yul\":684:710   */\n      swap1\n      pop\n        /* \"#utility.yul\":756:765   */\n      dup2\n        /* \"#utility.yul\":750:754   */\n      dup2\n        /* \"#utility.yul\":746:766   */\n      sub\n        /* \"#utility.yul\":742:743   */\n      0x00\n        /* \"#utility.yul\":731:740   */\n      dup4\n        /* \"#utility.yul\":727:744   */\n      add\n        /* \"#utility.yul\":720:767   */\n      mstore\n        /* \"#utility.yul\":784:915   */\n      tag_27\n        /* \"#utility.yul\":910:914   */\n      dup2\n        /* \"#utility.yul\":784:915   */\n      tag_16\n      jump\t// in\n    tag_27:\n        /* \"#utility.yul\":776:915   */\n      swap1\n      pop\n        /* \"#utility.yul\":503:922   */\n      swap2\n      swap1\n      pop\n      jump\t// out\n        /* \"#utility.yul\":928:1150   */\n    tag_8:\n        /* \"#utility.yul\":1021:1025   */\n      0x00\n        /* \"#utility.yul\":1059:1061   */\n      0x20\n        /* \"#utility.yul\":1048:1057   */\n      dup3\n        /* \"#utility.yul\":1044:1062   */\n      add\n        /* \"#utility.yul\":1036:1062   */\n      swap1\n      pop\n        /* \"#utility.yul\":1072:1143   */\n      tag_29\n        /* \"#utility.yul\":1140:1141   */\n      0x00\n        /* \"#utility.yul\":1129:1138   */\n      dup4\n        /* \"#utility.yul\":1125:1142   */\n      add\n        /* \"#utility.yul\":1116:1122   */\n      dup5\n        /* \"#utility.yul\":1072:1143   */\n      tag_22\n      jump\t// in\n    tag_29:\n        /* \"#utility.yul\":928:1150   */\n      swap3\n      swap2\n      pop\n      pop\n      jump\t// out\n        /* \"#utility.yul\":1156:1325   */\n    tag_19:\n        /* \"#utility.yul\":1240:1251   */\n      0x00\n        /* \"#utility.yul\":1274:1280   */\n      dup3\n        /* \"#utility.yul\":1269:1272   */\n      dup3\n        /* \"#utility.yul\":1262:1281   */\n      mstore\n        /* \"#utility.yul\":1314:1318   */\n      0x20\n        /* \"#utility.yul\":1309:1312   */\n      dup3\n        /* \"#utility.yul\":1305:1319   */\n      add\n        /* \"#utility.yul\":1290:1319   */\n      swap1\n      pop\n        /* \"#utility.yul\":1156:1325   */\n      swap3\n      swap2\n      pop\n      pop\n      jump\t// out\n        /* \"#utility.yul\":1331:1408   */\n    tag_25:\n        /* \"#utility.yul\":1368:1375   */\n      0x00\n        /* \"#utility.yul\":1397:1402   */\n      dup2\n        /* \"#utility.yul\":1386:1402   */\n      swap1\n      pop\n        /* \"#utility.yul\":1331:1408   */\n      swap2\n      swap1\n      pop\n      jump\t// out\n        /* \"#utility.yul\":1414:1589   */\n    tag_21:\n        /* \"#utility.yul\":1554:1581   */\n      0x5072696365206973206c6f7765722c2073656e64206d6f726500000000000000\n        /* \"#utility.yul\":1550:1551   */\n      0x00\n        /* \"#utility.yul\":1542:1548   */\n      dup3\n        /* \"#utility.yul\":1538:1552   */\n      add\n        /* \"#utility.yul\":1531:1582   */\n      mstore\n        /* \"#utility.yul\":1414:1589   */\n      pop\n      jump\t// out\n\n    auxdata: 0xa26469706673582212203fe3aa59e9655d612b77107efd93bb641421ee33e054a3151f7082fa87acf4ab64736f6c63430008070033\n}\n",
				"bytecode": {
					"linkReferences": {},
					"object": "608060405234801561001057600080fd5b50610197806100206000396000f3fe6080604052600436106100295760003560e01c806351b80e411461002e578063b60d428814610059575b600080fd5b34801561003a57600080fd5b50610043610063565b6040516100509190610102565b60405180910390f35b610061610069565b005b60005481565b6000543410156100ae576040517f08c379a00000000000000000000000000000000000000000000000000000000081526004016100a5906100e2565b60405180910390fd5b565b60006100bd60198361011d565b91506100c882610138565b602082019050919050565b6100dc8161012e565b82525050565b600060208201905081810360008301526100fb816100b0565b9050919050565b600060208201905061011760008301846100d3565b92915050565b600082825260208201905092915050565b6000819050919050565b7f5072696365206973206c6f7765722c2073656e64206d6f72650000000000000060008201525056fea26469706673582212203fe3aa59e9655d612b77107efd93bb641421ee33e054a3151f7082fa87acf4ab64736f6c63430008070033",
					"opcodes": "PUSH1 0x80 PUSH1 0x40 MSTORE CALLVALUE DUP1 ISZERO PUSH2 0x10 JUMPI PUSH1 0x0 DUP1 REVERT JUMPDEST POP PUSH2 0x197 DUP1 PUSH2 0x20 PUSH1 0x0 CODECOPY PUSH1 0x0 RETURN INVALID PUSH1 0x80 PUSH1 0x40 MSTORE PUSH1 0x4 CALLDATASIZE LT PUSH2 0x29 JUMPI PUSH1 0x0 CALLDATALOAD PUSH1 0xE0 SHR DUP1 PUSH4 0x51B80E41 EQ PUSH2 0x2E JUMPI DUP1 PUSH4 0xB60D4288 EQ PUSH2 0x59 JUMPI JUMPDEST PUSH1 0x0 DUP1 REVERT JUMPDEST CALLVALUE DUP1 ISZERO PUSH2 0x3A JUMPI PUSH1 0x0 DUP1 REVERT JUMPDEST POP PUSH2 0x43 PUSH2 0x63 JUMP JUMPDEST PUSH1 0x40 MLOAD PUSH2 0x50 SWAP2 SWAP1 PUSH2 0x102 JUMP JUMPDEST PUSH1 0x40 MLOAD DUP1 SWAP2 SUB SWAP1 RETURN JUMPDEST PUSH2 0x61 PUSH2 0x69 JUMP JUMPDEST STOP JUMPDEST PUSH1 0x0 SLOAD DUP2 JUMP JUMPDEST PUSH1 0x0 SLOAD CALLVALUE LT ISZERO PUSH2 0xAE JUMPI PUSH1 0x40 MLOAD PUSH32 0x8C379A000000000000000000000000000000000000000000000000000000000 DUP2 MSTORE PUSH1 0x4 ADD PUSH2 0xA5 SWAP1 PUSH2 0xE2 JUMP JUMPDEST PUSH1 0x40 MLOAD DUP1 SWAP2 SUB SWAP1 REVERT JUMPDEST JUMP JUMPDEST PUSH1 0x0 PUSH2 0xBD PUSH1 0x19 DUP4 PUSH2 0x11D JUMP JUMPDEST SWAP2 POP PUSH2 0xC8 DUP3 PUSH2 0x138 JUMP JUMPDEST PUSH1 0x20 DUP3 ADD SWAP1 POP SWAP2 SWAP1 POP JUMP JUMPDEST PUSH2 0xDC DUP2 PUSH2 0x12E JUMP JUMPDEST DUP3 MSTORE POP POP JUMP JUMPDEST PUSH1 0x0 PUSH1 0x20 DUP3 ADD SWAP1 POP DUP2 DUP2 SUB PUSH1 0x0 DUP4 ADD MSTORE PUSH2 0xFB DUP2 PUSH2 0xB0 JUMP JUMPDEST SWAP1 POP SWAP2 SWAP1 POP JUMP JUMPDEST PUSH1 0x0 PUSH1 0x20 DUP3 ADD SWAP1 POP PUSH2 0x117 PUSH1 0x0 DUP4 ADD DUP5 PUSH2 0xD3 JUMP JUMPDEST SWAP3 SWAP2 POP POP JUMP JUMPDEST PUSH1 0x0 DUP3 DUP3 MSTORE PUSH1 0x20 DUP3 ADD SWAP1 POP SWAP3 SWAP2 POP POP JUMP JUMPDEST PUSH1 0x0 DUP2 SWAP1 POP SWAP2 SWAP1 POP JUMP JUMPDEST PUSH32 0x5072696365206973206C6F7765722C2073656E64206D6F726500000000000000 PUSH1 0x0 DUP3 ADD MSTORE POP JUMP INVALID LOG2 PUSH5 0x6970667358 0x22 SLT KECCAK256 EXTCODEHASH 0xE3 0xAA MSIZE 0xE9 PUSH6 0x5D612B77107E REVERT SWAP4 0xBB PUSH5 0x1421EE33E0 SLOAD LOG3 ISZERO 0x1F PUSH17 0x82FA87ACF4AB64736F6C63430008070033 "
				},
				"gasEstimates": {
					"creation": {
						"codeDepositCost": "81400",
						"executionCost": "129",
						"totalCost": "81529"
					},
					"external": {
						"fund()": "2534",
						"minUsd()": "2407"
					}
				},
				"methodIdentifiers": {
					"fund()": "b60d4288",
					"minUsd()": "51b80e41"
				}
			},
			"storageLayout": {
				"storage": [
					{
						"astId": 3,
						"contract": "fundMe/FundMe.sol:FundMe",
						"label": "minUsd",
						"offset": 0,
						"slot": "0",
						"type": "t_uint256"
					}
				],
				"types": {
					"t_uint256": {
						"encoding": "inplace",
						"label": "uint256",
						"numberOfBytes": "32"
					}
				}
			},
			"userdoc": {
				"kind": "user",
				"methods": {},
				"version": 1
			}
		}
	}
}