{
	"data": {
		"bytecode": {
			"linkReferences": {},
			"object": "608060405234801561001057600080fd5b5061012f806100206000396000f3fe6080604052348015600f57600080fd5b506004361060325760003560e01c80630add6ef21460375780636d0d8547146051575b600080fd5b603d6059565b6040516048919060b4565b60405180910390f35b6057606a565b005b60008054906101000a900460f01b81565b7f61620000000000000000000000000000000000000000000000000000000000006000806101000a81548161ffff021916908360f01c0217905550565b60ae8160cd565b82525050565b600060208201905060c7600083018460a7565b92915050565b60007fffff0000000000000000000000000000000000000000000000000000000000008216905091905056fea2646970667358221220b79e5381de482d3d62603487fe072fa58ceddfae4cae737897b2d6b68d72eab764736f6c63430008070033",
			"opcodes": "PUSH1 0x80 PUSH1 0x40 MSTORE CALLVALUE DUP1 ISZERO PUSH2 0x10 JUMPI PUSH1 0x0 DUP1 REVERT JUMPDEST POP PUSH2 0x12F DUP1 PUSH2 0x20 PUSH1 0x0 CODECOPY PUSH1 0x0 RETURN INVALID PUSH1 0x80 PUSH1 0x40 MSTORE CALLVALUE DUP1 ISZERO PUSH1 0xF JUMPI PUSH1 0x0 DUP1 REVERT JUMPDEST POP PUSH1 0x4 CALLDATASIZE LT PUSH1 0x32 JUMPI PUSH1 0x0 CALLDATALOAD PUSH1 0xE0 SHR DUP1 PUSH4 0xADD6EF2 EQ PUSH1 0x37 JUMPI DUP1 PUSH4 0x6D0D8547 EQ PUSH1 0x51 JUMPI JUMPDEST PUSH1 0x0 DUP1 REVERT JUMPDEST PUSH1 0x3D PUSH1 0x59 JUMP JUMPDEST PUSH1 0x40 MLOAD PUSH1 0x48 SWAP2 SWAP1 PUSH1 0xB4 JUMP JUMPDEST PUSH1 0x40 MLOAD DUP1 SWAP2 SUB SWAP1 RETURN JUMPDEST PUSH1 0x57 PUSH1 0x6A JUMP JUMPDEST STOP JUMPDEST PUSH1 0x0 DUP1 SLOAD SWAP1 PUSH2 0x100 EXP SWAP1 DIV PUSH1 0xF0 SHL DUP2 JUMP JUMPDEST PUSH32 0x6162000000000000000000000000000000000000000000000000000000000000 PUSH1 0x0 DUP1 PUSH2 0x100 EXP DUP2 SLOAD DUP2 PUSH2 0xFFFF MUL NOT AND SWAP1 DUP4 PUSH1 0xF0 SHR MUL OR SWAP1 SSTORE POP JUMP JUMPDEST PUSH1 0xAE DUP2 PUSH1 0xCD JUMP JUMPDEST DUP3 MSTORE POP POP JUMP JUMPDEST PUSH1 0x0 PUSH1 0x20 DUP3 ADD SWAP1 POP PUSH1 0xC7 PUSH1 0x0 DUP4 ADD DUP5 PUSH1 0xA7 JUMP JUMPDEST SWAP3 SWAP2 POP POP JUMP JUMPDEST PUSH1 0x0 PUSH32 0xFFFF000000000000000000000000000000000000000000000000000000000000 DUP3 AND SWAP1 POP SWAP2 SWAP1 POP JUMP INVALID LOG2 PUSH5 0x6970667358 0x22 SLT KECCAK256 0xB7 SWAP15 MSTORE8 DUP2 0xDE BASEFEE 0x2D RETURNDATASIZE PUSH3 0x603487 INVALID SMOD 0x2F 0xA5 DUP13 0xED 0xDF 0xAE 0x4C 0xAE PUSH20 0x7897B2D6B68D72EAB764736F6C63430008070033 "
		},
		"gasEstimates": {
			"creation": {
				"codeDepositCost": "60600",
				"executionCost": "111",
				"totalCost": "60711"
			},
			"external": {
				"b2()": "2446",
				"setterB2()": "24411"
			}
		},
		"methodIdentifiers": {
			"b2()": "0add6ef2",
			"setterB2()": "6d0d8547"
		}
	},
	"abi": [
		{
			"inputs": [],
			"name": "b2",
			"outputs": [
				{
					"internalType": "bytes2",
					"name": "",
					"type": "bytes2"
				}
			],
			"stateMutability": "view",
			"type": "function"
		},
		{
			"inputs": [],
			"name": "setterB2",
			"outputs": [],
			"stateMutability": "nonpayable",
			"type": "function"
		}
	]
}